{
  "abi": [
    {
      "inputs": [
        {
          "internalType": "address",
          "name": "tokenAddress",
          "type": "address"
        },
        {
          "internalType": "uint256",
          "name": "amount",
          "type": "uint256"
        }
      ],
      "stateMutability": "nonpayable",
      "type": "constructor"
    },
    {
      "anonymous": false,
      "inputs": [
        {
          "indexed": true,
          "internalType": "address",
          "name": "Receiver",
          "type": "address"
        },
        {
          "indexed": true,
          "internalType": "uint256",
          "name": "Amount",
          "type": "uint256"
        }
      ],
      "name": "UseFaucet",
      "type": "event"
    },
    {
      "inputs": [],
      "name": "requestTokens",
      "outputs": [],
      "stateMutability": "nonpayable",
      "type": "function"
    }
  ],
  "bytecode": {
    "object": "0x60c060405234801561001057600080fd5b506040516103dc3803806103dc83398101604081905261002f91610059565b6001600160a01b03821660805261004e81670de0b6b3a7640000610093565b60a052506100be9050565b6000806040838503121561006c57600080fd5b82516001600160a01b038116811461008357600080fd5b6020939093015192949293505050565b80820281158282048414176100b857634e487b7160e01b600052601160045260246000fd5b92915050565b60805160a0516102f26100ea6000396000818161011101526102270152600061013701526102f26000f3fe608060405234801561001057600080fd5b506004361061002b5760003560e01c8063359cf2b714610030575b600080fd5b61003861003a565b005b3361008c5760405162461bcd60e51b815260206004820152601e60248201527f43616e6e6f742073656e6420746f6b656e207a65726f2061646472657373000060448201526064015b60405180910390fd5b3360009081526020819052604090205442116100fc5760405162461bcd60e51b815260206004820152602960248201527f596f7572206e65787420726571756573742074696d65206973206e6f742072656044820152681858da1959081e595d60ba1b6064820152608401610083565b60405163a9059cbb60e01b81523360048201527f000000000000000000000000000000000000000000000000000000000000000060248201527f00000000000000000000000000000000000000000000000000000000000000006001600160a01b03169063a9059cbb906044016020604051808303816000875af1158015610188573d6000803e3d6000fd5b505050506040513d601f19601f820116820180604052508101906101ac919061026c565b6102045760405162461bcd60e51b815260206004820152602360248201527f72657175657374546f6b656e7328293a204661696c656420746f205472616e736044820152623332b960e91b6064820152608401610083565b61020f603c42610295565b336000818152602081905260408082209390935591517f0000000000000000000000000000000000000000000000000000000000000000927f39a77ef19bbcc349a4a8e07bfd5a361f4202d67de57821fcfdd51f5ec0f10a1f91a3565b60006020828403121561027e57600080fd5b8151801515811461028e57600080fd5b9392505050565b808201808211156102b657634e487b7160e01b600052601160045260246000fd5b9291505056fea264697066735822122067f77ff569d86130612f7b217898318c20c195c6b1c34258e27ea0cf8c320b9664736f6c63430008170033",
    "linkReferences": {}
  },
  "methodIdentifiers": {
    "requestTokens()": "359cf2b7"
  },
  "id": 0
}