{"abi":[{"type":"constructor","inputs":[{"name":"tokenAddress","type":"address","internalType":"address"},{"name":"amount","type":"uint256","internalType":"uint256"}],"stateMutability":"nonpayable"},{"type":"function","name":"getNextBuyTime","inputs":[],"outputs":[{"name":"","type":"uint256","internalType":"uint256"}],"stateMutability":"view"},{"type":"function","name":"requestTokens","inputs":[],"outputs":[],"stateMutability":"nonpayable"},{"type":"function","name":"userNextBuyTime","inputs":[{"name":"","type":"address","internalType":"address"}],"outputs":[{"name":"","type":"uint256","internalType":"uint256"}],"stateMutability":"view"},{"type":"event","name":"UseFaucet","inputs":[{"name":"Receiver","type":"address","indexed":true,"internalType":"address"},{"name":"Amount","type":"uint256","indexed":true,"internalType":"uint256"}],"anonymous":false}],"bytecode":{"object":"0x60c060405234801561001057600080fd5b5060405161045e38038061045e83398101604081905261002f91610059565b6001600160a01b03821660805261004e81670de0b6b3a7640000610093565b60a052506100be9050565b6000806040838503121561006c57600080fd5b82516001600160a01b038116811461008357600080fd5b6020939093015192949293505050565b80820281158282048414176100b857634e487b7160e01b600052601160045260246000fd5b92915050565b60805160a0516103746100ea6000396000818161016a01526102800152600061019001526103746000f3fe608060405234801561001057600080fd5b50600436106100415760003560e01c8063359cf2b7146100465780635f496ff214610050578063b33221f014610073575b600080fd5b61004e610093565b005b336000908152602081905260409020545b60405190815260200160405180910390f35b6100616100813660046102c5565b60006020819052908152604090205481565b336100e55760405162461bcd60e51b815260206004820152601e60248201527f43616e6e6f742073656e6420746f6b656e207a65726f2061646472657373000060448201526064015b60405180910390fd5b3360009081526020819052604090205442116101555760405162461bcd60e51b815260206004820152602960248201527f596f7572206e65787420726571756573742074696d65206973206e6f742072656044820152681858da1959081e595d60ba1b60648201526084016100dc565b60405163a9059cbb60e01b81523360048201527f000000000000000000000000000000000000000000000000000000000000000060248201527f00000000000000000000000000000000000000000000000000000000000000006001600160a01b03169063a9059cbb906044016020604051808303816000875af11580156101e1573d6000803e3d6000fd5b505050506040513d601f19601f8201168201806040525081019061020591906102f5565b61025d5760405162461bcd60e51b815260206004820152602360248201527f72657175657374546f6b656e7328293a204661696c656420746f205472616e736044820152623332b960e91b60648201526084016100dc565b610268603c42610317565b336000818152602081905260408082209390935591517f0000000000000000000000000000000000000000000000000000000000000000927f39a77ef19bbcc349a4a8e07bfd5a361f4202d67de57821fcfdd51f5ec0f10a1f91a3565b6000602082840312156102d757600080fd5b81356001600160a01b03811681146102ee57600080fd5b9392505050565b60006020828403121561030757600080fd5b815180151581146102ee57600080fd5b8082018082111561033857634e487b7160e01b600052601160045260246000fd5b9291505056fea2646970667358221220e3453e00a48b795a48f0690c2eac45a68764e687a32b81ba11bb426228e5072d64736f6c63430008170033","linkReferences":{}},"methodIdentifiers":{"getNextBuyTime()":"5f496ff2","requestTokens()":"359cf2b7","userNextBuyTime(address)":"b33221f0"},"id":0}