{
  "abi": [
    {
      "inputs": [
        {
          "internalType": "address",
          "name": "initialOwner",
          "type": "address"
        }
      ],
      "stateMutability": "nonpayable",
      "type": "constructor"
    },
    {
      "inputs": [
        {
          "internalType": "address",
          "name": "sender",
          "type": "address"
        },
        {
          "internalType": "uint256",
          "name": "balance",
          "type": "uint256"
        },
        {
          "internalType": "uint256",
          "name": "needed",
          "type": "uint256"
        },
        {
          "internalType": "uint256",
          "name": "tokenId",
          "type": "uint256"
        }
      ],
      "name": "ERC1155InsufficientBalance",
      "type": "error"
    },
    {
      "inputs": [
        {
          "internalType": "address",
          "name": "approver",
          "type": "address"
        }
      ],
      "name": "ERC1155InvalidApprover",
      "type": "error"
    },
    {
      "inputs": [
        {
          "internalType": "uint256",
          "name": "idsLength",
          "type": "uint256"
        },
        {
          "internalType": "uint256",
          "name": "valuesLength",
          "type": "uint256"
        }
      ],
      "name": "ERC1155InvalidArrayLength",
      "type": "error"
    },
    {
      "inputs": [
        {
          "internalType": "address",
          "name": "operator",
          "type": "address"
        }
      ],
      "name": "ERC1155InvalidOperator",
      "type": "error"
    },
    {
      "inputs": [
        {
          "internalType": "address",
          "name": "receiver",
          "type": "address"
        }
      ],
      "name": "ERC1155InvalidReceiver",
      "type": "error"
    },
    {
      "inputs": [
        {
          "internalType": "address",
          "name": "sender",
          "type": "address"
        }
      ],
      "name": "ERC1155InvalidSender",
      "type": "error"
    },
    {
      "inputs": [
        {
          "internalType": "address",
          "name": "operator",
          "type": "address"
        },
        {
          "internalType": "address",
          "name": "owner",
          "type": "address"
        }
      ],
      "name": "ERC1155MissingApprovalForAll",
      "type": "error"
    },
    {
      "inputs": [
        {
          "internalType": "address",
          "name": "owner",
          "type": "address"
        }
      ],
      "name": "OwnableInvalidOwner",
      "type": "error"
    },
    {
      "inputs": [
        {
          "internalType": "address",
          "name": "account",
          "type": "address"
        }
      ],
      "name": "OwnableUnauthorizedAccount",
      "type": "error"
    },
    {
      "anonymous": false,
      "inputs": [
        {
          "indexed": true,
          "internalType": "address",
          "name": "account",
          "type": "address"
        },
        {
          "indexed": true,
          "internalType": "address",
          "name": "operator",
          "type": "address"
        },
        {
          "indexed": false,
          "internalType": "bool",
          "name": "approved",
          "type": "bool"
        }
      ],
      "name": "ApprovalForAll",
      "type": "event"
    },
    {
      "anonymous": false,
      "inputs": [
        {
          "indexed": true,
          "internalType": "address",
          "name": "user",
          "type": "address"
        },
        {
          "indexed": false,
          "internalType": "uint256",
          "name": "tokenId",
          "type": "uint256"
        },
        {
          "indexed": false,
          "internalType": "bool",
          "name": "success",
          "type": "bool"
        }
      ],
      "name": "Exploration",
      "type": "event"
    },
    {
      "anonymous": false,
      "inputs": [
        {
          "indexed": true,
          "internalType": "address",
          "name": "previousOwner",
          "type": "address"
        },
        {
          "indexed": true,
          "internalType": "address",
          "name": "newOwner",
          "type": "address"
        }
      ],
      "name": "OwnershipTransferred",
      "type": "event"
    },
    {
      "anonymous": false,
      "inputs": [
        {
          "indexed": true,
          "internalType": "address",
          "name": "user",
          "type": "address"
        },
        {
          "indexed": false,
          "internalType": "uint256[]",
          "name": "cardIds",
          "type": "uint256[]"
        },
        {
          "indexed": false,
          "internalType": "uint256[]",
          "name": "amounts",
          "type": "uint256[]"
        }
      ],
      "name": "PackOpened",
      "type": "event"
    },
    {
      "anonymous": false,
      "inputs": [
        {
          "indexed": true,
          "internalType": "address",
          "name": "user",
          "type": "address"
        },
        {
          "indexed": false,
          "internalType": "uint256",
          "name": "totalPower",
          "type": "uint256"
        },
        {
          "indexed": false,
          "internalType": "uint256[5]",
          "name": "cardIds",
          "type": "uint256[5]"
        }
      ],
      "name": "TeamCreated",
      "type": "event"
    },
    {
      "anonymous": false,
      "inputs": [
        {
          "indexed": true,
          "internalType": "address",
          "name": "operator",
          "type": "address"
        },
        {
          "indexed": true,
          "internalType": "address",
          "name": "from",
          "type": "address"
        },
        {
          "indexed": true,
          "internalType": "address",
          "name": "to",
          "type": "address"
        },
        {
          "indexed": false,
          "internalType": "uint256[]",
          "name": "ids",
          "type": "uint256[]"
        },
        {
          "indexed": false,
          "internalType": "uint256[]",
          "name": "values",
          "type": "uint256[]"
        }
      ],
      "name": "TransferBatch",
      "type": "event"
    },
    {
      "anonymous": false,
      "inputs": [
        {
          "indexed": true,
          "internalType": "address",
          "name": "operator",
          "type": "address"
        },
        {
          "indexed": true,
          "internalType": "address",
          "name": "from",
          "type": "address"
        },
        {
          "indexed": true,
          "internalType": "address",
          "name": "to",
          "type": "address"
        },
        {
          "indexed": false,
          "internalType": "uint256",
          "name": "id",
          "type": "uint256"
        },
        {
          "indexed": false,
          "internalType": "uint256",
          "name": "value",
          "type": "uint256"
        }
      ],
      "name": "TransferSingle",
      "type": "event"
    },
    {
      "anonymous": false,
      "inputs": [
        {
          "indexed": false,
          "internalType": "string",
          "name": "value",
          "type": "string"
        },
        {
          "indexed": true,
          "internalType": "uint256",
          "name": "id",
          "type": "uint256"
        }
      ],
      "name": "URI",
      "type": "event"
    },
    {
      "inputs": [],
      "name": "NAME",
      "outputs": [
        {
          "internalType": "string",
          "name": "",
          "type": "string"
        }
      ],
      "stateMutability": "view",
      "type": "function"
    },
    {
      "inputs": [],
      "name": "VERSION",
      "outputs": [
        {
          "internalType": "string",
          "name": "",
          "type": "string"
        }
      ],
      "stateMutability": "view",
      "type": "function"
    },
    {
      "inputs": [],
      "name": "_token",
      "outputs": [
        {
          "internalType": "contract IERC20",
          "name": "",
          "type": "address"
        }
      ],
      "stateMutability": "view",
      "type": "function"
    },
    {
      "inputs": [
        {
          "internalType": "address",
          "name": "account",
          "type": "address"
        },
        {
          "internalType": "uint256",
          "name": "id",
          "type": "uint256"
        }
      ],
      "name": "balanceOf",
      "outputs": [
        {
          "internalType": "uint256",
          "name": "",
          "type": "uint256"
        }
      ],
      "stateMutability": "view",
      "type": "function"
    },
    {
      "inputs": [
        {
          "internalType": "address[]",
          "name": "accounts",
          "type": "address[]"
        },
        {
          "internalType": "uint256[]",
          "name": "ids",
          "type": "uint256[]"
        }
      ],
      "name": "balanceOfBatch",
      "outputs": [
        {
          "internalType": "uint256[]",
          "name": "",
          "type": "uint256[]"
        }
      ],
      "stateMutability": "view",
      "type": "function"
    },
    {
      "inputs": [
        {
          "internalType": "address",
          "name": "account",
          "type": "address"
        },
        {
          "internalType": "uint256",
          "name": "id",
          "type": "uint256"
        },
        {
          "internalType": "uint256",
          "name": "value",
          "type": "uint256"
        }
      ],
      "name": "burn",
      "outputs": [],
      "stateMutability": "nonpayable",
      "type": "function"
    },
    {
      "inputs": [
        {
          "internalType": "address",
          "name": "account",
          "type": "address"
        },
        {
          "internalType": "uint256[]",
          "name": "ids",
          "type": "uint256[]"
        },
        {
          "internalType": "uint256[]",
          "name": "values",
          "type": "uint256[]"
        }
      ],
      "name": "burnBatch",
      "outputs": [],
      "stateMutability": "nonpayable",
      "type": "function"
    },
    {
      "inputs": [
        {
          "internalType": "uint256",
          "name": "",
          "type": "uint256"
        }
      ],
      "name": "cards",
      "outputs": [
        {
          "internalType": "uint256",
          "name": "id",
          "type": "uint256"
        },
        {
          "internalType": "uint256",
          "name": "power",
          "type": "uint256"
        },
        {
          "internalType": "uint256",
          "name": "attributes",
          "type": "uint256"
        }
      ],
      "stateMutability": "view",
      "type": "function"
    },
    {
      "inputs": [
        {
          "internalType": "uint256[5]",
          "name": "cardIds",
          "type": "uint256[5]"
        }
      ],
      "name": "createTeam",
      "outputs": [],
      "stateMutability": "nonpayable",
      "type": "function"
    },
    {
      "inputs": [],
      "name": "explorationCooldown",
      "outputs": [
        {
          "internalType": "uint256",
          "name": "",
          "type": "uint256"
        }
      ],
      "stateMutability": "view",
      "type": "function"
    },
    {
      "inputs": [
        {
          "internalType": "uint256",
          "name": "tokenId",
          "type": "uint256"
        }
      ],
      "name": "explore",
      "outputs": [],
      "stateMutability": "nonpayable",
      "type": "function"
    },
    {
      "inputs": [
        {
          "internalType": "address",
          "name": "user",
          "type": "address"
        }
      ],
      "name": "getExplorationCooldown",
      "outputs": [
        {
          "internalType": "uint256",
          "name": "",
          "type": "uint256"
        }
      ],
      "stateMutability": "view",
      "type": "function"
    },
    {
      "inputs": [
        {
          "internalType": "address",
          "name": "user",
          "type": "address"
        }
      ],
      "name": "getFreePackCooldown",
      "outputs": [
        {
          "internalType": "uint256",
          "name": "",
          "type": "uint256"
        }
      ],
      "stateMutability": "view",
      "type": "function"
    },
    {
      "inputs": [
        {
          "internalType": "address",
          "name": "user",
          "type": "address"
        }
      ],
      "name": "getTeamCards",
      "outputs": [
        {
          "internalType": "uint256[5]",
          "name": "",
          "type": "uint256[5]"
        }
      ],
      "stateMutability": "view",
      "type": "function"
    },
    {
      "inputs": [
        {
          "internalType": "address",
          "name": "user",
          "type": "address"
        }
      ],
      "name": "getTeamPower",
      "outputs": [
        {
          "internalType": "uint256",
          "name": "",
          "type": "uint256"
        }
      ],
      "stateMutability": "view",
      "type": "function"
    },
    {
      "inputs": [
        {
          "internalType": "address",
          "name": "account",
          "type": "address"
        },
        {
          "internalType": "address",
          "name": "operator",
          "type": "address"
        }
      ],
      "name": "isApprovedForAll",
      "outputs": [
        {
          "internalType": "bool",
          "name": "",
          "type": "bool"
        }
      ],
      "stateMutability": "view",
      "type": "function"
    },
    {
      "inputs": [
        {
          "internalType": "address",
          "name": "",
          "type": "address"
        }
      ],
      "name": "lastExplorationTime",
      "outputs": [
        {
          "internalType": "uint256",
          "name": "",
          "type": "uint256"
        }
      ],
      "stateMutability": "view",
      "type": "function"
    },
    {
      "inputs": [
        {
          "internalType": "address",
          "name": "",
          "type": "address"
        }
      ],
      "name": "lastOpenedFreePack",
      "outputs": [
        {
          "internalType": "uint256",
          "name": "",
          "type": "uint256"
        }
      ],
      "stateMutability": "view",
      "type": "function"
    },
    {
      "inputs": [
        {
          "internalType": "address",
          "name": "account",
          "type": "address"
        },
        {
          "internalType": "uint256",
          "name": "id",
          "type": "uint256"
        },
        {
          "internalType": "uint256",
          "name": "amount",
          "type": "uint256"
        },
        {
          "internalType": "bytes",
          "name": "data",
          "type": "bytes"
        }
      ],
      "name": "mint",
      "outputs": [],
      "stateMutability": "nonpayable",
      "type": "function"
    },
    {
      "inputs": [
        {
          "internalType": "address",
          "name": "to",
          "type": "address"
        },
        {
          "internalType": "uint256[]",
          "name": "ids",
          "type": "uint256[]"
        },
        {
          "internalType": "uint256[]",
          "name": "amounts",
          "type": "uint256[]"
        },
        {
          "internalType": "bytes",
          "name": "data",
          "type": "bytes"
        }
      ],
      "name": "mintBatch",
      "outputs": [],
      "stateMutability": "nonpayable",
      "type": "function"
    },
    {
      "inputs": [],
      "name": "name",
      "outputs": [
        {
          "internalType": "string",
          "name": "",
          "type": "string"
        }
      ],
      "stateMutability": "pure",
      "type": "function"
    },
    {
      "inputs": [],
      "name": "openBuyPackMatic",
      "outputs": [],
      "stateMutability": "payable",
      "type": "function"
    },
    {
      "inputs": [
        {
          "internalType": "uint256",
          "name": "_amount",
          "type": "uint256"
        }
      ],
      "name": "openBuyPackToken",
      "outputs": [],
      "stateMutability": "nonpayable",
      "type": "function"
    },
    {
      "inputs": [],
      "name": "openFreePack",
      "outputs": [],
      "stateMutability": "nonpayable",
      "type": "function"
    },
    {
      "inputs": [],
      "name": "owner",
      "outputs": [
        {
          "internalType": "address",
          "name": "",
          "type": "address"
        }
      ],
      "stateMutability": "view",
      "type": "function"
    },
    {
      "inputs": [],
      "name": "packPriceMatic",
      "outputs": [
        {
          "internalType": "uint256",
          "name": "",
          "type": "uint256"
        }
      ],
      "stateMutability": "view",
      "type": "function"
    },
    {
      "inputs": [],
      "name": "packPriceToken",
      "outputs": [
        {
          "internalType": "uint256",
          "name": "",
          "type": "uint256"
        }
      ],
      "stateMutability": "view",
      "type": "function"
    },
    {
      "inputs": [],
      "name": "renounceOwnership",
      "outputs": [],
      "stateMutability": "nonpayable",
      "type": "function"
    },
    {
      "inputs": [
        {
          "internalType": "address",
          "name": "from",
          "type": "address"
        },
        {
          "internalType": "address",
          "name": "to",
          "type": "address"
        },
        {
          "internalType": "uint256[]",
          "name": "ids",
          "type": "uint256[]"
        },
        {
          "internalType": "uint256[]",
          "name": "values",
          "type": "uint256[]"
        },
        {
          "internalType": "bytes",
          "name": "data",
          "type": "bytes"
        }
      ],
      "name": "safeBatchTransferFrom",
      "outputs": [],
      "stateMutability": "nonpayable",
      "type": "function"
    },
    {
      "inputs": [
        {
          "internalType": "address",
          "name": "from",
          "type": "address"
        },
        {
          "internalType": "address",
          "name": "to",
          "type": "address"
        },
        {
          "internalType": "uint256",
          "name": "id",
          "type": "uint256"
        },
        {
          "internalType": "uint256",
          "name": "value",
          "type": "uint256"
        },
        {
          "internalType": "bytes",
          "name": "data",
          "type": "bytes"
        }
      ],
      "name": "safeTransferFrom",
      "outputs": [],
      "stateMutability": "nonpayable",
      "type": "function"
    },
    {
      "inputs": [
        {
          "internalType": "address",
          "name": "operator",
          "type": "address"
        },
        {
          "internalType": "bool",
          "name": "approved",
          "type": "bool"
        }
      ],
      "name": "setApprovalForAll",
      "outputs": [],
      "stateMutability": "nonpayable",
      "type": "function"
    },
    {
      "inputs": [
        {
          "internalType": "string",
          "name": "newuri",
          "type": "string"
        }
      ],
      "name": "setURI",
      "outputs": [],
      "stateMutability": "nonpayable",
      "type": "function"
    },
    {
      "inputs": [
        {
          "internalType": "bytes4",
          "name": "interfaceId",
          "type": "bytes4"
        }
      ],
      "name": "supportsInterface",
      "outputs": [
        {
          "internalType": "bool",
          "name": "",
          "type": "bool"
        }
      ],
      "stateMutability": "view",
      "type": "function"
    },
    {
      "inputs": [
        {
          "internalType": "address",
          "name": "",
          "type": "address"
        }
      ],
      "name": "teams",
      "outputs": [
        {
          "internalType": "uint256",
          "name": "totalPower",
          "type": "uint256"
        }
      ],
      "stateMutability": "view",
      "type": "function"
    },
    {
      "inputs": [],
      "name": "token",
      "outputs": [
        {
          "internalType": "address",
          "name": "tokenAddress",
          "type": "address"
        }
      ],
      "stateMutability": "view",
      "type": "function"
    },
    {
      "inputs": [
        {
          "internalType": "address",
          "name": "newOwner",
          "type": "address"
        }
      ],
      "name": "transferOwnership",
      "outputs": [],
      "stateMutability": "nonpayable",
      "type": "function"
    },
    {
      "inputs": [
        {
          "internalType": "uint256",
          "name": "",
          "type": "uint256"
        }
      ],
      "name": "uri",
      "outputs": [
        {
          "internalType": "string",
          "name": "",
          "type": "string"
        }
      ],
      "stateMutability": "view",
      "type": "function"
    },
    {
      "inputs": [],
      "name": "version",
      "outputs": [
        {
          "internalType": "string",
          "name": "",
          "type": "string"
        }
      ],
      "stateMutability": "pure",
      "type": "function"
    }
  ],
  "bytecode": {
    "object": "0x6080604052674563918244f400006004556103e86005553480156200002357600080fd5b50604051620040b9380380620040b983398101604081905262000046916200157f565b60408051602081019091526000815281906200006281620000b0565b506001600160a01b0381166200009357604051631e4fbdf760e01b8152600060048201526024015b60405180910390fd5b6200009e81620000c2565b50620000a962000114565b5062001724565b6002620000be828262001658565b5050565b600380546001600160a01b038381166001600160a01b0319831681179093556040519116919082907f8be0079c531659141344cd1fd0a4f28419497f9722a3daafe3b4186f6b6457e090600090a35050565b6200011e6200154e565b604051806060016040528060008152602001600a8152602001600481525060076000808152602001908152602001600020600082015181600001556020820151816001015560408201518160020155905050604051806060016040528060018152602001600b815260200160038152506007600060018152602001908152602001600020600082015181600001556020820151816001015560408201518160020155905050604051806060016040528060028152602001600b815260200160028152506007600060028152602001908152602001600020600082015181600001556020820151816001015560408201518160020155905050604051806060016040528060038152602001600d815260200160048152506007600060038152602001908152602001600020600082015181600001556020820151816001015560408201518160020155905050604051806060016040528060048152602001600f815260200160018152506007600060048152602001908152602001600020600082015181600001556020820151816001015560408201518160020155905050604051806060016040528060058152602001601081526020016001815250600760006005815260200190815260200160002060008201518160000155602082015181600101556040820151816002015590505060405180606001604052806006815260200160108152602001600581525060076000600681526020019081526020016000206000820151816000015560208201518160010155604082015181600201559050506040518060600160405280600781526020016012815260200160058152506007600060078152602001908152602001600020600082015181600001556020820151816001015560408201518160020155905050604051806060016040528060088152602001601481526020016002815250600760006008815260200190815260200160002060008201518160000155602082015181600101556040820151816002015590505060405180606001604052806009815260200160148152602001600381525060076000600981526020019081526020016000206000820151816000015560208201518160010155604082015181600201559050506040518060600160405280600a815260200160198152602001600481525060076000600a81526020019081526020016000206000820151816000015560208201518160010155604082015181600201559050506040518060600160405280600b815260200160198152602001600281525060076000600b81526020019081526020016000206000820151816000015560208201518160010155604082015181600201559050506040518060600160405280600c8152602001601b8152602001600181525060076000600c81526020019081526020016000206000820151816000015560208201518160010155604082015181600201559050506040518060600160405280600d8152602001601b8152602001600181525060076000600d81526020019081526020016000206000820151816000015560208201518160010155604082015181600201559050506040518060600160405280600e8152602001601c8152602001600381525060076000600e81526020019081526020016000206000820151816000015560208201518160010155604082015181600201559050506040518060600160405280600f8152602001601d8152602001600581525060076000600f8152602001908152602001600020600082015181600001556020820151816001015560408201518160020155905050604051806060016040528060108152602001601e8152602001600481525060076000601081526020019081526020016000206000820151816000015560208201518160010155604082015181600201559050506040518060600160405280601181526020016020815260200160028152506007600060118152602001908152602001600020600082015181600001556020820151816001015560408201518160020155905050604051806060016040528060128152602001602281526020016005815250600760006012815260200190815260200160002060008201518160000155602082015181600101556040820151816002015590505060405180606001604052806013815260200160238152602001600381525060076000601381526020019081526020016000206000820151816000015560208201518160010155604082015181600201559050506040518060600160405280601481526020016028815260200160018152506007600060148152602001908152602001600020600082015181600001556020820151816001015560408201518160020155905050604051806060016040528060158152602001602a815260200160038152506007600060158152602001908152602001600020600082015181600001556020820151816001015560408201518160020155905050604051806060016040528060168152602001602a815260200160048152506007600060168152602001908152602001600020600082015181600001556020820151816001015560408201518160020155905050604051806060016040528060178152602001602b815260200160028152506007600060178152602001908152602001600020600082015181600001556020820151816001015560408201518160020155905050604051806060016040528060188152602001602b815260200160048152506007600060188152602001908152602001600020600082015181600001556020820151816001015560408201518160020155905050604051806060016040528060198152602001602d8152602001600181525060076000601981526020019081526020016000206000820151816000015560208201518160010155604082015181600201559050506040518060600160405280601a8152602001602f8152602001600281525060076000601a81526020019081526020016000206000820151816000015560208201518160010155604082015181600201559050506040518060600160405280601b8152602001602f8152602001600581525060076000601b81526020019081526020016000206000820151816000015560208201518160010155604082015181600201559050506040518060600160405280601c815260200160308152602001600381525060076000601c81526020019081526020016000206000820151816000015560208201518160010155604082015181600201559050506040518060600160405280601d815260200160328152602001600581525060076000601d81526020019081526020016000206000820151816000015560208201518160010155604082015181600201559050506040518060600160405280601e8152602001603c8152602001600481525060076000601e81526020019081526020016000206000820151816000015560208201518160010155604082015181600201559050506040518060600160405280601f8152602001603e8152602001600381525060076000601f81526020019081526020016000206000820151816000015560208201516001808301919091556040928301516002928301558251606080820185526020808352603e81840190815260048488018181526000848152600780865296517f977c7c98651e0e2a752fb735f769df5240153cd477a3baa861921344a2ddde905592517f977c7c98651e0e2a752fb735f769df5240153cd477a3baa861921344a2ddde9155517f977c7c98651e0e2a752fb735f769df5240153cd477a3baa861921344a2ddde9255875180850189526021808252603f8286019081526003838c0181815292865288875292517fedddd91313f7c989bdc231bc624ea9908f2340b23ff878dfbd27a2cf1c3ec99f55517fedddd91313f7c989bdc231bc624ea9908f2340b23ff878dfbd27a2cf1c3ec9a055517fedddd91313f7c989bdc231bc624ea9908f2340b23ff878dfbd27a2cf1c3ec9a15588518086018a5260228082528186018b8152828c018a815291865288875291517f8ae59643d21cc5b685464383c8217a4e7f574ef463cc32244f10eaf1145fdc075590517f8ae59643d21cc5b685464383c8217a4e7f574ef463cc32244f10eaf1145fdc0855517f8ae59643d21cc5b685464383c8217a4e7f574ef463cc32244f10eaf1145fdc095588518086018a5260238082526042828701818152838d018b815292875289885292517fe59c24461a0fb1a13e4f19756f944b3655e4523c2fe4b0ad1e7bb8969921a37b5591517fe59c24461a0fb1a13e4f19756f944b3655e4523c2fe4b0ad1e7bb8969921a37c55517fe59c24461a0fb1a13e4f19756f944b3655e4523c2fe4b0ad1e7bb8969921a37d5589518087018b5260248082528187019283526005828d0181815291875289885291517ffce7dc5bb3cbbc540cf9457d032a1a1aae0059624b6dd6eecb9d2c06cd32c09c5591517ffce7dc5bb3cbbc540cf9457d032a1a1aae0059624b6dd6eecb9d2c06cd32c09d5590517ffce7dc5bb3cbbc540cf9457d032a1a1aae0059624b6dd6eecb9d2c06cd32c09e5589518087018b5260258082526044828801908152828d018c815291875289885291517fc7478704eb468bb68beafddaec378319f804ef3f01f1e6e41b277bd6f15398395590517fc7478704eb468bb68beafddaec378319f804ef3f01f1e6e41b277bd6f153983a55517fc7478704eb468bb68beafddaec378319f804ef3f01f1e6e41b277bd6f153983b5589518087018b5260268082526045828801908152828d0184815291875289885291517fa0180b01d5c6c892f34e348721f16e168c551e0a5dac26b1bd68253fcef49b1f5590517fa0180b01d5c6c892f34e348721f16e168c551e0a5dac26b1bd68253fcef49b2055517fa0180b01d5c6c892f34e348721f16e168c551e0a5dac26b1bd68253fcef49b215589518087018b5260278082526046828801908152828d018c815291875289885291517fa42755a2e6766ad8a3c8e0dc6925c5b384a166afae805bfb4a3c3233012e53455590517fa42755a2e6766ad8a3c8e0dc6925c5b384a166afae805bfb4a3c3233012e534655517fa42755a2e6766ad8a3c8e0dc6925c5b384a166afae805bfb4a3c3233012e53475589518087018b5260288082526055828801908152828d0184815291875289885291517f07979f83feb91e6e71e734e272c56671bf06f2c8bf8067684cbe31f663fccc525590517f07979f83feb91e6e71e734e272c56671bf06f2c8bf8067684cbe31f663fccc5355517f07979f83feb91e6e71e734e272c56671bf06f2c8bf8067684cbe31f663fccc545589518087018b5260298082526056828801908152828d018c815291875289885291517f61042a91e6bf866457bba3c0e1666b25163b3849470db2bebc37920294f5c1895590517f61042a91e6bf866457bba3c0e1666b25163b3849470db2bebc37920294f5c18a55517f61042a91e6bf866457bba3c0e1666b25163b3849470db2bebc37920294f5c18b5589518087018b52602a8082526057828801908152828d0193845290865288875290517fc4250a0f26818bb2f4c50553605e6aa5374a022de55e294b0c5f6716bcaddbf855517fc4250a0f26818bb2f4c50553605e6aa5374a022de55e294b0c5f6716bcaddbf955517fc4250a0f26818bb2f4c50553605e6aa5374a022de55e294b0c5f6716bcaddbfa5588518086018a52602b8082526059828701908152828c018a815291865288875291517feec123b2fdbe86f4f5bc78302d7f5a15762e0c954439f75677c94278d2bcf8fd5590517feec123b2fdbe86f4f5bc78302d7f5a15762e0c954439f75677c94278d2bcf8fe55517feec123b2fdbe86f4f5bc78302d7f5a15762e0c954439f75677c94278d2bcf8ff5588518086018a52602c808252605a828701908152828c0185815291865288875291517fd9ba031fdb7d71bd061083980d5807d26bb2fade193f918e92821956bfdda35a5590517fd9ba031fdb7d71bd061083980d5807d26bb2fade193f918e92821956bfdda35b55517fd9ba031fdb7d71bd061083980d5807d26bb2fade193f918e92821956bfdda35c5588518086018a52602d808252605c828701908152828c01998a5290855287865290517ff61dffaafadc06c51bab3d00b0e2d57a6471368c7ae68dc2c923be5b2842e92055517ff61dffaafadc06c51bab3d00b0e2d57a6471368c7ae68dc2c923be5b2842e9215595517ff61dffaafadc06c51bab3d00b0e2d57a6471368c7ae68dc2c923be5b2842e9225587518085018952602e808252605d828601908152828b01998a5290845286855290517fa9a18f421c88b5456819057fb70bd58beec0e03163991994ad8d80ed30deeaf355517fa9a18f421c88b5456819057fb70bd58beec0e03163991994ad8d80ed30deeaf45595517fa9a18f421c88b5456819057fb70bd58beec0e03163991994ad8d80ed30deeaf55586518084018852602f808252605f828501908152828a0188815291845286855291517f6ad70a4b2f0ce5a5b5e387d4bc4ae7958c0f01a0b5fba90a2c0b1a9391f068c85590517f6ad70a4b2f0ce5a5b5e387d4bc4ae7958c0f01a0b5fba90a2c0b1a9391f068c955517f6ad70a4b2f0ce5a5b5e387d4bc4ae7958c0f01a0b5fba90a2c0b1a9391f068ca558651808401885260308082526061828501908152828a0198895290835285845290517f1d90d70aa2b160f0d0cfe0186ccfd5809afb328c84784403875176cf0cca882b55517f1d90d70aa2b160f0d0cfe0186ccfd5809afb328c84784403875176cf0cca882c5594517f1d90d70aa2b160f0d0cfe0186ccfd5809afb328c84784403875176cf0cca882d558551918201865260318083526064838301908152968301948552909452925290517f43bb8b1d7c00529ae093964f1262bb23db3724587febebf63bb573ff574a23d95590517f43bb8b1d7c00529ae093964f1262bb23db3724587febebf63bb573ff574a23da55517f43bb8b1d7c00529ae093964f1262bb23db3724587febebf63bb573ff574a23db55565b6003546001600160a01b031633146200157d5760405163118cdaa760e01b81523360048201526024016200008a565b565b6000602082840312156200159257600080fd5b81516001600160a01b0381168114620015aa57600080fd5b9392505050565b634e487b7160e01b600052604160045260246000fd5b600181811c90821680620015dc57607f821691505b602082108103620015fd57634e487b7160e01b600052602260045260246000fd5b50919050565b601f82111562001653576000816000526020600020601f850160051c810160208610156200162e5750805b601f850160051c820191505b818110156200164f578281556001016200163a565b5050505b505050565b81516001600160401b03811115620016745762001674620015b1565b6200168c81620016858454620015c7565b8462001603565b602080601f831160018114620016c45760008415620016ab5750858301515b600019600386901b1c1916600185901b1785556200164f565b600085815260208120601f198616915b82811015620016f557888601518255948401946001909101908401620016d4565b5085821015620017145787850151600019600388901b60f8161c191681555b5050505050600190811b01905550565b61298580620017346000396000f3fe6080604052600436106102245760003560e01c80636b20c45411610123578063c4583240116100ab578063f2fde38b1161006f578063f2fde38b146106f6578063f473085d14610716578063f5298aca14610736578063fc0c546a14610756578063ffa1ad741461077457600080fd5b8063c458324014610653578063d6d902bb14610680578063e985e9c514610696578063ecd0c0c3146106b6578063f242432a146106d657600080fd5b80638dc10768116100f25780638dc107681461056c578063923c1a06146105c3578063a22cb465146105e3578063a3f4df7e14610603578063ac8c733d1461063e57600080fd5b80636b20c454146104e5578063715018a614610505578063731133e91461051a5780638da5cb5b1461053a57600080fd5b80632eb2c2d6116101b1578063500ccabf11610175578063500ccabf14610435578063530c9f2d1461046257806354fd4d501461046a5780635f049d5b146104985780636457e389146104c557600080fd5b80632eb2c2d61461038557806330a034d6146103a55780633b584960146103c55780633bf3812b146103db5780634e1273f41461040857600080fd5b80630e89341c116101f85780630e89341c146102ef5780631312b24e1461030f5780631b84f1a81461032f5780631f7fdffa146103455780632535e0dd1461036557600080fd5b8062fdd58e1461022957806301ffc9a71461025c57806302fe53051461028c57806306fdde03146102ae575b600080fd5b34801561023557600080fd5b50610249610244366004611f22565b6107a5565b6040519081526020015b60405180910390f35b34801561026857600080fd5b5061027c610277366004611f62565b6107cd565b6040519015158152602001610253565b34801561029857600080fd5b506102ac6102a7366004612025565b61081d565b005b3480156102ba57600080fd5b5060408051808201909152600f81526e53756d6d6f6e657273204172656e6160881b60208201525b60405161025391906120b4565b3480156102fb57600080fd5b506102e261030a3660046120c7565b610831565b34801561031b57600080fd5b5061024961032a3660046120e0565b6108c5565b34801561033b57600080fd5b5061024960045481565b34801561035157600080fd5b506102ac6103603660046121ae565b610911565b34801561037157600080fd5b506102496103803660046120e0565b61092b565b34801561039157600080fd5b506102ac6103a0366004612247565b610951565b3480156103b157600080fd5b506102ac6103c03660046120c7565b6109bd565b3480156103d157600080fd5b5061024961384081565b3480156103e757600080fd5b506102496103f63660046120e0565b600a6020526000908152604090205481565b34801561041457600080fd5b506104286104233660046122f1565b610b2c565b60405161025391906123ed565b34801561044157600080fd5b506102496104503660046120e0565b60096020526000908152604090205481565b6102ac610bf9565b34801561047657600080fd5b50604080518082019091526005815264302e302e3160d81b60208201526102e2565b3480156104a457600080fd5b506104b86104b33660046120e0565b610c95565b6040516102539190612400565b3480156104d157600080fd5b506102ac6104e03660046120c7565b610d08565b3480156104f157600080fd5b506102ac610500366004612431565b610f2d565b34801561051157600080fd5b506102ac610f8c565b34801561052657600080fd5b506102ac6105353660046124a5565b610f9e565b34801561054657600080fd5b506003546001600160a01b03165b6040516001600160a01b039091168152602001610253565b34801561057857600080fd5b506105a86105873660046120c7565b60076020526000908152604090208054600182015460029092015490919083565b60408051938452602084019290925290820152606001610253565b3480156105cf57600080fd5b506102ac6105de3660046124fa565b610fb2565b3480156105ef57600080fd5b506102ac6105fe366004612530565b6112a7565b34801561060f57600080fd5b506102e26040518060400160405280600f81526020016e53756d6d6f6e657273204172656e6160881b81525081565b34801561064a57600080fd5b506102ac6112b6565b34801561065f57600080fd5b5061024961066e3660046120e0565b60086020526000908152604090205481565b34801561068c57600080fd5b5061024960055481565b3480156106a257600080fd5b5061027c6106b1366004612567565b61134c565b3480156106c257600080fd5b50600654610554906001600160a01b031681565b3480156106e257600080fd5b506102ac6106f136600461259a565b61137a565b34801561070257600080fd5b506102ac6107113660046120e0565b6113d9565b34801561072257600080fd5b506102496107313660046120e0565b611414565b34801561074257600080fd5b506102ac6107513660046125ff565b61147d565b34801561076257600080fd5b506006546001600160a01b0316610554565b34801561078057600080fd5b506102e260405180604001604052806005815260200164302e302e3160d81b81525081565b6000818152602081815260408083206001600160a01b03861684529091529020545b92915050565b60006001600160e01b03198216636cdb3d1360e11b14806107fe57506001600160e01b031982166303a24d0760e21b145b806107c757506301ffc9a760e01b6001600160e01b03198316146107c7565b6108256114b3565b61082e816114e0565b50565b60606002805461084090612632565b80601f016020809104026020016040519081016040528092919081815260200182805461086c90612632565b80156108b95780601f1061088e576101008083540402835291602001916108b9565b820191906000526020600020905b81548152906001019060200180831161089c57829003601f168201915b50505050509050919050565b6001600160a01b038116600090815260096020526040812054816108ec826201518061267c565b90508042106108ff575060009392505050565b610909428261268f565b949350505050565b6109196114b3565b610925848484846114ec565b50505050565b6001600160a01b0381166000908152600a6020526040812054816108ec6138408361267c565b336001600160a01b03861681148015906109725750610970868261134c565b155b156109a85760405163711bec9160e11b81526001600160a01b038083166004830152871660248201526044015b60405180910390fd5b6109b58686868686611524565b505050505050565b600554811015610a085760405162461bcd60e51b8152602060048201526016602482015275125b9cdd59999a58da595b9d0814d55353481cd95b9d60521b604482015260640161099f565b6006546040516323b872dd60e01b8152336004820152306024820152604481018390526001600160a01b03909116906323b872dd906064016020604051808303816000875af1158015610a5f573d6000803e3d6000fd5b505050506040513d601f19601f82011682018060405250810190610a8391906126a2565b50600554811115610b23576006546005546001600160a01b039091169063a9059cbb903390610ab2908561268f565b6040516001600160e01b031960e085901b1681526001600160a01b03909216600483015260248201526044016020604051808303816000875af1158015610afd573d6000803e3d6000fd5b505050506040513d601f19601f82011682018060405250810190610b2191906126a2565b505b61082e3361158b565b60608151835114610b5d5781518351604051635b05999160e01b81526004810192909252602482015260440161099f565b6000835167ffffffffffffffff811115610b7957610b79611f86565b604051908082528060200260200182016040528015610ba2578160200160208202803683370190505b50905060005b8451811015610bf157602080820286010151610bcc906020808402870101516107a5565b828281518110610bde57610bde6126bf565b6020908102919091010152600101610ba8565b509392505050565b600454341015610c435760405162461bcd60e51b8152602060048201526015602482015274125b9cdd59999a58da595b9d08115512081cd95b9d605a1b604482015260640161099f565b600454341115610c8a5760045433906108fc90610c60903461268f565b6040518115909202916000818181858888f19350505050158015610c88573d6000803e3d6000fd5b505b610c933361158b565b565b610c9d611e77565b6001600160a01b03821660009081526008602090815260408083208151808301835281548152825160a08101938490529093919291840191600184019060059082845b815481526020019060010190808311610ce05750505091909252505050602001519392505050565b6000610d1433836107a5565b11610d615760405162461bcd60e51b815260206004820152601760248201527f596f7520646f206e6f74206f776e2074686973204e4654000000000000000000604482015260640161099f565b336000908152600a60205260409020544290610d80906138409061267c565b1115610dd85760405162461bcd60e51b815260206004820152602160248201527f4578706c6f726174696f6e20636f6f6c646f776e206e6f74206f7665722079656044820152601d60fa1b606482015260840161099f565b336000908152600a602081905260408220429055821015610dfb5750600a610e32565b6014821015610e0c5750600f610e32565b601e821015610e1d57506019610e32565b6028821015610e2e57506032610e32565b5060635b60006064610e4160014361268f565b60408051914060208301526bffffffffffffffffffffffff193360601b1690820152605481018590526074016040516020818303038152906040528051906020012060001c610e9091906126eb565b905081811015610ee457610ea33361158b565b604080518481526001602082015233917f881e6a2d6e6ccc01db8059143b38355253b44e9248b47164c5f720b0ccfbefa091015b60405180910390a2505050565b610ef033846001611782565b604080518481526000602082015233917f881e6a2d6e6ccc01db8059143b38355253b44e9248b47164c5f720b0ccfbefa09101610ed7565b505050565b6001600160a01b0383163314801590610f4d5750610f4b833361134c565b155b15610f8157335b60405163711bec9160e11b81526001600160a01b039182166004820152908416602482015260440161099f565b610f288383836117ea565b610f946114b3565b610c936000611830565b610fa66114b3565b61092584848484611882565b6000600a610fbe611e95565b60008060005b60058110156110e6576000878260058110610fe157610fe16126bf565b602002013590506000610ff433836107a5565b11156110dd576000600760008a8560058110611012576110126126bf565b6020020135815260200190815260200160002060405180606001604052908160008201548152602001600182015481526020016002820154815250509050806020015188611060919061267c565b975085816040015160068110611078576110786126bf565b60200201805190611088826126ff565b905250805160281180159061109f57508051603110155b156110b657846110ae816126ff565b9550506110db565b601e82101580156110c8575060278211155b156110db57836110d7816126ff565b9450505b505b50600101610fc4565b5060008060015b6005811161116b5781868260068110611108576111086126bf565b60200201511061112c57858160068110611124576111246126bf565b602002015191505b6000868260068110611140576111406126bf565b602002015111156111595782611155816126ff565b9350505b80611163816126ff565b9150506110ed565b508060050361117d57601995506111bd565b8060040361118e57601495506111bd565b8160050361119f57600f95506111bd565b806003036111b057600d95506111bd565b806002036111bd57600c95505b6111c8846005612718565b6111d2908761267c565b95506111de838761267c565b9550600a6111ec8789612718565b6111f6919061272f565b9650604051806040016040528088815260200189600580602002604051908101604052809291908260056020028082843760009201829052509290935250338152600860209081526040909120835181559083015190915061125e9060018301906005611eb3565b50506040513391507f526177b3a45653ba9e9109c6159e36d32ef4916e007026750988e8cef5b9bd3690611295908a908c90612743565b60405180910390a25050505050505050565b6112b23383836118df565b5050565b3360009081526009602052604090205462015180906112d5904261268f565b101561132f5760405162461bcd60e51b815260206004820152602360248201527f4d757374207761697420312064617920746f206f70656e20612066726565207060448201526261636b60e81b606482015260840161099f565b6113383361158b565b336000908152600960205260409020429055565b6001600160a01b03918216600090815260016020908152604080832093909416825291909152205460ff1690565b336001600160a01b038616811480159061139b5750611399868261134c565b155b156113cc5760405163711bec9160e11b81526001600160a01b0380831660048301528716602482015260440161099f565b6109b58686868686611975565b6113e16114b3565b6001600160a01b03811661140b57604051631e4fbdf760e01b81526000600482015260240161099f565b61082e81611830565b6001600160a01b03811660009081526008602090815260408083208151808301835281548152825160a08101938490528594919391840191600184019060059082845b815481526020019060010190808311611457575050509190925250509051949350505050565b6001600160a01b038316331480159061149d575061149b833361134c565b155b156114a85733610f54565b610f28838383611782565b6003546001600160a01b03163314610c935760405163118cdaa760e01b815233600482015260240161099f565b60026112b282826127a1565b6001600160a01b03841661151657604051632bfa23e760e11b81526000600482015260240161099f565b610925600085858585611a03565b6001600160a01b03841661154e57604051632bfa23e760e11b81526000600482015260240161099f565b6001600160a01b03851661157757604051626a0d4560e21b81526000600482015260240161099f565b6115848585858585611a03565b5050505050565b60408051600580825260c082019092526000916020820160a080368337505060408051600580825260c0820190925292935060009291506020820160a08036833701905050905060005b600581101561172b5760006115eb60014361268f565b60408051914060208301526bffffffffffffffffffffffff19606088901b16908201526054810183905260740160408051601f1981840301815291905280516020909101209050600061163f6064836126eb565b90506000600a61165060648561272f565b61165a91906126eb565b9050603c8210156116895780868581518110611678576116786126bf565b602002602001018181525050611701565b60548210156116af5761169d81600a61267c565b868581518110611678576116786126bf565b605e8210156116c35761169d81601461267c565b60638210156116d75761169d81601e61267c565b6116e281602861267c565b8685815181106116f4576116f46126bf565b6020026020010181815250505b6001858581518110611715576117156126bf565b60209081029190910101525050506001016115d5565b50611747838383604051806020016040528060008152506114ec565b826001600160a01b03167ff7abfe87506a99dfe239c7c8cdb614b8c0bd515135b3897f983d0dd4c657aeaf8383604051610ed7929190612861565b6001600160a01b0383166117ab57604051626a0d4560e21b81526000600482015260240161099f565b604080516001808252602082018590528183019081526060820184905260a0820190925260006080820181815291929161158491879185908590611a03565b6001600160a01b03831661181357604051626a0d4560e21b81526000600482015260240161099f565b610f28836000848460405180602001604052806000815250611a03565b600380546001600160a01b038381166001600160a01b0319831681179093556040519116919082907f8be0079c531659141344cd1fd0a4f28419497f9722a3daafe3b4186f6b6457e090600090a35050565b6001600160a01b0384166118ac57604051632bfa23e760e11b81526000600482015260240161099f565b604080516001808252602082018690528183019081526060820185905260808201909252906109b5600087848487611a03565b6001600160a01b0382166119085760405162ced3e160e81b81526000600482015260240161099f565b6001600160a01b03838116600081815260016020908152604080832094871680845294825291829020805460ff191686151590811790915591519182527f17307eab39ab6107e8899845ad3d59bd9653f200f220920489ca2b5937696c31910160405180910390a3505050565b6001600160a01b03841661199f57604051632bfa23e760e11b81526000600482015260240161099f565b6001600160a01b0385166119c857604051626a0d4560e21b81526000600482015260240161099f565b604080516001808252602082018690528183019081526060820185905260808201909252906119fa8787848487611a03565b50505050505050565b611a0f85858585611a56565b6001600160a01b038416156115845782513390600103611a485760208481015190840151611a41838989858589611c6a565b50506109b5565b6109b5818787878787611d8e565b8051825114611a855781518151604051635b05999160e01b81526004810192909252602482015260440161099f565b3360005b8351811015611b8b576020818102858101820151908501909101516001600160a01b03881615611b3c576000828152602081815260408083206001600160a01b038c16845290915290205481811015611b15576040516303dee4c560e01b81526001600160a01b038a16600482015260248101829052604481018390526064810184905260840161099f565b6000838152602081815260408083206001600160a01b038d16845290915290209082900390555b6001600160a01b03871615611b81576000828152602081815260408083206001600160a01b038b16845290915281208054839290611b7b90849061267c565b90915550505b5050600101611a89565b508251600103611c0c5760208301516000906020840151909150856001600160a01b0316876001600160a01b0316846001600160a01b03167fc3d58168c5ae7397731d063d5bbf3d657854427343f4c083240f7aacaa2d0f628585604051611bfd929190918252602082015260400190565b60405180910390a45050611584565b836001600160a01b0316856001600160a01b0316826001600160a01b03167f4a39dc06d4c0dbc64b70af90fd698a233a518aa5d07e595d983b8c0526c8f7fb8686604051611c5b929190612861565b60405180910390a45050505050565b6001600160a01b0384163b156109b55760405163f23a6e6160e01b81526001600160a01b0385169063f23a6e6190611cae908990899088908890889060040161288f565b6020604051808303816000875af1925050508015611ce9575060408051601f3d908101601f19168201909252611ce6918101906128d4565b60015b611d52573d808015611d17576040519150601f19603f3d011682016040523d82523d6000602084013e611d1c565b606091505b508051600003611d4a57604051632bfa23e760e11b81526001600160a01b038616600482015260240161099f565b805181602001fd5b6001600160e01b0319811663f23a6e6160e01b146119fa57604051632bfa23e760e11b81526001600160a01b038616600482015260240161099f565b6001600160a01b0384163b156109b55760405163bc197c8160e01b81526001600160a01b0385169063bc197c8190611dd290899089908890889088906004016128f1565b6020604051808303816000875af1925050508015611e0d575060408051601f3d908101601f19168201909252611e0a918101906128d4565b60015b611e3b573d808015611d17576040519150601f19603f3d011682016040523d82523d6000602084013e611d1c565b6001600160e01b0319811663bc197c8160e01b146119fa57604051632bfa23e760e11b81526001600160a01b038616600482015260240161099f565b6040518060a001604052806005906020820280368337509192915050565b6040518060c001604052806006906020820280368337509192915050565b8260058101928215611ee1579160200282015b82811115611ee1578251825591602001919060010190611ec6565b50611eed929150611ef1565b5090565b5b80821115611eed5760008155600101611ef2565b80356001600160a01b0381168114611f1d57600080fd5b919050565b60008060408385031215611f3557600080fd5b611f3e83611f06565b946020939093013593505050565b6001600160e01b03198116811461082e57600080fd5b600060208284031215611f7457600080fd5b8135611f7f81611f4c565b9392505050565b634e487b7160e01b600052604160045260246000fd5b604051601f8201601f1916810167ffffffffffffffff81118282101715611fc557611fc5611f86565b604052919050565b600067ffffffffffffffff831115611fe757611fe7611f86565b611ffa601f8401601f1916602001611f9c565b905082815283838301111561200e57600080fd5b828260208301376000602084830101529392505050565b60006020828403121561203757600080fd5b813567ffffffffffffffff81111561204e57600080fd5b8201601f8101841361205f57600080fd5b61090984823560208401611fcd565b6000815180845260005b8181101561209457602081850181015186830182015201612078565b506000602082860101526020601f19601f83011685010191505092915050565b602081526000611f7f602083018461206e565b6000602082840312156120d957600080fd5b5035919050565b6000602082840312156120f257600080fd5b611f7f82611f06565b600067ffffffffffffffff82111561211557612115611f86565b5060051b60200190565b600082601f83011261213057600080fd5b81356020612145612140836120fb565b611f9c565b8083825260208201915060208460051b87010193508684111561216757600080fd5b602086015b84811015612183578035835291830191830161216c565b509695505050505050565b600082601f83011261219f57600080fd5b611f7f83833560208501611fcd565b600080600080608085870312156121c457600080fd5b6121cd85611f06565b9350602085013567ffffffffffffffff808211156121ea57600080fd5b6121f68883890161211f565b9450604087013591508082111561220c57600080fd5b6122188883890161211f565b9350606087013591508082111561222e57600080fd5b5061223b8782880161218e565b91505092959194509250565b600080600080600060a0868803121561225f57600080fd5b61226886611f06565b945061227660208701611f06565b9350604086013567ffffffffffffffff8082111561229357600080fd5b61229f89838a0161211f565b945060608801359150808211156122b557600080fd5b6122c189838a0161211f565b935060808801359150808211156122d757600080fd5b506122e48882890161218e565b9150509295509295909350565b6000806040838503121561230457600080fd5b823567ffffffffffffffff8082111561231c57600080fd5b818501915085601f83011261233057600080fd5b81356020612340612140836120fb565b82815260059290921b8401810191818101908984111561235f57600080fd5b948201945b838610156123845761237586611f06565b82529482019490820190612364565b9650508601359250508082111561239a57600080fd5b506123a78582860161211f565b9150509250929050565b60008151808452602080850194506020840160005b838110156123e2578151875295820195908201906001016123c6565b509495945050505050565b602081526000611f7f60208301846123b1565b60a08101818360005b6005811015612428578151835260209283019290910190600101612409565b50505092915050565b60008060006060848603121561244657600080fd5b61244f84611f06565b9250602084013567ffffffffffffffff8082111561246c57600080fd5b6124788783880161211f565b9350604086013591508082111561248e57600080fd5b5061249b8682870161211f565b9150509250925092565b600080600080608085870312156124bb57600080fd5b6124c485611f06565b93506020850135925060408501359150606085013567ffffffffffffffff8111156124ee57600080fd5b61223b8782880161218e565b600060a0828403121561250c57600080fd5b8260a08301111561251c57600080fd5b50919050565b801515811461082e57600080fd5b6000806040838503121561254357600080fd5b61254c83611f06565b9150602083013561255c81612522565b809150509250929050565b6000806040838503121561257a57600080fd5b61258383611f06565b915061259160208401611f06565b90509250929050565b600080600080600060a086880312156125b257600080fd5b6125bb86611f06565b94506125c960208701611f06565b93506040860135925060608601359150608086013567ffffffffffffffff8111156125f357600080fd5b6122e48882890161218e565b60008060006060848603121561261457600080fd5b61261d84611f06565b95602085013595506040909401359392505050565b600181811c9082168061264657607f821691505b60208210810361251c57634e487b7160e01b600052602260045260246000fd5b634e487b7160e01b600052601160045260246000fd5b808201808211156107c7576107c7612666565b818103818111156107c7576107c7612666565b6000602082840312156126b457600080fd5b8151611f7f81612522565b634e487b7160e01b600052603260045260246000fd5b634e487b7160e01b600052601260045260246000fd5b6000826126fa576126fa6126d5565b500690565b60006001820161271157612711612666565b5060010190565b80820281158282048414176107c7576107c7612666565b60008261273e5761273e6126d5565b500490565b82815260c0810160a08360208401379392505050565b601f821115610f28576000816000526020600020601f850160051c810160208610156127825750805b601f850160051c820191505b818110156109b55782815560010161278e565b815167ffffffffffffffff8111156127bb576127bb611f86565b6127cf816127c98454612632565b84612759565b602080601f83116001811461280457600084156127ec5750858301515b600019600386901b1c1916600185901b1785556109b5565b600085815260208120601f198616915b8281101561283357888601518255948401946001909101908401612814565b50858210156128515787850151600019600388901b60f8161c191681555b5050505050600190811b01905550565b60408152600061287460408301856123b1565b828103602084015261288681856123b1565b95945050505050565b6001600160a01b03868116825285166020820152604081018490526060810183905260a0608082018190526000906128c99083018461206e565b979650505050505050565b6000602082840312156128e657600080fd5b8151611f7f81611f4c565b6001600160a01b0386811682528516602082015260a06040820181905260009061291d908301866123b1565b828103606084015261292f81866123b1565b90508281036080840152612943818561206e565b9897505050505050505056fea264697066735822122028f422185c3210b87abacb162062cd74848806e38c2f5b6e56e0b0dcda4200f564736f6c63430008170033",
    "linkReferences": {}
  },
  "methodIdentifiers": {
    "NAME()": "a3f4df7e",
    "VERSION()": "ffa1ad74",
    "_token()": "ecd0c0c3",
    "balanceOf(address,uint256)": "00fdd58e",
    "balanceOfBatch(address[],uint256[])": "4e1273f4",
    "burn(address,uint256,uint256)": "f5298aca",
    "burnBatch(address,uint256[],uint256[])": "6b20c454",
    "cards(uint256)": "8dc10768",
    "createTeam(uint256[5])": "923c1a06",
    "explorationCooldown()": "3b584960",
    "explore(uint256)": "6457e389",
    "getExplorationCooldown(address)": "2535e0dd",
    "getFreePackCooldown(address)": "1312b24e",
    "getTeamCards(address)": "5f049d5b",
    "getTeamPower(address)": "f473085d",
    "isApprovedForAll(address,address)": "e985e9c5",
    "lastExplorationTime(address)": "3bf3812b",
    "lastOpenedFreePack(address)": "500ccabf",
    "mint(address,uint256,uint256,bytes)": "731133e9",
    "mintBatch(address,uint256[],uint256[],bytes)": "1f7fdffa",
    "name()": "06fdde03",
    "openBuyPackMatic()": "530c9f2d",
    "openBuyPackToken(uint256)": "30a034d6",
    "openFreePack()": "ac8c733d",
    "owner()": "8da5cb5b",
    "packPriceMatic()": "1b84f1a8",
    "packPriceToken()": "d6d902bb",
    "renounceOwnership()": "715018a6",
    "safeBatchTransferFrom(address,address,uint256[],uint256[],bytes)": "2eb2c2d6",
    "safeTransferFrom(address,address,uint256,uint256,bytes)": "f242432a",
    "setApprovalForAll(address,bool)": "a22cb465",
    "setURI(string)": "02fe5305",
    "supportsInterface(bytes4)": "01ffc9a7",
    "teams(address)": "c4583240",
    "token()": "fc0c546a",
    "transferOwnership(address)": "f2fde38b",
    "uri(uint256)": "0e89341c",
    "version()": "54fd4d50"
  },
  "id": 3
}