{
  "abi": [
    {
      "inputs": [
        {
          "internalType": "address",
          "name": "initialOwner",
          "type": "address"
        }
      ],
      "stateMutability": "nonpayable",
      "type": "constructor"
    },
    {
      "inputs": [
        {
          "internalType": "address",
          "name": "sender",
          "type": "address"
        },
        {
          "internalType": "uint256",
          "name": "balance",
          "type": "uint256"
        },
        {
          "internalType": "uint256",
          "name": "needed",
          "type": "uint256"
        },
        {
          "internalType": "uint256",
          "name": "tokenId",
          "type": "uint256"
        }
      ],
      "name": "ERC1155InsufficientBalance",
      "type": "error"
    },
    {
      "inputs": [
        {
          "internalType": "address",
          "name": "approver",
          "type": "address"
        }
      ],
      "name": "ERC1155InvalidApprover",
      "type": "error"
    },
    {
      "inputs": [
        {
          "internalType": "uint256",
          "name": "idsLength",
          "type": "uint256"
        },
        {
          "internalType": "uint256",
          "name": "valuesLength",
          "type": "uint256"
        }
      ],
      "name": "ERC1155InvalidArrayLength",
      "type": "error"
    },
    {
      "inputs": [
        {
          "internalType": "address",
          "name": "operator",
          "type": "address"
        }
      ],
      "name": "ERC1155InvalidOperator",
      "type": "error"
    },
    {
      "inputs": [
        {
          "internalType": "address",
          "name": "receiver",
          "type": "address"
        }
      ],
      "name": "ERC1155InvalidReceiver",
      "type": "error"
    },
    {
      "inputs": [
        {
          "internalType": "address",
          "name": "sender",
          "type": "address"
        }
      ],
      "name": "ERC1155InvalidSender",
      "type": "error"
    },
    {
      "inputs": [
        {
          "internalType": "address",
          "name": "operator",
          "type": "address"
        },
        {
          "internalType": "address",
          "name": "owner",
          "type": "address"
        }
      ],
      "name": "ERC1155MissingApprovalForAll",
      "type": "error"
    },
    {
      "inputs": [
        {
          "internalType": "address",
          "name": "owner",
          "type": "address"
        }
      ],
      "name": "OwnableInvalidOwner",
      "type": "error"
    },
    {
      "inputs": [
        {
          "internalType": "address",
          "name": "account",
          "type": "address"
        }
      ],
      "name": "OwnableUnauthorizedAccount",
      "type": "error"
    },
    {
      "anonymous": false,
      "inputs": [
        {
          "indexed": true,
          "internalType": "address",
          "name": "account",
          "type": "address"
        },
        {
          "indexed": true,
          "internalType": "address",
          "name": "operator",
          "type": "address"
        },
        {
          "indexed": false,
          "internalType": "bool",
          "name": "approved",
          "type": "bool"
        }
      ],
      "name": "ApprovalForAll",
      "type": "event"
    },
    {
      "anonymous": false,
      "inputs": [
        {
          "indexed": true,
          "internalType": "address",
          "name": "user",
          "type": "address"
        },
        {
          "indexed": false,
          "internalType": "uint256",
          "name": "tokenId",
          "type": "uint256"
        },
        {
          "indexed": false,
          "internalType": "bool",
          "name": "success",
          "type": "bool"
        }
      ],
      "name": "Exploration",
      "type": "event"
    },
    {
      "anonymous": false,
      "inputs": [
        {
          "indexed": true,
          "internalType": "address",
          "name": "previousOwner",
          "type": "address"
        },
        {
          "indexed": true,
          "internalType": "address",
          "name": "newOwner",
          "type": "address"
        }
      ],
      "name": "OwnershipTransferred",
      "type": "event"
    },
    {
      "anonymous": false,
      "inputs": [
        {
          "indexed": true,
          "internalType": "address",
          "name": "user",
          "type": "address"
        },
        {
          "indexed": false,
          "internalType": "uint256[]",
          "name": "cardIds",
          "type": "uint256[]"
        },
        {
          "indexed": false,
          "internalType": "uint256[]",
          "name": "amounts",
          "type": "uint256[]"
        }
      ],
      "name": "PackOpened",
      "type": "event"
    },
    {
      "anonymous": false,
      "inputs": [
        {
          "indexed": true,
          "internalType": "address",
          "name": "user",
          "type": "address"
        },
        {
          "indexed": false,
          "internalType": "uint256",
          "name": "totalPower",
          "type": "uint256"
        },
        {
          "indexed": false,
          "internalType": "uint256[5]",
          "name": "cardIds",
          "type": "uint256[5]"
        }
      ],
      "name": "TeamCreated",
      "type": "event"
    },
    {
      "anonymous": false,
      "inputs": [
        {
          "indexed": false,
          "internalType": "address",
          "name": "beneficiary",
          "type": "address"
        },
        {
          "indexed": false,
          "internalType": "uint256",
          "name": "amount",
          "type": "uint256"
        }
      ],
      "name": "TokenAirdrop",
      "type": "event"
    },
    {
      "anonymous": false,
      "inputs": [
        {
          "indexed": true,
          "internalType": "address",
          "name": "operator",
          "type": "address"
        },
        {
          "indexed": true,
          "internalType": "address",
          "name": "from",
          "type": "address"
        },
        {
          "indexed": true,
          "internalType": "address",
          "name": "to",
          "type": "address"
        },
        {
          "indexed": false,
          "internalType": "uint256[]",
          "name": "ids",
          "type": "uint256[]"
        },
        {
          "indexed": false,
          "internalType": "uint256[]",
          "name": "values",
          "type": "uint256[]"
        }
      ],
      "name": "TransferBatch",
      "type": "event"
    },
    {
      "anonymous": false,
      "inputs": [
        {
          "indexed": true,
          "internalType": "address",
          "name": "operator",
          "type": "address"
        },
        {
          "indexed": true,
          "internalType": "address",
          "name": "from",
          "type": "address"
        },
        {
          "indexed": true,
          "internalType": "address",
          "name": "to",
          "type": "address"
        },
        {
          "indexed": false,
          "internalType": "uint256",
          "name": "id",
          "type": "uint256"
        },
        {
          "indexed": false,
          "internalType": "uint256",
          "name": "value",
          "type": "uint256"
        }
      ],
      "name": "TransferSingle",
      "type": "event"
    },
    {
      "anonymous": false,
      "inputs": [
        {
          "indexed": false,
          "internalType": "string",
          "name": "value",
          "type": "string"
        },
        {
          "indexed": true,
          "internalType": "uint256",
          "name": "id",
          "type": "uint256"
        }
      ],
      "name": "URI",
      "type": "event"
    },
    {
      "inputs": [],
      "name": "NAME",
      "outputs": [
        {
          "internalType": "string",
          "name": "",
          "type": "string"
        }
      ],
      "stateMutability": "view",
      "type": "function"
    },
    {
      "inputs": [],
      "name": "VERSION",
      "outputs": [
        {
          "internalType": "string",
          "name": "",
          "type": "string"
        }
      ],
      "stateMutability": "view",
      "type": "function"
    },
    {
      "inputs": [
        {
          "internalType": "address payable[]",
          "name": "_addresses",
          "type": "address[]"
        },
        {
          "internalType": "uint256[]",
          "name": "_amounts",
          "type": "uint256[]"
        }
      ],
      "name": "_airdropMATIC",
      "outputs": [
        {
          "internalType": "bool",
          "name": "",
          "type": "bool"
        }
      ],
      "stateMutability": "payable",
      "type": "function"
    },
    {
      "inputs": [],
      "name": "_token",
      "outputs": [
        {
          "internalType": "contract IERC20",
          "name": "",
          "type": "address"
        }
      ],
      "stateMutability": "view",
      "type": "function"
    },
    {
      "inputs": [
        {
          "internalType": "address payable[]",
          "name": "_addresses",
          "type": "address[]"
        },
        {
          "internalType": "uint256[]",
          "name": "_amounts",
          "type": "uint256[]"
        }
      ],
      "name": "airdropMATIC",
      "outputs": [
        {
          "internalType": "bool",
          "name": "",
          "type": "bool"
        }
      ],
      "stateMutability": "payable",
      "type": "function"
    },
    {
      "inputs": [
        {
          "internalType": "address",
          "name": "airdropTokenAddress",
          "type": "address"
        },
        {
          "internalType": "address[]",
          "name": "_addresses",
          "type": "address[]"
        },
        {
          "internalType": "uint256[]",
          "name": "_amounts",
          "type": "uint256[]"
        }
      ],
      "name": "airdropToken",
      "outputs": [
        {
          "internalType": "bool",
          "name": "",
          "type": "bool"
        }
      ],
      "stateMutability": "nonpayable",
      "type": "function"
    },
    {
      "inputs": [
        {
          "internalType": "address",
          "name": "account",
          "type": "address"
        },
        {
          "internalType": "uint256",
          "name": "id",
          "type": "uint256"
        }
      ],
      "name": "balanceOf",
      "outputs": [
        {
          "internalType": "uint256",
          "name": "",
          "type": "uint256"
        }
      ],
      "stateMutability": "view",
      "type": "function"
    },
    {
      "inputs": [
        {
          "internalType": "address[]",
          "name": "accounts",
          "type": "address[]"
        },
        {
          "internalType": "uint256[]",
          "name": "ids",
          "type": "uint256[]"
        }
      ],
      "name": "balanceOfBatch",
      "outputs": [
        {
          "internalType": "uint256[]",
          "name": "",
          "type": "uint256[]"
        }
      ],
      "stateMutability": "view",
      "type": "function"
    },
    {
      "inputs": [
        {
          "internalType": "address",
          "name": "account",
          "type": "address"
        },
        {
          "internalType": "uint256",
          "name": "id",
          "type": "uint256"
        },
        {
          "internalType": "uint256",
          "name": "value",
          "type": "uint256"
        }
      ],
      "name": "burn",
      "outputs": [],
      "stateMutability": "nonpayable",
      "type": "function"
    },
    {
      "inputs": [
        {
          "internalType": "address",
          "name": "account",
          "type": "address"
        },
        {
          "internalType": "uint256[]",
          "name": "ids",
          "type": "uint256[]"
        },
        {
          "internalType": "uint256[]",
          "name": "values",
          "type": "uint256[]"
        }
      ],
      "name": "burnBatch",
      "outputs": [],
      "stateMutability": "nonpayable",
      "type": "function"
    },
    {
      "inputs": [
        {
          "internalType": "uint256",
          "name": "",
          "type": "uint256"
        }
      ],
      "name": "cards",
      "outputs": [
        {
          "internalType": "uint256",
          "name": "id",
          "type": "uint256"
        },
        {
          "internalType": "uint256",
          "name": "power",
          "type": "uint256"
        },
        {
          "internalType": "uint256",
          "name": "attributes",
          "type": "uint256"
        }
      ],
      "stateMutability": "view",
      "type": "function"
    },
    {
      "inputs": [
        {
          "internalType": "uint256[5]",
          "name": "cardIds",
          "type": "uint256[5]"
        }
      ],
      "name": "createTeam",
      "outputs": [],
      "stateMutability": "nonpayable",
      "type": "function"
    },
    {
      "inputs": [],
      "name": "explorationCooldown",
      "outputs": [
        {
          "internalType": "uint256",
          "name": "",
          "type": "uint256"
        }
      ],
      "stateMutability": "view",
      "type": "function"
    },
    {
      "inputs": [
        {
          "internalType": "uint256",
          "name": "tokenId",
          "type": "uint256"
        }
      ],
      "name": "explore",
      "outputs": [],
      "stateMutability": "nonpayable",
      "type": "function"
    },
    {
      "inputs": [],
      "name": "getAllPlayerAddresses",
      "outputs": [
        {
          "internalType": "address[]",
          "name": "",
          "type": "address[]"
        }
      ],
      "stateMutability": "view",
      "type": "function"
    },
    {
      "inputs": [
        {
          "internalType": "address",
          "name": "user",
          "type": "address"
        }
      ],
      "name": "getExplorationCooldown",
      "outputs": [
        {
          "internalType": "uint256",
          "name": "",
          "type": "uint256"
        }
      ],
      "stateMutability": "view",
      "type": "function"
    },
    {
      "inputs": [
        {
          "internalType": "address",
          "name": "user",
          "type": "address"
        }
      ],
      "name": "getFreePackCooldown",
      "outputs": [
        {
          "internalType": "uint256",
          "name": "",
          "type": "uint256"
        }
      ],
      "stateMutability": "view",
      "type": "function"
    },
    {
      "inputs": [
        {
          "internalType": "uint256[]",
          "name": "_arr",
          "type": "uint256[]"
        }
      ],
      "name": "getSum",
      "outputs": [
        {
          "internalType": "uint256",
          "name": "sum",
          "type": "uint256"
        }
      ],
      "stateMutability": "pure",
      "type": "function"
    },
    {
      "inputs": [
        {
          "internalType": "address",
          "name": "user",
          "type": "address"
        }
      ],
      "name": "getTeamCards",
      "outputs": [
        {
          "internalType": "uint256[5]",
          "name": "",
          "type": "uint256[5]"
        }
      ],
      "stateMutability": "view",
      "type": "function"
    },
    {
      "inputs": [
        {
          "internalType": "address",
          "name": "user",
          "type": "address"
        }
      ],
      "name": "getTeamPower",
      "outputs": [
        {
          "internalType": "uint256",
          "name": "",
          "type": "uint256"
        }
      ],
      "stateMutability": "view",
      "type": "function"
    },
    {
      "inputs": [
        {
          "internalType": "address",
          "name": "account",
          "type": "address"
        },
        {
          "internalType": "address",
          "name": "operator",
          "type": "address"
        }
      ],
      "name": "isApprovedForAll",
      "outputs": [
        {
          "internalType": "bool",
          "name": "",
          "type": "bool"
        }
      ],
      "stateMutability": "view",
      "type": "function"
    },
    {
      "inputs": [
        {
          "internalType": "address",
          "name": "",
          "type": "address"
        }
      ],
      "name": "lastExplorationTime",
      "outputs": [
        {
          "internalType": "uint256",
          "name": "",
          "type": "uint256"
        }
      ],
      "stateMutability": "view",
      "type": "function"
    },
    {
      "inputs": [
        {
          "internalType": "address",
          "name": "",
          "type": "address"
        }
      ],
      "name": "lastOpenedFreePack",
      "outputs": [
        {
          "internalType": "uint256",
          "name": "",
          "type": "uint256"
        }
      ],
      "stateMutability": "view",
      "type": "function"
    },
    {
      "inputs": [
        {
          "internalType": "address",
          "name": "account",
          "type": "address"
        },
        {
          "internalType": "uint256",
          "name": "id",
          "type": "uint256"
        },
        {
          "internalType": "uint256",
          "name": "amount",
          "type": "uint256"
        },
        {
          "internalType": "bytes",
          "name": "data",
          "type": "bytes"
        }
      ],
      "name": "mint",
      "outputs": [],
      "stateMutability": "nonpayable",
      "type": "function"
    },
    {
      "inputs": [
        {
          "internalType": "address",
          "name": "to",
          "type": "address"
        },
        {
          "internalType": "uint256[]",
          "name": "ids",
          "type": "uint256[]"
        },
        {
          "internalType": "uint256[]",
          "name": "amounts",
          "type": "uint256[]"
        },
        {
          "internalType": "bytes",
          "name": "data",
          "type": "bytes"
        }
      ],
      "name": "mintBatch",
      "outputs": [],
      "stateMutability": "nonpayable",
      "type": "function"
    },
    {
      "inputs": [],
      "name": "name",
      "outputs": [
        {
          "internalType": "string",
          "name": "",
          "type": "string"
        }
      ],
      "stateMutability": "pure",
      "type": "function"
    },
    {
      "inputs": [],
      "name": "openBuyPackMatic",
      "outputs": [],
      "stateMutability": "payable",
      "type": "function"
    },
    {
      "inputs": [
        {
          "internalType": "uint256",
          "name": "_amount",
          "type": "uint256"
        }
      ],
      "name": "openBuyPackToken",
      "outputs": [],
      "stateMutability": "nonpayable",
      "type": "function"
    },
    {
      "inputs": [],
      "name": "openFreePack",
      "outputs": [],
      "stateMutability": "nonpayable",
      "type": "function"
    },
    {
      "inputs": [],
      "name": "owner",
      "outputs": [
        {
          "internalType": "address",
          "name": "",
          "type": "address"
        }
      ],
      "stateMutability": "view",
      "type": "function"
    },
    {
      "inputs": [],
      "name": "packPriceMatic",
      "outputs": [
        {
          "internalType": "uint256",
          "name": "",
          "type": "uint256"
        }
      ],
      "stateMutability": "view",
      "type": "function"
    },
    {
      "inputs": [],
      "name": "packPriceToken",
      "outputs": [
        {
          "internalType": "uint256",
          "name": "",
          "type": "uint256"
        }
      ],
      "stateMutability": "view",
      "type": "function"
    },
    {
      "inputs": [],
      "name": "renounceOwnership",
      "outputs": [],
      "stateMutability": "nonpayable",
      "type": "function"
    },
    {
      "inputs": [
        {
          "internalType": "address",
          "name": "from",
          "type": "address"
        },
        {
          "internalType": "address",
          "name": "to",
          "type": "address"
        },
        {
          "internalType": "uint256[]",
          "name": "ids",
          "type": "uint256[]"
        },
        {
          "internalType": "uint256[]",
          "name": "values",
          "type": "uint256[]"
        },
        {
          "internalType": "bytes",
          "name": "data",
          "type": "bytes"
        }
      ],
      "name": "safeBatchTransferFrom",
      "outputs": [],
      "stateMutability": "nonpayable",
      "type": "function"
    },
    {
      "inputs": [
        {
          "internalType": "address",
          "name": "from",
          "type": "address"
        },
        {
          "internalType": "address",
          "name": "to",
          "type": "address"
        },
        {
          "internalType": "uint256",
          "name": "id",
          "type": "uint256"
        },
        {
          "internalType": "uint256",
          "name": "value",
          "type": "uint256"
        },
        {
          "internalType": "bytes",
          "name": "data",
          "type": "bytes"
        }
      ],
      "name": "safeTransferFrom",
      "outputs": [],
      "stateMutability": "nonpayable",
      "type": "function"
    },
    {
      "inputs": [
        {
          "internalType": "address",
          "name": "operator",
          "type": "address"
        },
        {
          "internalType": "bool",
          "name": "approved",
          "type": "bool"
        }
      ],
      "name": "setApprovalForAll",
      "outputs": [],
      "stateMutability": "nonpayable",
      "type": "function"
    },
    {
      "inputs": [
        {
          "internalType": "string",
          "name": "newuri",
          "type": "string"
        }
      ],
      "name": "setURI",
      "outputs": [],
      "stateMutability": "nonpayable",
      "type": "function"
    },
    {
      "inputs": [
        {
          "internalType": "bytes4",
          "name": "interfaceId",
          "type": "bytes4"
        }
      ],
      "name": "supportsInterface",
      "outputs": [
        {
          "internalType": "bool",
          "name": "",
          "type": "bool"
        }
      ],
      "stateMutability": "view",
      "type": "function"
    },
    {
      "inputs": [
        {
          "internalType": "address",
          "name": "",
          "type": "address"
        }
      ],
      "name": "teams",
      "outputs": [
        {
          "internalType": "uint256",
          "name": "totalPower",
          "type": "uint256"
        }
      ],
      "stateMutability": "view",
      "type": "function"
    },
    {
      "inputs": [],
      "name": "token",
      "outputs": [
        {
          "internalType": "address",
          "name": "tokenAddress",
          "type": "address"
        }
      ],
      "stateMutability": "view",
      "type": "function"
    },
    {
      "inputs": [
        {
          "internalType": "address",
          "name": "newOwner",
          "type": "address"
        }
      ],
      "name": "transferOwnership",
      "outputs": [],
      "stateMutability": "nonpayable",
      "type": "function"
    },
    {
      "inputs": [
        {
          "internalType": "uint256",
          "name": "",
          "type": "uint256"
        }
      ],
      "name": "uri",
      "outputs": [
        {
          "internalType": "string",
          "name": "",
          "type": "string"
        }
      ],
      "stateMutability": "view",
      "type": "function"
    },
    {
      "inputs": [],
      "name": "version",
      "outputs": [
        {
          "internalType": "string",
          "name": "",
          "type": "string"
        }
      ],
      "stateMutability": "pure",
      "type": "function"
    }
  ],
  "bytecode": {
    "object": "0x6080604052674563918244f400006004556103e86005553480156200002357600080fd5b50604051620048fb380380620048fb83398101604081905262000046916200157f565b60408051602081019091526000815281906200006281620000b0565b506001600160a01b0381166200009357604051631e4fbdf760e01b8152600060048201526024015b60405180910390fd5b6200009e81620000c2565b50620000a962000114565b5062001724565b6002620000be828262001658565b5050565b600380546001600160a01b038381166001600160a01b0319831681179093556040519116919082907f8be0079c531659141344cd1fd0a4f28419497f9722a3daafe3b4186f6b6457e090600090a35050565b6200011e6200154e565b604051806060016040528060008152602001600a8152602001600481525060086000808152602001908152602001600020600082015181600001556020820151816001015560408201518160020155905050604051806060016040528060018152602001600b815260200160038152506008600060018152602001908152602001600020600082015181600001556020820151816001015560408201518160020155905050604051806060016040528060028152602001600b815260200160028152506008600060028152602001908152602001600020600082015181600001556020820151816001015560408201518160020155905050604051806060016040528060038152602001600d815260200160048152506008600060038152602001908152602001600020600082015181600001556020820151816001015560408201518160020155905050604051806060016040528060048152602001600f815260200160018152506008600060048152602001908152602001600020600082015181600001556020820151816001015560408201518160020155905050604051806060016040528060058152602001601081526020016001815250600860006005815260200190815260200160002060008201518160000155602082015181600101556040820151816002015590505060405180606001604052806006815260200160108152602001600581525060086000600681526020019081526020016000206000820151816000015560208201518160010155604082015181600201559050506040518060600160405280600781526020016012815260200160058152506008600060078152602001908152602001600020600082015181600001556020820151816001015560408201518160020155905050604051806060016040528060088152602001601481526020016002815250600860006008815260200190815260200160002060008201518160000155602082015181600101556040820151816002015590505060405180606001604052806009815260200160148152602001600381525060086000600981526020019081526020016000206000820151816000015560208201518160010155604082015181600201559050506040518060600160405280600a815260200160198152602001600481525060086000600a81526020019081526020016000206000820151816000015560208201518160010155604082015181600201559050506040518060600160405280600b815260200160198152602001600281525060086000600b81526020019081526020016000206000820151816000015560208201518160010155604082015181600201559050506040518060600160405280600c8152602001601b8152602001600181525060086000600c81526020019081526020016000206000820151816000015560208201518160010155604082015181600201559050506040518060600160405280600d8152602001601b8152602001600181525060086000600d81526020019081526020016000206000820151816000015560208201518160010155604082015181600201559050506040518060600160405280600e8152602001601c8152602001600381525060086000600e81526020019081526020016000206000820151816000015560208201518160010155604082015181600201559050506040518060600160405280600f8152602001601d8152602001600581525060086000600f8152602001908152602001600020600082015181600001556020820151816001015560408201518160020155905050604051806060016040528060108152602001601e8152602001600481525060086000601081526020019081526020016000206000820151816000015560208201518160010155604082015181600201559050506040518060600160405280601181526020016020815260200160028152506008600060118152602001908152602001600020600082015181600001556020820151816001015560408201518160020155905050604051806060016040528060128152602001602281526020016005815250600860006012815260200190815260200160002060008201518160000155602082015181600101556040820151816002015590505060405180606001604052806013815260200160238152602001600381525060086000601381526020019081526020016000206000820151816000015560208201518160010155604082015181600201559050506040518060600160405280601481526020016028815260200160018152506008600060148152602001908152602001600020600082015181600001556020820151816001015560408201518160020155905050604051806060016040528060158152602001602a815260200160038152506008600060158152602001908152602001600020600082015181600001556020820151816001015560408201518160020155905050604051806060016040528060168152602001602a815260200160048152506008600060168152602001908152602001600020600082015181600001556020820151816001015560408201518160020155905050604051806060016040528060178152602001602b815260200160028152506008600060178152602001908152602001600020600082015181600001556020820151816001015560408201518160020155905050604051806060016040528060188152602001602b815260200160048152506008600060188152602001908152602001600020600082015181600001556020820151816001015560408201518160020155905050604051806060016040528060198152602001602d8152602001600181525060086000601981526020019081526020016000206000820151816000015560208201518160010155604082015181600201559050506040518060600160405280601a8152602001602f8152602001600281525060086000601a81526020019081526020016000206000820151816000015560208201518160010155604082015181600201559050506040518060600160405280601b8152602001602f8152602001600581525060086000601b81526020019081526020016000206000820151816000015560208201518160010155604082015181600201559050506040518060600160405280601c815260200160308152602001600381525060086000601c81526020019081526020016000206000820151816000015560208201518160010155604082015181600201559050506040518060600160405280601d815260200160328152602001600581525060086000601d81526020019081526020016000206000820151816000015560208201518160010155604082015181600201559050506040518060600160405280601e8152602001603c8152602001600481525060086000601e81526020019081526020016000206000820151816000015560208201518160010155604082015181600201559050506040518060600160405280601f8152602001603e8152602001600381525060086000601f81526020019081526020016000206000820151816000015560208201516001808301919091556040928301516002928301558251606080820185526020808352603e81840190815260048488018181526000848152600880865296517f67c7b623d08894662a80b2d62b2359114b69172cd083a38f4bea1a9a8dcc7eb85592517f67c7b623d08894662a80b2d62b2359114b69172cd083a38f4bea1a9a8dcc7eb955517f67c7b623d08894662a80b2d62b2359114b69172cd083a38f4bea1a9a8dcc7eba55875180850189526021808252603f8286019081526003838c0181815292865288875292517f1e00437c059ded11d56fbc0f9acb2b99126636f749097c5c8224b228fcea6fe155517f1e00437c059ded11d56fbc0f9acb2b99126636f749097c5c8224b228fcea6fe255517f1e00437c059ded11d56fbc0f9acb2b99126636f749097c5c8224b228fcea6fe35588518086018a5260228082528186018b8152828c018a815291865288875291517f53e745d3a0288b4f074f91b5108d1f15cdc75852e87354269951b8a0b76f98085590517f53e745d3a0288b4f074f91b5108d1f15cdc75852e87354269951b8a0b76f980955517f53e745d3a0288b4f074f91b5108d1f15cdc75852e87354269951b8a0b76f980a5588518086018a5260238082526042828701818152838d018b815292875289885292517f2f904353aa0b08e30a8bee5eb29611b4fc31bb40ab4d96aba700ec64aa7fc9ae5591517f2f904353aa0b08e30a8bee5eb29611b4fc31bb40ab4d96aba700ec64aa7fc9af55517f2f904353aa0b08e30a8bee5eb29611b4fc31bb40ab4d96aba700ec64aa7fc9b05589518087018b5260248082528187019283526005828d0181815291875289885291517f158719d1f9351ee00318a1148426c93ae4d9c6cfca9c32dda4783a7e211bdad65591517f158719d1f9351ee00318a1148426c93ae4d9c6cfca9c32dda4783a7e211bdad75590517f158719d1f9351ee00318a1148426c93ae4d9c6cfca9c32dda4783a7e211bdad85589518087018b5260258082526044828801908152828d018c815291875289885291517f17f1810df920a4f680118eb2468bb6a56835df8674420d25de4177ac242f7e9b5590517f17f1810df920a4f680118eb2468bb6a56835df8674420d25de4177ac242f7e9c55517f17f1810df920a4f680118eb2468bb6a56835df8674420d25de4177ac242f7e9d5589518087018b5260268082526045828801908152828d0184815291875289885291517fcc4f30daeedebc51828483bc3edccbe4d2d0d49529284852add6a9f63fd71a855590517fcc4f30daeedebc51828483bc3edccbe4d2d0d49529284852add6a9f63fd71a8655517fcc4f30daeedebc51828483bc3edccbe4d2d0d49529284852add6a9f63fd71a875589518087018b5260278082526046828801908152828d018c815291875289885291517f3e6a6cd391bc0a3db861c80bb76944d46c7f5cace8846dd46ea93cd1ca0166645590517f3e6a6cd391bc0a3db861c80bb76944d46c7f5cace8846dd46ea93cd1ca01666555517f3e6a6cd391bc0a3db861c80bb76944d46c7f5cace8846dd46ea93cd1ca0166665589518087018b5260288082526055828801908152828d0184815291875289885291517fd63fbe8d364aab57a8c3f248b48b9a682e3e21a63dbb1e9e38c0d926ff7593935590517fd63fbe8d364aab57a8c3f248b48b9a682e3e21a63dbb1e9e38c0d926ff75939455517fd63fbe8d364aab57a8c3f248b48b9a682e3e21a63dbb1e9e38c0d926ff7593955589518087018b5260298082526056828801908152828d018c815291875289885291517f9ebbedd21d3a7bb5b6ced2a77418fa80fa63d3e53b89c5e1b22434168a79ce8a5590517f9ebbedd21d3a7bb5b6ced2a77418fa80fa63d3e53b89c5e1b22434168a79ce8b55517f9ebbedd21d3a7bb5b6ced2a77418fa80fa63d3e53b89c5e1b22434168a79ce8c5589518087018b52602a8082526057828801908152828d0193845290865288875290517f99f6c95adcf20f5130d8bda7b0b3d7915feb3fdc124b41e1804d6e90c805b29c55517f99f6c95adcf20f5130d8bda7b0b3d7915feb3fdc124b41e1804d6e90c805b29d55517f99f6c95adcf20f5130d8bda7b0b3d7915feb3fdc124b41e1804d6e90c805b29e5588518086018a52602b8082526059828701908152828c018a815291865288875291517f898785b36944e5ac6e3613998a5a0ffd4c1f320c59be1919954c18089a19ba515590517f898785b36944e5ac6e3613998a5a0ffd4c1f320c59be1919954c18089a19ba5255517f898785b36944e5ac6e3613998a5a0ffd4c1f320c59be1919954c18089a19ba535588518086018a52602c808252605a828701908152828c0185815291865288875291517f3b2456039c0b8758140b368d2ff620ae66d6b41a3f29b3bdacfd50b6679063e55590517f3b2456039c0b8758140b368d2ff620ae66d6b41a3f29b3bdacfd50b6679063e655517f3b2456039c0b8758140b368d2ff620ae66d6b41a3f29b3bdacfd50b6679063e75588518086018a52602d808252605c828701908152828c01998a5290855287865290517f943980877aceca68b1186fd688b498643cf3760d8408c224c2da1a5d0009549755517f943980877aceca68b1186fd688b498643cf3760d8408c224c2da1a5d000954985595517f943980877aceca68b1186fd688b498643cf3760d8408c224c2da1a5d000954995587518085018952602e808252605d828601908152828b01998a5290845286855290517f81904a45723b495c7732c6fd9426c7db6948bc920e8406598d764493c06c071255517f81904a45723b495c7732c6fd9426c7db6948bc920e8406598d764493c06c07135595517f81904a45723b495c7732c6fd9426c7db6948bc920e8406598d764493c06c07145586518084018852602f808252605f828501908152828a0188815291845286855291517fff559ec5158295435844afec914afeb1df8d392c7765c86f82ec2a9eecc0f86b5590517fff559ec5158295435844afec914afeb1df8d392c7765c86f82ec2a9eecc0f86c55517fff559ec5158295435844afec914afeb1df8d392c7765c86f82ec2a9eecc0f86d558651808401885260308082526061828501908152828a0198895290835285845290517f7cf1cc524b715ad548d0485e8606a8c7a9dfe765f8371dd4dc4c0202bd4f80fc55517f7cf1cc524b715ad548d0485e8606a8c7a9dfe765f8371dd4dc4c0202bd4f80fd5594517f7cf1cc524b715ad548d0485e8606a8c7a9dfe765f8371dd4dc4c0202bd4f80fe558551918201865260318083526064838301908152968301948552909452925290517f6ff35906d3e4887749265f324a2f3fbfa3aca22de644ad3d2697263ddf5c6d0b5590517f6ff35906d3e4887749265f324a2f3fbfa3aca22de644ad3d2697263ddf5c6d0c55517f6ff35906d3e4887749265f324a2f3fbfa3aca22de644ad3d2697263ddf5c6d0d55565b6003546001600160a01b031633146200157d5760405163118cdaa760e01b81523360048201526024016200008a565b565b6000602082840312156200159257600080fd5b81516001600160a01b0381168114620015aa57600080fd5b9392505050565b634e487b7160e01b600052604160045260246000fd5b600181811c90821680620015dc57607f821691505b602082108103620015fd57634e487b7160e01b600052602260045260246000fd5b50919050565b601f82111562001653576000816000526020600020601f850160051c810160208610156200162e5750805b601f850160051c820191505b818110156200164f578281556001016200163a565b5050505b505050565b81516001600160401b03811115620016745762001674620015b1565b6200168c81620016858454620015c7565b8462001603565b602080601f831160018114620016c45760008415620016ab5750858301515b600019600386901b1c1916600185901b1785556200164f565b600085815260208120601f198616915b82811015620016f557888601518255948401946001909101908401620016d4565b5085821015620017145787850151600019600388901b60f8161c191681555b5050505050600190811b01905550565b6131c780620017346000396000f3fe60806040526004361061025b5760003560e01c80636457e38911610144578063c4583240116100b6578063f242432a1161007a578063f242432a14610795578063f2fde38b146107b5578063f473085d146107d5578063f5298aca146107f5578063fc0c546a14610815578063ffa1ad741461083357600080fd5b8063c4583240146106f2578063ccb8c1e01461071f578063d6d902bb1461073f578063e985e9c514610755578063ecd0c0c31461077557600080fd5b80638da5cb5b116101085780638da5cb5b146105d95780638dc107681461060b578063923c1a0614610662578063a22cb46514610682578063a3f4df7e146106a2578063ac8c733d146106dd57600080fd5b80636457e389146105515780636917371f146105715780636b20c45414610584578063715018a6146105a4578063731133e9146105b957600080fd5b80632eb2c2d6116101dd5780634e1273f4116101a15780634e1273f414610474578063500ccabf146104a1578063530c9f2d146104ce57806354fd4d50146104d65780635f049d5b1461050457806363aedb381461053157600080fd5b80632eb2c2d6146103de57806330a034d6146103fe5780633b5849601461041e5780633bf3812b146104345780634d4224d81461046157600080fd5b80631312b24e116102245780631312b24e146103465780631b84f1a8146103665780631f7fdffa1461037c5780632535e0dd1461039c5780632c3f9700146103bc57600080fd5b8062fdd58e1461026057806301ffc9a71461029357806302fe5305146102c357806306fdde03146102e55780630e89341c14610326575b600080fd5b34801561026c57600080fd5b5061028061027b36600461251d565b610864565b6040519081526020015b60405180910390f35b34801561029f57600080fd5b506102b36102ae36600461255f565b61088c565b604051901515815260200161028a565b3480156102cf57600080fd5b506102e36102de366004612620565b6108dc565b005b3480156102f157600080fd5b5060408051808201909152600f81526e53756d6d6f6e657273204172656e6160881b60208201525b60405161028a91906126ae565b34801561033257600080fd5b506103196103413660046126c1565b6108f0565b34801561035257600080fd5b506102806103613660046126da565b610984565b34801561037257600080fd5b5061028060045481565b34801561038857600080fd5b506102e36103973660046127a9565b6109d0565b3480156103a857600080fd5b506102806103b73660046126da565b6109ea565b3480156103c857600080fd5b506103d1610a10565b60405161028a9190612843565b3480156103ea57600080fd5b506102e36103f9366004612890565b610a72565b34801561040a57600080fd5b506102e36104193660046126c1565b610ade565b34801561042a57600080fd5b5061028061384081565b34801561044057600080fd5b5061028061044f3660046126da565b600b6020526000908152604090205481565b6102b361046f366004612988565b610c4d565b34801561048057600080fd5b5061049461048f3660046129f3565b610c6c565b60405161028a9190612af0565b3480156104ad57600080fd5b506102806104bc3660046126da565b600a6020526000908152604090205481565b6102e3610d38565b3480156104e257600080fd5b50604080518082019091526005815264302e302e3160d81b6020820152610319565b34801561051057600080fd5b5061052461051f3660046126da565b610dd4565b60405161028a9190612b03565b34801561053d57600080fd5b506102b361054c366004612b34565b610e47565b34801561055d57600080fd5b506102e361056c3660046126c1565b610e68565b6102b361057f366004612988565b61108d565b34801561059057600080fd5b506102e361059f366004612bb6565b61121e565b3480156105b057600080fd5b506102e361127d565b3480156105c557600080fd5b506102e36105d4366004612c2b565b61128f565b3480156105e557600080fd5b506003546001600160a01b03165b6040516001600160a01b03909116815260200161028a565b34801561061757600080fd5b506106476106263660046126c1565b60086020526000908152604090208054600182015460029092015490919083565b6040805193845260208401929092529082015260600161028a565b34801561066e57600080fd5b506102e361067d366004612c81565b6112a3565b34801561068e57600080fd5b506102e361069d366004612cb7565b6115f1565b3480156106ae57600080fd5b506103196040518060400160405280600f81526020016e53756d6d6f6e657273204172656e6160881b81525081565b3480156106e957600080fd5b506102e3611600565b3480156106fe57600080fd5b5061028061070d3660046126da565b60096020526000908152604090205481565b34801561072b57600080fd5b5061028061073a366004612cf0565b611696565b34801561074b57600080fd5b5061028060055481565b34801561076157600080fd5b506102b3610770366004612d31565b6116d7565b34801561078157600080fd5b506007546105f3906001600160a01b031681565b3480156107a157600080fd5b506102e36107b0366004612d5f565b611705565b3480156107c157600080fd5b506102e36107d03660046126da565b611764565b3480156107e157600080fd5b506102806107f03660046126da565b61179f565b34801561080157600080fd5b506102e3610810366004612dc7565b611808565b34801561082157600080fd5b506007546001600160a01b03166105f3565b34801561083f57600080fd5b5061031960405180604001604052806005815260200164302e302e3160d81b81525081565b6000818152602081815260408083206001600160a01b03861684529091529020545b92915050565b60006001600160e01b03198216636cdb3d1360e11b14806108bd57506001600160e01b031982166303a24d0760e21b145b8061088657506301ffc9a760e01b6001600160e01b0319831614610886565b6108e461183e565b6108ed8161186b565b50565b6060600280546108ff90612dfc565b80601f016020809104026020016040519081016040528092919081815260200182805461092b90612dfc565b80156109785780601f1061094d57610100808354040283529160200191610978565b820191906000526020600020905b81548152906001019060200180831161095b57829003601f168201915b50505050509050919050565b6001600160a01b0381166000908152600a6020526040812054816109ab8262015180612e46565b90508042106109be575060009392505050565b6109c84282612e59565b949350505050565b6109d861183e565b6109e484848484611877565b50505050565b6001600160a01b0381166000908152600b6020526040812054816109ab61384083612e46565b60606006805480602002602001604051908101604052809291908181526020018280548015610a6857602002820191906000526020600020905b81546001600160a01b03168152600190910190602001808311610a4a575b5050505050905090565b336001600160a01b0386168114801590610a935750610a9186826116d7565b155b15610ac95760405163711bec9160e11b81526001600160a01b038083166004830152871660248201526044015b60405180910390fd5b610ad686868686866118af565b505050505050565b600554811015610b295760405162461bcd60e51b8152602060048201526016602482015275125b9cdd59999a58da595b9d0814d55353481cd95b9d60521b6044820152606401610ac0565b6007546040516323b872dd60e01b8152336004820152306024820152604481018390526001600160a01b03909116906323b872dd906064016020604051808303816000875af1158015610b80573d6000803e3d6000fd5b505050506040513d601f19601f82011682018060405250810190610ba49190612e6c565b50600554811115610c44576007546005546001600160a01b039091169063a9059cbb903390610bd39085612e59565b6040516001600160e01b031960e085901b1681526001600160a01b03909216600483015260248201526044016020604051808303816000875af1158015610c1e573d6000803e3d6000fd5b505050506040513d601f19601f82011682018060405250810190610c429190612e6c565b505b6108ed33611916565b6000610c5761183e565b610c638585858561108d565b95945050505050565b60608151835114610c9d5781518351604051635b05999160e01b815260048101929092526024820152604401610ac0565b600083516001600160401b03811115610cb857610cb8612583565b604051908082528060200260200182016040528015610ce1578160200160208202803683370190505b50905060005b8451811015610d3057602080820286010151610d0b90602080840287010151610864565b828281518110610d1d57610d1d612e89565b6020908102919091010152600101610ce7565b509392505050565b600454341015610d825760405162461bcd60e51b8152602060048201526015602482015274125b9cdd59999a58da595b9d08115512081cd95b9d605a1b6044820152606401610ac0565b600454341115610dc95760045433906108fc90610d9f9034612e59565b6040518115909202916000818181858888f19350505050158015610dc7573d6000803e3d6000fd5b505b610dd233611916565b565b610ddc612479565b6001600160a01b03821660009081526009602090815260408083208151808301835281548152825160a08101938490529093919291840191600184019060059082845b815481526020019060010190808311610e1f5750505091909252505050602001519392505050565b6000610e5161183e565b610e5e8686868686611b0d565b9695505050505050565b6000610e743383610864565b11610ec15760405162461bcd60e51b815260206004820152601760248201527f596f7520646f206e6f74206f776e2074686973204e46540000000000000000006044820152606401610ac0565b336000908152600b60205260409020544290610ee09061384090612e46565b1115610f385760405162461bcd60e51b815260206004820152602160248201527f4578706c6f726174696f6e20636f6f6c646f776e206e6f74206f7665722079656044820152601d60fa1b6064820152608401610ac0565b336000908152600b60205260408120429055600a821015610f5b5750600a610f92565b6014821015610f6c5750600f610f92565b601e821015610f7d57506019610f92565b6028821015610f8e57506032610f92565b5060635b60006064610fa1600143612e59565b60408051914060208301526bffffffffffffffffffffffff193360601b1690820152605481018590526074016040516020818303038152906040528051906020012060001c610ff09190612eb5565b9050818110156110445761100333611916565b604080518481526001602082015233917f881e6a2d6e6ccc01db8059143b38355253b44e9248b47164c5f720b0ccfbefa091015b60405180910390a2505050565b61105033846001611d84565b604080518481526000602082015233917f881e6a2d6e6ccc01db8059143b38355253b44e9248b47164c5f720b0ccfbefa09101611037565b505050565b60008382146110ae5760405162461bcd60e51b8152600401610ac090612ec9565b60006110ba8484611696565b90508034146111035760405162461bcd60e51b81526020600482015260156024820152742a3930b739b332b91030b6b7bab73a1032b93937b960591b6044820152606401610ac0565b60005b858110156112115786868281811061112057611120612e89565b905060200201602081019061113591906126da565b6001600160a01b03166108fc86868481811061115357611153612e89565b905060200201359081150290604051600060405180830381858888f19350505050158015611185573d6000803e3d6000fd5b507f87bc0fc6d8dc230a2e147ddc101c27a3dab51eb54eb8e75ee269883777ef17c68787838181106111b9576111b9612e89565b90506020020160208101906111ce91906126da565b8686848181106111e0576111e0612e89565b604080516001600160a01b0390951685526020918202939093013590840152500160405180910390a1600101611106565b5060019695505050505050565b6001600160a01b038316331480159061123e575061123c83336116d7565b155b1561127257335b60405163711bec9160e11b81526001600160a01b0391821660048201529084166024820152604401610ac0565b611088838383611dec565b61128561183e565b610dd26000611e32565b61129761183e565b6109e484848484611e84565b6000600a6112af612497565b60008060005b60058110156113d75760008782600581106112d2576112d2612e89565b6020020135905060006112e53383610864565b11156113ce576000600860008a856005811061130357611303612e89565b60200201358152602001908152602001600020604051806060016040529081600082015481526020016001820154815260200160028201548152505090508060200151886113519190612e46565b97508581604001516006811061136957611369612e89565b6020020180519061137982612f13565b905250805160281180159061139057508051603110155b156113a7578461139f81612f13565b9550506113cc565b601e82101580156113b9575060278211155b156113cc57836113c881612f13565b9450505b505b506001016112b5565b5060008060015b6005811161145c57818682600681106113f9576113f9612e89565b60200201511061141d5785816006811061141557611415612e89565b602002015191505b600086826006811061143157611431612e89565b6020020151111561144a578261144681612f13565b9350505b8061145481612f13565b9150506113de565b508060050361146e57601995506114ae565b8060040361147f57601495506114ae565b8160050361149057600f95506114ae565b806003036114a157600d95506114ae565b806002036114ae57600c95505b6114b9846005612f2c565b6114c39087612e46565b95506114cf8387612e46565b9550600a6114dd8789612f2c565b6114e79190612f43565b336000908152600960205260408120549198500361154257600680546001810182556000919091527ff652222313e28459528d920b65115c16c04f3efc82aaedc97be59f3f377c0d3f0180546001600160a01b031916331790555b60405180604001604052808881526020018960058060200260405190810160405280929190826005602002808284376000920182905250929093525033815260096020908152604090912083518155908301519091506115a890600183019060056124b5565b50506040513391507f526177b3a45653ba9e9109c6159e36d32ef4916e007026750988e8cef5b9bd36906115df908a908c90612f57565b60405180910390a25050505050505050565b6115fc338383611ee1565b5050565b336000908152600a6020526040902054620151809061161f9042612e59565b10156116795760405162461bcd60e51b815260206004820152602360248201527f4d757374207761697420312064617920746f206f70656e20612066726565207060448201526261636b60e81b6064820152608401610ac0565b61168233611916565b336000908152600a60205260409020429055565b6000805b828110156116d0578383828181106116b4576116b4612e89565b90506020020135826116c69190612e46565b915060010161169a565b5092915050565b6001600160a01b03918216600090815260016020908152604080832093909416825291909152205460ff1690565b336001600160a01b0386168114801590611726575061172486826116d7565b155b156117575760405163711bec9160e11b81526001600160a01b03808316600483015287166024820152604401610ac0565b610ad68686868686611f77565b61176c61183e565b6001600160a01b03811661179657604051631e4fbdf760e01b815260006004820152602401610ac0565b6108ed81611e32565b6001600160a01b03811660009081526009602090815260408083208151808301835281548152825160a08101938490528594919391840191600184019060059082845b8154815260200190600101908083116117e2575050509190925250509051949350505050565b6001600160a01b0383163314801590611828575061182683336116d7565b155b156118335733611245565b611088838383611d84565b6003546001600160a01b03163314610dd25760405163118cdaa760e01b8152336004820152602401610ac0565b60026115fc8282612fb5565b6001600160a01b0384166118a157604051632bfa23e760e11b815260006004820152602401610ac0565b6109e4600085858585612005565b6001600160a01b0384166118d957604051632bfa23e760e11b815260006004820152602401610ac0565b6001600160a01b03851661190257604051626a0d4560e21b815260006004820152602401610ac0565b61190f8585858585612005565b5050505050565b60408051600580825260c082019092526000916020820160a080368337505060408051600580825260c0820190925292935060009291506020820160a08036833701905050905060005b6005811015611ab6576000611976600143612e59565b60408051914060208301526bffffffffffffffffffffffff19606088901b16908201526054810183905260740160408051601f198184030181529190528051602090910120905060006119ca606483612eb5565b90506000600a6119db606485612f43565b6119e59190612eb5565b9050603c821015611a145780868581518110611a0357611a03612e89565b602002602001018181525050611a8c565b6054821015611a3a57611a2881600a612e46565b868581518110611a0357611a03612e89565b605e821015611a4e57611a28816014612e46565b6063821015611a6257611a2881601e612e46565b611a6d816028612e46565b868581518110611a7f57611a7f612e89565b6020026020010181815250505b6001858581518110611aa057611aa0612e89565b6020908102919091010152505050600101611960565b50611ad283838360405180602001604052806000815250611877565b826001600160a01b03167ff7abfe87506a99dfe239c7c8cdb614b8c0bd515135b3897f983d0dd4c657aeaf8383604051611037929190613074565b6000838214611b2e5760405162461bcd60e51b8152600401610ac090612ec9565b856000611b3b8585611696565b604051636eb1769f60e11b815233600482015230602482015290915081906001600160a01b0384169063dd62ed3e90604401602060405180830381865afa158015611b8a573d6000803e3d6000fd5b505050506040513d601f19601f82011682018060405250810190611bae9190613099565b1015611bfc5760405162461bcd60e51b815260206004820152601860248201527f4e65656420417070726f766520455243323020746f6b656e00000000000000006044820152606401610ac0565b60005b60ff8116871115611d7557826001600160a01b03166323b872dd338a8a8560ff16818110611c2f57611c2f612e89565b9050602002016020810190611c4491906126da565b89898660ff16818110611c5957611c59612e89565b6040516001600160e01b031960e088901b1681526001600160a01b039586166004820152949093166024850152506020909102013560448201526064016020604051808303816000875af1158015611cb5573d6000803e3d6000fd5b505050506040513d601f19601f82011682018060405250810190611cd99190612e6c565b507f87bc0fc6d8dc230a2e147ddc101c27a3dab51eb54eb8e75ee269883777ef17c688888360ff16818110611d1057611d10612e89565b9050602002016020810190611d2591906126da565b87878460ff16818110611d3a57611d3a612e89565b604080516001600160a01b0390951685526020918202939093013590840152500160405180910390a180611d6d816130b2565b915050611bff565b50600198975050505050505050565b6001600160a01b038316611dad57604051626a0d4560e21b815260006004820152602401610ac0565b604080516001808252602082018590528183019081526060820184905260a0820190925260006080820181815291929161190f91879185908590612005565b6001600160a01b038316611e1557604051626a0d4560e21b815260006004820152602401610ac0565b611088836000848460405180602001604052806000815250612005565b600380546001600160a01b038381166001600160a01b0319831681179093556040519116919082907f8be0079c531659141344cd1fd0a4f28419497f9722a3daafe3b4186f6b6457e090600090a35050565b6001600160a01b038416611eae57604051632bfa23e760e11b815260006004820152602401610ac0565b60408051600180825260208201869052818301908152606082018590526080820190925290610ad6600087848487612005565b6001600160a01b038216611f0a5760405162ced3e160e81b815260006004820152602401610ac0565b6001600160a01b03838116600081815260016020908152604080832094871680845294825291829020805460ff191686151590811790915591519182527f17307eab39ab6107e8899845ad3d59bd9653f200f220920489ca2b5937696c31910160405180910390a3505050565b6001600160a01b038416611fa157604051632bfa23e760e11b815260006004820152602401610ac0565b6001600160a01b038516611fca57604051626a0d4560e21b815260006004820152602401610ac0565b60408051600180825260208201869052818301908152606082018590526080820190925290611ffc8787848487612005565b50505050505050565b61201185858585612058565b6001600160a01b0384161561190f578251339060010361204a576020848101519084015161204383898985858961226c565b5050610ad6565b610ad6818787878787612390565b80518251146120875781518151604051635b05999160e01b815260048101929092526024820152604401610ac0565b3360005b835181101561218d576020818102858101820151908501909101516001600160a01b0388161561213e576000828152602081815260408083206001600160a01b038c16845290915290205481811015612117576040516303dee4c560e01b81526001600160a01b038a166004820152602481018290526044810183905260648101849052608401610ac0565b6000838152602081815260408083206001600160a01b038d16845290915290209082900390555b6001600160a01b03871615612183576000828152602081815260408083206001600160a01b038b1684529091528120805483929061217d908490612e46565b90915550505b505060010161208b565b50825160010361220e5760208301516000906020840151909150856001600160a01b0316876001600160a01b0316846001600160a01b03167fc3d58168c5ae7397731d063d5bbf3d657854427343f4c083240f7aacaa2d0f6285856040516121ff929190918252602082015260400190565b60405180910390a4505061190f565b836001600160a01b0316856001600160a01b0316826001600160a01b03167f4a39dc06d4c0dbc64b70af90fd698a233a518aa5d07e595d983b8c0526c8f7fb868660405161225d929190613074565b60405180910390a45050505050565b6001600160a01b0384163b15610ad65760405163f23a6e6160e01b81526001600160a01b0385169063f23a6e61906122b090899089908890889088906004016130d1565b6020604051808303816000875af19250505080156122eb575060408051601f3d908101601f191682019092526122e891810190613116565b60015b612354573d808015612319576040519150601f19603f3d011682016040523d82523d6000602084013e61231e565b606091505b50805160000361234c57604051632bfa23e760e11b81526001600160a01b0386166004820152602401610ac0565b805181602001fd5b6001600160e01b0319811663f23a6e6160e01b14611ffc57604051632bfa23e760e11b81526001600160a01b0386166004820152602401610ac0565b6001600160a01b0384163b15610ad65760405163bc197c8160e01b81526001600160a01b0385169063bc197c81906123d49089908990889088908890600401613133565b6020604051808303816000875af192505050801561240f575060408051601f3d908101601f1916820190925261240c91810190613116565b60015b61243d573d808015612319576040519150601f19603f3d011682016040523d82523d6000602084013e61231e565b6001600160e01b0319811663bc197c8160e01b14611ffc57604051632bfa23e760e11b81526001600160a01b0386166004820152602401610ac0565b6040518060a001604052806005906020820280368337509192915050565b6040518060c001604052806006906020820280368337509192915050565b82600581019282156124e3579160200282015b828111156124e35782518255916020019190600101906124c8565b506124ef9291506124f3565b5090565b5b808211156124ef57600081556001016124f4565b6001600160a01b03811681146108ed57600080fd5b6000806040838503121561253057600080fd5b823561253b81612508565b946020939093013593505050565b6001600160e01b0319811681146108ed57600080fd5b60006020828403121561257157600080fd5b813561257c81612549565b9392505050565b634e487b7160e01b600052604160045260246000fd5b604051601f8201601f191681016001600160401b03811182821017156125c1576125c1612583565b604052919050565b60006001600160401b038311156125e2576125e2612583565b6125f5601f8401601f1916602001612599565b905082815283838301111561260957600080fd5b828260208301376000602084830101529392505050565b60006020828403121561263257600080fd5b81356001600160401b0381111561264857600080fd5b8201601f8101841361265957600080fd5b6109c8848235602084016125c9565b6000815180845260005b8181101561268e57602081850181015186830182015201612672565b506000602082860101526020601f19601f83011685010191505092915050565b60208152600061257c6020830184612668565b6000602082840312156126d357600080fd5b5035919050565b6000602082840312156126ec57600080fd5b813561257c81612508565b60006001600160401b0382111561271057612710612583565b5060051b60200190565b600082601f83011261272b57600080fd5b8135602061274061273b836126f7565b612599565b8083825260208201915060208460051b87010193508684111561276257600080fd5b602086015b8481101561277e5780358352918301918301612767565b509695505050505050565b600082601f83011261279a57600080fd5b61257c838335602085016125c9565b600080600080608085870312156127bf57600080fd5b84356127ca81612508565b935060208501356001600160401b03808211156127e657600080fd5b6127f28883890161271a565b9450604087013591508082111561280857600080fd5b6128148883890161271a565b9350606087013591508082111561282a57600080fd5b5061283787828801612789565b91505092959194509250565b6020808252825182820181905260009190848201906040850190845b818110156128845783516001600160a01b03168352928401929184019160010161285f565b50909695505050505050565b600080600080600060a086880312156128a857600080fd5b85356128b381612508565b945060208601356128c381612508565b935060408601356001600160401b03808211156128df57600080fd5b6128eb89838a0161271a565b9450606088013591508082111561290157600080fd5b61290d89838a0161271a565b9350608088013591508082111561292357600080fd5b5061293088828901612789565b9150509295509295909350565b60008083601f84011261294f57600080fd5b5081356001600160401b0381111561296657600080fd5b6020830191508360208260051b850101111561298157600080fd5b9250929050565b6000806000806040858703121561299e57600080fd5b84356001600160401b03808211156129b557600080fd5b6129c18883890161293d565b909650945060208701359150808211156129da57600080fd5b506129e78782880161293d565b95989497509550505050565b60008060408385031215612a0657600080fd5b82356001600160401b0380821115612a1d57600080fd5b818501915085601f830112612a3157600080fd5b81356020612a4161273b836126f7565b82815260059290921b84018101918181019089841115612a6057600080fd5b948201945b83861015612a87578535612a7881612508565b82529482019490820190612a65565b96505086013592505080821115612a9d57600080fd5b50612aaa8582860161271a565b9150509250929050565b60008151808452602080850194506020840160005b83811015612ae557815187529582019590820190600101612ac9565b509495945050505050565b60208152600061257c6020830184612ab4565b60a08101818360005b6005811015612b2b578151835260209283019290910190600101612b0c565b50505092915050565b600080600080600060608688031215612b4c57600080fd5b8535612b5781612508565b945060208601356001600160401b0380821115612b7357600080fd5b612b7f89838a0161293d565b90965094506040880135915080821115612b9857600080fd5b50612ba58882890161293d565b969995985093965092949392505050565b600080600060608486031215612bcb57600080fd5b8335612bd681612508565b925060208401356001600160401b0380821115612bf257600080fd5b612bfe8783880161271a565b93506040860135915080821115612c1457600080fd5b50612c218682870161271a565b9150509250925092565b60008060008060808587031215612c4157600080fd5b8435612c4c81612508565b9350602085013592506040850135915060608501356001600160401b03811115612c7557600080fd5b61283787828801612789565b600060a08284031215612c9357600080fd5b8260a083011115612ca357600080fd5b50919050565b80151581146108ed57600080fd5b60008060408385031215612cca57600080fd5b8235612cd581612508565b91506020830135612ce581612ca9565b809150509250929050565b60008060208385031215612d0357600080fd5b82356001600160401b03811115612d1957600080fd5b612d258582860161293d565b90969095509350505050565b60008060408385031215612d4457600080fd5b8235612d4f81612508565b91506020830135612ce581612508565b600080600080600060a08688031215612d7757600080fd5b8535612d8281612508565b94506020860135612d9281612508565b9350604086013592506060860135915060808601356001600160401b03811115612dbb57600080fd5b61293088828901612789565b600080600060608486031215612ddc57600080fd5b8335612de781612508565b95602085013595506040909401359392505050565b600181811c90821680612e1057607f821691505b602082108103612ca357634e487b7160e01b600052602260045260246000fd5b634e487b7160e01b600052601160045260246000fd5b8082018082111561088657610886612e30565b8181038181111561088657610886612e30565b600060208284031215612e7e57600080fd5b815161257c81612ca9565b634e487b7160e01b600052603260045260246000fd5b634e487b7160e01b600052601260045260246000fd5b600082612ec457612ec4612e9f565b500690565b6020808252602a908201527f4c656e67746873206f662041646472657373657320616e6420416d6f756e7473604082015269081393d508115455505360b21b606082015260800190565b600060018201612f2557612f25612e30565b5060010190565b808202811582820484141761088657610886612e30565b600082612f5257612f52612e9f565b500490565b82815260c0810160a08360208401379392505050565b601f821115611088576000816000526020600020601f850160051c81016020861015612f965750805b601f850160051c820191505b81811015610ad657828155600101612fa2565b81516001600160401b03811115612fce57612fce612583565b612fe281612fdc8454612dfc565b84612f6d565b602080601f8311600181146130175760008415612fff5750858301515b600019600386901b1c1916600185901b178555610ad6565b600085815260208120601f198616915b8281101561304657888601518255948401946001909101908401613027565b50858210156130645787850151600019600388901b60f8161c191681555b5050505050600190811b01905550565b6040815260006130876040830185612ab4565b8281036020840152610c638185612ab4565b6000602082840312156130ab57600080fd5b5051919050565b600060ff821660ff81036130c8576130c8612e30565b60010192915050565b6001600160a01b03868116825285166020820152604081018490526060810183905260a06080820181905260009061310b90830184612668565b979650505050505050565b60006020828403121561312857600080fd5b815161257c81612549565b6001600160a01b0386811682528516602082015260a06040820181905260009061315f90830186612ab4565b82810360608401526131718186612ab4565b905082810360808401526131858185612668565b9897505050505050505056fea264697066735822122043af45d90cf1e0d3af732e14650196631ceb896f2be5c160d0328427c8e280dd64736f6c63430008170033",
    "linkReferences": {}
  },
  "methodIdentifiers": {
    "NAME()": "a3f4df7e",
    "VERSION()": "ffa1ad74",
    "_airdropMATIC(address[],uint256[])": "6917371f",
    "_token()": "ecd0c0c3",
    "airdropMATIC(address[],uint256[])": "4d4224d8",
    "airdropToken(address,address[],uint256[])": "63aedb38",
    "balanceOf(address,uint256)": "00fdd58e",
    "balanceOfBatch(address[],uint256[])": "4e1273f4",
    "burn(address,uint256,uint256)": "f5298aca",
    "burnBatch(address,uint256[],uint256[])": "6b20c454",
    "cards(uint256)": "8dc10768",
    "createTeam(uint256[5])": "923c1a06",
    "explorationCooldown()": "3b584960",
    "explore(uint256)": "6457e389",
    "getAllPlayerAddresses()": "2c3f9700",
    "getExplorationCooldown(address)": "2535e0dd",
    "getFreePackCooldown(address)": "1312b24e",
    "getSum(uint256[])": "ccb8c1e0",
    "getTeamCards(address)": "5f049d5b",
    "getTeamPower(address)": "f473085d",
    "isApprovedForAll(address,address)": "e985e9c5",
    "lastExplorationTime(address)": "3bf3812b",
    "lastOpenedFreePack(address)": "500ccabf",
    "mint(address,uint256,uint256,bytes)": "731133e9",
    "mintBatch(address,uint256[],uint256[],bytes)": "1f7fdffa",
    "name()": "06fdde03",
    "openBuyPackMatic()": "530c9f2d",
    "openBuyPackToken(uint256)": "30a034d6",
    "openFreePack()": "ac8c733d",
    "owner()": "8da5cb5b",
    "packPriceMatic()": "1b84f1a8",
    "packPriceToken()": "d6d902bb",
    "renounceOwnership()": "715018a6",
    "safeBatchTransferFrom(address,address,uint256[],uint256[],bytes)": "2eb2c2d6",
    "safeTransferFrom(address,address,uint256,uint256,bytes)": "f242432a",
    "setApprovalForAll(address,bool)": "a22cb465",
    "setURI(string)": "02fe5305",
    "supportsInterface(bytes4)": "01ffc9a7",
    "teams(address)": "c4583240",
    "token()": "fc0c546a",
    "transferOwnership(address)": "f2fde38b",
    "uri(uint256)": "0e89341c",
    "version()": "54fd4d50"
  },
  "id": 1
}