{"abi":[{"type":"constructor","inputs":[{"name":"initialOwner","type":"address","internalType":"address"}],"stateMutability":"nonpayable"},{"type":"function","name":"NAME","inputs":[],"outputs":[{"name":"","type":"string","internalType":"string"}],"stateMutability":"view"},{"type":"function","name":"VERSION","inputs":[],"outputs":[{"name":"","type":"string","internalType":"string"}],"stateMutability":"view"},{"type":"function","name":"_airdropMATIC","inputs":[{"name":"_addresses","type":"address[]","internalType":"address payable[]"},{"name":"_amounts","type":"uint256[]","internalType":"uint256[]"}],"outputs":[{"name":"","type":"bool","internalType":"bool"}],"stateMutability":"payable"},{"type":"function","name":"_token","inputs":[],"outputs":[{"name":"","type":"address","internalType":"contract IERC20"}],"stateMutability":"view"},{"type":"function","name":"_weeks","inputs":[],"outputs":[{"name":"","type":"uint256","internalType":"uint256"}],"stateMutability":"view"},{"type":"function","name":"airdropMATIC","inputs":[{"name":"_addresses","type":"address[]","internalType":"address payable[]"},{"name":"_amounts","type":"uint256[]","internalType":"uint256[]"}],"outputs":[{"name":"","type":"bool","internalType":"bool"}],"stateMutability":"payable"},{"type":"function","name":"airdropToken","inputs":[{"name":"airdropTokenAddress","type":"address","internalType":"address"},{"name":"_addresses","type":"address[]","internalType":"address[]"},{"name":"_amounts","type":"uint256[]","internalType":"uint256[]"}],"outputs":[{"name":"","type":"bool","internalType":"bool"}],"stateMutability":"nonpayable"},{"type":"function","name":"balanceOf","inputs":[{"name":"account","type":"address","internalType":"address"},{"name":"id","type":"uint256","internalType":"uint256"}],"outputs":[{"name":"","type":"uint256","internalType":"uint256"}],"stateMutability":"view"},{"type":"function","name":"balanceOfBatch","inputs":[{"name":"accounts","type":"address[]","internalType":"address[]"},{"name":"ids","type":"uint256[]","internalType":"uint256[]"}],"outputs":[{"name":"","type":"uint256[]","internalType":"uint256[]"}],"stateMutability":"view"},{"type":"function","name":"burn","inputs":[{"name":"account","type":"address","internalType":"address"},{"name":"id","type":"uint256","internalType":"uint256"},{"name":"value","type":"uint256","internalType":"uint256"}],"outputs":[],"stateMutability":"nonpayable"},{"type":"function","name":"burnBatch","inputs":[{"name":"account","type":"address","internalType":"address"},{"name":"ids","type":"uint256[]","internalType":"uint256[]"},{"name":"values","type":"uint256[]","internalType":"uint256[]"}],"outputs":[],"stateMutability":"nonpayable"},{"type":"function","name":"cards","inputs":[{"name":"","type":"uint256","internalType":"uint256"}],"outputs":[{"name":"id","type":"uint256","internalType":"uint256"},{"name":"power","type":"uint256","internalType":"uint256"},{"name":"attributes","type":"uint256","internalType":"uint256"}],"stateMutability":"view"},{"type":"function","name":"changePackPriceMatic","inputs":[{"name":"_price","type":"uint256","internalType":"uint256"}],"outputs":[],"stateMutability":"nonpayable"},{"type":"function","name":"changePackPriceToken","inputs":[{"name":"_price","type":"uint256","internalType":"uint256"}],"outputs":[],"stateMutability":"nonpayable"},{"type":"function","name":"changeToken","inputs":[{"name":"contractAddress","type":"address","internalType":"contract IERC20"}],"outputs":[],"stateMutability":"nonpayable"},{"type":"function","name":"createTeam","inputs":[{"name":"cardIds","type":"uint256[5]","internalType":"uint256[5]"}],"outputs":[],"stateMutability":"nonpayable"},{"type":"function","name":"explorationCooldown","inputs":[],"outputs":[{"name":"","type":"uint256","internalType":"uint256"}],"stateMutability":"view"},{"type":"function","name":"explore","inputs":[{"name":"tokenId","type":"uint256","internalType":"uint256"}],"outputs":[],"stateMutability":"nonpayable"},{"type":"function","name":"getAllPlayerAddresses","inputs":[],"outputs":[{"name":"","type":"address[]","internalType":"address[]"}],"stateMutability":"view"},{"type":"function","name":"getExplorationCooldown","inputs":[{"name":"user","type":"address","internalType":"address"}],"outputs":[{"name":"","type":"uint256","internalType":"uint256"}],"stateMutability":"view"},{"type":"function","name":"getFreePackCooldown","inputs":[{"name":"user","type":"address","internalType":"address"}],"outputs":[{"name":"","type":"uint256","internalType":"uint256"}],"stateMutability":"view"},{"type":"function","name":"getSum","inputs":[{"name":"_arr","type":"uint256[]","internalType":"uint256[]"}],"outputs":[{"name":"sum","type":"uint256","internalType":"uint256"}],"stateMutability":"pure"},{"type":"function","name":"getTeamCards","inputs":[{"name":"user","type":"address","internalType":"address"}],"outputs":[{"name":"","type":"uint256[5]","internalType":"uint256[5]"}],"stateMutability":"view"},{"type":"function","name":"getTeamPower","inputs":[{"name":"user","type":"address","internalType":"address"}],"outputs":[{"name":"","type":"uint256","internalType":"uint256"}],"stateMutability":"view"},{"type":"function","name":"isApprovedForAll","inputs":[{"name":"account","type":"address","internalType":"address"},{"name":"operator","type":"address","internalType":"address"}],"outputs":[{"name":"","type":"bool","internalType":"bool"}],"stateMutability":"view"},{"type":"function","name":"lastAirdropMatic","inputs":[],"outputs":[{"name":"","type":"uint256","internalType":"uint256"}],"stateMutability":"view"},{"type":"function","name":"lastAirdropToken","inputs":[],"outputs":[{"name":"","type":"uint256","internalType":"uint256"}],"stateMutability":"view"},{"type":"function","name":"lastExplorationTime","inputs":[{"name":"","type":"address","internalType":"address"}],"outputs":[{"name":"","type":"uint256","internalType":"uint256"}],"stateMutability":"view"},{"type":"function","name":"lastOpenedFreePack","inputs":[{"name":"","type":"address","internalType":"address"}],"outputs":[{"name":"","type":"uint256","internalType":"uint256"}],"stateMutability":"view"},{"type":"function","name":"mint","inputs":[{"name":"account","type":"address","internalType":"address"},{"name":"id","type":"uint256","internalType":"uint256"},{"name":"amount","type":"uint256","internalType":"uint256"},{"name":"data","type":"bytes","internalType":"bytes"}],"outputs":[],"stateMutability":"nonpayable"},{"type":"function","name":"mintBatch","inputs":[{"name":"to","type":"address","internalType":"address"},{"name":"ids","type":"uint256[]","internalType":"uint256[]"},{"name":"amounts","type":"uint256[]","internalType":"uint256[]"},{"name":"data","type":"bytes","internalType":"bytes"}],"outputs":[],"stateMutability":"nonpayable"},{"type":"function","name":"name","inputs":[],"outputs":[{"name":"","type":"string","internalType":"string"}],"stateMutability":"pure"},{"type":"function","name":"openBuyPackMatic","inputs":[],"outputs":[],"stateMutability":"payable"},{"type":"function","name":"openBuyPackToken","inputs":[{"name":"_amount","type":"uint256","internalType":"uint256"}],"outputs":[],"stateMutability":"nonpayable"},{"type":"function","name":"openFreePack","inputs":[],"outputs":[],"stateMutability":"nonpayable"},{"type":"function","name":"owner","inputs":[],"outputs":[{"name":"","type":"address","internalType":"address"}],"stateMutability":"view"},{"type":"function","name":"packPriceMatic","inputs":[],"outputs":[{"name":"","type":"uint256","internalType":"uint256"}],"stateMutability":"view"},{"type":"function","name":"packPriceToken","inputs":[],"outputs":[{"name":"","type":"uint256","internalType":"uint256"}],"stateMutability":"view"},{"type":"function","name":"renounceOwnership","inputs":[],"outputs":[],"stateMutability":"nonpayable"},{"type":"function","name":"safeBatchTransferFrom","inputs":[{"name":"from","type":"address","internalType":"address"},{"name":"to","type":"address","internalType":"address"},{"name":"ids","type":"uint256[]","internalType":"uint256[]"},{"name":"values","type":"uint256[]","internalType":"uint256[]"},{"name":"data","type":"bytes","internalType":"bytes"}],"outputs":[],"stateMutability":"nonpayable"},{"type":"function","name":"safeTransferFrom","inputs":[{"name":"from","type":"address","internalType":"address"},{"name":"to","type":"address","internalType":"address"},{"name":"id","type":"uint256","internalType":"uint256"},{"name":"value","type":"uint256","internalType":"uint256"},{"name":"data","type":"bytes","internalType":"bytes"}],"outputs":[],"stateMutability":"nonpayable"},{"type":"function","name":"setApprovalForAll","inputs":[{"name":"operator","type":"address","internalType":"address"},{"name":"approved","type":"bool","internalType":"bool"}],"outputs":[],"stateMutability":"nonpayable"},{"type":"function","name":"setURI","inputs":[{"name":"newuri","type":"string","internalType":"string"}],"outputs":[],"stateMutability":"nonpayable"},{"type":"function","name":"supportsInterface","inputs":[{"name":"interfaceId","type":"bytes4","internalType":"bytes4"}],"outputs":[{"name":"","type":"bool","internalType":"bool"}],"stateMutability":"view"},{"type":"function","name":"teams","inputs":[{"name":"","type":"address","internalType":"address"}],"outputs":[{"name":"totalPower","type":"uint256","internalType":"uint256"}],"stateMutability":"view"},{"type":"function","name":"token","inputs":[],"outputs":[{"name":"tokenAddress","type":"address","internalType":"address"}],"stateMutability":"view"},{"type":"function","name":"transferOwnership","inputs":[{"name":"newOwner","type":"address","internalType":"address"}],"outputs":[],"stateMutability":"nonpayable"},{"type":"function","name":"uri","inputs":[{"name":"","type":"uint256","internalType":"uint256"}],"outputs":[{"name":"","type":"string","internalType":"string"}],"stateMutability":"view"},{"type":"function","name":"version","inputs":[],"outputs":[{"name":"","type":"string","internalType":"string"}],"stateMutability":"pure"},{"type":"event","name":"ApprovalForAll","inputs":[{"name":"account","type":"address","indexed":true,"internalType":"address"},{"name":"operator","type":"address","indexed":true,"internalType":"address"},{"name":"approved","type":"bool","indexed":false,"internalType":"bool"}],"anonymous":false},{"type":"event","name":"Exploration","inputs":[{"name":"user","type":"address","indexed":true,"internalType":"address"},{"name":"tokenId","type":"uint256","indexed":false,"internalType":"uint256"},{"name":"success","type":"bool","indexed":false,"internalType":"bool"}],"anonymous":false},{"type":"event","name":"OwnershipTransferred","inputs":[{"name":"previousOwner","type":"address","indexed":true,"internalType":"address"},{"name":"newOwner","type":"address","indexed":true,"internalType":"address"}],"anonymous":false},{"type":"event","name":"PackOpened","inputs":[{"name":"user","type":"address","indexed":true,"internalType":"address"},{"name":"cardIds","type":"uint256[]","indexed":false,"internalType":"uint256[]"},{"name":"amounts","type":"uint256[]","indexed":false,"internalType":"uint256[]"}],"anonymous":false},{"type":"event","name":"TeamCreated","inputs":[{"name":"user","type":"address","indexed":true,"internalType":"address"},{"name":"totalPower","type":"uint256","indexed":false,"internalType":"uint256"},{"name":"cardIds","type":"uint256[5]","indexed":false,"internalType":"uint256[5]"}],"anonymous":false},{"type":"event","name":"TokenAirdrop","inputs":[{"name":"beneficiary","type":"address","indexed":false,"internalType":"address"},{"name":"amount","type":"uint256","indexed":false,"internalType":"uint256"}],"anonymous":false},{"type":"event","name":"TransferBatch","inputs":[{"name":"operator","type":"address","indexed":true,"internalType":"address"},{"name":"from","type":"address","indexed":true,"internalType":"address"},{"name":"to","type":"address","indexed":true,"internalType":"address"},{"name":"ids","type":"uint256[]","indexed":false,"internalType":"uint256[]"},{"name":"values","type":"uint256[]","indexed":false,"internalType":"uint256[]"}],"anonymous":false},{"type":"event","name":"TransferSingle","inputs":[{"name":"operator","type":"address","indexed":true,"internalType":"address"},{"name":"from","type":"address","indexed":true,"internalType":"address"},{"name":"to","type":"address","indexed":true,"internalType":"address"},{"name":"id","type":"uint256","indexed":false,"internalType":"uint256"},{"name":"value","type":"uint256","indexed":false,"internalType":"uint256"}],"anonymous":false},{"type":"event","name":"URI","inputs":[{"name":"value","type":"string","indexed":false,"internalType":"string"},{"name":"id","type":"uint256","indexed":true,"internalType":"uint256"}],"anonymous":false},{"type":"error","name":"ERC1155InsufficientBalance","inputs":[{"name":"sender","type":"address","internalType":"address"},{"name":"balance","type":"uint256","internalType":"uint256"},{"name":"needed","type":"uint256","internalType":"uint256"},{"name":"tokenId","type":"uint256","internalType":"uint256"}]},{"type":"error","name":"ERC1155InvalidApprover","inputs":[{"name":"approver","type":"address","internalType":"address"}]},{"type":"error","name":"ERC1155InvalidArrayLength","inputs":[{"name":"idsLength","type":"uint256","internalType":"uint256"},{"name":"valuesLength","type":"uint256","internalType":"uint256"}]},{"type":"error","name":"ERC1155InvalidOperator","inputs":[{"name":"operator","type":"address","internalType":"address"}]},{"type":"error","name":"ERC1155InvalidReceiver","inputs":[{"name":"receiver","type":"address","internalType":"address"}]},{"type":"error","name":"ERC1155InvalidSender","inputs":[{"name":"sender","type":"address","internalType":"address"}]},{"type":"error","name":"ERC1155MissingApprovalForAll","inputs":[{"name":"operator","type":"address","internalType":"address"},{"name":"owner","type":"address","internalType":"address"}]},{"type":"error","name":"OwnableInvalidOwner","inputs":[{"name":"owner","type":"address","internalType":"address"}]},{"type":"error","name":"OwnableUnauthorizedAccount","inputs":[{"name":"account","type":"address","internalType":"address"}]}],"bytecode":{"object":"0x60806040526005600455678ac7230489e8000060055560016006553480156200002757600080fd5b5060405162004aa238038062004aa28339810160408190526200004a9162001583565b60408051602081019091526000815281906200006681620000b4565b506001600160a01b0381166200009757604051631e4fbdf760e01b8152600060048201526024015b60405180910390fd5b620000a281620000c6565b50620000ad62000118565b5062001728565b6002620000c282826200165c565b5050565b600380546001600160a01b038381166001600160a01b0319831681179093556040519116919082907f8be0079c531659141344cd1fd0a4f28419497f9722a3daafe3b4186f6b6457e090600090a35050565b6200012262001552565b604051806060016040528060008152602001600a81526020016004815250600b6000808152602001908152602001600020600082015181600001556020820151816001015560408201518160020155905050604051806060016040528060018152602001600b81526020016003815250600b600060018152602001908152602001600020600082015181600001556020820151816001015560408201518160020155905050604051806060016040528060028152602001600b81526020016002815250600b600060028152602001908152602001600020600082015181600001556020820151816001015560408201518160020155905050604051806060016040528060038152602001600d81526020016004815250600b600060038152602001908152602001600020600082015181600001556020820151816001015560408201518160020155905050604051806060016040528060048152602001600f81526020016001815250600b600060048152602001908152602001600020600082015181600001556020820151816001015560408201518160020155905050604051806060016040528060058152602001601081526020016001815250600b600060058152602001908152602001600020600082015181600001556020820151816001015560408201518160020155905050604051806060016040528060068152602001601081526020016005815250600b600060068152602001908152602001600020600082015181600001556020820151816001015560408201518160020155905050604051806060016040528060078152602001601281526020016005815250600b600060078152602001908152602001600020600082015181600001556020820151816001015560408201518160020155905050604051806060016040528060088152602001601481526020016002815250600b600060088152602001908152602001600020600082015181600001556020820151816001015560408201518160020155905050604051806060016040528060098152602001601481526020016003815250600b6000600981526020019081526020016000206000820151816000015560208201518160010155604082015181600201559050506040518060600160405280600a8152602001601981526020016004815250600b6000600a81526020019081526020016000206000820151816000015560208201518160010155604082015181600201559050506040518060600160405280600b8152602001601981526020016002815250600b6000600b81526020019081526020016000206000820151816000015560208201518160010155604082015181600201559050506040518060600160405280600c8152602001601b81526020016001815250600b6000600c81526020019081526020016000206000820151816000015560208201518160010155604082015181600201559050506040518060600160405280600d8152602001601b81526020016001815250600b6000600d81526020019081526020016000206000820151816000015560208201518160010155604082015181600201559050506040518060600160405280600e8152602001601c81526020016003815250600b6000600e81526020019081526020016000206000820151816000015560208201518160010155604082015181600201559050506040518060600160405280600f8152602001601d81526020016005815250600b6000600f8152602001908152602001600020600082015181600001556020820151816001015560408201518160020155905050604051806060016040528060108152602001601e81526020016004815250600b600060108152602001908152602001600020600082015181600001556020820151816001015560408201518160020155905050604051806060016040528060118152602001602081526020016002815250600b600060118152602001908152602001600020600082015181600001556020820151816001015560408201518160020155905050604051806060016040528060128152602001602281526020016005815250600b600060128152602001908152602001600020600082015181600001556020820151816001015560408201518160020155905050604051806060016040528060138152602001602381526020016003815250600b600060138152602001908152602001600020600082015181600001556020820151816001015560408201518160020155905050604051806060016040528060148152602001602881526020016001815250600b600060148152602001908152602001600020600082015181600001556020820151816001015560408201518160020155905050604051806060016040528060158152602001602a81526020016003815250600b600060158152602001908152602001600020600082015181600001556020820151816001015560408201518160020155905050604051806060016040528060168152602001602a81526020016004815250600b600060168152602001908152602001600020600082015181600001556020820151816001015560408201518160020155905050604051806060016040528060178152602001602b81526020016002815250600b600060178152602001908152602001600020600082015181600001556020820151816001015560408201518160020155905050604051806060016040528060188152602001602b81526020016004815250600b600060188152602001908152602001600020600082015181600001556020820151816001015560408201518160020155905050604051806060016040528060198152602001602d81526020016001815250600b6000601981526020019081526020016000206000820151816000015560208201518160010155604082015181600201559050506040518060600160405280601a8152602001602f81526020016002815250600b6000601a81526020019081526020016000206000820151816000015560208201518160010155604082015181600201559050506040518060600160405280601b8152602001602f81526020016005815250600b6000601b81526020019081526020016000206000820151816000015560208201518160010155604082015181600201559050506040518060600160405280601c8152602001603081526020016003815250600b6000601c81526020019081526020016000206000820151816000015560208201518160010155604082015181600201559050506040518060600160405280601d8152602001603281526020016005815250600b6000601d81526020019081526020016000206000820151816000015560208201518160010155604082015181600201559050506040518060600160405280601e8152602001603c81526020016004815250600b6000601e81526020019081526020016000206000820151816000015560208201518160010155604082015181600201559050506040518060600160405280601f8152602001603e81526020016003815250600b6000601f81526020019081526020016000206000820151816000015560208201516001808301919091556040928301516002928301558251606080820185526020808352603e81840190815260048488018181526000848152600b80865296517fb10abab70a2ef2fa946b30d974e5e317186cbaf46f2adc6545c47b45e73e387b5592517fb10abab70a2ef2fa946b30d974e5e317186cbaf46f2adc6545c47b45e73e387c55517fb10abab70a2ef2fa946b30d974e5e317186cbaf46f2adc6545c47b45e73e387d55875180850189526021808252603f8286019081526003838c0181815292865288875292517f148eb1980f0c925cbdb1f166a4451931eb6990d492a56139b8c3c513bebe8b3e55517f148eb1980f0c925cbdb1f166a4451931eb6990d492a56139b8c3c513bebe8b3f55517f148eb1980f0c925cbdb1f166a4451931eb6990d492a56139b8c3c513bebe8b405588518086018a5260228082528186018b8152828c018a815291865288875291517fa45952ddd428c2ec604e2baffdc897459c2280ad06e7cafbaa8137d8f9da49155590517fa45952ddd428c2ec604e2baffdc897459c2280ad06e7cafbaa8137d8f9da491655517fa45952ddd428c2ec604e2baffdc897459c2280ad06e7cafbaa8137d8f9da49175588518086018a5260238082526042828701818152838d018b815292875289885292517f84e40d35deabe04e516508e669f7a4dd187cca694dc6f143d0066381de33cc625591517f84e40d35deabe04e516508e669f7a4dd187cca694dc6f143d0066381de33cc6355517f84e40d35deabe04e516508e669f7a4dd187cca694dc6f143d0066381de33cc645589518087018b5260248082528187019283526005828d0181815291875289885291517f34e77de051017b2fbd9747e1b885d7d15810441e1bee16d645955fac740286ed5591517f34e77de051017b2fbd9747e1b885d7d15810441e1bee16d645955fac740286ee5590517f34e77de051017b2fbd9747e1b885d7d15810441e1bee16d645955fac740286ef5589518087018b5260258082526044828801908152828d018c815291875289885291517fa540feb1f99e155d959f697c8082237828904205cfa551567081ce32e511a4435590517fa540feb1f99e155d959f697c8082237828904205cfa551567081ce32e511a44455517fa540feb1f99e155d959f697c8082237828904205cfa551567081ce32e511a4455589518087018b5260268082526045828801908152828d0184815291875289885291517ffe5e00d72c4d53724d91c01ff55c7ce9279b5015557c5169a4b97310595714775590517ffe5e00d72c4d53724d91c01ff55c7ce9279b5015557c5169a4b973105957147855517ffe5e00d72c4d53724d91c01ff55c7ce9279b5015557c5169a4b97310595714795589518087018b5260278082526046828801908152828d018c815291875289885291517f8c7b3adb441a049d9107122a72a5364a662a8a42e6a1edcace53608e144179955590517f8c7b3adb441a049d9107122a72a5364a662a8a42e6a1edcace53608e1441799655517f8c7b3adb441a049d9107122a72a5364a662a8a42e6a1edcace53608e144179975589518087018b5260288082526055828801908152828d0184815291875289885291517fb0c7037c2ad32479f0d99fc6573c97ffde4621dbcb10fa8ea5374655f003b0cf5590517fb0c7037c2ad32479f0d99fc6573c97ffde4621dbcb10fa8ea5374655f003b0d055517fb0c7037c2ad32479f0d99fc6573c97ffde4621dbcb10fa8ea5374655f003b0d15589518087018b5260298082526056828801908152828d018c815291875289885291517fcfee055bf31255d3d90995580c171b9d215b8787a68cdf41d88f000fb33e5fcf5590517fcfee055bf31255d3d90995580c171b9d215b8787a68cdf41d88f000fb33e5fd055517fcfee055bf31255d3d90995580c171b9d215b8787a68cdf41d88f000fb33e5fd15589518087018b52602a8082526057828801908152828d0193845290865288875290517fda204be036e53b730a88c834137c75955908459ff9d69b2812ea686472ffa19e55517fda204be036e53b730a88c834137c75955908459ff9d69b2812ea686472ffa19f55517fda204be036e53b730a88c834137c75955908459ff9d69b2812ea686472ffa1a05588518086018a52602b8082526059828701908152828c018a815291865288875291517f2ffca9521ce126c9798d5aa531b60a298c28bfde7df9e6b01700c8e757374c4f5590517f2ffca9521ce126c9798d5aa531b60a298c28bfde7df9e6b01700c8e757374c5055517f2ffca9521ce126c9798d5aa531b60a298c28bfde7df9e6b01700c8e757374c515588518086018a52602c808252605a828701908152828c0185815291865288875291517f6c7fe5e8c1ba6fed479f70b40cb0209bb3fef02f030d14c1b1d2f2faf0bf81955590517f6c7fe5e8c1ba6fed479f70b40cb0209bb3fef02f030d14c1b1d2f2faf0bf819655517f6c7fe5e8c1ba6fed479f70b40cb0209bb3fef02f030d14c1b1d2f2faf0bf81975588518086018a52602d808252605c828701908152828c01998a5290855287865290517f8c1229c40aae2c422254ea0b2ffab73ff2dce71bbe3de6101c7662c15be2d0f855517f8c1229c40aae2c422254ea0b2ffab73ff2dce71bbe3de6101c7662c15be2d0f95595517f8c1229c40aae2c422254ea0b2ffab73ff2dce71bbe3de6101c7662c15be2d0fa5587518085018952602e808252605d828601908152828b01998a5290845286855290517f3d1159b617185c8ac6bed09ee30db60e06f98bd61f32687ae067c92715b14d3c55517f3d1159b617185c8ac6bed09ee30db60e06f98bd61f32687ae067c92715b14d3d5595517f3d1159b617185c8ac6bed09ee30db60e06f98bd61f32687ae067c92715b14d3e5586518084018852602f808252605f828501908152828a0188815291845286855291517f651e072952c5bc16cd32d4c642fcdf7fabb94a7aba43fd0d9165e7c8e59aca8b5590517f651e072952c5bc16cd32d4c642fcdf7fabb94a7aba43fd0d9165e7c8e59aca8c55517f651e072952c5bc16cd32d4c642fcdf7fabb94a7aba43fd0d9165e7c8e59aca8d558651808401885260308082526061828501908152828a0198895290835285845290517f0a6ec730a9a845e79f351f3b7b834fb4263769c2e5ee75846c3ed9901d30b15255517f0a6ec730a9a845e79f351f3b7b834fb4263769c2e5ee75846c3ed9901d30b1535594517f0a6ec730a9a845e79f351f3b7b834fb4263769c2e5ee75846c3ed9901d30b154558551918201865260318083526064838301908152968301948552909452925290517f5d5819cac575aa0fbd669ec5fc12d83aee72c7c94f783a0fd314918c2f54174f5590517f5d5819cac575aa0fbd669ec5fc12d83aee72c7c94f783a0fd314918c2f54175055517f5d5819cac575aa0fbd669ec5fc12d83aee72c7c94f783a0fd314918c2f54175155565b6003546001600160a01b03163314620015815760405163118cdaa760e01b81523360048201526024016200008e565b565b6000602082840312156200159657600080fd5b81516001600160a01b0381168114620015ae57600080fd5b9392505050565b634e487b7160e01b600052604160045260246000fd5b600181811c90821680620015e057607f821691505b6020821081036200160157634e487b7160e01b600052602260045260246000fd5b50919050565b601f82111562001657576000816000526020600020601f850160051c81016020861015620016325750805b601f850160051c820191505b8181101562001653578281556001016200163e565b5050505b505050565b81516001600160401b03811115620016785762001678620015b5565b6200169081620016898454620015cb565b8462001607565b602080601f831160018114620016c85760008415620016af5750858301515b600019600386901b1c1916600185901b17855562001653565b600085815260208120601f198616915b82811015620016f957888601518255948401946001909101908401620016d8565b5085821015620017185787850151600019600388901b60f8161c191681555b5050505050600190811b01905550565b61336a80620017386000396000f3fe6080604052600436106102ad5760003560e01c806366829b1611610175578063c4583240116100dc578063ecd0c0c311610095578063f473085d1161006f578063f473085d146108c8578063f5298aca146108e8578063fc0c546a14610908578063ffa1ad741461092657600080fd5b8063ecd0c0c314610868578063f242432a14610888578063f2fde38b146108a857600080fd5b8063c4583240146107af578063ccb8c1e0146107dc578063cf83cd0a146107fc578063d6d902bb1461081c578063e8f7b7cd14610832578063e985e9c51461084857600080fd5b80638dc107681161012e5780638dc10768146106b2578063923c1a0614610709578063a1000d0814610729578063a22cb4651461073f578063a3f4df7e1461075f578063ac8c733d1461079a57600080fd5b806366829b16146105f85780636917371f146106185780636b20c4541461062b578063715018a61461064b578063731133e9146106605780638da5cb5b1461068057600080fd5b806330a034d611610219578063500ccabf116101d2578063500ccabf14610528578063530c9f2d1461055557806354fd4d501461055d5780635f049d5b1461058b57806363aedb38146105b85780636457e389146105d857600080fd5b806330a034d614610466578063340fc4c3146104865780633b584960146104a65780633bf3812b146104bb5780634d4224d8146104e85780634e1273f4146104fb57600080fd5b80631b84f1a81161026b5780631b84f1a8146103b85780631f7fdffa146103ce57806323ba231a146103ee5780632535e0dd146104045780632c3f9700146104245780632eb2c2d61461044657600080fd5b8062fdd58e146102b257806301ffc9a7146102e557806302fe53051461031557806306fdde03146103375780630e89341c146103785780631312b24e14610398575b600080fd5b3480156102be57600080fd5b506102d26102cd3660046126c0565b610957565b6040519081526020015b60405180910390f35b3480156102f157600080fd5b50610305610300366004612702565b61097f565b60405190151581526020016102dc565b34801561032157600080fd5b506103356103303660046127c3565b6109cf565b005b34801561034357600080fd5b5060408051808201909152600f81526e53756d6d6f6e657273204172656e6160881b60208201525b6040516102dc9190612851565b34801561038457600080fd5b5061036b610393366004612864565b6109e3565b3480156103a457600080fd5b506102d26103b336600461287d565b610a77565b3480156103c457600080fd5b506102d260045481565b3480156103da57600080fd5b506103356103e936600461294c565b610ac3565b3480156103fa57600080fd5b506102d260065481565b34801561041057600080fd5b506102d261041f36600461287d565b610add565b34801561043057600080fd5b50610439610b02565b6040516102dc91906129e6565b34801561045257600080fd5b50610335610461366004612a33565b610b64565b34801561047257600080fd5b50610335610481366004612864565b610bd0565b34801561049257600080fd5b506103356104a1366004612864565b610d3f565b3480156104b257600080fd5b506102d2603c81565b3480156104c757600080fd5b506102d26104d636600461287d565b600e6020526000908152604090205481565b6103056104f6366004612b2b565b610d4c565b34801561050757600080fd5b5061051b610516366004612b96565b610d98565b6040516102dc9190612c93565b34801561053457600080fd5b506102d261054336600461287d565b600d6020526000908152604090205481565b610335610e64565b34801561056957600080fd5b50604080518082019091526005815264302e302e3160d81b602082015261036b565b34801561059757600080fd5b506105ab6105a636600461287d565b610f00565b6040516102dc9190612ca6565b3480156105c457600080fd5b506103056105d3366004612cd7565b610f73565b3480156105e457600080fd5b506103356105f3366004612864565b610fd5565b34801561060457600080fd5b5061033561061336600461287d565b6111f9565b610305610626366004612b2b565b611223565b34801561063757600080fd5b50610335610646366004612d59565b6113b4565b34801561065757600080fd5b50610335611413565b34801561066c57600080fd5b5061033561067b366004612dce565b611425565b34801561068c57600080fd5b506003546001600160a01b03165b6040516001600160a01b0390911681526020016102dc565b3480156106be57600080fd5b506106ee6106cd366004612864565b600b6020526000908152604090208054600182015460029092015490919083565b604080519384526020840192909252908201526060016102dc565b34801561071557600080fd5b50610335610724366004612e24565b611439565b34801561073557600080fd5b506102d260085481565b34801561074b57600080fd5b5061033561075a366004612e5a565b611787565b34801561076b57600080fd5b5061036b6040518060400160405280600f81526020016e53756d6d6f6e657273204172656e6160881b81525081565b3480156107a657600080fd5b50610335611796565b3480156107bb57600080fd5b506102d26107ca36600461287d565b600c6020526000908152604090205481565b3480156107e857600080fd5b506102d26107f7366004612e93565b61182c565b34801561080857600080fd5b50610335610817366004612864565b61186d565b34801561082857600080fd5b506102d260055481565b34801561083e57600080fd5b506102d260075481565b34801561085457600080fd5b50610305610863366004612ed4565b61187a565b34801561087457600080fd5b50600a5461069a906001600160a01b031681565b34801561089457600080fd5b506103356108a3366004612f02565b6118a8565b3480156108b457600080fd5b506103356108c336600461287d565b611907565b3480156108d457600080fd5b506102d26108e336600461287d565b611942565b3480156108f457600080fd5b50610335610903366004612f6a565b6119ab565b34801561091457600080fd5b50600a546001600160a01b031661069a565b34801561093257600080fd5b5061036b60405180604001604052806005815260200164302e302e3160d81b81525081565b6000818152602081815260408083206001600160a01b03861684529091529020545b92915050565b60006001600160e01b03198216636cdb3d1360e11b14806109b057506001600160e01b031982166303a24d0760e21b145b8061097957506301ffc9a760e01b6001600160e01b0319831614610979565b6109d76119e1565b6109e081611a0e565b50565b6060600280546109f290612f9f565b80601f0160208091040260200160405190810160405280929190818152602001828054610a1e90612f9f565b8015610a6b5780601f10610a4057610100808354040283529160200191610a6b565b820191906000526020600020905b815481529060010190602001808311610a4e57829003601f168201915b50505050509050919050565b6001600160a01b0381166000908152600d602052604081205481610a9e8262015180612fe9565b9050804210610ab1575060009392505050565b610abb4282612ffc565b949350505050565b610acb6119e1565b610ad784848484611a1a565b50505050565b6001600160a01b0381166000908152600e602052604081205481610a9e603c83612fe9565b60606009805480602002602001604051908101604052809291908181526020018280548015610b5a57602002820191906000526020600020905b81546001600160a01b03168152600190910190602001808311610b3c575b5050505050905090565b336001600160a01b0386168114801590610b855750610b83868261187a565b155b15610bbb5760405163711bec9160e11b81526001600160a01b038083166004830152871660248201526044015b60405180910390fd5b610bc88686868686611a52565b505050505050565b600554811015610c1b5760405162461bcd60e51b8152602060048201526016602482015275125b9cdd59999a58da595b9d0814d55353481cd95b9d60521b6044820152606401610bb2565b600a546040516323b872dd60e01b8152336004820152306024820152604481018390526001600160a01b03909116906323b872dd906064016020604051808303816000875af1158015610c72573d6000803e3d6000fd5b505050506040513d601f19601f82011682018060405250810190610c96919061300f565b50600554811115610d3657600a546005546001600160a01b039091169063a9059cbb903390610cc59085612ffc565b6040516001600160e01b031960e085901b1681526001600160a01b03909216600483015260248201526044016020604051808303816000875af1158015610d10573d6000803e3d6000fd5b505050506040513d601f19601f82011682018060405250810190610d34919061300f565b505b6109e033611ab9565b610d476119e1565b600455565b6000610d566119e1565b42603c60085462093a80610d6a9190612fe9565b610d749190612ffc565b1115610d7f57600080fd5b42600855610d8f85858585611223565b95945050505050565b60608151835114610dc95781518351604051635b05999160e01b815260048101929092526024820152604401610bb2565b600083516001600160401b03811115610de457610de4612726565b604051908082528060200260200182016040528015610e0d578160200160208202803683370190505b50905060005b8451811015610e5c57602080820286010151610e3790602080840287010151610957565b828281518110610e4957610e4961302c565b6020908102919091010152600101610e13565b509392505050565b600454341015610eae5760405162461bcd60e51b8152602060048201526015602482015274125b9cdd59999a58da595b9d08115512081cd95b9d605a1b6044820152606401610bb2565b600454341115610ef55760045433906108fc90610ecb9034612ffc565b6040518115909202916000818181858888f19350505050158015610ef3573d6000803e3d6000fd5b505b610efe33611ab9565b565b610f0861261c565b6001600160a01b0382166000908152600c602090815260408083208151808301835281548152825160a08101938490529093919291840191600184019060059082845b815481526020019060010190808311610f4b5750505091909252505050602001519392505050565b6000610f7d6119e1565b42603c60075462093a80610f919190612fe9565b610f9b9190612ffc565b1115610fa657600080fd5b4260075560068054600090610fba90613042565b90915550610fcb8686868686611cb0565b9695505050505050565b6000610fe13383610957565b1161102e5760405162461bcd60e51b815260206004820152601760248201527f596f7520646f206e6f74206f776e2074686973204e46540000000000000000006044820152606401610bb2565b336000908152600e6020526040902054429061104c90603c90612fe9565b11156110a45760405162461bcd60e51b815260206004820152602160248201527f4578706c6f726174696f6e20636f6f6c646f776e206e6f74206f7665722079656044820152601d60fa1b6064820152608401610bb2565b336000908152600e60205260408120429055600a8210156110c75750600a6110fe565b60148210156110d85750600f6110fe565b601e8210156110e9575060196110fe565b60288210156110fa575060326110fe565b5060635b6000606461110d600143612ffc565b60408051914060208301526bffffffffffffffffffffffff193360601b1690820152605481018590526074016040516020818303038152906040528051906020012060001c61115c9190613071565b9050818110156111b05761116f33611ab9565b604080518481526001602082015233917f881e6a2d6e6ccc01db8059143b38355253b44e9248b47164c5f720b0ccfbefa091015b60405180910390a2505050565b6111bc33846001611f27565b604080518481526000602082015233917f881e6a2d6e6ccc01db8059143b38355253b44e9248b47164c5f720b0ccfbefa091016111a3565b505050565b6112016119e1565b600a80546001600160a01b0319166001600160a01b0392909216919091179055565b60008382146112445760405162461bcd60e51b8152600401610bb290613085565b6000611250848461182c565b90508034146112995760405162461bcd60e51b81526020600482015260156024820152742a3930b739b332b91030b6b7bab73a1032b93937b960591b6044820152606401610bb2565b60005b858110156113a7578686828181106112b6576112b661302c565b90506020020160208101906112cb919061287d565b6001600160a01b03166108fc8686848181106112e9576112e961302c565b905060200201359081150290604051600060405180830381858888f1935050505015801561131b573d6000803e3d6000fd5b507f87bc0fc6d8dc230a2e147ddc101c27a3dab51eb54eb8e75ee269883777ef17c687878381811061134f5761134f61302c565b9050602002016020810190611364919061287d565b8686848181106113765761137661302c565b604080516001600160a01b0390951685526020918202939093013590840152500160405180910390a160010161129c565b5060019695505050505050565b6001600160a01b03831633148015906113d457506113d2833361187a565b155b1561140857335b60405163711bec9160e11b81526001600160a01b0391821660048201529084166024820152604401610bb2565b6111f4838383611f8f565b61141b6119e1565b610efe6000611fd5565b61142d6119e1565b610ad784848484612027565b6000600a61144561263a565b60008060005b600581101561156d5760008782600581106114685761146861302c565b60200201359050600061147b3383610957565b1115611564576000600b60008a85600581106114995761149961302c565b60200201358152602001908152602001600020604051806060016040529081600082015481526020016001820154815260200160028201548152505090508060200151886114e79190612fe9565b9750858160400151600681106114ff576114ff61302c565b6020020180519061150f82613042565b905250805160281180159061152657508051603110155b1561153d578461153581613042565b955050611562565b601e821015801561154f575060278211155b15611562578361155e81613042565b9450505b505b5060010161144b565b5060008060015b600581116115f2578186826006811061158f5761158f61302c565b6020020151106115b3578581600681106115ab576115ab61302c565b602002015191505b60008682600681106115c7576115c761302c565b602002015111156115e057826115dc81613042565b9350505b806115ea81613042565b915050611574565b50806005036116045760199550611644565b806004036116155760149550611644565b8160050361162657600f9550611644565b8060030361163757600d9550611644565b8060020361164457600c95505b61164f8460056130cf565b6116599087612fe9565b95506116658387612fe9565b9550600a61167387896130cf565b61167d91906130e6565b336000908152600c6020526040812054919850036116d857600980546001810182556000919091527f6e1540171b6c0c960b71a7020d9f60077f6af931a8bbf590da0223dacf75c7af0180546001600160a01b031916331790555b604051806040016040528088815260200189600580602002604051908101604052809291908260056020028082843760009201829052509290935250338152600c60209081526040909120835181559083015190915061173e9060018301906005612658565b50506040513391507f526177b3a45653ba9e9109c6159e36d32ef4916e007026750988e8cef5b9bd3690611775908a908c906130fa565b60405180910390a25050505050505050565b611792338383612084565b5050565b336000908152600d602052604090205462015180906117b59042612ffc565b101561180f5760405162461bcd60e51b815260206004820152602360248201527f4d757374207761697420312064617920746f206f70656e20612066726565207060448201526261636b60e81b6064820152608401610bb2565b61181833611ab9565b336000908152600d60205260409020429055565b6000805b828110156118665783838281811061184a5761184a61302c565b905060200201358261185c9190612fe9565b9150600101611830565b5092915050565b6118756119e1565b600555565b6001600160a01b03918216600090815260016020908152604080832093909416825291909152205460ff1690565b336001600160a01b03861681148015906118c957506118c7868261187a565b155b156118fa5760405163711bec9160e11b81526001600160a01b03808316600483015287166024820152604401610bb2565b610bc8868686868661211a565b61190f6119e1565b6001600160a01b03811661193957604051631e4fbdf760e01b815260006004820152602401610bb2565b6109e081611fd5565b6001600160a01b0381166000908152600c602090815260408083208151808301835281548152825160a08101938490528594919391840191600184019060059082845b815481526020019060010190808311611985575050509190925250509051949350505050565b6001600160a01b03831633148015906119cb57506119c9833361187a565b155b156119d657336113db565b6111f4838383611f27565b6003546001600160a01b03163314610efe5760405163118cdaa760e01b8152336004820152602401610bb2565b60026117928282613158565b6001600160a01b038416611a4457604051632bfa23e760e11b815260006004820152602401610bb2565b610ad76000858585856121a8565b6001600160a01b038416611a7c57604051632bfa23e760e11b815260006004820152602401610bb2565b6001600160a01b038516611aa557604051626a0d4560e21b815260006004820152602401610bb2565b611ab285858585856121a8565b5050505050565b60408051600580825260c082019092526000916020820160a080368337505060408051600580825260c0820190925292935060009291506020820160a08036833701905050905060005b6005811015611c59576000611b19600143612ffc565b60408051914060208301526bffffffffffffffffffffffff19606088901b16908201526054810183905260740160408051601f19818403018152919052805160209091012090506000611b6d606483613071565b90506000600a611b7e6064856130e6565b611b889190613071565b9050603c821015611bb75780868581518110611ba657611ba661302c565b602002602001018181525050611c2f565b6054821015611bdd57611bcb81600a612fe9565b868581518110611ba657611ba661302c565b605e821015611bf157611bcb816014612fe9565b6063821015611c0557611bcb81601e612fe9565b611c10816028612fe9565b868581518110611c2257611c2261302c565b6020026020010181815250505b6001858581518110611c4357611c4361302c565b6020908102919091010152505050600101611b03565b50611c7583838360405180602001604052806000815250611a1a565b826001600160a01b03167ff7abfe87506a99dfe239c7c8cdb614b8c0bd515135b3897f983d0dd4c657aeaf83836040516111a3929190613217565b6000838214611cd15760405162461bcd60e51b8152600401610bb290613085565b856000611cde858561182c565b604051636eb1769f60e11b815233600482015230602482015290915081906001600160a01b0384169063dd62ed3e90604401602060405180830381865afa158015611d2d573d6000803e3d6000fd5b505050506040513d601f19601f82011682018060405250810190611d51919061323c565b1015611d9f5760405162461bcd60e51b815260206004820152601860248201527f4e65656420417070726f766520455243323020746f6b656e00000000000000006044820152606401610bb2565b60005b60ff8116871115611f1857826001600160a01b03166323b872dd338a8a8560ff16818110611dd257611dd261302c565b9050602002016020810190611de7919061287d565b89898660ff16818110611dfc57611dfc61302c565b6040516001600160e01b031960e088901b1681526001600160a01b039586166004820152949093166024850152506020909102013560448201526064016020604051808303816000875af1158015611e58573d6000803e3d6000fd5b505050506040513d601f19601f82011682018060405250810190611e7c919061300f565b507f87bc0fc6d8dc230a2e147ddc101c27a3dab51eb54eb8e75ee269883777ef17c688888360ff16818110611eb357611eb361302c565b9050602002016020810190611ec8919061287d565b87878460ff16818110611edd57611edd61302c565b604080516001600160a01b0390951685526020918202939093013590840152500160405180910390a180611f1081613255565b915050611da2565b50600198975050505050505050565b6001600160a01b038316611f5057604051626a0d4560e21b815260006004820152602401610bb2565b604080516001808252602082018590528183019081526060820184905260a08201909252600060808201818152919291611ab2918791859085906121a8565b6001600160a01b038316611fb857604051626a0d4560e21b815260006004820152602401610bb2565b6111f48360008484604051806020016040528060008152506121a8565b600380546001600160a01b038381166001600160a01b0319831681179093556040519116919082907f8be0079c531659141344cd1fd0a4f28419497f9722a3daafe3b4186f6b6457e090600090a35050565b6001600160a01b03841661205157604051632bfa23e760e11b815260006004820152602401610bb2565b60408051600180825260208201869052818301908152606082018590526080820190925290610bc86000878484876121a8565b6001600160a01b0382166120ad5760405162ced3e160e81b815260006004820152602401610bb2565b6001600160a01b03838116600081815260016020908152604080832094871680845294825291829020805460ff191686151590811790915591519182527f17307eab39ab6107e8899845ad3d59bd9653f200f220920489ca2b5937696c31910160405180910390a3505050565b6001600160a01b03841661214457604051632bfa23e760e11b815260006004820152602401610bb2565b6001600160a01b03851661216d57604051626a0d4560e21b815260006004820152602401610bb2565b6040805160018082526020820186905281830190815260608201859052608082019092529061219f87878484876121a8565b50505050505050565b6121b4858585856121fb565b6001600160a01b03841615611ab257825133906001036121ed57602084810151908401516121e683898985858961240f565b5050610bc8565b610bc8818787878787612533565b805182511461222a5781518151604051635b05999160e01b815260048101929092526024820152604401610bb2565b3360005b8351811015612330576020818102858101820151908501909101516001600160a01b038816156122e1576000828152602081815260408083206001600160a01b038c168452909152902054818110156122ba576040516303dee4c560e01b81526001600160a01b038a166004820152602481018290526044810183905260648101849052608401610bb2565b6000838152602081815260408083206001600160a01b038d16845290915290209082900390555b6001600160a01b03871615612326576000828152602081815260408083206001600160a01b038b16845290915281208054839290612320908490612fe9565b90915550505b505060010161222e565b5082516001036123b15760208301516000906020840151909150856001600160a01b0316876001600160a01b0316846001600160a01b03167fc3d58168c5ae7397731d063d5bbf3d657854427343f4c083240f7aacaa2d0f6285856040516123a2929190918252602082015260400190565b60405180910390a45050611ab2565b836001600160a01b0316856001600160a01b0316826001600160a01b03167f4a39dc06d4c0dbc64b70af90fd698a233a518aa5d07e595d983b8c0526c8f7fb8686604051612400929190613217565b60405180910390a45050505050565b6001600160a01b0384163b15610bc85760405163f23a6e6160e01b81526001600160a01b0385169063f23a6e61906124539089908990889088908890600401613274565b6020604051808303816000875af192505050801561248e575060408051601f3d908101601f1916820190925261248b918101906132b9565b60015b6124f7573d8080156124bc576040519150601f19603f3d011682016040523d82523d6000602084013e6124c1565b606091505b5080516000036124ef57604051632bfa23e760e11b81526001600160a01b0386166004820152602401610bb2565b805181602001fd5b6001600160e01b0319811663f23a6e6160e01b1461219f57604051632bfa23e760e11b81526001600160a01b0386166004820152602401610bb2565b6001600160a01b0384163b15610bc85760405163bc197c8160e01b81526001600160a01b0385169063bc197c819061257790899089908890889088906004016132d6565b6020604051808303816000875af19250505080156125b2575060408051601f3d908101601f191682019092526125af918101906132b9565b60015b6125e0573d8080156124bc576040519150601f19603f3d011682016040523d82523d6000602084013e6124c1565b6001600160e01b0319811663bc197c8160e01b1461219f57604051632bfa23e760e11b81526001600160a01b0386166004820152602401610bb2565b6040518060a001604052806005906020820280368337509192915050565b6040518060c001604052806006906020820280368337509192915050565b8260058101928215612686579160200282015b8281111561268657825182559160200191906001019061266b565b50612692929150612696565b5090565b5b808211156126925760008155600101612697565b6001600160a01b03811681146109e057600080fd5b600080604083850312156126d357600080fd5b82356126de816126ab565b946020939093013593505050565b6001600160e01b0319811681146109e057600080fd5b60006020828403121561271457600080fd5b813561271f816126ec565b9392505050565b634e487b7160e01b600052604160045260246000fd5b604051601f8201601f191681016001600160401b038111828210171561276457612764612726565b604052919050565b60006001600160401b0383111561278557612785612726565b612798601f8401601f191660200161273c565b90508281528383830111156127ac57600080fd5b828260208301376000602084830101529392505050565b6000602082840312156127d557600080fd5b81356001600160401b038111156127eb57600080fd5b8201601f810184136127fc57600080fd5b610abb8482356020840161276c565b6000815180845260005b8181101561283157602081850181015186830182015201612815565b506000602082860101526020601f19601f83011685010191505092915050565b60208152600061271f602083018461280b565b60006020828403121561287657600080fd5b5035919050565b60006020828403121561288f57600080fd5b813561271f816126ab565b60006001600160401b038211156128b3576128b3612726565b5060051b60200190565b600082601f8301126128ce57600080fd5b813560206128e36128de8361289a565b61273c565b8083825260208201915060208460051b87010193508684111561290557600080fd5b602086015b84811015612921578035835291830191830161290a565b509695505050505050565b600082601f83011261293d57600080fd5b61271f8383356020850161276c565b6000806000806080858703121561296257600080fd5b843561296d816126ab565b935060208501356001600160401b038082111561298957600080fd5b612995888389016128bd565b945060408701359150808211156129ab57600080fd5b6129b7888389016128bd565b935060608701359150808211156129cd57600080fd5b506129da8782880161292c565b91505092959194509250565b6020808252825182820181905260009190848201906040850190845b81811015612a275783516001600160a01b031683529284019291840191600101612a02565b50909695505050505050565b600080600080600060a08688031215612a4b57600080fd5b8535612a56816126ab565b94506020860135612a66816126ab565b935060408601356001600160401b0380821115612a8257600080fd5b612a8e89838a016128bd565b94506060880135915080821115612aa457600080fd5b612ab089838a016128bd565b93506080880135915080821115612ac657600080fd5b50612ad38882890161292c565b9150509295509295909350565b60008083601f840112612af257600080fd5b5081356001600160401b03811115612b0957600080fd5b6020830191508360208260051b8501011115612b2457600080fd5b9250929050565b60008060008060408587031215612b4157600080fd5b84356001600160401b0380821115612b5857600080fd5b612b6488838901612ae0565b90965094506020870135915080821115612b7d57600080fd5b50612b8a87828801612ae0565b95989497509550505050565b60008060408385031215612ba957600080fd5b82356001600160401b0380821115612bc057600080fd5b818501915085601f830112612bd457600080fd5b81356020612be46128de8361289a565b82815260059290921b84018101918181019089841115612c0357600080fd5b948201945b83861015612c2a578535612c1b816126ab565b82529482019490820190612c08565b96505086013592505080821115612c4057600080fd5b50612c4d858286016128bd565b9150509250929050565b60008151808452602080850194506020840160005b83811015612c8857815187529582019590820190600101612c6c565b509495945050505050565b60208152600061271f6020830184612c57565b60a08101818360005b6005811015612cce578151835260209283019290910190600101612caf565b50505092915050565b600080600080600060608688031215612cef57600080fd5b8535612cfa816126ab565b945060208601356001600160401b0380821115612d1657600080fd5b612d2289838a01612ae0565b90965094506040880135915080821115612d3b57600080fd5b50612d4888828901612ae0565b969995985093965092949392505050565b600080600060608486031215612d6e57600080fd5b8335612d79816126ab565b925060208401356001600160401b0380821115612d9557600080fd5b612da1878388016128bd565b93506040860135915080821115612db757600080fd5b50612dc4868287016128bd565b9150509250925092565b60008060008060808587031215612de457600080fd5b8435612def816126ab565b9350602085013592506040850135915060608501356001600160401b03811115612e1857600080fd5b6129da8782880161292c565b600060a08284031215612e3657600080fd5b8260a083011115612e4657600080fd5b50919050565b80151581146109e057600080fd5b60008060408385031215612e6d57600080fd5b8235612e78816126ab565b91506020830135612e8881612e4c565b809150509250929050565b60008060208385031215612ea657600080fd5b82356001600160401b03811115612ebc57600080fd5b612ec885828601612ae0565b90969095509350505050565b60008060408385031215612ee757600080fd5b8235612ef2816126ab565b91506020830135612e88816126ab565b600080600080600060a08688031215612f1a57600080fd5b8535612f25816126ab565b94506020860135612f35816126ab565b9350604086013592506060860135915060808601356001600160401b03811115612f5e57600080fd5b612ad38882890161292c565b600080600060608486031215612f7f57600080fd5b8335612f8a816126ab565b95602085013595506040909401359392505050565b600181811c90821680612fb357607f821691505b602082108103612e4657634e487b7160e01b600052602260045260246000fd5b634e487b7160e01b600052601160045260246000fd5b8082018082111561097957610979612fd3565b8181038181111561097957610979612fd3565b60006020828403121561302157600080fd5b815161271f81612e4c565b634e487b7160e01b600052603260045260246000fd5b60006001820161305457613054612fd3565b5060010190565b634e487b7160e01b600052601260045260246000fd5b6000826130805761308061305b565b500690565b6020808252602a908201527f4c656e67746873206f662041646472657373657320616e6420416d6f756e7473604082015269081393d508115455505360b21b606082015260800190565b808202811582820484141761097957610979612fd3565b6000826130f5576130f561305b565b500490565b82815260c0810160a08360208401379392505050565b601f8211156111f4576000816000526020600020601f850160051c810160208610156131395750805b601f850160051c820191505b81811015610bc857828155600101613145565b81516001600160401b0381111561317157613171612726565b6131858161317f8454612f9f565b84613110565b602080601f8311600181146131ba57600084156131a25750858301515b600019600386901b1c1916600185901b178555610bc8565b600085815260208120601f198616915b828110156131e9578886015182559484019460019091019084016131ca565b50858210156132075787850151600019600388901b60f8161c191681555b5050505050600190811b01905550565b60408152600061322a6040830185612c57565b8281036020840152610d8f8185612c57565b60006020828403121561324e57600080fd5b5051919050565b600060ff821660ff810361326b5761326b612fd3565b60010192915050565b6001600160a01b03868116825285166020820152604081018490526060810183905260a0608082018190526000906132ae9083018461280b565b979650505050505050565b6000602082840312156132cb57600080fd5b815161271f816126ec565b6001600160a01b0386811682528516602082015260a06040820181905260009061330290830186612c57565b82810360608401526133148186612c57565b90508281036080840152613328818561280b565b9897505050505050505056fea26469706673582212205d340bd23689ea0d3458ca554ba44e7319315c0c708e6c4567c75f70203be8d964736f6c63430008170033","linkReferences":{}},"methodIdentifiers":{"NAME()":"a3f4df7e","VERSION()":"ffa1ad74","_airdropMATIC(address[],uint256[])":"6917371f","_token()":"ecd0c0c3","_weeks()":"23ba231a","airdropMATIC(address[],uint256[])":"4d4224d8","airdropToken(address,address[],uint256[])":"63aedb38","balanceOf(address,uint256)":"00fdd58e","balanceOfBatch(address[],uint256[])":"4e1273f4","burn(address,uint256,uint256)":"f5298aca","burnBatch(address,uint256[],uint256[])":"6b20c454","cards(uint256)":"8dc10768","changePackPriceMatic(uint256)":"340fc4c3","changePackPriceToken(uint256)":"cf83cd0a","changeToken(address)":"66829b16","createTeam(uint256[5])":"923c1a06","explorationCooldown()":"3b584960","explore(uint256)":"6457e389","getAllPlayerAddresses()":"2c3f9700","getExplorationCooldown(address)":"2535e0dd","getFreePackCooldown(address)":"1312b24e","getSum(uint256[])":"ccb8c1e0","getTeamCards(address)":"5f049d5b","getTeamPower(address)":"f473085d","isApprovedForAll(address,address)":"e985e9c5","lastAirdropMatic()":"a1000d08","lastAirdropToken()":"e8f7b7cd","lastExplorationTime(address)":"3bf3812b","lastOpenedFreePack(address)":"500ccabf","mint(address,uint256,uint256,bytes)":"731133e9","mintBatch(address,uint256[],uint256[],bytes)":"1f7fdffa","name()":"06fdde03","openBuyPackMatic()":"530c9f2d","openBuyPackToken(uint256)":"30a034d6","openFreePack()":"ac8c733d","owner()":"8da5cb5b","packPriceMatic()":"1b84f1a8","packPriceToken()":"d6d902bb","renounceOwnership()":"715018a6","safeBatchTransferFrom(address,address,uint256[],uint256[],bytes)":"2eb2c2d6","safeTransferFrom(address,address,uint256,uint256,bytes)":"f242432a","setApprovalForAll(address,bool)":"a22cb465","setURI(string)":"02fe5305","supportsInterface(bytes4)":"01ffc9a7","teams(address)":"c4583240","token()":"fc0c546a","transferOwnership(address)":"f2fde38b","uri(uint256)":"0e89341c","version()":"54fd4d50"},"id":3}