{
  "abi": [
    {
      "inputs": [
        {
          "internalType": "address",
          "name": "initialOwner",
          "type": "address"
        }
      ],
      "stateMutability": "nonpayable",
      "type": "constructor"
    },
    {
      "inputs": [
        {
          "internalType": "address",
          "name": "sender",
          "type": "address"
        },
        {
          "internalType": "uint256",
          "name": "balance",
          "type": "uint256"
        },
        {
          "internalType": "uint256",
          "name": "needed",
          "type": "uint256"
        },
        {
          "internalType": "uint256",
          "name": "tokenId",
          "type": "uint256"
        }
      ],
      "name": "ERC1155InsufficientBalance",
      "type": "error"
    },
    {
      "inputs": [
        {
          "internalType": "address",
          "name": "approver",
          "type": "address"
        }
      ],
      "name": "ERC1155InvalidApprover",
      "type": "error"
    },
    {
      "inputs": [
        {
          "internalType": "uint256",
          "name": "idsLength",
          "type": "uint256"
        },
        {
          "internalType": "uint256",
          "name": "valuesLength",
          "type": "uint256"
        }
      ],
      "name": "ERC1155InvalidArrayLength",
      "type": "error"
    },
    {
      "inputs": [
        {
          "internalType": "address",
          "name": "operator",
          "type": "address"
        }
      ],
      "name": "ERC1155InvalidOperator",
      "type": "error"
    },
    {
      "inputs": [
        {
          "internalType": "address",
          "name": "receiver",
          "type": "address"
        }
      ],
      "name": "ERC1155InvalidReceiver",
      "type": "error"
    },
    {
      "inputs": [
        {
          "internalType": "address",
          "name": "sender",
          "type": "address"
        }
      ],
      "name": "ERC1155InvalidSender",
      "type": "error"
    },
    {
      "inputs": [
        {
          "internalType": "address",
          "name": "operator",
          "type": "address"
        },
        {
          "internalType": "address",
          "name": "owner",
          "type": "address"
        }
      ],
      "name": "ERC1155MissingApprovalForAll",
      "type": "error"
    },
    {
      "inputs": [
        {
          "internalType": "address",
          "name": "owner",
          "type": "address"
        }
      ],
      "name": "OwnableInvalidOwner",
      "type": "error"
    },
    {
      "inputs": [
        {
          "internalType": "address",
          "name": "account",
          "type": "address"
        }
      ],
      "name": "OwnableUnauthorizedAccount",
      "type": "error"
    },
    {
      "anonymous": false,
      "inputs": [
        {
          "indexed": true,
          "internalType": "address",
          "name": "account",
          "type": "address"
        },
        {
          "indexed": true,
          "internalType": "address",
          "name": "operator",
          "type": "address"
        },
        {
          "indexed": false,
          "internalType": "bool",
          "name": "approved",
          "type": "bool"
        }
      ],
      "name": "ApprovalForAll",
      "type": "event"
    },
    {
      "anonymous": false,
      "inputs": [
        {
          "indexed": true,
          "internalType": "address",
          "name": "user",
          "type": "address"
        },
        {
          "indexed": false,
          "internalType": "uint256",
          "name": "tokenId",
          "type": "uint256"
        },
        {
          "indexed": false,
          "internalType": "bool",
          "name": "success",
          "type": "bool"
        }
      ],
      "name": "Exploration",
      "type": "event"
    },
    {
      "anonymous": false,
      "inputs": [
        {
          "indexed": true,
          "internalType": "address",
          "name": "previousOwner",
          "type": "address"
        },
        {
          "indexed": true,
          "internalType": "address",
          "name": "newOwner",
          "type": "address"
        }
      ],
      "name": "OwnershipTransferred",
      "type": "event"
    },
    {
      "anonymous": false,
      "inputs": [
        {
          "indexed": true,
          "internalType": "address",
          "name": "user",
          "type": "address"
        },
        {
          "indexed": false,
          "internalType": "uint256[]",
          "name": "cardIds",
          "type": "uint256[]"
        },
        {
          "indexed": false,
          "internalType": "uint256[]",
          "name": "amounts",
          "type": "uint256[]"
        }
      ],
      "name": "PackOpened",
      "type": "event"
    },
    {
      "anonymous": false,
      "inputs": [
        {
          "indexed": true,
          "internalType": "address",
          "name": "user",
          "type": "address"
        },
        {
          "indexed": false,
          "internalType": "uint256",
          "name": "totalPower",
          "type": "uint256"
        },
        {
          "indexed": false,
          "internalType": "uint256[5]",
          "name": "cardIds",
          "type": "uint256[5]"
        }
      ],
      "name": "TeamCreated",
      "type": "event"
    },
    {
      "anonymous": false,
      "inputs": [
        {
          "indexed": true,
          "internalType": "address",
          "name": "operator",
          "type": "address"
        },
        {
          "indexed": true,
          "internalType": "address",
          "name": "from",
          "type": "address"
        },
        {
          "indexed": true,
          "internalType": "address",
          "name": "to",
          "type": "address"
        },
        {
          "indexed": false,
          "internalType": "uint256[]",
          "name": "ids",
          "type": "uint256[]"
        },
        {
          "indexed": false,
          "internalType": "uint256[]",
          "name": "values",
          "type": "uint256[]"
        }
      ],
      "name": "TransferBatch",
      "type": "event"
    },
    {
      "anonymous": false,
      "inputs": [
        {
          "indexed": true,
          "internalType": "address",
          "name": "operator",
          "type": "address"
        },
        {
          "indexed": true,
          "internalType": "address",
          "name": "from",
          "type": "address"
        },
        {
          "indexed": true,
          "internalType": "address",
          "name": "to",
          "type": "address"
        },
        {
          "indexed": false,
          "internalType": "uint256",
          "name": "id",
          "type": "uint256"
        },
        {
          "indexed": false,
          "internalType": "uint256",
          "name": "value",
          "type": "uint256"
        }
      ],
      "name": "TransferSingle",
      "type": "event"
    },
    {
      "anonymous": false,
      "inputs": [
        {
          "indexed": false,
          "internalType": "string",
          "name": "value",
          "type": "string"
        },
        {
          "indexed": true,
          "internalType": "uint256",
          "name": "id",
          "type": "uint256"
        }
      ],
      "name": "URI",
      "type": "event"
    },
    {
      "inputs": [],
      "name": "NAME",
      "outputs": [
        {
          "internalType": "string",
          "name": "",
          "type": "string"
        }
      ],
      "stateMutability": "view",
      "type": "function"
    },
    {
      "inputs": [],
      "name": "VERSION",
      "outputs": [
        {
          "internalType": "string",
          "name": "",
          "type": "string"
        }
      ],
      "stateMutability": "view",
      "type": "function"
    },
    {
      "inputs": [
        {
          "internalType": "address",
          "name": "account",
          "type": "address"
        },
        {
          "internalType": "uint256",
          "name": "id",
          "type": "uint256"
        }
      ],
      "name": "balanceOf",
      "outputs": [
        {
          "internalType": "uint256",
          "name": "",
          "type": "uint256"
        }
      ],
      "stateMutability": "view",
      "type": "function"
    },
    {
      "inputs": [
        {
          "internalType": "address[]",
          "name": "accounts",
          "type": "address[]"
        },
        {
          "internalType": "uint256[]",
          "name": "ids",
          "type": "uint256[]"
        }
      ],
      "name": "balanceOfBatch",
      "outputs": [
        {
          "internalType": "uint256[]",
          "name": "",
          "type": "uint256[]"
        }
      ],
      "stateMutability": "view",
      "type": "function"
    },
    {
      "inputs": [
        {
          "internalType": "address",
          "name": "account",
          "type": "address"
        },
        {
          "internalType": "uint256",
          "name": "id",
          "type": "uint256"
        },
        {
          "internalType": "uint256",
          "name": "value",
          "type": "uint256"
        }
      ],
      "name": "burn",
      "outputs": [],
      "stateMutability": "nonpayable",
      "type": "function"
    },
    {
      "inputs": [
        {
          "internalType": "address",
          "name": "account",
          "type": "address"
        },
        {
          "internalType": "uint256[]",
          "name": "ids",
          "type": "uint256[]"
        },
        {
          "internalType": "uint256[]",
          "name": "values",
          "type": "uint256[]"
        }
      ],
      "name": "burnBatch",
      "outputs": [],
      "stateMutability": "nonpayable",
      "type": "function"
    },
    {
      "inputs": [
        {
          "internalType": "uint256",
          "name": "",
          "type": "uint256"
        }
      ],
      "name": "cards",
      "outputs": [
        {
          "internalType": "uint256",
          "name": "id",
          "type": "uint256"
        },
        {
          "internalType": "uint256",
          "name": "power",
          "type": "uint256"
        },
        {
          "internalType": "uint256",
          "name": "attributes",
          "type": "uint256"
        }
      ],
      "stateMutability": "view",
      "type": "function"
    },
    {
      "inputs": [
        {
          "internalType": "uint256[5]",
          "name": "cardIds",
          "type": "uint256[5]"
        }
      ],
      "name": "createTeam",
      "outputs": [],
      "stateMutability": "nonpayable",
      "type": "function"
    },
    {
      "inputs": [],
      "name": "explorationCooldown",
      "outputs": [
        {
          "internalType": "uint256",
          "name": "",
          "type": "uint256"
        }
      ],
      "stateMutability": "view",
      "type": "function"
    },
    {
      "inputs": [
        {
          "internalType": "uint256",
          "name": "tokenId",
          "type": "uint256"
        }
      ],
      "name": "explore",
      "outputs": [],
      "stateMutability": "nonpayable",
      "type": "function"
    },
    {
      "inputs": [
        {
          "internalType": "address",
          "name": "user",
          "type": "address"
        }
      ],
      "name": "getExplorationCooldown",
      "outputs": [
        {
          "internalType": "uint256",
          "name": "",
          "type": "uint256"
        }
      ],
      "stateMutability": "view",
      "type": "function"
    },
    {
      "inputs": [
        {
          "internalType": "address",
          "name": "user",
          "type": "address"
        }
      ],
      "name": "getFreePackCooldown",
      "outputs": [
        {
          "internalType": "uint256",
          "name": "",
          "type": "uint256"
        }
      ],
      "stateMutability": "view",
      "type": "function"
    },
    {
      "inputs": [
        {
          "internalType": "address",
          "name": "user",
          "type": "address"
        }
      ],
      "name": "getTeamCards",
      "outputs": [
        {
          "internalType": "uint256[5]",
          "name": "",
          "type": "uint256[5]"
        }
      ],
      "stateMutability": "view",
      "type": "function"
    },
    {
      "inputs": [
        {
          "internalType": "address",
          "name": "user",
          "type": "address"
        }
      ],
      "name": "getTeamPower",
      "outputs": [
        {
          "internalType": "uint256",
          "name": "",
          "type": "uint256"
        }
      ],
      "stateMutability": "view",
      "type": "function"
    },
    {
      "inputs": [
        {
          "internalType": "address",
          "name": "account",
          "type": "address"
        },
        {
          "internalType": "address",
          "name": "operator",
          "type": "address"
        }
      ],
      "name": "isApprovedForAll",
      "outputs": [
        {
          "internalType": "bool",
          "name": "",
          "type": "bool"
        }
      ],
      "stateMutability": "view",
      "type": "function"
    },
    {
      "inputs": [
        {
          "internalType": "address",
          "name": "",
          "type": "address"
        }
      ],
      "name": "lastExplorationTime",
      "outputs": [
        {
          "internalType": "uint256",
          "name": "",
          "type": "uint256"
        }
      ],
      "stateMutability": "view",
      "type": "function"
    },
    {
      "inputs": [
        {
          "internalType": "address",
          "name": "",
          "type": "address"
        }
      ],
      "name": "lastOpenedFreePack",
      "outputs": [
        {
          "internalType": "uint256",
          "name": "",
          "type": "uint256"
        }
      ],
      "stateMutability": "view",
      "type": "function"
    },
    {
      "inputs": [
        {
          "internalType": "address",
          "name": "account",
          "type": "address"
        },
        {
          "internalType": "uint256",
          "name": "id",
          "type": "uint256"
        },
        {
          "internalType": "uint256",
          "name": "amount",
          "type": "uint256"
        },
        {
          "internalType": "bytes",
          "name": "data",
          "type": "bytes"
        }
      ],
      "name": "mint",
      "outputs": [],
      "stateMutability": "nonpayable",
      "type": "function"
    },
    {
      "inputs": [
        {
          "internalType": "address",
          "name": "to",
          "type": "address"
        },
        {
          "internalType": "uint256[]",
          "name": "ids",
          "type": "uint256[]"
        },
        {
          "internalType": "uint256[]",
          "name": "amounts",
          "type": "uint256[]"
        },
        {
          "internalType": "bytes",
          "name": "data",
          "type": "bytes"
        }
      ],
      "name": "mintBatch",
      "outputs": [],
      "stateMutability": "nonpayable",
      "type": "function"
    },
    {
      "inputs": [],
      "name": "name",
      "outputs": [
        {
          "internalType": "string",
          "name": "",
          "type": "string"
        }
      ],
      "stateMutability": "pure",
      "type": "function"
    },
    {
      "inputs": [],
      "name": "openBuyPackMatic",
      "outputs": [],
      "stateMutability": "payable",
      "type": "function"
    },
    {
      "inputs": [
        {
          "internalType": "uint256",
          "name": "_amount",
          "type": "uint256"
        }
      ],
      "name": "openBuyPackToken",
      "outputs": [],
      "stateMutability": "nonpayable",
      "type": "function"
    },
    {
      "inputs": [],
      "name": "openFreePack",
      "outputs": [],
      "stateMutability": "nonpayable",
      "type": "function"
    },
    {
      "inputs": [],
      "name": "owner",
      "outputs": [
        {
          "internalType": "address",
          "name": "",
          "type": "address"
        }
      ],
      "stateMutability": "view",
      "type": "function"
    },
    {
      "inputs": [],
      "name": "packPriceMatic",
      "outputs": [
        {
          "internalType": "uint256",
          "name": "",
          "type": "uint256"
        }
      ],
      "stateMutability": "view",
      "type": "function"
    },
    {
      "inputs": [],
      "name": "packPriceToken",
      "outputs": [
        {
          "internalType": "uint256",
          "name": "",
          "type": "uint256"
        }
      ],
      "stateMutability": "view",
      "type": "function"
    },
    {
      "inputs": [],
      "name": "renounceOwnership",
      "outputs": [],
      "stateMutability": "nonpayable",
      "type": "function"
    },
    {
      "inputs": [
        {
          "internalType": "address",
          "name": "from",
          "type": "address"
        },
        {
          "internalType": "address",
          "name": "to",
          "type": "address"
        },
        {
          "internalType": "uint256[]",
          "name": "ids",
          "type": "uint256[]"
        },
        {
          "internalType": "uint256[]",
          "name": "values",
          "type": "uint256[]"
        },
        {
          "internalType": "bytes",
          "name": "data",
          "type": "bytes"
        }
      ],
      "name": "safeBatchTransferFrom",
      "outputs": [],
      "stateMutability": "nonpayable",
      "type": "function"
    },
    {
      "inputs": [
        {
          "internalType": "address",
          "name": "from",
          "type": "address"
        },
        {
          "internalType": "address",
          "name": "to",
          "type": "address"
        },
        {
          "internalType": "uint256",
          "name": "id",
          "type": "uint256"
        },
        {
          "internalType": "uint256",
          "name": "value",
          "type": "uint256"
        },
        {
          "internalType": "bytes",
          "name": "data",
          "type": "bytes"
        }
      ],
      "name": "safeTransferFrom",
      "outputs": [],
      "stateMutability": "nonpayable",
      "type": "function"
    },
    {
      "inputs": [
        {
          "internalType": "address",
          "name": "operator",
          "type": "address"
        },
        {
          "internalType": "bool",
          "name": "approved",
          "type": "bool"
        }
      ],
      "name": "setApprovalForAll",
      "outputs": [],
      "stateMutability": "nonpayable",
      "type": "function"
    },
    {
      "inputs": [
        {
          "internalType": "string",
          "name": "newuri",
          "type": "string"
        }
      ],
      "name": "setURI",
      "outputs": [],
      "stateMutability": "nonpayable",
      "type": "function"
    },
    {
      "inputs": [
        {
          "internalType": "bytes4",
          "name": "interfaceId",
          "type": "bytes4"
        }
      ],
      "name": "supportsInterface",
      "outputs": [
        {
          "internalType": "bool",
          "name": "",
          "type": "bool"
        }
      ],
      "stateMutability": "view",
      "type": "function"
    },
    {
      "inputs": [
        {
          "internalType": "address",
          "name": "",
          "type": "address"
        }
      ],
      "name": "teams",
      "outputs": [
        {
          "internalType": "uint256",
          "name": "totalPower",
          "type": "uint256"
        }
      ],
      "stateMutability": "view",
      "type": "function"
    },
    {
      "inputs": [],
      "name": "token",
      "outputs": [
        {
          "internalType": "address",
          "name": "tokenAddress",
          "type": "address"
        }
      ],
      "stateMutability": "view",
      "type": "function"
    },
    {
      "inputs": [
        {
          "internalType": "address",
          "name": "newOwner",
          "type": "address"
        }
      ],
      "name": "transferOwnership",
      "outputs": [],
      "stateMutability": "nonpayable",
      "type": "function"
    },
    {
      "inputs": [
        {
          "internalType": "uint256",
          "name": "",
          "type": "uint256"
        }
      ],
      "name": "uri",
      "outputs": [
        {
          "internalType": "string",
          "name": "",
          "type": "string"
        }
      ],
      "stateMutability": "view",
      "type": "function"
    },
    {
      "inputs": [],
      "name": "version",
      "outputs": [
        {
          "internalType": "string",
          "name": "",
          "type": "string"
        }
      ],
      "stateMutability": "pure",
      "type": "function"
    }
  ],
  "bytecode": {
    "object": "0x6080604052670de0b6b3a76400006004556103e86005553480156200002357600080fd5b506040516200408e3803806200408e83398101604081905262000046916200157f565b60408051602081019091526000815281906200006281620000b0565b506001600160a01b0381166200009357604051631e4fbdf760e01b8152600060048201526024015b60405180910390fd5b6200009e81620000c2565b50620000a962000114565b5062001724565b6002620000be828262001658565b5050565b600380546001600160a01b038381166001600160a01b0319831681179093556040519116919082907f8be0079c531659141344cd1fd0a4f28419497f9722a3daafe3b4186f6b6457e090600090a35050565b6200011e6200154e565b604051806060016040528060008152602001600a8152602001600481525060076000808152602001908152602001600020600082015181600001556020820151816001015560408201518160020155905050604051806060016040528060018152602001600b815260200160038152506007600060018152602001908152602001600020600082015181600001556020820151816001015560408201518160020155905050604051806060016040528060028152602001600b815260200160028152506007600060028152602001908152602001600020600082015181600001556020820151816001015560408201518160020155905050604051806060016040528060038152602001600d815260200160048152506007600060038152602001908152602001600020600082015181600001556020820151816001015560408201518160020155905050604051806060016040528060048152602001600f815260200160018152506007600060048152602001908152602001600020600082015181600001556020820151816001015560408201518160020155905050604051806060016040528060058152602001601081526020016001815250600760006005815260200190815260200160002060008201518160000155602082015181600101556040820151816002015590505060405180606001604052806006815260200160108152602001600581525060076000600681526020019081526020016000206000820151816000015560208201518160010155604082015181600201559050506040518060600160405280600781526020016012815260200160058152506007600060078152602001908152602001600020600082015181600001556020820151816001015560408201518160020155905050604051806060016040528060088152602001601481526020016002815250600760006008815260200190815260200160002060008201518160000155602082015181600101556040820151816002015590505060405180606001604052806009815260200160148152602001600381525060076000600981526020019081526020016000206000820151816000015560208201518160010155604082015181600201559050506040518060600160405280600a815260200160198152602001600481525060076000600a81526020019081526020016000206000820151816000015560208201518160010155604082015181600201559050506040518060600160405280600b815260200160198152602001600281525060076000600b81526020019081526020016000206000820151816000015560208201518160010155604082015181600201559050506040518060600160405280600c8152602001601b8152602001600181525060076000600c81526020019081526020016000206000820151816000015560208201518160010155604082015181600201559050506040518060600160405280600d8152602001601b8152602001600181525060076000600d81526020019081526020016000206000820151816000015560208201518160010155604082015181600201559050506040518060600160405280600e8152602001601c8152602001600381525060076000600e81526020019081526020016000206000820151816000015560208201518160010155604082015181600201559050506040518060600160405280600f8152602001601d8152602001600581525060076000600f8152602001908152602001600020600082015181600001556020820151816001015560408201518160020155905050604051806060016040528060108152602001601e8152602001600481525060076000601081526020019081526020016000206000820151816000015560208201518160010155604082015181600201559050506040518060600160405280601181526020016020815260200160028152506007600060118152602001908152602001600020600082015181600001556020820151816001015560408201518160020155905050604051806060016040528060128152602001602281526020016005815250600760006012815260200190815260200160002060008201518160000155602082015181600101556040820151816002015590505060405180606001604052806013815260200160238152602001600381525060076000601381526020019081526020016000206000820151816000015560208201518160010155604082015181600201559050506040518060600160405280601481526020016028815260200160018152506007600060148152602001908152602001600020600082015181600001556020820151816001015560408201518160020155905050604051806060016040528060158152602001602a815260200160038152506007600060158152602001908152602001600020600082015181600001556020820151816001015560408201518160020155905050604051806060016040528060168152602001602a815260200160048152506007600060168152602001908152602001600020600082015181600001556020820151816001015560408201518160020155905050604051806060016040528060178152602001602b815260200160028152506007600060178152602001908152602001600020600082015181600001556020820151816001015560408201518160020155905050604051806060016040528060188152602001602b815260200160048152506007600060188152602001908152602001600020600082015181600001556020820151816001015560408201518160020155905050604051806060016040528060198152602001602d8152602001600181525060076000601981526020019081526020016000206000820151816000015560208201518160010155604082015181600201559050506040518060600160405280601a8152602001602f8152602001600281525060076000601a81526020019081526020016000206000820151816000015560208201518160010155604082015181600201559050506040518060600160405280601b8152602001602f8152602001600581525060076000601b81526020019081526020016000206000820151816000015560208201518160010155604082015181600201559050506040518060600160405280601c815260200160308152602001600381525060076000601c81526020019081526020016000206000820151816000015560208201518160010155604082015181600201559050506040518060600160405280601d815260200160328152602001600581525060076000601d81526020019081526020016000206000820151816000015560208201518160010155604082015181600201559050506040518060600160405280601e8152602001603c8152602001600481525060076000601e81526020019081526020016000206000820151816000015560208201518160010155604082015181600201559050506040518060600160405280601f8152602001603e8152602001600381525060076000601f81526020019081526020016000206000820151816000015560208201516001808301919091556040928301516002928301558251606080820185526020808352603e81840190815260048488018181526000848152600780865296517f977c7c98651e0e2a752fb735f769df5240153cd477a3baa861921344a2ddde905592517f977c7c98651e0e2a752fb735f769df5240153cd477a3baa861921344a2ddde9155517f977c7c98651e0e2a752fb735f769df5240153cd477a3baa861921344a2ddde9255875180850189526021808252603f8286019081526003838c0181815292865288875292517fedddd91313f7c989bdc231bc624ea9908f2340b23ff878dfbd27a2cf1c3ec99f55517fedddd91313f7c989bdc231bc624ea9908f2340b23ff878dfbd27a2cf1c3ec9a055517fedddd91313f7c989bdc231bc624ea9908f2340b23ff878dfbd27a2cf1c3ec9a15588518086018a5260228082528186018b8152828c018a815291865288875291517f8ae59643d21cc5b685464383c8217a4e7f574ef463cc32244f10eaf1145fdc075590517f8ae59643d21cc5b685464383c8217a4e7f574ef463cc32244f10eaf1145fdc0855517f8ae59643d21cc5b685464383c8217a4e7f574ef463cc32244f10eaf1145fdc095588518086018a5260238082526042828701818152838d018b815292875289885292517fe59c24461a0fb1a13e4f19756f944b3655e4523c2fe4b0ad1e7bb8969921a37b5591517fe59c24461a0fb1a13e4f19756f944b3655e4523c2fe4b0ad1e7bb8969921a37c55517fe59c24461a0fb1a13e4f19756f944b3655e4523c2fe4b0ad1e7bb8969921a37d5589518087018b5260248082528187019283526005828d0181815291875289885291517ffce7dc5bb3cbbc540cf9457d032a1a1aae0059624b6dd6eecb9d2c06cd32c09c5591517ffce7dc5bb3cbbc540cf9457d032a1a1aae0059624b6dd6eecb9d2c06cd32c09d5590517ffce7dc5bb3cbbc540cf9457d032a1a1aae0059624b6dd6eecb9d2c06cd32c09e5589518087018b5260258082526044828801908152828d018c815291875289885291517fc7478704eb468bb68beafddaec378319f804ef3f01f1e6e41b277bd6f15398395590517fc7478704eb468bb68beafddaec378319f804ef3f01f1e6e41b277bd6f153983a55517fc7478704eb468bb68beafddaec378319f804ef3f01f1e6e41b277bd6f153983b5589518087018b5260268082526045828801908152828d0184815291875289885291517fa0180b01d5c6c892f34e348721f16e168c551e0a5dac26b1bd68253fcef49b1f5590517fa0180b01d5c6c892f34e348721f16e168c551e0a5dac26b1bd68253fcef49b2055517fa0180b01d5c6c892f34e348721f16e168c551e0a5dac26b1bd68253fcef49b215589518087018b5260278082526046828801908152828d018c815291875289885291517fa42755a2e6766ad8a3c8e0dc6925c5b384a166afae805bfb4a3c3233012e53455590517fa42755a2e6766ad8a3c8e0dc6925c5b384a166afae805bfb4a3c3233012e534655517fa42755a2e6766ad8a3c8e0dc6925c5b384a166afae805bfb4a3c3233012e53475589518087018b5260288082526055828801908152828d0184815291875289885291517f07979f83feb91e6e71e734e272c56671bf06f2c8bf8067684cbe31f663fccc525590517f07979f83feb91e6e71e734e272c56671bf06f2c8bf8067684cbe31f663fccc5355517f07979f83feb91e6e71e734e272c56671bf06f2c8bf8067684cbe31f663fccc545589518087018b5260298082526056828801908152828d018c815291875289885291517f61042a91e6bf866457bba3c0e1666b25163b3849470db2bebc37920294f5c1895590517f61042a91e6bf866457bba3c0e1666b25163b3849470db2bebc37920294f5c18a55517f61042a91e6bf866457bba3c0e1666b25163b3849470db2bebc37920294f5c18b5589518087018b52602a8082526057828801908152828d0193845290865288875290517fc4250a0f26818bb2f4c50553605e6aa5374a022de55e294b0c5f6716bcaddbf855517fc4250a0f26818bb2f4c50553605e6aa5374a022de55e294b0c5f6716bcaddbf955517fc4250a0f26818bb2f4c50553605e6aa5374a022de55e294b0c5f6716bcaddbfa5588518086018a52602b8082526059828701908152828c018a815291865288875291517feec123b2fdbe86f4f5bc78302d7f5a15762e0c954439f75677c94278d2bcf8fd5590517feec123b2fdbe86f4f5bc78302d7f5a15762e0c954439f75677c94278d2bcf8fe55517feec123b2fdbe86f4f5bc78302d7f5a15762e0c954439f75677c94278d2bcf8ff5588518086018a52602c808252605a828701908152828c0185815291865288875291517fd9ba031fdb7d71bd061083980d5807d26bb2fade193f918e92821956bfdda35a5590517fd9ba031fdb7d71bd061083980d5807d26bb2fade193f918e92821956bfdda35b55517fd9ba031fdb7d71bd061083980d5807d26bb2fade193f918e92821956bfdda35c5588518086018a52602d808252605c828701908152828c01998a5290855287865290517ff61dffaafadc06c51bab3d00b0e2d57a6471368c7ae68dc2c923be5b2842e92055517ff61dffaafadc06c51bab3d00b0e2d57a6471368c7ae68dc2c923be5b2842e9215595517ff61dffaafadc06c51bab3d00b0e2d57a6471368c7ae68dc2c923be5b2842e9225587518085018952602e808252605d828601908152828b01998a5290845286855290517fa9a18f421c88b5456819057fb70bd58beec0e03163991994ad8d80ed30deeaf355517fa9a18f421c88b5456819057fb70bd58beec0e03163991994ad8d80ed30deeaf45595517fa9a18f421c88b5456819057fb70bd58beec0e03163991994ad8d80ed30deeaf55586518084018852602f808252605f828501908152828a0188815291845286855291517f6ad70a4b2f0ce5a5b5e387d4bc4ae7958c0f01a0b5fba90a2c0b1a9391f068c85590517f6ad70a4b2f0ce5a5b5e387d4bc4ae7958c0f01a0b5fba90a2c0b1a9391f068c955517f6ad70a4b2f0ce5a5b5e387d4bc4ae7958c0f01a0b5fba90a2c0b1a9391f068ca558651808401885260308082526061828501908152828a0198895290835285845290517f1d90d70aa2b160f0d0cfe0186ccfd5809afb328c84784403875176cf0cca882b55517f1d90d70aa2b160f0d0cfe0186ccfd5809afb328c84784403875176cf0cca882c5594517f1d90d70aa2b160f0d0cfe0186ccfd5809afb328c84784403875176cf0cca882d558551918201865260318083526064838301908152968301948552909452925290517f43bb8b1d7c00529ae093964f1262bb23db3724587febebf63bb573ff574a23d95590517f43bb8b1d7c00529ae093964f1262bb23db3724587febebf63bb573ff574a23da55517f43bb8b1d7c00529ae093964f1262bb23db3724587febebf63bb573ff574a23db55565b6003546001600160a01b031633146200157d5760405163118cdaa760e01b81523360048201526024016200008a565b565b6000602082840312156200159257600080fd5b81516001600160a01b0381168114620015aa57600080fd5b9392505050565b634e487b7160e01b600052604160045260246000fd5b600181811c90821680620015dc57607f821691505b602082108103620015fd57634e487b7160e01b600052602260045260246000fd5b50919050565b601f82111562001653576000816000526020600020601f850160051c810160208610156200162e5750805b601f850160051c820191505b818110156200164f578281556001016200163a565b5050505b505050565b81516001600160401b03811115620016745762001674620015b1565b6200168c81620016858454620015c7565b8462001603565b602080601f831160018114620016c45760008415620016ab5750858301515b600019600386901b1c1916600185901b1785556200164f565b600085815260208120601f198616915b82811015620016f557888601518255948401946001909101908401620016d4565b5085821015620017145787850151600019600388901b60f8161c191681555b5050505050600190811b01905550565b61295a80620017346000396000f3fe6080604052600436106102195760003560e01c80636457e38911610123578063ac8c733d116100ab578063f2fde38b1161006f578063f2fde38b146106cb578063f473085d146106eb578063f5298aca1461070b578063fc0c546a1461072b578063ffa1ad741461074957600080fd5b8063ac8c733d14610633578063c458324014610648578063d6d902bb14610675578063e985e9c51461068b578063f242432a146106ab57600080fd5b80638da5cb5b116100f25780638da5cb5b1461052f5780638dc1076814610561578063923c1a06146105b8578063a22cb465146105d8578063a3f4df7e146105f857600080fd5b80636457e389146104ba5780636b20c454146104da578063715018a6146104fa578063731133e91461050f57600080fd5b80632eb2c2d6116101a65780634e1273f4116101755780634e1273f4146103fd578063500ccabf1461042a578063530c9f2d1461045757806354fd4d501461045f5780635f049d5b1461048d57600080fd5b80632eb2c2d61461037a57806330a034d61461039a5780633b584960146103ba5780633bf3812b146103d057600080fd5b80630e89341c116101ed5780630e89341c146102e45780631312b24e146103045780631b84f1a8146103245780631f7fdffa1461033a5780632535e0dd1461035a57600080fd5b8062fdd58e1461021e57806301ffc9a71461025157806302fe53051461028157806306fdde03146102a3575b600080fd5b34801561022a57600080fd5b5061023e610239366004611ef7565b61077a565b6040519081526020015b60405180910390f35b34801561025d57600080fd5b5061027161026c366004611f37565b6107a2565b6040519015158152602001610248565b34801561028d57600080fd5b506102a161029c366004611ffa565b6107f2565b005b3480156102af57600080fd5b5060408051808201909152600f81526e53756d6d6f6e657273204172656e6160881b60208201525b6040516102489190612089565b3480156102f057600080fd5b506102d76102ff36600461209c565b610806565b34801561031057600080fd5b5061023e61031f3660046120b5565b61089a565b34801561033057600080fd5b5061023e60045481565b34801561034657600080fd5b506102a1610355366004612183565b6108e6565b34801561036657600080fd5b5061023e6103753660046120b5565b610900565b34801561038657600080fd5b506102a161039536600461221c565b610926565b3480156103a657600080fd5b506102a16103b536600461209c565b610992565b3480156103c657600080fd5b5061023e61384081565b3480156103dc57600080fd5b5061023e6103eb3660046120b5565b600a6020526000908152604090205481565b34801561040957600080fd5b5061041d6104183660046122c6565b610b01565b60405161024891906123c2565b34801561043657600080fd5b5061023e6104453660046120b5565b60096020526000908152604090205481565b6102a1610bce565b34801561046b57600080fd5b50604080518082019091526005815264302e302e3160d81b60208201526102d7565b34801561049957600080fd5b506104ad6104a83660046120b5565b610c6a565b60405161024891906123d5565b3480156104c657600080fd5b506102a16104d536600461209c565b610cdd565b3480156104e657600080fd5b506102a16104f5366004612406565b610f02565b34801561050657600080fd5b506102a1610f61565b34801561051b57600080fd5b506102a161052a36600461247a565b610f73565b34801561053b57600080fd5b506003546001600160a01b03165b6040516001600160a01b039091168152602001610248565b34801561056d57600080fd5b5061059d61057c36600461209c565b60076020526000908152604090208054600182015460029092015490919083565b60408051938452602084019290925290820152606001610248565b3480156105c457600080fd5b506102a16105d33660046124cf565b610f87565b3480156105e457600080fd5b506102a16105f3366004612505565b61127c565b34801561060457600080fd5b506102d76040518060400160405280600f81526020016e53756d6d6f6e657273204172656e6160881b81525081565b34801561063f57600080fd5b506102a161128b565b34801561065457600080fd5b5061023e6106633660046120b5565b60086020526000908152604090205481565b34801561068157600080fd5b5061023e60055481565b34801561069757600080fd5b506102716106a636600461253c565b611321565b3480156106b757600080fd5b506102a16106c636600461256f565b61134f565b3480156106d757600080fd5b506102a16106e63660046120b5565b6113ae565b3480156106f757600080fd5b5061023e6107063660046120b5565b6113e9565b34801561071757600080fd5b506102a16107263660046125d4565b611452565b34801561073757600080fd5b506006546001600160a01b0316610549565b34801561075557600080fd5b506102d760405180604001604052806005815260200164302e302e3160d81b81525081565b6000818152602081815260408083206001600160a01b03861684529091529020545b92915050565b60006001600160e01b03198216636cdb3d1360e11b14806107d357506001600160e01b031982166303a24d0760e21b145b8061079c57506301ffc9a760e01b6001600160e01b031983161461079c565b6107fa611488565b610803816114b5565b50565b60606002805461081590612607565b80601f016020809104026020016040519081016040528092919081815260200182805461084190612607565b801561088e5780601f106108635761010080835404028352916020019161088e565b820191906000526020600020905b81548152906001019060200180831161087157829003601f168201915b50505050509050919050565b6001600160a01b038116600090815260096020526040812054816108c18262015180612651565b90508042106108d4575060009392505050565b6108de4282612664565b949350505050565b6108ee611488565b6108fa848484846114c1565b50505050565b6001600160a01b0381166000908152600a6020526040812054816108c161384083612651565b336001600160a01b038616811480159061094757506109458682611321565b155b1561097d5760405163711bec9160e11b81526001600160a01b038083166004830152871660248201526044015b60405180910390fd5b61098a86868686866114f9565b505050505050565b6005548110156109dd5760405162461bcd60e51b8152602060048201526016602482015275125b9cdd59999a58da595b9d0814d55353481cd95b9d60521b6044820152606401610974565b6006546040516323b872dd60e01b8152336004820152306024820152604481018390526001600160a01b03909116906323b872dd906064016020604051808303816000875af1158015610a34573d6000803e3d6000fd5b505050506040513d601f19601f82011682018060405250810190610a589190612677565b50600554811115610af8576006546005546001600160a01b039091169063a9059cbb903390610a879085612664565b6040516001600160e01b031960e085901b1681526001600160a01b03909216600483015260248201526044016020604051808303816000875af1158015610ad2573d6000803e3d6000fd5b505050506040513d601f19601f82011682018060405250810190610af69190612677565b505b61080333611560565b60608151835114610b325781518351604051635b05999160e01b815260048101929092526024820152604401610974565b6000835167ffffffffffffffff811115610b4e57610b4e611f5b565b604051908082528060200260200182016040528015610b77578160200160208202803683370190505b50905060005b8451811015610bc657602080820286010151610ba19060208084028701015161077a565b828281518110610bb357610bb3612694565b6020908102919091010152600101610b7d565b509392505050565b600454341015610c185760405162461bcd60e51b8152602060048201526015602482015274125b9cdd59999a58da595b9d08115512081cd95b9d605a1b6044820152606401610974565b600454341115610c5f5760045433906108fc90610c359034612664565b6040518115909202916000818181858888f19350505050158015610c5d573d6000803e3d6000fd5b505b610c6833611560565b565b610c72611e4c565b6001600160a01b03821660009081526008602090815260408083208151808301835281548152825160a08101938490529093919291840191600184019060059082845b815481526020019060010190808311610cb55750505091909252505050602001519392505050565b6000610ce9338361077a565b11610d365760405162461bcd60e51b815260206004820152601760248201527f596f7520646f206e6f74206f776e2074686973204e46540000000000000000006044820152606401610974565b336000908152600a60205260409020544290610d559061384090612651565b1115610dad5760405162461bcd60e51b815260206004820152602160248201527f4578706c6f726174696f6e20636f6f6c646f776e206e6f74206f7665722079656044820152601d60fa1b6064820152608401610974565b336000908152600a602081905260408220429055821015610dd05750600a610e07565b6014821015610de15750600f610e07565b601e821015610df257506019610e07565b6028821015610e0357506032610e07565b5060635b60006064610e16600143612664565b60408051914060208301526bffffffffffffffffffffffff193360601b1690820152605481018590526074016040516020818303038152906040528051906020012060001c610e6591906126c0565b905081811015610eb957610e7833611560565b604080518481526001602082015233917f881e6a2d6e6ccc01db8059143b38355253b44e9248b47164c5f720b0ccfbefa091015b60405180910390a2505050565b610ec533846001611757565b604080518481526000602082015233917f881e6a2d6e6ccc01db8059143b38355253b44e9248b47164c5f720b0ccfbefa09101610eac565b505050565b6001600160a01b0383163314801590610f225750610f208333611321565b155b15610f5657335b60405163711bec9160e11b81526001600160a01b0391821660048201529084166024820152604401610974565b610efd8383836117bf565b610f69611488565b610c686000611805565b610f7b611488565b6108fa84848484611857565b6000600a610f93611e6a565b60008060005b60058110156110bb576000878260058110610fb657610fb6612694565b602002013590506000610fc9338361077a565b11156110b2576000600760008a8560058110610fe757610fe7612694565b60200201358152602001908152602001600020604051806060016040529081600082015481526020016001820154815260200160028201548152505090508060200151886110359190612651565b97508581604001516006811061104d5761104d612694565b6020020180519061105d826126d4565b905250805160281180159061107457508051603110155b1561108b5784611083816126d4565b9550506110b0565b601e821015801561109d575060278211155b156110b057836110ac816126d4565b9450505b505b50600101610f99565b5060008060015b6005811161114057818682600681106110dd576110dd612694565b602002015110611101578581600681106110f9576110f9612694565b602002015191505b600086826006811061111557611115612694565b6020020151111561112e578261112a816126d4565b9350505b80611138816126d4565b9150506110c2565b50806005036111525760199550611192565b806004036111635760149550611192565b8160050361117457600f9550611192565b8060030361118557600d9550611192565b8060020361119257600c95505b61119d8460056126ed565b6111a79087612651565b95506111b38387612651565b9550600a6111c187896126ed565b6111cb9190612704565b965060405180604001604052808881526020018960058060200260405190810160405280929190826005602002808284376000920182905250929093525033815260086020908152604090912083518155908301519091506112339060018301906005611e88565b50506040513391507f526177b3a45653ba9e9109c6159e36d32ef4916e007026750988e8cef5b9bd369061126a908a908c90612718565b60405180910390a25050505050505050565b6112873383836118b4565b5050565b3360009081526009602052604090205462015180906112aa9042612664565b10156113045760405162461bcd60e51b815260206004820152602360248201527f4d757374207761697420312064617920746f206f70656e20612066726565207060448201526261636b60e81b6064820152608401610974565b61130d33611560565b336000908152600960205260409020429055565b6001600160a01b03918216600090815260016020908152604080832093909416825291909152205460ff1690565b336001600160a01b0386168114801590611370575061136e8682611321565b155b156113a15760405163711bec9160e11b81526001600160a01b03808316600483015287166024820152604401610974565b61098a868686868661194a565b6113b6611488565b6001600160a01b0381166113e057604051631e4fbdf760e01b815260006004820152602401610974565b61080381611805565b6001600160a01b03811660009081526008602090815260408083208151808301835281548152825160a08101938490528594919391840191600184019060059082845b81548152602001906001019080831161142c575050509190925250509051949350505050565b6001600160a01b038316331480159061147257506114708333611321565b155b1561147d5733610f29565b610efd838383611757565b6003546001600160a01b03163314610c685760405163118cdaa760e01b8152336004820152602401610974565b60026112878282612776565b6001600160a01b0384166114eb57604051632bfa23e760e11b815260006004820152602401610974565b6108fa6000858585856119d8565b6001600160a01b03841661152357604051632bfa23e760e11b815260006004820152602401610974565b6001600160a01b03851661154c57604051626a0d4560e21b815260006004820152602401610974565b61155985858585856119d8565b5050505050565b60408051600580825260c082019092526000916020820160a080368337505060408051600580825260c0820190925292935060009291506020820160a08036833701905050905060005b60058110156117005760006115c0600143612664565b60408051914060208301526bffffffffffffffffffffffff19606088901b16908201526054810183905260740160408051601f198184030181529190528051602090910120905060006116146064836126c0565b90506000600a611625606485612704565b61162f91906126c0565b9050603c82101561165e578086858151811061164d5761164d612694565b6020026020010181815250506116d6565b60548210156116845761167281600a612651565b86858151811061164d5761164d612694565b605e82101561169857611672816014612651565b60638210156116ac5761167281601e612651565b6116b7816028612651565b8685815181106116c9576116c9612694565b6020026020010181815250505b60018585815181106116ea576116ea612694565b60209081029190910101525050506001016115aa565b5061171c838383604051806020016040528060008152506114c1565b826001600160a01b03167ff7abfe87506a99dfe239c7c8cdb614b8c0bd515135b3897f983d0dd4c657aeaf8383604051610eac929190612836565b6001600160a01b03831661178057604051626a0d4560e21b815260006004820152602401610974565b604080516001808252602082018590528183019081526060820184905260a08201909252600060808201818152919291611559918791859085906119d8565b6001600160a01b0383166117e857604051626a0d4560e21b815260006004820152602401610974565b610efd8360008484604051806020016040528060008152506119d8565b600380546001600160a01b038381166001600160a01b0319831681179093556040519116919082907f8be0079c531659141344cd1fd0a4f28419497f9722a3daafe3b4186f6b6457e090600090a35050565b6001600160a01b03841661188157604051632bfa23e760e11b815260006004820152602401610974565b6040805160018082526020820186905281830190815260608201859052608082019092529061098a6000878484876119d8565b6001600160a01b0382166118dd5760405162ced3e160e81b815260006004820152602401610974565b6001600160a01b03838116600081815260016020908152604080832094871680845294825291829020805460ff191686151590811790915591519182527f17307eab39ab6107e8899845ad3d59bd9653f200f220920489ca2b5937696c31910160405180910390a3505050565b6001600160a01b03841661197457604051632bfa23e760e11b815260006004820152602401610974565b6001600160a01b03851661199d57604051626a0d4560e21b815260006004820152602401610974565b604080516001808252602082018690528183019081526060820185905260808201909252906119cf87878484876119d8565b50505050505050565b6119e485858585611a2b565b6001600160a01b038416156115595782513390600103611a1d5760208481015190840151611a16838989858589611c3f565b505061098a565b61098a818787878787611d63565b8051825114611a5a5781518151604051635b05999160e01b815260048101929092526024820152604401610974565b3360005b8351811015611b60576020818102858101820151908501909101516001600160a01b03881615611b11576000828152602081815260408083206001600160a01b038c16845290915290205481811015611aea576040516303dee4c560e01b81526001600160a01b038a166004820152602481018290526044810183905260648101849052608401610974565b6000838152602081815260408083206001600160a01b038d16845290915290209082900390555b6001600160a01b03871615611b56576000828152602081815260408083206001600160a01b038b16845290915281208054839290611b50908490612651565b90915550505b5050600101611a5e565b508251600103611be15760208301516000906020840151909150856001600160a01b0316876001600160a01b0316846001600160a01b03167fc3d58168c5ae7397731d063d5bbf3d657854427343f4c083240f7aacaa2d0f628585604051611bd2929190918252602082015260400190565b60405180910390a45050611559565b836001600160a01b0316856001600160a01b0316826001600160a01b03167f4a39dc06d4c0dbc64b70af90fd698a233a518aa5d07e595d983b8c0526c8f7fb8686604051611c30929190612836565b60405180910390a45050505050565b6001600160a01b0384163b1561098a5760405163f23a6e6160e01b81526001600160a01b0385169063f23a6e6190611c839089908990889088908890600401612864565b6020604051808303816000875af1925050508015611cbe575060408051601f3d908101601f19168201909252611cbb918101906128a9565b60015b611d27573d808015611cec576040519150601f19603f3d011682016040523d82523d6000602084013e611cf1565b606091505b508051600003611d1f57604051632bfa23e760e11b81526001600160a01b0386166004820152602401610974565b805181602001fd5b6001600160e01b0319811663f23a6e6160e01b146119cf57604051632bfa23e760e11b81526001600160a01b0386166004820152602401610974565b6001600160a01b0384163b1561098a5760405163bc197c8160e01b81526001600160a01b0385169063bc197c8190611da790899089908890889088906004016128c6565b6020604051808303816000875af1925050508015611de2575060408051601f3d908101601f19168201909252611ddf918101906128a9565b60015b611e10573d808015611cec576040519150601f19603f3d011682016040523d82523d6000602084013e611cf1565b6001600160e01b0319811663bc197c8160e01b146119cf57604051632bfa23e760e11b81526001600160a01b0386166004820152602401610974565b6040518060a001604052806005906020820280368337509192915050565b6040518060c001604052806006906020820280368337509192915050565b8260058101928215611eb6579160200282015b82811115611eb6578251825591602001919060010190611e9b565b50611ec2929150611ec6565b5090565b5b80821115611ec25760008155600101611ec7565b80356001600160a01b0381168114611ef257600080fd5b919050565b60008060408385031215611f0a57600080fd5b611f1383611edb565b946020939093013593505050565b6001600160e01b03198116811461080357600080fd5b600060208284031215611f4957600080fd5b8135611f5481611f21565b9392505050565b634e487b7160e01b600052604160045260246000fd5b604051601f8201601f1916810167ffffffffffffffff81118282101715611f9a57611f9a611f5b565b604052919050565b600067ffffffffffffffff831115611fbc57611fbc611f5b565b611fcf601f8401601f1916602001611f71565b9050828152838383011115611fe357600080fd5b828260208301376000602084830101529392505050565b60006020828403121561200c57600080fd5b813567ffffffffffffffff81111561202357600080fd5b8201601f8101841361203457600080fd5b6108de84823560208401611fa2565b6000815180845260005b818110156120695760208185018101518683018201520161204d565b506000602082860101526020601f19601f83011685010191505092915050565b602081526000611f546020830184612043565b6000602082840312156120ae57600080fd5b5035919050565b6000602082840312156120c757600080fd5b611f5482611edb565b600067ffffffffffffffff8211156120ea576120ea611f5b565b5060051b60200190565b600082601f83011261210557600080fd5b8135602061211a612115836120d0565b611f71565b8083825260208201915060208460051b87010193508684111561213c57600080fd5b602086015b848110156121585780358352918301918301612141565b509695505050505050565b600082601f83011261217457600080fd5b611f5483833560208501611fa2565b6000806000806080858703121561219957600080fd5b6121a285611edb565b9350602085013567ffffffffffffffff808211156121bf57600080fd5b6121cb888389016120f4565b945060408701359150808211156121e157600080fd5b6121ed888389016120f4565b9350606087013591508082111561220357600080fd5b5061221087828801612163565b91505092959194509250565b600080600080600060a0868803121561223457600080fd5b61223d86611edb565b945061224b60208701611edb565b9350604086013567ffffffffffffffff8082111561226857600080fd5b61227489838a016120f4565b9450606088013591508082111561228a57600080fd5b61229689838a016120f4565b935060808801359150808211156122ac57600080fd5b506122b988828901612163565b9150509295509295909350565b600080604083850312156122d957600080fd5b823567ffffffffffffffff808211156122f157600080fd5b818501915085601f83011261230557600080fd5b81356020612315612115836120d0565b82815260059290921b8401810191818101908984111561233457600080fd5b948201945b838610156123595761234a86611edb565b82529482019490820190612339565b9650508601359250508082111561236f57600080fd5b5061237c858286016120f4565b9150509250929050565b60008151808452602080850194506020840160005b838110156123b75781518752958201959082019060010161239b565b509495945050505050565b602081526000611f546020830184612386565b60a08101818360005b60058110156123fd5781518352602092830192909101906001016123de565b50505092915050565b60008060006060848603121561241b57600080fd5b61242484611edb565b9250602084013567ffffffffffffffff8082111561244157600080fd5b61244d878388016120f4565b9350604086013591508082111561246357600080fd5b50612470868287016120f4565b9150509250925092565b6000806000806080858703121561249057600080fd5b61249985611edb565b93506020850135925060408501359150606085013567ffffffffffffffff8111156124c357600080fd5b61221087828801612163565b600060a082840312156124e157600080fd5b8260a0830111156124f157600080fd5b50919050565b801515811461080357600080fd5b6000806040838503121561251857600080fd5b61252183611edb565b91506020830135612531816124f7565b809150509250929050565b6000806040838503121561254f57600080fd5b61255883611edb565b915061256660208401611edb565b90509250929050565b600080600080600060a0868803121561258757600080fd5b61259086611edb565b945061259e60208701611edb565b93506040860135925060608601359150608086013567ffffffffffffffff8111156125c857600080fd5b6122b988828901612163565b6000806000606084860312156125e957600080fd5b6125f284611edb565b95602085013595506040909401359392505050565b600181811c9082168061261b57607f821691505b6020821081036124f157634e487b7160e01b600052602260045260246000fd5b634e487b7160e01b600052601160045260246000fd5b8082018082111561079c5761079c61263b565b8181038181111561079c5761079c61263b565b60006020828403121561268957600080fd5b8151611f54816124f7565b634e487b7160e01b600052603260045260246000fd5b634e487b7160e01b600052601260045260246000fd5b6000826126cf576126cf6126aa565b500690565b6000600182016126e6576126e661263b565b5060010190565b808202811582820484141761079c5761079c61263b565b600082612713576127136126aa565b500490565b82815260c0810160a08360208401379392505050565b601f821115610efd576000816000526020600020601f850160051c810160208610156127575750805b601f850160051c820191505b8181101561098a57828155600101612763565b815167ffffffffffffffff81111561279057612790611f5b565b6127a48161279e8454612607565b8461272e565b602080601f8311600181146127d957600084156127c15750858301515b600019600386901b1c1916600185901b17855561098a565b600085815260208120601f198616915b82811015612808578886015182559484019460019091019084016127e9565b50858210156128265787850151600019600388901b60f8161c191681555b5050505050600190811b01905550565b6040815260006128496040830185612386565b828103602084015261285b8185612386565b95945050505050565b6001600160a01b03868116825285166020820152604081018490526060810183905260a06080820181905260009061289e90830184612043565b979650505050505050565b6000602082840312156128bb57600080fd5b8151611f5481611f21565b6001600160a01b0386811682528516602082015260a0604082018190526000906128f290830186612386565b82810360608401526129048186612386565b905082810360808401526129188185612043565b9897505050505050505056fea26469706673582212207ad0280542ba3a1da2a68cd6b30075e6530f890d2ab33c9c5f073a965444184864736f6c63430008170033",
    "linkReferences": {}
  },
  "methodIdentifiers": {
    "NAME()": "a3f4df7e",
    "VERSION()": "ffa1ad74",
    "balanceOf(address,uint256)": "00fdd58e",
    "balanceOfBatch(address[],uint256[])": "4e1273f4",
    "burn(address,uint256,uint256)": "f5298aca",
    "burnBatch(address,uint256[],uint256[])": "6b20c454",
    "cards(uint256)": "8dc10768",
    "createTeam(uint256[5])": "923c1a06",
    "explorationCooldown()": "3b584960",
    "explore(uint256)": "6457e389",
    "getExplorationCooldown(address)": "2535e0dd",
    "getFreePackCooldown(address)": "1312b24e",
    "getTeamCards(address)": "5f049d5b",
    "getTeamPower(address)": "f473085d",
    "isApprovedForAll(address,address)": "e985e9c5",
    "lastExplorationTime(address)": "3bf3812b",
    "lastOpenedFreePack(address)": "500ccabf",
    "mint(address,uint256,uint256,bytes)": "731133e9",
    "mintBatch(address,uint256[],uint256[],bytes)": "1f7fdffa",
    "name()": "06fdde03",
    "openBuyPackMatic()": "530c9f2d",
    "openBuyPackToken(uint256)": "30a034d6",
    "openFreePack()": "ac8c733d",
    "owner()": "8da5cb5b",
    "packPriceMatic()": "1b84f1a8",
    "packPriceToken()": "d6d902bb",
    "renounceOwnership()": "715018a6",
    "safeBatchTransferFrom(address,address,uint256[],uint256[],bytes)": "2eb2c2d6",
    "safeTransferFrom(address,address,uint256,uint256,bytes)": "f242432a",
    "setApprovalForAll(address,bool)": "a22cb465",
    "setURI(string)": "02fe5305",
    "supportsInterface(bytes4)": "01ffc9a7",
    "teams(address)": "c4583240",
    "token()": "fc0c546a",
    "transferOwnership(address)": "f2fde38b",
    "uri(uint256)": "0e89341c",
    "version()": "54fd4d50"
  },
  "id": 0
}