{
  "abi": [
    {
      "inputs": [
        {
          "internalType": "address",
          "name": "initialOwner",
          "type": "address"
        }
      ],
      "stateMutability": "nonpayable",
      "type": "constructor"
    },
    {
      "inputs": [
        {
          "internalType": "address",
          "name": "sender",
          "type": "address"
        },
        {
          "internalType": "uint256",
          "name": "balance",
          "type": "uint256"
        },
        {
          "internalType": "uint256",
          "name": "needed",
          "type": "uint256"
        },
        {
          "internalType": "uint256",
          "name": "tokenId",
          "type": "uint256"
        }
      ],
      "name": "ERC1155InsufficientBalance",
      "type": "error"
    },
    {
      "inputs": [
        {
          "internalType": "address",
          "name": "approver",
          "type": "address"
        }
      ],
      "name": "ERC1155InvalidApprover",
      "type": "error"
    },
    {
      "inputs": [
        {
          "internalType": "uint256",
          "name": "idsLength",
          "type": "uint256"
        },
        {
          "internalType": "uint256",
          "name": "valuesLength",
          "type": "uint256"
        }
      ],
      "name": "ERC1155InvalidArrayLength",
      "type": "error"
    },
    {
      "inputs": [
        {
          "internalType": "address",
          "name": "operator",
          "type": "address"
        }
      ],
      "name": "ERC1155InvalidOperator",
      "type": "error"
    },
    {
      "inputs": [
        {
          "internalType": "address",
          "name": "receiver",
          "type": "address"
        }
      ],
      "name": "ERC1155InvalidReceiver",
      "type": "error"
    },
    {
      "inputs": [
        {
          "internalType": "address",
          "name": "sender",
          "type": "address"
        }
      ],
      "name": "ERC1155InvalidSender",
      "type": "error"
    },
    {
      "inputs": [
        {
          "internalType": "address",
          "name": "operator",
          "type": "address"
        },
        {
          "internalType": "address",
          "name": "owner",
          "type": "address"
        }
      ],
      "name": "ERC1155MissingApprovalForAll",
      "type": "error"
    },
    {
      "inputs": [
        {
          "internalType": "address",
          "name": "owner",
          "type": "address"
        }
      ],
      "name": "OwnableInvalidOwner",
      "type": "error"
    },
    {
      "inputs": [
        {
          "internalType": "address",
          "name": "account",
          "type": "address"
        }
      ],
      "name": "OwnableUnauthorizedAccount",
      "type": "error"
    },
    {
      "anonymous": false,
      "inputs": [
        {
          "indexed": true,
          "internalType": "address",
          "name": "account",
          "type": "address"
        },
        {
          "indexed": true,
          "internalType": "address",
          "name": "operator",
          "type": "address"
        },
        {
          "indexed": false,
          "internalType": "bool",
          "name": "approved",
          "type": "bool"
        }
      ],
      "name": "ApprovalForAll",
      "type": "event"
    },
    {
      "anonymous": false,
      "inputs": [
        {
          "indexed": true,
          "internalType": "address",
          "name": "user",
          "type": "address"
        },
        {
          "indexed": false,
          "internalType": "uint256",
          "name": "tokenId",
          "type": "uint256"
        },
        {
          "indexed": false,
          "internalType": "bool",
          "name": "success",
          "type": "bool"
        }
      ],
      "name": "Exploration",
      "type": "event"
    },
    {
      "anonymous": false,
      "inputs": [
        {
          "indexed": true,
          "internalType": "address",
          "name": "previousOwner",
          "type": "address"
        },
        {
          "indexed": true,
          "internalType": "address",
          "name": "newOwner",
          "type": "address"
        }
      ],
      "name": "OwnershipTransferred",
      "type": "event"
    },
    {
      "anonymous": false,
      "inputs": [
        {
          "indexed": true,
          "internalType": "address",
          "name": "user",
          "type": "address"
        },
        {
          "indexed": false,
          "internalType": "uint256[]",
          "name": "cardIds",
          "type": "uint256[]"
        },
        {
          "indexed": false,
          "internalType": "uint256[]",
          "name": "amounts",
          "type": "uint256[]"
        }
      ],
      "name": "PackOpened",
      "type": "event"
    },
    {
      "anonymous": false,
      "inputs": [
        {
          "indexed": true,
          "internalType": "address",
          "name": "user",
          "type": "address"
        },
        {
          "indexed": false,
          "internalType": "uint256",
          "name": "totalPower",
          "type": "uint256"
        },
        {
          "indexed": false,
          "internalType": "uint256[5]",
          "name": "cardIds",
          "type": "uint256[5]"
        }
      ],
      "name": "TeamCreated",
      "type": "event"
    },
    {
      "anonymous": false,
      "inputs": [
        {
          "indexed": false,
          "internalType": "address",
          "name": "beneficiary",
          "type": "address"
        },
        {
          "indexed": false,
          "internalType": "uint256",
          "name": "amount",
          "type": "uint256"
        }
      ],
      "name": "TokenAirdrop",
      "type": "event"
    },
    {
      "anonymous": false,
      "inputs": [
        {
          "indexed": true,
          "internalType": "address",
          "name": "operator",
          "type": "address"
        },
        {
          "indexed": true,
          "internalType": "address",
          "name": "from",
          "type": "address"
        },
        {
          "indexed": true,
          "internalType": "address",
          "name": "to",
          "type": "address"
        },
        {
          "indexed": false,
          "internalType": "uint256[]",
          "name": "ids",
          "type": "uint256[]"
        },
        {
          "indexed": false,
          "internalType": "uint256[]",
          "name": "values",
          "type": "uint256[]"
        }
      ],
      "name": "TransferBatch",
      "type": "event"
    },
    {
      "anonymous": false,
      "inputs": [
        {
          "indexed": true,
          "internalType": "address",
          "name": "operator",
          "type": "address"
        },
        {
          "indexed": true,
          "internalType": "address",
          "name": "from",
          "type": "address"
        },
        {
          "indexed": true,
          "internalType": "address",
          "name": "to",
          "type": "address"
        },
        {
          "indexed": false,
          "internalType": "uint256",
          "name": "id",
          "type": "uint256"
        },
        {
          "indexed": false,
          "internalType": "uint256",
          "name": "value",
          "type": "uint256"
        }
      ],
      "name": "TransferSingle",
      "type": "event"
    },
    {
      "anonymous": false,
      "inputs": [
        {
          "indexed": false,
          "internalType": "string",
          "name": "value",
          "type": "string"
        },
        {
          "indexed": true,
          "internalType": "uint256",
          "name": "id",
          "type": "uint256"
        }
      ],
      "name": "URI",
      "type": "event"
    },
    {
      "inputs": [],
      "name": "NAME",
      "outputs": [
        {
          "internalType": "string",
          "name": "",
          "type": "string"
        }
      ],
      "stateMutability": "view",
      "type": "function"
    },
    {
      "inputs": [],
      "name": "VERSION",
      "outputs": [
        {
          "internalType": "string",
          "name": "",
          "type": "string"
        }
      ],
      "stateMutability": "view",
      "type": "function"
    },
    {
      "inputs": [
        {
          "internalType": "address payable[]",
          "name": "_addresses",
          "type": "address[]"
        },
        {
          "internalType": "uint256[]",
          "name": "_amounts",
          "type": "uint256[]"
        }
      ],
      "name": "_airdropMATIC",
      "outputs": [
        {
          "internalType": "bool",
          "name": "",
          "type": "bool"
        }
      ],
      "stateMutability": "payable",
      "type": "function"
    },
    {
      "inputs": [],
      "name": "_token",
      "outputs": [
        {
          "internalType": "contract IERC20",
          "name": "",
          "type": "address"
        }
      ],
      "stateMutability": "view",
      "type": "function"
    },
    {
      "inputs": [
        {
          "internalType": "address payable[]",
          "name": "_addresses",
          "type": "address[]"
        },
        {
          "internalType": "uint256[]",
          "name": "_amounts",
          "type": "uint256[]"
        }
      ],
      "name": "airdropMATIC",
      "outputs": [
        {
          "internalType": "bool",
          "name": "",
          "type": "bool"
        }
      ],
      "stateMutability": "payable",
      "type": "function"
    },
    {
      "inputs": [
        {
          "internalType": "address",
          "name": "airdropTokenAddress",
          "type": "address"
        },
        {
          "internalType": "address[]",
          "name": "_addresses",
          "type": "address[]"
        },
        {
          "internalType": "uint256[]",
          "name": "_amounts",
          "type": "uint256[]"
        }
      ],
      "name": "airdropToken",
      "outputs": [
        {
          "internalType": "bool",
          "name": "",
          "type": "bool"
        }
      ],
      "stateMutability": "nonpayable",
      "type": "function"
    },
    {
      "inputs": [
        {
          "internalType": "address",
          "name": "account",
          "type": "address"
        },
        {
          "internalType": "uint256",
          "name": "id",
          "type": "uint256"
        }
      ],
      "name": "balanceOf",
      "outputs": [
        {
          "internalType": "uint256",
          "name": "",
          "type": "uint256"
        }
      ],
      "stateMutability": "view",
      "type": "function"
    },
    {
      "inputs": [
        {
          "internalType": "address[]",
          "name": "accounts",
          "type": "address[]"
        },
        {
          "internalType": "uint256[]",
          "name": "ids",
          "type": "uint256[]"
        }
      ],
      "name": "balanceOfBatch",
      "outputs": [
        {
          "internalType": "uint256[]",
          "name": "",
          "type": "uint256[]"
        }
      ],
      "stateMutability": "view",
      "type": "function"
    },
    {
      "inputs": [
        {
          "internalType": "address",
          "name": "account",
          "type": "address"
        },
        {
          "internalType": "uint256",
          "name": "id",
          "type": "uint256"
        },
        {
          "internalType": "uint256",
          "name": "value",
          "type": "uint256"
        }
      ],
      "name": "burn",
      "outputs": [],
      "stateMutability": "nonpayable",
      "type": "function"
    },
    {
      "inputs": [
        {
          "internalType": "address",
          "name": "account",
          "type": "address"
        },
        {
          "internalType": "uint256[]",
          "name": "ids",
          "type": "uint256[]"
        },
        {
          "internalType": "uint256[]",
          "name": "values",
          "type": "uint256[]"
        }
      ],
      "name": "burnBatch",
      "outputs": [],
      "stateMutability": "nonpayable",
      "type": "function"
    },
    {
      "inputs": [
        {
          "internalType": "uint256",
          "name": "",
          "type": "uint256"
        }
      ],
      "name": "cards",
      "outputs": [
        {
          "internalType": "uint256",
          "name": "id",
          "type": "uint256"
        },
        {
          "internalType": "uint256",
          "name": "power",
          "type": "uint256"
        },
        {
          "internalType": "uint256",
          "name": "attributes",
          "type": "uint256"
        }
      ],
      "stateMutability": "view",
      "type": "function"
    },
    {
      "inputs": [
        {
          "internalType": "uint256[5]",
          "name": "cardIds",
          "type": "uint256[5]"
        }
      ],
      "name": "createTeam",
      "outputs": [],
      "stateMutability": "nonpayable",
      "type": "function"
    },
    {
      "inputs": [],
      "name": "explorationCooldown",
      "outputs": [
        {
          "internalType": "uint256",
          "name": "",
          "type": "uint256"
        }
      ],
      "stateMutability": "view",
      "type": "function"
    },
    {
      "inputs": [
        {
          "internalType": "uint256",
          "name": "tokenId",
          "type": "uint256"
        }
      ],
      "name": "explore",
      "outputs": [],
      "stateMutability": "nonpayable",
      "type": "function"
    },
    {
      "inputs": [
        {
          "internalType": "address",
          "name": "user",
          "type": "address"
        }
      ],
      "name": "getExplorationCooldown",
      "outputs": [
        {
          "internalType": "uint256",
          "name": "",
          "type": "uint256"
        }
      ],
      "stateMutability": "view",
      "type": "function"
    },
    {
      "inputs": [
        {
          "internalType": "address",
          "name": "user",
          "type": "address"
        }
      ],
      "name": "getFreePackCooldown",
      "outputs": [
        {
          "internalType": "uint256",
          "name": "",
          "type": "uint256"
        }
      ],
      "stateMutability": "view",
      "type": "function"
    },
    {
      "inputs": [
        {
          "internalType": "uint256[]",
          "name": "_arr",
          "type": "uint256[]"
        }
      ],
      "name": "getSum",
      "outputs": [
        {
          "internalType": "uint256",
          "name": "sum",
          "type": "uint256"
        }
      ],
      "stateMutability": "pure",
      "type": "function"
    },
    {
      "inputs": [
        {
          "internalType": "address",
          "name": "user",
          "type": "address"
        }
      ],
      "name": "getTeamCards",
      "outputs": [
        {
          "internalType": "uint256[5]",
          "name": "",
          "type": "uint256[5]"
        }
      ],
      "stateMutability": "view",
      "type": "function"
    },
    {
      "inputs": [
        {
          "internalType": "address",
          "name": "user",
          "type": "address"
        }
      ],
      "name": "getTeamPower",
      "outputs": [
        {
          "internalType": "uint256",
          "name": "",
          "type": "uint256"
        }
      ],
      "stateMutability": "view",
      "type": "function"
    },
    {
      "inputs": [
        {
          "internalType": "address",
          "name": "account",
          "type": "address"
        },
        {
          "internalType": "address",
          "name": "operator",
          "type": "address"
        }
      ],
      "name": "isApprovedForAll",
      "outputs": [
        {
          "internalType": "bool",
          "name": "",
          "type": "bool"
        }
      ],
      "stateMutability": "view",
      "type": "function"
    },
    {
      "inputs": [
        {
          "internalType": "address",
          "name": "",
          "type": "address"
        }
      ],
      "name": "lastExplorationTime",
      "outputs": [
        {
          "internalType": "uint256",
          "name": "",
          "type": "uint256"
        }
      ],
      "stateMutability": "view",
      "type": "function"
    },
    {
      "inputs": [
        {
          "internalType": "address",
          "name": "",
          "type": "address"
        }
      ],
      "name": "lastOpenedFreePack",
      "outputs": [
        {
          "internalType": "uint256",
          "name": "",
          "type": "uint256"
        }
      ],
      "stateMutability": "view",
      "type": "function"
    },
    {
      "inputs": [
        {
          "internalType": "address",
          "name": "account",
          "type": "address"
        },
        {
          "internalType": "uint256",
          "name": "id",
          "type": "uint256"
        },
        {
          "internalType": "uint256",
          "name": "amount",
          "type": "uint256"
        },
        {
          "internalType": "bytes",
          "name": "data",
          "type": "bytes"
        }
      ],
      "name": "mint",
      "outputs": [],
      "stateMutability": "nonpayable",
      "type": "function"
    },
    {
      "inputs": [
        {
          "internalType": "address",
          "name": "to",
          "type": "address"
        },
        {
          "internalType": "uint256[]",
          "name": "ids",
          "type": "uint256[]"
        },
        {
          "internalType": "uint256[]",
          "name": "amounts",
          "type": "uint256[]"
        },
        {
          "internalType": "bytes",
          "name": "data",
          "type": "bytes"
        }
      ],
      "name": "mintBatch",
      "outputs": [],
      "stateMutability": "nonpayable",
      "type": "function"
    },
    {
      "inputs": [],
      "name": "name",
      "outputs": [
        {
          "internalType": "string",
          "name": "",
          "type": "string"
        }
      ],
      "stateMutability": "pure",
      "type": "function"
    },
    {
      "inputs": [],
      "name": "openBuyPackMatic",
      "outputs": [],
      "stateMutability": "payable",
      "type": "function"
    },
    {
      "inputs": [
        {
          "internalType": "uint256",
          "name": "_amount",
          "type": "uint256"
        }
      ],
      "name": "openBuyPackToken",
      "outputs": [],
      "stateMutability": "nonpayable",
      "type": "function"
    },
    {
      "inputs": [],
      "name": "openFreePack",
      "outputs": [],
      "stateMutability": "nonpayable",
      "type": "function"
    },
    {
      "inputs": [],
      "name": "owner",
      "outputs": [
        {
          "internalType": "address",
          "name": "",
          "type": "address"
        }
      ],
      "stateMutability": "view",
      "type": "function"
    },
    {
      "inputs": [],
      "name": "packPriceMatic",
      "outputs": [
        {
          "internalType": "uint256",
          "name": "",
          "type": "uint256"
        }
      ],
      "stateMutability": "view",
      "type": "function"
    },
    {
      "inputs": [],
      "name": "packPriceToken",
      "outputs": [
        {
          "internalType": "uint256",
          "name": "",
          "type": "uint256"
        }
      ],
      "stateMutability": "view",
      "type": "function"
    },
    {
      "inputs": [],
      "name": "renounceOwnership",
      "outputs": [],
      "stateMutability": "nonpayable",
      "type": "function"
    },
    {
      "inputs": [
        {
          "internalType": "address",
          "name": "from",
          "type": "address"
        },
        {
          "internalType": "address",
          "name": "to",
          "type": "address"
        },
        {
          "internalType": "uint256[]",
          "name": "ids",
          "type": "uint256[]"
        },
        {
          "internalType": "uint256[]",
          "name": "values",
          "type": "uint256[]"
        },
        {
          "internalType": "bytes",
          "name": "data",
          "type": "bytes"
        }
      ],
      "name": "safeBatchTransferFrom",
      "outputs": [],
      "stateMutability": "nonpayable",
      "type": "function"
    },
    {
      "inputs": [
        {
          "internalType": "address",
          "name": "from",
          "type": "address"
        },
        {
          "internalType": "address",
          "name": "to",
          "type": "address"
        },
        {
          "internalType": "uint256",
          "name": "id",
          "type": "uint256"
        },
        {
          "internalType": "uint256",
          "name": "value",
          "type": "uint256"
        },
        {
          "internalType": "bytes",
          "name": "data",
          "type": "bytes"
        }
      ],
      "name": "safeTransferFrom",
      "outputs": [],
      "stateMutability": "nonpayable",
      "type": "function"
    },
    {
      "inputs": [
        {
          "internalType": "address",
          "name": "operator",
          "type": "address"
        },
        {
          "internalType": "bool",
          "name": "approved",
          "type": "bool"
        }
      ],
      "name": "setApprovalForAll",
      "outputs": [],
      "stateMutability": "nonpayable",
      "type": "function"
    },
    {
      "inputs": [
        {
          "internalType": "string",
          "name": "newuri",
          "type": "string"
        }
      ],
      "name": "setURI",
      "outputs": [],
      "stateMutability": "nonpayable",
      "type": "function"
    },
    {
      "inputs": [
        {
          "internalType": "bytes4",
          "name": "interfaceId",
          "type": "bytes4"
        }
      ],
      "name": "supportsInterface",
      "outputs": [
        {
          "internalType": "bool",
          "name": "",
          "type": "bool"
        }
      ],
      "stateMutability": "view",
      "type": "function"
    },
    {
      "inputs": [
        {
          "internalType": "address",
          "name": "",
          "type": "address"
        }
      ],
      "name": "teams",
      "outputs": [
        {
          "internalType": "uint256",
          "name": "totalPower",
          "type": "uint256"
        }
      ],
      "stateMutability": "view",
      "type": "function"
    },
    {
      "inputs": [],
      "name": "token",
      "outputs": [
        {
          "internalType": "address",
          "name": "tokenAddress",
          "type": "address"
        }
      ],
      "stateMutability": "view",
      "type": "function"
    },
    {
      "inputs": [
        {
          "internalType": "address",
          "name": "newOwner",
          "type": "address"
        }
      ],
      "name": "transferOwnership",
      "outputs": [],
      "stateMutability": "nonpayable",
      "type": "function"
    },
    {
      "inputs": [
        {
          "internalType": "uint256",
          "name": "",
          "type": "uint256"
        }
      ],
      "name": "uri",
      "outputs": [
        {
          "internalType": "string",
          "name": "",
          "type": "string"
        }
      ],
      "stateMutability": "view",
      "type": "function"
    },
    {
      "inputs": [],
      "name": "version",
      "outputs": [
        {
          "internalType": "string",
          "name": "",
          "type": "string"
        }
      ],
      "stateMutability": "pure",
      "type": "function"
    }
  ],
  "bytecode": {
    "object": "0x6080604052674563918244f400006004556103e86005553480156200002357600080fd5b50604051620047c6380380620047c683398101604081905262000046916200157f565b60408051602081019091526000815281906200006281620000b0565b506001600160a01b0381166200009357604051631e4fbdf760e01b8152600060048201526024015b60405180910390fd5b6200009e81620000c2565b50620000a962000114565b5062001724565b6002620000be828262001658565b5050565b600380546001600160a01b038381166001600160a01b0319831681179093556040519116919082907f8be0079c531659141344cd1fd0a4f28419497f9722a3daafe3b4186f6b6457e090600090a35050565b6200011e6200154e565b604051806060016040528060008152602001600a8152602001600481525060076000808152602001908152602001600020600082015181600001556020820151816001015560408201518160020155905050604051806060016040528060018152602001600b815260200160038152506007600060018152602001908152602001600020600082015181600001556020820151816001015560408201518160020155905050604051806060016040528060028152602001600b815260200160028152506007600060028152602001908152602001600020600082015181600001556020820151816001015560408201518160020155905050604051806060016040528060038152602001600d815260200160048152506007600060038152602001908152602001600020600082015181600001556020820151816001015560408201518160020155905050604051806060016040528060048152602001600f815260200160018152506007600060048152602001908152602001600020600082015181600001556020820151816001015560408201518160020155905050604051806060016040528060058152602001601081526020016001815250600760006005815260200190815260200160002060008201518160000155602082015181600101556040820151816002015590505060405180606001604052806006815260200160108152602001600581525060076000600681526020019081526020016000206000820151816000015560208201518160010155604082015181600201559050506040518060600160405280600781526020016012815260200160058152506007600060078152602001908152602001600020600082015181600001556020820151816001015560408201518160020155905050604051806060016040528060088152602001601481526020016002815250600760006008815260200190815260200160002060008201518160000155602082015181600101556040820151816002015590505060405180606001604052806009815260200160148152602001600381525060076000600981526020019081526020016000206000820151816000015560208201518160010155604082015181600201559050506040518060600160405280600a815260200160198152602001600481525060076000600a81526020019081526020016000206000820151816000015560208201518160010155604082015181600201559050506040518060600160405280600b815260200160198152602001600281525060076000600b81526020019081526020016000206000820151816000015560208201518160010155604082015181600201559050506040518060600160405280600c8152602001601b8152602001600181525060076000600c81526020019081526020016000206000820151816000015560208201518160010155604082015181600201559050506040518060600160405280600d8152602001601b8152602001600181525060076000600d81526020019081526020016000206000820151816000015560208201518160010155604082015181600201559050506040518060600160405280600e8152602001601c8152602001600381525060076000600e81526020019081526020016000206000820151816000015560208201518160010155604082015181600201559050506040518060600160405280600f8152602001601d8152602001600581525060076000600f8152602001908152602001600020600082015181600001556020820151816001015560408201518160020155905050604051806060016040528060108152602001601e8152602001600481525060076000601081526020019081526020016000206000820151816000015560208201518160010155604082015181600201559050506040518060600160405280601181526020016020815260200160028152506007600060118152602001908152602001600020600082015181600001556020820151816001015560408201518160020155905050604051806060016040528060128152602001602281526020016005815250600760006012815260200190815260200160002060008201518160000155602082015181600101556040820151816002015590505060405180606001604052806013815260200160238152602001600381525060076000601381526020019081526020016000206000820151816000015560208201518160010155604082015181600201559050506040518060600160405280601481526020016028815260200160018152506007600060148152602001908152602001600020600082015181600001556020820151816001015560408201518160020155905050604051806060016040528060158152602001602a815260200160038152506007600060158152602001908152602001600020600082015181600001556020820151816001015560408201518160020155905050604051806060016040528060168152602001602a815260200160048152506007600060168152602001908152602001600020600082015181600001556020820151816001015560408201518160020155905050604051806060016040528060178152602001602b815260200160028152506007600060178152602001908152602001600020600082015181600001556020820151816001015560408201518160020155905050604051806060016040528060188152602001602b815260200160048152506007600060188152602001908152602001600020600082015181600001556020820151816001015560408201518160020155905050604051806060016040528060198152602001602d8152602001600181525060076000601981526020019081526020016000206000820151816000015560208201518160010155604082015181600201559050506040518060600160405280601a8152602001602f8152602001600281525060076000601a81526020019081526020016000206000820151816000015560208201518160010155604082015181600201559050506040518060600160405280601b8152602001602f8152602001600581525060076000601b81526020019081526020016000206000820151816000015560208201518160010155604082015181600201559050506040518060600160405280601c815260200160308152602001600381525060076000601c81526020019081526020016000206000820151816000015560208201518160010155604082015181600201559050506040518060600160405280601d815260200160328152602001600581525060076000601d81526020019081526020016000206000820151816000015560208201518160010155604082015181600201559050506040518060600160405280601e8152602001603c8152602001600481525060076000601e81526020019081526020016000206000820151816000015560208201518160010155604082015181600201559050506040518060600160405280601f8152602001603e8152602001600381525060076000601f81526020019081526020016000206000820151816000015560208201516001808301919091556040928301516002928301558251606080820185526020808352603e81840190815260048488018181526000848152600780865296517f977c7c98651e0e2a752fb735f769df5240153cd477a3baa861921344a2ddde905592517f977c7c98651e0e2a752fb735f769df5240153cd477a3baa861921344a2ddde9155517f977c7c98651e0e2a752fb735f769df5240153cd477a3baa861921344a2ddde9255875180850189526021808252603f8286019081526003838c0181815292865288875292517fedddd91313f7c989bdc231bc624ea9908f2340b23ff878dfbd27a2cf1c3ec99f55517fedddd91313f7c989bdc231bc624ea9908f2340b23ff878dfbd27a2cf1c3ec9a055517fedddd91313f7c989bdc231bc624ea9908f2340b23ff878dfbd27a2cf1c3ec9a15588518086018a5260228082528186018b8152828c018a815291865288875291517f8ae59643d21cc5b685464383c8217a4e7f574ef463cc32244f10eaf1145fdc075590517f8ae59643d21cc5b685464383c8217a4e7f574ef463cc32244f10eaf1145fdc0855517f8ae59643d21cc5b685464383c8217a4e7f574ef463cc32244f10eaf1145fdc095588518086018a5260238082526042828701818152838d018b815292875289885292517fe59c24461a0fb1a13e4f19756f944b3655e4523c2fe4b0ad1e7bb8969921a37b5591517fe59c24461a0fb1a13e4f19756f944b3655e4523c2fe4b0ad1e7bb8969921a37c55517fe59c24461a0fb1a13e4f19756f944b3655e4523c2fe4b0ad1e7bb8969921a37d5589518087018b5260248082528187019283526005828d0181815291875289885291517ffce7dc5bb3cbbc540cf9457d032a1a1aae0059624b6dd6eecb9d2c06cd32c09c5591517ffce7dc5bb3cbbc540cf9457d032a1a1aae0059624b6dd6eecb9d2c06cd32c09d5590517ffce7dc5bb3cbbc540cf9457d032a1a1aae0059624b6dd6eecb9d2c06cd32c09e5589518087018b5260258082526044828801908152828d018c815291875289885291517fc7478704eb468bb68beafddaec378319f804ef3f01f1e6e41b277bd6f15398395590517fc7478704eb468bb68beafddaec378319f804ef3f01f1e6e41b277bd6f153983a55517fc7478704eb468bb68beafddaec378319f804ef3f01f1e6e41b277bd6f153983b5589518087018b5260268082526045828801908152828d0184815291875289885291517fa0180b01d5c6c892f34e348721f16e168c551e0a5dac26b1bd68253fcef49b1f5590517fa0180b01d5c6c892f34e348721f16e168c551e0a5dac26b1bd68253fcef49b2055517fa0180b01d5c6c892f34e348721f16e168c551e0a5dac26b1bd68253fcef49b215589518087018b5260278082526046828801908152828d018c815291875289885291517fa42755a2e6766ad8a3c8e0dc6925c5b384a166afae805bfb4a3c3233012e53455590517fa42755a2e6766ad8a3c8e0dc6925c5b384a166afae805bfb4a3c3233012e534655517fa42755a2e6766ad8a3c8e0dc6925c5b384a166afae805bfb4a3c3233012e53475589518087018b5260288082526055828801908152828d0184815291875289885291517f07979f83feb91e6e71e734e272c56671bf06f2c8bf8067684cbe31f663fccc525590517f07979f83feb91e6e71e734e272c56671bf06f2c8bf8067684cbe31f663fccc5355517f07979f83feb91e6e71e734e272c56671bf06f2c8bf8067684cbe31f663fccc545589518087018b5260298082526056828801908152828d018c815291875289885291517f61042a91e6bf866457bba3c0e1666b25163b3849470db2bebc37920294f5c1895590517f61042a91e6bf866457bba3c0e1666b25163b3849470db2bebc37920294f5c18a55517f61042a91e6bf866457bba3c0e1666b25163b3849470db2bebc37920294f5c18b5589518087018b52602a8082526057828801908152828d0193845290865288875290517fc4250a0f26818bb2f4c50553605e6aa5374a022de55e294b0c5f6716bcaddbf855517fc4250a0f26818bb2f4c50553605e6aa5374a022de55e294b0c5f6716bcaddbf955517fc4250a0f26818bb2f4c50553605e6aa5374a022de55e294b0c5f6716bcaddbfa5588518086018a52602b8082526059828701908152828c018a815291865288875291517feec123b2fdbe86f4f5bc78302d7f5a15762e0c954439f75677c94278d2bcf8fd5590517feec123b2fdbe86f4f5bc78302d7f5a15762e0c954439f75677c94278d2bcf8fe55517feec123b2fdbe86f4f5bc78302d7f5a15762e0c954439f75677c94278d2bcf8ff5588518086018a52602c808252605a828701908152828c0185815291865288875291517fd9ba031fdb7d71bd061083980d5807d26bb2fade193f918e92821956bfdda35a5590517fd9ba031fdb7d71bd061083980d5807d26bb2fade193f918e92821956bfdda35b55517fd9ba031fdb7d71bd061083980d5807d26bb2fade193f918e92821956bfdda35c5588518086018a52602d808252605c828701908152828c01998a5290855287865290517ff61dffaafadc06c51bab3d00b0e2d57a6471368c7ae68dc2c923be5b2842e92055517ff61dffaafadc06c51bab3d00b0e2d57a6471368c7ae68dc2c923be5b2842e9215595517ff61dffaafadc06c51bab3d00b0e2d57a6471368c7ae68dc2c923be5b2842e9225587518085018952602e808252605d828601908152828b01998a5290845286855290517fa9a18f421c88b5456819057fb70bd58beec0e03163991994ad8d80ed30deeaf355517fa9a18f421c88b5456819057fb70bd58beec0e03163991994ad8d80ed30deeaf45595517fa9a18f421c88b5456819057fb70bd58beec0e03163991994ad8d80ed30deeaf55586518084018852602f808252605f828501908152828a0188815291845286855291517f6ad70a4b2f0ce5a5b5e387d4bc4ae7958c0f01a0b5fba90a2c0b1a9391f068c85590517f6ad70a4b2f0ce5a5b5e387d4bc4ae7958c0f01a0b5fba90a2c0b1a9391f068c955517f6ad70a4b2f0ce5a5b5e387d4bc4ae7958c0f01a0b5fba90a2c0b1a9391f068ca558651808401885260308082526061828501908152828a0198895290835285845290517f1d90d70aa2b160f0d0cfe0186ccfd5809afb328c84784403875176cf0cca882b55517f1d90d70aa2b160f0d0cfe0186ccfd5809afb328c84784403875176cf0cca882c5594517f1d90d70aa2b160f0d0cfe0186ccfd5809afb328c84784403875176cf0cca882d558551918201865260318083526064838301908152968301948552909452925290517f43bb8b1d7c00529ae093964f1262bb23db3724587febebf63bb573ff574a23d95590517f43bb8b1d7c00529ae093964f1262bb23db3724587febebf63bb573ff574a23da55517f43bb8b1d7c00529ae093964f1262bb23db3724587febebf63bb573ff574a23db55565b6003546001600160a01b031633146200157d5760405163118cdaa760e01b81523360048201526024016200008a565b565b6000602082840312156200159257600080fd5b81516001600160a01b0381168114620015aa57600080fd5b9392505050565b634e487b7160e01b600052604160045260246000fd5b600181811c90821680620015dc57607f821691505b602082108103620015fd57634e487b7160e01b600052602260045260246000fd5b50919050565b601f82111562001653576000816000526020600020601f850160051c810160208610156200162e5750805b601f850160051c820191505b818110156200164f578281556001016200163a565b5050505b505050565b81516001600160401b03811115620016745762001674620015b1565b6200168c81620016858454620015c7565b8462001603565b602080601f831160018114620016c45760008415620016ab5750858301515b600019600386901b1c1916600185901b1785556200164f565b600085815260208120601f198616915b82811015620016f557888601518255948401946001909101908401620016d4565b5085821015620017145787850151600019600388901b60f8161c191681555b5050505050600190811b01905550565b61309280620017346000396000f3fe6080604052600436106102505760003560e01c80636917371f11610139578063c4583240116100b6578063f242432a1161007a578063f242432a14610768578063f2fde38b14610788578063f473085d146107a8578063f5298aca146107c8578063fc0c546a146107e8578063ffa1ad741461080657600080fd5b8063c4583240146106c5578063ccb8c1e0146106f2578063d6d902bb14610712578063e985e9c514610728578063ecd0c0c31461074857600080fd5b80638dc10768116100fd5780638dc10768146105de578063923c1a0614610635578063a22cb46514610655578063a3f4df7e14610675578063ac8c733d146106b057600080fd5b80636917371f146105445780636b20c45414610557578063715018a614610577578063731133e91461058c5780638da5cb5b146105ac57600080fd5b806330a034d6116101d2578063500ccabf11610196578063500ccabf14610474578063530c9f2d146104a157806354fd4d50146104a95780635f049d5b146104d757806363aedb38146105045780636457e3891461052457600080fd5b806330a034d6146103d15780633b584960146103f15780633bf3812b146104075780634d4224d8146104345780634e1273f41461044757600080fd5b80631312b24e116102195780631312b24e1461033b5780631b84f1a81461035b5780631f7fdffa146103715780632535e0dd146103915780632eb2c2d6146103b157600080fd5b8062fdd58e1461025557806301ffc9a71461028857806302fe5305146102b857806306fdde03146102da5780630e89341c1461031b575b600080fd5b34801561026157600080fd5b50610275610270366004612435565b610837565b6040519081526020015b60405180910390f35b34801561029457600080fd5b506102a86102a3366004612477565b61085f565b604051901515815260200161027f565b3480156102c457600080fd5b506102d86102d3366004612538565b6108af565b005b3480156102e657600080fd5b5060408051808201909152600f81526e53756d6d6f6e657273204172656e6160881b60208201525b60405161027f91906125c6565b34801561032757600080fd5b5061030e6103363660046125d9565b6108c3565b34801561034757600080fd5b506102756103563660046125f2565b610957565b34801561036757600080fd5b5061027560045481565b34801561037d57600080fd5b506102d861038c3660046126c1565b6109a3565b34801561039d57600080fd5b506102756103ac3660046125f2565b6109bd565b3480156103bd57600080fd5b506102d86103cc36600461275b565b6109e3565b3480156103dd57600080fd5b506102d86103ec3660046125d9565b610a4f565b3480156103fd57600080fd5b5061027561384081565b34801561041357600080fd5b506102756104223660046125f2565b600a6020526000908152604090205481565b6102a8610442366004612853565b610bbe565b34801561045357600080fd5b506104676104623660046128be565b610bdd565b60405161027f91906129bb565b34801561048057600080fd5b5061027561048f3660046125f2565b60096020526000908152604090205481565b6102d8610ca9565b3480156104b557600080fd5b50604080518082019091526005815264302e302e3160d81b602082015261030e565b3480156104e357600080fd5b506104f76104f23660046125f2565b610d45565b60405161027f91906129ce565b34801561051057600080fd5b506102a861051f3660046129ff565b610db8565b34801561053057600080fd5b506102d861053f3660046125d9565b610dd9565b6102a8610552366004612853565b610ffe565b34801561056357600080fd5b506102d8610572366004612a81565b61118f565b34801561058357600080fd5b506102d86111ee565b34801561059857600080fd5b506102d86105a7366004612af6565b611200565b3480156105b857600080fd5b506003546001600160a01b03165b6040516001600160a01b03909116815260200161027f565b3480156105ea57600080fd5b5061061a6105f93660046125d9565b60076020526000908152604090208054600182015460029092015490919083565b6040805193845260208401929092529082015260600161027f565b34801561064157600080fd5b506102d8610650366004612b4c565b611214565b34801561066157600080fd5b506102d8610670366004612b82565b611509565b34801561068157600080fd5b5061030e6040518060400160405280600f81526020016e53756d6d6f6e657273204172656e6160881b81525081565b3480156106bc57600080fd5b506102d8611518565b3480156106d157600080fd5b506102756106e03660046125f2565b60086020526000908152604090205481565b3480156106fe57600080fd5b5061027561070d366004612bbb565b6115ae565b34801561071e57600080fd5b5061027560055481565b34801561073457600080fd5b506102a8610743366004612bfc565b6115ef565b34801561075457600080fd5b506006546105c6906001600160a01b031681565b34801561077457600080fd5b506102d8610783366004612c2a565b61161d565b34801561079457600080fd5b506102d86107a33660046125f2565b61167c565b3480156107b457600080fd5b506102756107c33660046125f2565b6116b7565b3480156107d457600080fd5b506102d86107e3366004612c92565b611720565b3480156107f457600080fd5b506006546001600160a01b03166105c6565b34801561081257600080fd5b5061030e60405180604001604052806005815260200164302e302e3160d81b81525081565b6000818152602081815260408083206001600160a01b03861684529091529020545b92915050565b60006001600160e01b03198216636cdb3d1360e11b148061089057506001600160e01b031982166303a24d0760e21b145b8061085957506301ffc9a760e01b6001600160e01b0319831614610859565b6108b7611756565b6108c081611783565b50565b6060600280546108d290612cc7565b80601f01602080910402602001604051908101604052809291908181526020018280546108fe90612cc7565b801561094b5780601f106109205761010080835404028352916020019161094b565b820191906000526020600020905b81548152906001019060200180831161092e57829003601f168201915b50505050509050919050565b6001600160a01b0381166000908152600960205260408120548161097e8262015180612d11565b9050804210610991575060009392505050565b61099b4282612d24565b949350505050565b6109ab611756565b6109b78484848461178f565b50505050565b6001600160a01b0381166000908152600a60205260408120548161097e61384083612d11565b336001600160a01b0386168114801590610a045750610a0286826115ef565b155b15610a3a5760405163711bec9160e11b81526001600160a01b038083166004830152871660248201526044015b60405180910390fd5b610a4786868686866117c7565b505050505050565b600554811015610a9a5760405162461bcd60e51b8152602060048201526016602482015275125b9cdd59999a58da595b9d0814d55353481cd95b9d60521b6044820152606401610a31565b6006546040516323b872dd60e01b8152336004820152306024820152604481018390526001600160a01b03909116906323b872dd906064016020604051808303816000875af1158015610af1573d6000803e3d6000fd5b505050506040513d601f19601f82011682018060405250810190610b159190612d37565b50600554811115610bb5576006546005546001600160a01b039091169063a9059cbb903390610b449085612d24565b6040516001600160e01b031960e085901b1681526001600160a01b03909216600483015260248201526044016020604051808303816000875af1158015610b8f573d6000803e3d6000fd5b505050506040513d601f19601f82011682018060405250810190610bb39190612d37565b505b6108c03361182e565b6000610bc8611756565b610bd485858585610ffe565b95945050505050565b60608151835114610c0e5781518351604051635b05999160e01b815260048101929092526024820152604401610a31565b600083516001600160401b03811115610c2957610c2961249b565b604051908082528060200260200182016040528015610c52578160200160208202803683370190505b50905060005b8451811015610ca157602080820286010151610c7c90602080840287010151610837565b828281518110610c8e57610c8e612d54565b6020908102919091010152600101610c58565b509392505050565b600454341015610cf35760405162461bcd60e51b8152602060048201526015602482015274125b9cdd59999a58da595b9d08115512081cd95b9d605a1b6044820152606401610a31565b600454341115610d3a5760045433906108fc90610d109034612d24565b6040518115909202916000818181858888f19350505050158015610d38573d6000803e3d6000fd5b505b610d433361182e565b565b610d4d612391565b6001600160a01b03821660009081526008602090815260408083208151808301835281548152825160a08101938490529093919291840191600184019060059082845b815481526020019060010190808311610d905750505091909252505050602001519392505050565b6000610dc2611756565b610dcf8686868686611a25565b9695505050505050565b6000610de53383610837565b11610e325760405162461bcd60e51b815260206004820152601760248201527f596f7520646f206e6f74206f776e2074686973204e46540000000000000000006044820152606401610a31565b336000908152600a60205260409020544290610e519061384090612d11565b1115610ea95760405162461bcd60e51b815260206004820152602160248201527f4578706c6f726174696f6e20636f6f6c646f776e206e6f74206f7665722079656044820152601d60fa1b6064820152608401610a31565b336000908152600a602081905260408220429055821015610ecc5750600a610f03565b6014821015610edd5750600f610f03565b601e821015610eee57506019610f03565b6028821015610eff57506032610f03565b5060635b60006064610f12600143612d24565b60408051914060208301526bffffffffffffffffffffffff193360601b1690820152605481018590526074016040516020818303038152906040528051906020012060001c610f619190612d80565b905081811015610fb557610f743361182e565b604080518481526001602082015233917f881e6a2d6e6ccc01db8059143b38355253b44e9248b47164c5f720b0ccfbefa091015b60405180910390a2505050565b610fc133846001611c9c565b604080518481526000602082015233917f881e6a2d6e6ccc01db8059143b38355253b44e9248b47164c5f720b0ccfbefa09101610fa8565b505050565b600083821461101f5760405162461bcd60e51b8152600401610a3190612d94565b600061102b84846115ae565b90508034146110745760405162461bcd60e51b81526020600482015260156024820152742a3930b739b332b91030b6b7bab73a1032b93937b960591b6044820152606401610a31565b60005b858110156111825786868281811061109157611091612d54565b90506020020160208101906110a691906125f2565b6001600160a01b03166108fc8686848181106110c4576110c4612d54565b905060200201359081150290604051600060405180830381858888f193505050501580156110f6573d6000803e3d6000fd5b507f87bc0fc6d8dc230a2e147ddc101c27a3dab51eb54eb8e75ee269883777ef17c687878381811061112a5761112a612d54565b905060200201602081019061113f91906125f2565b86868481811061115157611151612d54565b604080516001600160a01b0390951685526020918202939093013590840152500160405180910390a1600101611077565b5060019695505050505050565b6001600160a01b03831633148015906111af57506111ad83336115ef565b155b156111e357335b60405163711bec9160e11b81526001600160a01b0391821660048201529084166024820152604401610a31565b610ff9838383611d04565b6111f6611756565b610d436000611d4a565b611208611756565b6109b784848484611d9c565b6000600a6112206123af565b60008060005b600581101561134857600087826005811061124357611243612d54565b6020020135905060006112563383610837565b111561133f576000600760008a856005811061127457611274612d54565b60200201358152602001908152602001600020604051806060016040529081600082015481526020016001820154815260200160028201548152505090508060200151886112c29190612d11565b9750858160400151600681106112da576112da612d54565b602002018051906112ea82612dde565b905250805160281180159061130157508051603110155b15611318578461131081612dde565b95505061133d565b601e821015801561132a575060278211155b1561133d578361133981612dde565b9450505b505b50600101611226565b5060008060015b600581116113cd578186826006811061136a5761136a612d54565b60200201511061138e5785816006811061138657611386612d54565b602002015191505b60008682600681106113a2576113a2612d54565b602002015111156113bb57826113b781612dde565b9350505b806113c581612dde565b91505061134f565b50806005036113df576019955061141f565b806004036113f0576014955061141f565b8160050361140157600f955061141f565b8060030361141257600d955061141f565b8060020361141f57600c95505b61142a846005612df7565b6114349087612d11565b95506114408387612d11565b9550600a61144e8789612df7565b6114589190612e0e565b965060405180604001604052808881526020018960058060200260405190810160405280929190826005602002808284376000920182905250929093525033815260086020908152604090912083518155908301519091506114c090600183019060056123cd565b50506040513391507f526177b3a45653ba9e9109c6159e36d32ef4916e007026750988e8cef5b9bd36906114f7908a908c90612e22565b60405180910390a25050505050505050565b611514338383611df9565b5050565b3360009081526009602052604090205462015180906115379042612d24565b10156115915760405162461bcd60e51b815260206004820152602360248201527f4d757374207761697420312064617920746f206f70656e20612066726565207060448201526261636b60e81b6064820152608401610a31565b61159a3361182e565b336000908152600960205260409020429055565b6000805b828110156115e8578383828181106115cc576115cc612d54565b90506020020135826115de9190612d11565b91506001016115b2565b5092915050565b6001600160a01b03918216600090815260016020908152604080832093909416825291909152205460ff1690565b336001600160a01b038616811480159061163e575061163c86826115ef565b155b1561166f5760405163711bec9160e11b81526001600160a01b03808316600483015287166024820152604401610a31565b610a478686868686611e8f565b611684611756565b6001600160a01b0381166116ae57604051631e4fbdf760e01b815260006004820152602401610a31565b6108c081611d4a565b6001600160a01b03811660009081526008602090815260408083208151808301835281548152825160a08101938490528594919391840191600184019060059082845b8154815260200190600101908083116116fa575050509190925250509051949350505050565b6001600160a01b0383163314801590611740575061173e83336115ef565b155b1561174b57336111b6565b610ff9838383611c9c565b6003546001600160a01b03163314610d435760405163118cdaa760e01b8152336004820152602401610a31565b60026115148282612e80565b6001600160a01b0384166117b957604051632bfa23e760e11b815260006004820152602401610a31565b6109b7600085858585611f1d565b6001600160a01b0384166117f157604051632bfa23e760e11b815260006004820152602401610a31565b6001600160a01b03851661181a57604051626a0d4560e21b815260006004820152602401610a31565b6118278585858585611f1d565b5050505050565b60408051600580825260c082019092526000916020820160a080368337505060408051600580825260c0820190925292935060009291506020820160a08036833701905050905060005b60058110156119ce57600061188e600143612d24565b60408051914060208301526bffffffffffffffffffffffff19606088901b16908201526054810183905260740160408051601f198184030181529190528051602090910120905060006118e2606483612d80565b90506000600a6118f3606485612e0e565b6118fd9190612d80565b9050603c82101561192c578086858151811061191b5761191b612d54565b6020026020010181815250506119a4565b60548210156119525761194081600a612d11565b86858151811061191b5761191b612d54565b605e82101561196657611940816014612d11565b606382101561197a5761194081601e612d11565b611985816028612d11565b86858151811061199757611997612d54565b6020026020010181815250505b60018585815181106119b8576119b8612d54565b6020908102919091010152505050600101611878565b506119ea8383836040518060200160405280600081525061178f565b826001600160a01b03167ff7abfe87506a99dfe239c7c8cdb614b8c0bd515135b3897f983d0dd4c657aeaf8383604051610fa8929190612f3f565b6000838214611a465760405162461bcd60e51b8152600401610a3190612d94565b856000611a5385856115ae565b604051636eb1769f60e11b815233600482015230602482015290915081906001600160a01b0384169063dd62ed3e90604401602060405180830381865afa158015611aa2573d6000803e3d6000fd5b505050506040513d601f19601f82011682018060405250810190611ac69190612f64565b1015611b145760405162461bcd60e51b815260206004820152601860248201527f4e65656420417070726f766520455243323020746f6b656e00000000000000006044820152606401610a31565b60005b60ff8116871115611c8d57826001600160a01b03166323b872dd338a8a8560ff16818110611b4757611b47612d54565b9050602002016020810190611b5c91906125f2565b89898660ff16818110611b7157611b71612d54565b6040516001600160e01b031960e088901b1681526001600160a01b039586166004820152949093166024850152506020909102013560448201526064016020604051808303816000875af1158015611bcd573d6000803e3d6000fd5b505050506040513d601f19601f82011682018060405250810190611bf19190612d37565b507f87bc0fc6d8dc230a2e147ddc101c27a3dab51eb54eb8e75ee269883777ef17c688888360ff16818110611c2857611c28612d54565b9050602002016020810190611c3d91906125f2565b87878460ff16818110611c5257611c52612d54565b604080516001600160a01b0390951685526020918202939093013590840152500160405180910390a180611c8581612f7d565b915050611b17565b50600198975050505050505050565b6001600160a01b038316611cc557604051626a0d4560e21b815260006004820152602401610a31565b604080516001808252602082018590528183019081526060820184905260a0820190925260006080820181815291929161182791879185908590611f1d565b6001600160a01b038316611d2d57604051626a0d4560e21b815260006004820152602401610a31565b610ff9836000848460405180602001604052806000815250611f1d565b600380546001600160a01b038381166001600160a01b0319831681179093556040519116919082907f8be0079c531659141344cd1fd0a4f28419497f9722a3daafe3b4186f6b6457e090600090a35050565b6001600160a01b038416611dc657604051632bfa23e760e11b815260006004820152602401610a31565b60408051600180825260208201869052818301908152606082018590526080820190925290610a47600087848487611f1d565b6001600160a01b038216611e225760405162ced3e160e81b815260006004820152602401610a31565b6001600160a01b03838116600081815260016020908152604080832094871680845294825291829020805460ff191686151590811790915591519182527f17307eab39ab6107e8899845ad3d59bd9653f200f220920489ca2b5937696c31910160405180910390a3505050565b6001600160a01b038416611eb957604051632bfa23e760e11b815260006004820152602401610a31565b6001600160a01b038516611ee257604051626a0d4560e21b815260006004820152602401610a31565b60408051600180825260208201869052818301908152606082018590526080820190925290611f148787848487611f1d565b50505050505050565b611f2985858585611f70565b6001600160a01b038416156118275782513390600103611f625760208481015190840151611f5b838989858589612184565b5050610a47565b610a478187878787876122a8565b8051825114611f9f5781518151604051635b05999160e01b815260048101929092526024820152604401610a31565b3360005b83518110156120a5576020818102858101820151908501909101516001600160a01b03881615612056576000828152602081815260408083206001600160a01b038c1684529091529020548181101561202f576040516303dee4c560e01b81526001600160a01b038a166004820152602481018290526044810183905260648101849052608401610a31565b6000838152602081815260408083206001600160a01b038d16845290915290209082900390555b6001600160a01b0387161561209b576000828152602081815260408083206001600160a01b038b16845290915281208054839290612095908490612d11565b90915550505b5050600101611fa3565b5082516001036121265760208301516000906020840151909150856001600160a01b0316876001600160a01b0316846001600160a01b03167fc3d58168c5ae7397731d063d5bbf3d657854427343f4c083240f7aacaa2d0f628585604051612117929190918252602082015260400190565b60405180910390a45050611827565b836001600160a01b0316856001600160a01b0316826001600160a01b03167f4a39dc06d4c0dbc64b70af90fd698a233a518aa5d07e595d983b8c0526c8f7fb8686604051612175929190612f3f565b60405180910390a45050505050565b6001600160a01b0384163b15610a475760405163f23a6e6160e01b81526001600160a01b0385169063f23a6e61906121c89089908990889088908890600401612f9c565b6020604051808303816000875af1925050508015612203575060408051601f3d908101601f1916820190925261220091810190612fe1565b60015b61226c573d808015612231576040519150601f19603f3d011682016040523d82523d6000602084013e612236565b606091505b50805160000361226457604051632bfa23e760e11b81526001600160a01b0386166004820152602401610a31565b805181602001fd5b6001600160e01b0319811663f23a6e6160e01b14611f1457604051632bfa23e760e11b81526001600160a01b0386166004820152602401610a31565b6001600160a01b0384163b15610a475760405163bc197c8160e01b81526001600160a01b0385169063bc197c81906122ec9089908990889088908890600401612ffe565b6020604051808303816000875af1925050508015612327575060408051601f3d908101601f1916820190925261232491810190612fe1565b60015b612355573d808015612231576040519150601f19603f3d011682016040523d82523d6000602084013e612236565b6001600160e01b0319811663bc197c8160e01b14611f1457604051632bfa23e760e11b81526001600160a01b0386166004820152602401610a31565b6040518060a001604052806005906020820280368337509192915050565b6040518060c001604052806006906020820280368337509192915050565b82600581019282156123fb579160200282015b828111156123fb5782518255916020019190600101906123e0565b5061240792915061240b565b5090565b5b80821115612407576000815560010161240c565b6001600160a01b03811681146108c057600080fd5b6000806040838503121561244857600080fd5b823561245381612420565b946020939093013593505050565b6001600160e01b0319811681146108c057600080fd5b60006020828403121561248957600080fd5b813561249481612461565b9392505050565b634e487b7160e01b600052604160045260246000fd5b604051601f8201601f191681016001600160401b03811182821017156124d9576124d961249b565b604052919050565b60006001600160401b038311156124fa576124fa61249b565b61250d601f8401601f19166020016124b1565b905082815283838301111561252157600080fd5b828260208301376000602084830101529392505050565b60006020828403121561254a57600080fd5b81356001600160401b0381111561256057600080fd5b8201601f8101841361257157600080fd5b61099b848235602084016124e1565b6000815180845260005b818110156125a65760208185018101518683018201520161258a565b506000602082860101526020601f19601f83011685010191505092915050565b6020815260006124946020830184612580565b6000602082840312156125eb57600080fd5b5035919050565b60006020828403121561260457600080fd5b813561249481612420565b60006001600160401b038211156126285761262861249b565b5060051b60200190565b600082601f83011261264357600080fd5b813560206126586126538361260f565b6124b1565b8083825260208201915060208460051b87010193508684111561267a57600080fd5b602086015b84811015612696578035835291830191830161267f565b509695505050505050565b600082601f8301126126b257600080fd5b612494838335602085016124e1565b600080600080608085870312156126d757600080fd5b84356126e281612420565b935060208501356001600160401b03808211156126fe57600080fd5b61270a88838901612632565b9450604087013591508082111561272057600080fd5b61272c88838901612632565b9350606087013591508082111561274257600080fd5b5061274f878288016126a1565b91505092959194509250565b600080600080600060a0868803121561277357600080fd5b853561277e81612420565b9450602086013561278e81612420565b935060408601356001600160401b03808211156127aa57600080fd5b6127b689838a01612632565b945060608801359150808211156127cc57600080fd5b6127d889838a01612632565b935060808801359150808211156127ee57600080fd5b506127fb888289016126a1565b9150509295509295909350565b60008083601f84011261281a57600080fd5b5081356001600160401b0381111561283157600080fd5b6020830191508360208260051b850101111561284c57600080fd5b9250929050565b6000806000806040858703121561286957600080fd5b84356001600160401b038082111561288057600080fd5b61288c88838901612808565b909650945060208701359150808211156128a557600080fd5b506128b287828801612808565b95989497509550505050565b600080604083850312156128d157600080fd5b82356001600160401b03808211156128e857600080fd5b818501915085601f8301126128fc57600080fd5b8135602061290c6126538361260f565b82815260059290921b8401810191818101908984111561292b57600080fd5b948201945b8386101561295257853561294381612420565b82529482019490820190612930565b9650508601359250508082111561296857600080fd5b5061297585828601612632565b9150509250929050565b60008151808452602080850194506020840160005b838110156129b057815187529582019590820190600101612994565b509495945050505050565b602081526000612494602083018461297f565b60a08101818360005b60058110156129f65781518352602092830192909101906001016129d7565b50505092915050565b600080600080600060608688031215612a1757600080fd5b8535612a2281612420565b945060208601356001600160401b0380821115612a3e57600080fd5b612a4a89838a01612808565b90965094506040880135915080821115612a6357600080fd5b50612a7088828901612808565b969995985093965092949392505050565b600080600060608486031215612a9657600080fd5b8335612aa181612420565b925060208401356001600160401b0380821115612abd57600080fd5b612ac987838801612632565b93506040860135915080821115612adf57600080fd5b50612aec86828701612632565b9150509250925092565b60008060008060808587031215612b0c57600080fd5b8435612b1781612420565b9350602085013592506040850135915060608501356001600160401b03811115612b4057600080fd5b61274f878288016126a1565b600060a08284031215612b5e57600080fd5b8260a083011115612b6e57600080fd5b50919050565b80151581146108c057600080fd5b60008060408385031215612b9557600080fd5b8235612ba081612420565b91506020830135612bb081612b74565b809150509250929050565b60008060208385031215612bce57600080fd5b82356001600160401b03811115612be457600080fd5b612bf085828601612808565b90969095509350505050565b60008060408385031215612c0f57600080fd5b8235612c1a81612420565b91506020830135612bb081612420565b600080600080600060a08688031215612c4257600080fd5b8535612c4d81612420565b94506020860135612c5d81612420565b9350604086013592506060860135915060808601356001600160401b03811115612c8657600080fd5b6127fb888289016126a1565b600080600060608486031215612ca757600080fd5b8335612cb281612420565b95602085013595506040909401359392505050565b600181811c90821680612cdb57607f821691505b602082108103612b6e57634e487b7160e01b600052602260045260246000fd5b634e487b7160e01b600052601160045260246000fd5b8082018082111561085957610859612cfb565b8181038181111561085957610859612cfb565b600060208284031215612d4957600080fd5b815161249481612b74565b634e487b7160e01b600052603260045260246000fd5b634e487b7160e01b600052601260045260246000fd5b600082612d8f57612d8f612d6a565b500690565b6020808252602a908201527f4c656e67746873206f662041646472657373657320616e6420416d6f756e7473604082015269081393d508115455505360b21b606082015260800190565b600060018201612df057612df0612cfb565b5060010190565b808202811582820484141761085957610859612cfb565b600082612e1d57612e1d612d6a565b500490565b82815260c0810160a08360208401379392505050565b601f821115610ff9576000816000526020600020601f850160051c81016020861015612e615750805b601f850160051c820191505b81811015610a4757828155600101612e6d565b81516001600160401b03811115612e9957612e9961249b565b612ead81612ea78454612cc7565b84612e38565b602080601f831160018114612ee25760008415612eca5750858301515b600019600386901b1c1916600185901b178555610a47565b600085815260208120601f198616915b82811015612f1157888601518255948401946001909101908401612ef2565b5085821015612f2f5787850151600019600388901b60f8161c191681555b5050505050600190811b01905550565b604081526000612f52604083018561297f565b8281036020840152610bd4818561297f565b600060208284031215612f7657600080fd5b5051919050565b600060ff821660ff8103612f9357612f93612cfb565b60010192915050565b6001600160a01b03868116825285166020820152604081018490526060810183905260a060808201819052600090612fd690830184612580565b979650505050505050565b600060208284031215612ff357600080fd5b815161249481612461565b6001600160a01b0386811682528516602082015260a06040820181905260009061302a9083018661297f565b828103606084015261303c818661297f565b905082810360808401526130508185612580565b9897505050505050505056fea2646970667358221220460a8eb58a5e5f9a0eb50d53087b0965492eaac7e1b3ce1ab132824e86b6b85964736f6c63430008170033",
    "linkReferences": {}
  },
  "methodIdentifiers": {
    "NAME()": "a3f4df7e",
    "VERSION()": "ffa1ad74",
    "_airdropMATIC(address[],uint256[])": "6917371f",
    "_token()": "ecd0c0c3",
    "airdropMATIC(address[],uint256[])": "4d4224d8",
    "airdropToken(address,address[],uint256[])": "63aedb38",
    "balanceOf(address,uint256)": "00fdd58e",
    "balanceOfBatch(address[],uint256[])": "4e1273f4",
    "burn(address,uint256,uint256)": "f5298aca",
    "burnBatch(address,uint256[],uint256[])": "6b20c454",
    "cards(uint256)": "8dc10768",
    "createTeam(uint256[5])": "923c1a06",
    "explorationCooldown()": "3b584960",
    "explore(uint256)": "6457e389",
    "getExplorationCooldown(address)": "2535e0dd",
    "getFreePackCooldown(address)": "1312b24e",
    "getSum(uint256[])": "ccb8c1e0",
    "getTeamCards(address)": "5f049d5b",
    "getTeamPower(address)": "f473085d",
    "isApprovedForAll(address,address)": "e985e9c5",
    "lastExplorationTime(address)": "3bf3812b",
    "lastOpenedFreePack(address)": "500ccabf",
    "mint(address,uint256,uint256,bytes)": "731133e9",
    "mintBatch(address,uint256[],uint256[],bytes)": "1f7fdffa",
    "name()": "06fdde03",
    "openBuyPackMatic()": "530c9f2d",
    "openBuyPackToken(uint256)": "30a034d6",
    "openFreePack()": "ac8c733d",
    "owner()": "8da5cb5b",
    "packPriceMatic()": "1b84f1a8",
    "packPriceToken()": "d6d902bb",
    "renounceOwnership()": "715018a6",
    "safeBatchTransferFrom(address,address,uint256[],uint256[],bytes)": "2eb2c2d6",
    "safeTransferFrom(address,address,uint256,uint256,bytes)": "f242432a",
    "setApprovalForAll(address,bool)": "a22cb465",
    "setURI(string)": "02fe5305",
    "supportsInterface(bytes4)": "01ffc9a7",
    "teams(address)": "c4583240",
    "token()": "fc0c546a",
    "transferOwnership(address)": "f2fde38b",
    "uri(uint256)": "0e89341c",
    "version()": "54fd4d50"
  },
  "id": 1
}