{
  "abi": [
    {
      "inputs": [
        {
          "internalType": "address",
          "name": "initialOwner",
          "type": "address"
        }
      ],
      "stateMutability": "nonpayable",
      "type": "constructor"
    },
    {
      "inputs": [
        {
          "internalType": "address",
          "name": "sender",
          "type": "address"
        },
        {
          "internalType": "uint256",
          "name": "balance",
          "type": "uint256"
        },
        {
          "internalType": "uint256",
          "name": "needed",
          "type": "uint256"
        },
        {
          "internalType": "uint256",
          "name": "tokenId",
          "type": "uint256"
        }
      ],
      "name": "ERC1155InsufficientBalance",
      "type": "error"
    },
    {
      "inputs": [
        {
          "internalType": "address",
          "name": "approver",
          "type": "address"
        }
      ],
      "name": "ERC1155InvalidApprover",
      "type": "error"
    },
    {
      "inputs": [
        {
          "internalType": "uint256",
          "name": "idsLength",
          "type": "uint256"
        },
        {
          "internalType": "uint256",
          "name": "valuesLength",
          "type": "uint256"
        }
      ],
      "name": "ERC1155InvalidArrayLength",
      "type": "error"
    },
    {
      "inputs": [
        {
          "internalType": "address",
          "name": "operator",
          "type": "address"
        }
      ],
      "name": "ERC1155InvalidOperator",
      "type": "error"
    },
    {
      "inputs": [
        {
          "internalType": "address",
          "name": "receiver",
          "type": "address"
        }
      ],
      "name": "ERC1155InvalidReceiver",
      "type": "error"
    },
    {
      "inputs": [
        {
          "internalType": "address",
          "name": "sender",
          "type": "address"
        }
      ],
      "name": "ERC1155InvalidSender",
      "type": "error"
    },
    {
      "inputs": [
        {
          "internalType": "address",
          "name": "operator",
          "type": "address"
        },
        {
          "internalType": "address",
          "name": "owner",
          "type": "address"
        }
      ],
      "name": "ERC1155MissingApprovalForAll",
      "type": "error"
    },
    {
      "inputs": [
        {
          "internalType": "address",
          "name": "owner",
          "type": "address"
        }
      ],
      "name": "OwnableInvalidOwner",
      "type": "error"
    },
    {
      "inputs": [
        {
          "internalType": "address",
          "name": "account",
          "type": "address"
        }
      ],
      "name": "OwnableUnauthorizedAccount",
      "type": "error"
    },
    {
      "anonymous": false,
      "inputs": [
        {
          "indexed": true,
          "internalType": "address",
          "name": "account",
          "type": "address"
        },
        {
          "indexed": true,
          "internalType": "address",
          "name": "operator",
          "type": "address"
        },
        {
          "indexed": false,
          "internalType": "bool",
          "name": "approved",
          "type": "bool"
        }
      ],
      "name": "ApprovalForAll",
      "type": "event"
    },
    {
      "anonymous": false,
      "inputs": [
        {
          "indexed": true,
          "internalType": "address",
          "name": "user",
          "type": "address"
        },
        {
          "indexed": false,
          "internalType": "uint256",
          "name": "tokenId",
          "type": "uint256"
        },
        {
          "indexed": false,
          "internalType": "bool",
          "name": "success",
          "type": "bool"
        }
      ],
      "name": "Exploration",
      "type": "event"
    },
    {
      "anonymous": false,
      "inputs": [
        {
          "indexed": true,
          "internalType": "address",
          "name": "previousOwner",
          "type": "address"
        },
        {
          "indexed": true,
          "internalType": "address",
          "name": "newOwner",
          "type": "address"
        }
      ],
      "name": "OwnershipTransferred",
      "type": "event"
    },
    {
      "anonymous": false,
      "inputs": [
        {
          "indexed": true,
          "internalType": "address",
          "name": "user",
          "type": "address"
        },
        {
          "indexed": false,
          "internalType": "uint256[]",
          "name": "cardIds",
          "type": "uint256[]"
        },
        {
          "indexed": false,
          "internalType": "uint256[]",
          "name": "amounts",
          "type": "uint256[]"
        }
      ],
      "name": "PackOpened",
      "type": "event"
    },
    {
      "anonymous": false,
      "inputs": [
        {
          "indexed": true,
          "internalType": "address",
          "name": "user",
          "type": "address"
        },
        {
          "indexed": false,
          "internalType": "uint256",
          "name": "totalPower",
          "type": "uint256"
        },
        {
          "indexed": false,
          "internalType": "uint256[5]",
          "name": "cardIds",
          "type": "uint256[5]"
        }
      ],
      "name": "TeamCreated",
      "type": "event"
    },
    {
      "anonymous": false,
      "inputs": [
        {
          "indexed": false,
          "internalType": "address",
          "name": "beneficiary",
          "type": "address"
        },
        {
          "indexed": false,
          "internalType": "uint256",
          "name": "amount",
          "type": "uint256"
        }
      ],
      "name": "TokenAirdrop",
      "type": "event"
    },
    {
      "anonymous": false,
      "inputs": [
        {
          "indexed": true,
          "internalType": "address",
          "name": "operator",
          "type": "address"
        },
        {
          "indexed": true,
          "internalType": "address",
          "name": "from",
          "type": "address"
        },
        {
          "indexed": true,
          "internalType": "address",
          "name": "to",
          "type": "address"
        },
        {
          "indexed": false,
          "internalType": "uint256[]",
          "name": "ids",
          "type": "uint256[]"
        },
        {
          "indexed": false,
          "internalType": "uint256[]",
          "name": "values",
          "type": "uint256[]"
        }
      ],
      "name": "TransferBatch",
      "type": "event"
    },
    {
      "anonymous": false,
      "inputs": [
        {
          "indexed": true,
          "internalType": "address",
          "name": "operator",
          "type": "address"
        },
        {
          "indexed": true,
          "internalType": "address",
          "name": "from",
          "type": "address"
        },
        {
          "indexed": true,
          "internalType": "address",
          "name": "to",
          "type": "address"
        },
        {
          "indexed": false,
          "internalType": "uint256",
          "name": "id",
          "type": "uint256"
        },
        {
          "indexed": false,
          "internalType": "uint256",
          "name": "value",
          "type": "uint256"
        }
      ],
      "name": "TransferSingle",
      "type": "event"
    },
    {
      "anonymous": false,
      "inputs": [
        {
          "indexed": false,
          "internalType": "string",
          "name": "value",
          "type": "string"
        },
        {
          "indexed": true,
          "internalType": "uint256",
          "name": "id",
          "type": "uint256"
        }
      ],
      "name": "URI",
      "type": "event"
    },
    {
      "inputs": [],
      "name": "NAME",
      "outputs": [
        {
          "internalType": "string",
          "name": "",
          "type": "string"
        }
      ],
      "stateMutability": "view",
      "type": "function"
    },
    {
      "inputs": [],
      "name": "VERSION",
      "outputs": [
        {
          "internalType": "string",
          "name": "",
          "type": "string"
        }
      ],
      "stateMutability": "view",
      "type": "function"
    },
    {
      "inputs": [
        {
          "internalType": "address payable[]",
          "name": "_addresses",
          "type": "address[]"
        },
        {
          "internalType": "uint256[]",
          "name": "_amounts",
          "type": "uint256[]"
        }
      ],
      "name": "_airdropMATIC",
      "outputs": [
        {
          "internalType": "bool",
          "name": "",
          "type": "bool"
        }
      ],
      "stateMutability": "payable",
      "type": "function"
    },
    {
      "inputs": [],
      "name": "_token",
      "outputs": [
        {
          "internalType": "contract IERC20",
          "name": "",
          "type": "address"
        }
      ],
      "stateMutability": "view",
      "type": "function"
    },
    {
      "inputs": [],
      "name": "_weeks",
      "outputs": [
        {
          "internalType": "uint256",
          "name": "",
          "type": "uint256"
        }
      ],
      "stateMutability": "view",
      "type": "function"
    },
    {
      "inputs": [
        {
          "internalType": "address payable[]",
          "name": "_addresses",
          "type": "address[]"
        },
        {
          "internalType": "uint256[]",
          "name": "_amounts",
          "type": "uint256[]"
        }
      ],
      "name": "airdropMATIC",
      "outputs": [
        {
          "internalType": "bool",
          "name": "",
          "type": "bool"
        }
      ],
      "stateMutability": "payable",
      "type": "function"
    },
    {
      "inputs": [
        {
          "internalType": "address",
          "name": "airdropTokenAddress",
          "type": "address"
        },
        {
          "internalType": "address[]",
          "name": "_addresses",
          "type": "address[]"
        },
        {
          "internalType": "uint256[]",
          "name": "_amounts",
          "type": "uint256[]"
        }
      ],
      "name": "airdropToken",
      "outputs": [
        {
          "internalType": "bool",
          "name": "",
          "type": "bool"
        }
      ],
      "stateMutability": "nonpayable",
      "type": "function"
    },
    {
      "inputs": [
        {
          "internalType": "address",
          "name": "account",
          "type": "address"
        },
        {
          "internalType": "uint256",
          "name": "id",
          "type": "uint256"
        }
      ],
      "name": "balanceOf",
      "outputs": [
        {
          "internalType": "uint256",
          "name": "",
          "type": "uint256"
        }
      ],
      "stateMutability": "view",
      "type": "function"
    },
    {
      "inputs": [
        {
          "internalType": "address[]",
          "name": "accounts",
          "type": "address[]"
        },
        {
          "internalType": "uint256[]",
          "name": "ids",
          "type": "uint256[]"
        }
      ],
      "name": "balanceOfBatch",
      "outputs": [
        {
          "internalType": "uint256[]",
          "name": "",
          "type": "uint256[]"
        }
      ],
      "stateMutability": "view",
      "type": "function"
    },
    {
      "inputs": [
        {
          "internalType": "address",
          "name": "account",
          "type": "address"
        },
        {
          "internalType": "uint256",
          "name": "id",
          "type": "uint256"
        },
        {
          "internalType": "uint256",
          "name": "value",
          "type": "uint256"
        }
      ],
      "name": "burn",
      "outputs": [],
      "stateMutability": "nonpayable",
      "type": "function"
    },
    {
      "inputs": [
        {
          "internalType": "address",
          "name": "account",
          "type": "address"
        },
        {
          "internalType": "uint256[]",
          "name": "ids",
          "type": "uint256[]"
        },
        {
          "internalType": "uint256[]",
          "name": "values",
          "type": "uint256[]"
        }
      ],
      "name": "burnBatch",
      "outputs": [],
      "stateMutability": "nonpayable",
      "type": "function"
    },
    {
      "inputs": [
        {
          "internalType": "uint256",
          "name": "",
          "type": "uint256"
        }
      ],
      "name": "cards",
      "outputs": [
        {
          "internalType": "uint256",
          "name": "id",
          "type": "uint256"
        },
        {
          "internalType": "uint256",
          "name": "power",
          "type": "uint256"
        },
        {
          "internalType": "uint256",
          "name": "attributes",
          "type": "uint256"
        }
      ],
      "stateMutability": "view",
      "type": "function"
    },
    {
      "inputs": [
        {
          "internalType": "uint256",
          "name": "_price",
          "type": "uint256"
        }
      ],
      "name": "changePackPriceMatic",
      "outputs": [],
      "stateMutability": "nonpayable",
      "type": "function"
    },
    {
      "inputs": [
        {
          "internalType": "uint256",
          "name": "_price",
          "type": "uint256"
        }
      ],
      "name": "changePackPriceToken",
      "outputs": [],
      "stateMutability": "nonpayable",
      "type": "function"
    },
    {
      "inputs": [
        {
          "internalType": "contract IERC20",
          "name": "contractAddress",
          "type": "address"
        }
      ],
      "name": "changeToken",
      "outputs": [],
      "stateMutability": "nonpayable",
      "type": "function"
    },
    {
      "inputs": [
        {
          "internalType": "uint256[5]",
          "name": "cardIds",
          "type": "uint256[5]"
        }
      ],
      "name": "createTeam",
      "outputs": [],
      "stateMutability": "nonpayable",
      "type": "function"
    },
    {
      "inputs": [],
      "name": "explorationCooldown",
      "outputs": [
        {
          "internalType": "uint256",
          "name": "",
          "type": "uint256"
        }
      ],
      "stateMutability": "view",
      "type": "function"
    },
    {
      "inputs": [
        {
          "internalType": "uint256",
          "name": "tokenId",
          "type": "uint256"
        }
      ],
      "name": "explore",
      "outputs": [],
      "stateMutability": "nonpayable",
      "type": "function"
    },
    {
      "inputs": [],
      "name": "getAllPlayerAddresses",
      "outputs": [
        {
          "internalType": "address[]",
          "name": "",
          "type": "address[]"
        }
      ],
      "stateMutability": "view",
      "type": "function"
    },
    {
      "inputs": [
        {
          "internalType": "address",
          "name": "user",
          "type": "address"
        }
      ],
      "name": "getExplorationCooldown",
      "outputs": [
        {
          "internalType": "uint256",
          "name": "",
          "type": "uint256"
        }
      ],
      "stateMutability": "view",
      "type": "function"
    },
    {
      "inputs": [
        {
          "internalType": "address",
          "name": "user",
          "type": "address"
        }
      ],
      "name": "getFreePackCooldown",
      "outputs": [
        {
          "internalType": "uint256",
          "name": "",
          "type": "uint256"
        }
      ],
      "stateMutability": "view",
      "type": "function"
    },
    {
      "inputs": [
        {
          "internalType": "uint256[]",
          "name": "_arr",
          "type": "uint256[]"
        }
      ],
      "name": "getSum",
      "outputs": [
        {
          "internalType": "uint256",
          "name": "sum",
          "type": "uint256"
        }
      ],
      "stateMutability": "pure",
      "type": "function"
    },
    {
      "inputs": [
        {
          "internalType": "address",
          "name": "user",
          "type": "address"
        }
      ],
      "name": "getTeamCards",
      "outputs": [
        {
          "internalType": "uint256[5]",
          "name": "",
          "type": "uint256[5]"
        }
      ],
      "stateMutability": "view",
      "type": "function"
    },
    {
      "inputs": [
        {
          "internalType": "address",
          "name": "user",
          "type": "address"
        }
      ],
      "name": "getTeamPower",
      "outputs": [
        {
          "internalType": "uint256",
          "name": "",
          "type": "uint256"
        }
      ],
      "stateMutability": "view",
      "type": "function"
    },
    {
      "inputs": [
        {
          "internalType": "address",
          "name": "account",
          "type": "address"
        },
        {
          "internalType": "address",
          "name": "operator",
          "type": "address"
        }
      ],
      "name": "isApprovedForAll",
      "outputs": [
        {
          "internalType": "bool",
          "name": "",
          "type": "bool"
        }
      ],
      "stateMutability": "view",
      "type": "function"
    },
    {
      "inputs": [],
      "name": "lastAirdropMatic",
      "outputs": [
        {
          "internalType": "uint256",
          "name": "",
          "type": "uint256"
        }
      ],
      "stateMutability": "view",
      "type": "function"
    },
    {
      "inputs": [],
      "name": "lastAirdropToken",
      "outputs": [
        {
          "internalType": "uint256",
          "name": "",
          "type": "uint256"
        }
      ],
      "stateMutability": "view",
      "type": "function"
    },
    {
      "inputs": [
        {
          "internalType": "address",
          "name": "",
          "type": "address"
        }
      ],
      "name": "lastExplorationTime",
      "outputs": [
        {
          "internalType": "uint256",
          "name": "",
          "type": "uint256"
        }
      ],
      "stateMutability": "view",
      "type": "function"
    },
    {
      "inputs": [
        {
          "internalType": "address",
          "name": "",
          "type": "address"
        }
      ],
      "name": "lastOpenedFreePack",
      "outputs": [
        {
          "internalType": "uint256",
          "name": "",
          "type": "uint256"
        }
      ],
      "stateMutability": "view",
      "type": "function"
    },
    {
      "inputs": [
        {
          "internalType": "address",
          "name": "account",
          "type": "address"
        },
        {
          "internalType": "uint256",
          "name": "id",
          "type": "uint256"
        },
        {
          "internalType": "uint256",
          "name": "amount",
          "type": "uint256"
        },
        {
          "internalType": "bytes",
          "name": "data",
          "type": "bytes"
        }
      ],
      "name": "mint",
      "outputs": [],
      "stateMutability": "nonpayable",
      "type": "function"
    },
    {
      "inputs": [
        {
          "internalType": "address",
          "name": "to",
          "type": "address"
        },
        {
          "internalType": "uint256[]",
          "name": "ids",
          "type": "uint256[]"
        },
        {
          "internalType": "uint256[]",
          "name": "amounts",
          "type": "uint256[]"
        },
        {
          "internalType": "bytes",
          "name": "data",
          "type": "bytes"
        }
      ],
      "name": "mintBatch",
      "outputs": [],
      "stateMutability": "nonpayable",
      "type": "function"
    },
    {
      "inputs": [],
      "name": "name",
      "outputs": [
        {
          "internalType": "string",
          "name": "",
          "type": "string"
        }
      ],
      "stateMutability": "pure",
      "type": "function"
    },
    {
      "inputs": [],
      "name": "openBuyPackMatic",
      "outputs": [],
      "stateMutability": "payable",
      "type": "function"
    },
    {
      "inputs": [
        {
          "internalType": "uint256",
          "name": "_amount",
          "type": "uint256"
        }
      ],
      "name": "openBuyPackToken",
      "outputs": [],
      "stateMutability": "nonpayable",
      "type": "function"
    },
    {
      "inputs": [],
      "name": "openFreePack",
      "outputs": [],
      "stateMutability": "nonpayable",
      "type": "function"
    },
    {
      "inputs": [],
      "name": "owner",
      "outputs": [
        {
          "internalType": "address",
          "name": "",
          "type": "address"
        }
      ],
      "stateMutability": "view",
      "type": "function"
    },
    {
      "inputs": [],
      "name": "packPriceMatic",
      "outputs": [
        {
          "internalType": "uint256",
          "name": "",
          "type": "uint256"
        }
      ],
      "stateMutability": "view",
      "type": "function"
    },
    {
      "inputs": [],
      "name": "packPriceToken",
      "outputs": [
        {
          "internalType": "uint256",
          "name": "",
          "type": "uint256"
        }
      ],
      "stateMutability": "view",
      "type": "function"
    },
    {
      "inputs": [],
      "name": "renounceOwnership",
      "outputs": [],
      "stateMutability": "nonpayable",
      "type": "function"
    },
    {
      "inputs": [
        {
          "internalType": "address",
          "name": "from",
          "type": "address"
        },
        {
          "internalType": "address",
          "name": "to",
          "type": "address"
        },
        {
          "internalType": "uint256[]",
          "name": "ids",
          "type": "uint256[]"
        },
        {
          "internalType": "uint256[]",
          "name": "values",
          "type": "uint256[]"
        },
        {
          "internalType": "bytes",
          "name": "data",
          "type": "bytes"
        }
      ],
      "name": "safeBatchTransferFrom",
      "outputs": [],
      "stateMutability": "nonpayable",
      "type": "function"
    },
    {
      "inputs": [
        {
          "internalType": "address",
          "name": "from",
          "type": "address"
        },
        {
          "internalType": "address",
          "name": "to",
          "type": "address"
        },
        {
          "internalType": "uint256",
          "name": "id",
          "type": "uint256"
        },
        {
          "internalType": "uint256",
          "name": "value",
          "type": "uint256"
        },
        {
          "internalType": "bytes",
          "name": "data",
          "type": "bytes"
        }
      ],
      "name": "safeTransferFrom",
      "outputs": [],
      "stateMutability": "nonpayable",
      "type": "function"
    },
    {
      "inputs": [
        {
          "internalType": "address",
          "name": "operator",
          "type": "address"
        },
        {
          "internalType": "bool",
          "name": "approved",
          "type": "bool"
        }
      ],
      "name": "setApprovalForAll",
      "outputs": [],
      "stateMutability": "nonpayable",
      "type": "function"
    },
    {
      "inputs": [
        {
          "internalType": "string",
          "name": "newuri",
          "type": "string"
        }
      ],
      "name": "setURI",
      "outputs": [],
      "stateMutability": "nonpayable",
      "type": "function"
    },
    {
      "inputs": [
        {
          "internalType": "bytes4",
          "name": "interfaceId",
          "type": "bytes4"
        }
      ],
      "name": "supportsInterface",
      "outputs": [
        {
          "internalType": "bool",
          "name": "",
          "type": "bool"
        }
      ],
      "stateMutability": "view",
      "type": "function"
    },
    {
      "inputs": [
        {
          "internalType": "address",
          "name": "",
          "type": "address"
        }
      ],
      "name": "teams",
      "outputs": [
        {
          "internalType": "uint256",
          "name": "totalPower",
          "type": "uint256"
        }
      ],
      "stateMutability": "view",
      "type": "function"
    },
    {
      "inputs": [],
      "name": "token",
      "outputs": [
        {
          "internalType": "address",
          "name": "tokenAddress",
          "type": "address"
        }
      ],
      "stateMutability": "view",
      "type": "function"
    },
    {
      "inputs": [
        {
          "internalType": "address",
          "name": "newOwner",
          "type": "address"
        }
      ],
      "name": "transferOwnership",
      "outputs": [],
      "stateMutability": "nonpayable",
      "type": "function"
    },
    {
      "inputs": [
        {
          "internalType": "uint256",
          "name": "",
          "type": "uint256"
        }
      ],
      "name": "uri",
      "outputs": [
        {
          "internalType": "string",
          "name": "",
          "type": "string"
        }
      ],
      "stateMutability": "view",
      "type": "function"
    },
    {
      "inputs": [],
      "name": "version",
      "outputs": [
        {
          "internalType": "string",
          "name": "",
          "type": "string"
        }
      ],
      "stateMutability": "pure",
      "type": "function"
    }
  ],
  "bytecode": {
    "object": "0x6080604052674563918244f40000600455683635c9adc5dea0000060055560016006553480156200002f57600080fd5b5060405162004aad38038062004aad83398101604081905262000052916200158b565b60408051602081019091526000815281906200006e81620000bc565b506001600160a01b0381166200009f57604051631e4fbdf760e01b8152600060048201526024015b60405180910390fd5b620000aa81620000ce565b50620000b562000120565b5062001730565b6002620000ca828262001664565b5050565b600380546001600160a01b038381166001600160a01b0319831681179093556040519116919082907f8be0079c531659141344cd1fd0a4f28419497f9722a3daafe3b4186f6b6457e090600090a35050565b6200012a6200155a565b604051806060016040528060008152602001600a81526020016004815250600b6000808152602001908152602001600020600082015181600001556020820151816001015560408201518160020155905050604051806060016040528060018152602001600b81526020016003815250600b600060018152602001908152602001600020600082015181600001556020820151816001015560408201518160020155905050604051806060016040528060028152602001600b81526020016002815250600b600060028152602001908152602001600020600082015181600001556020820151816001015560408201518160020155905050604051806060016040528060038152602001600d81526020016004815250600b600060038152602001908152602001600020600082015181600001556020820151816001015560408201518160020155905050604051806060016040528060048152602001600f81526020016001815250600b600060048152602001908152602001600020600082015181600001556020820151816001015560408201518160020155905050604051806060016040528060058152602001601081526020016001815250600b600060058152602001908152602001600020600082015181600001556020820151816001015560408201518160020155905050604051806060016040528060068152602001601081526020016005815250600b600060068152602001908152602001600020600082015181600001556020820151816001015560408201518160020155905050604051806060016040528060078152602001601281526020016005815250600b600060078152602001908152602001600020600082015181600001556020820151816001015560408201518160020155905050604051806060016040528060088152602001601481526020016002815250600b600060088152602001908152602001600020600082015181600001556020820151816001015560408201518160020155905050604051806060016040528060098152602001601481526020016003815250600b6000600981526020019081526020016000206000820151816000015560208201518160010155604082015181600201559050506040518060600160405280600a8152602001601981526020016004815250600b6000600a81526020019081526020016000206000820151816000015560208201518160010155604082015181600201559050506040518060600160405280600b8152602001601981526020016002815250600b6000600b81526020019081526020016000206000820151816000015560208201518160010155604082015181600201559050506040518060600160405280600c8152602001601b81526020016001815250600b6000600c81526020019081526020016000206000820151816000015560208201518160010155604082015181600201559050506040518060600160405280600d8152602001601b81526020016001815250600b6000600d81526020019081526020016000206000820151816000015560208201518160010155604082015181600201559050506040518060600160405280600e8152602001601c81526020016003815250600b6000600e81526020019081526020016000206000820151816000015560208201518160010155604082015181600201559050506040518060600160405280600f8152602001601d81526020016005815250600b6000600f8152602001908152602001600020600082015181600001556020820151816001015560408201518160020155905050604051806060016040528060108152602001601e81526020016004815250600b600060108152602001908152602001600020600082015181600001556020820151816001015560408201518160020155905050604051806060016040528060118152602001602081526020016002815250600b600060118152602001908152602001600020600082015181600001556020820151816001015560408201518160020155905050604051806060016040528060128152602001602281526020016005815250600b600060128152602001908152602001600020600082015181600001556020820151816001015560408201518160020155905050604051806060016040528060138152602001602381526020016003815250600b600060138152602001908152602001600020600082015181600001556020820151816001015560408201518160020155905050604051806060016040528060148152602001602881526020016001815250600b600060148152602001908152602001600020600082015181600001556020820151816001015560408201518160020155905050604051806060016040528060158152602001602a81526020016003815250600b600060158152602001908152602001600020600082015181600001556020820151816001015560408201518160020155905050604051806060016040528060168152602001602a81526020016004815250600b600060168152602001908152602001600020600082015181600001556020820151816001015560408201518160020155905050604051806060016040528060178152602001602b81526020016002815250600b600060178152602001908152602001600020600082015181600001556020820151816001015560408201518160020155905050604051806060016040528060188152602001602b81526020016004815250600b600060188152602001908152602001600020600082015181600001556020820151816001015560408201518160020155905050604051806060016040528060198152602001602d81526020016001815250600b6000601981526020019081526020016000206000820151816000015560208201518160010155604082015181600201559050506040518060600160405280601a8152602001602f81526020016002815250600b6000601a81526020019081526020016000206000820151816000015560208201518160010155604082015181600201559050506040518060600160405280601b8152602001602f81526020016005815250600b6000601b81526020019081526020016000206000820151816000015560208201518160010155604082015181600201559050506040518060600160405280601c8152602001603081526020016003815250600b6000601c81526020019081526020016000206000820151816000015560208201518160010155604082015181600201559050506040518060600160405280601d8152602001603281526020016005815250600b6000601d81526020019081526020016000206000820151816000015560208201518160010155604082015181600201559050506040518060600160405280601e8152602001603c81526020016004815250600b6000601e81526020019081526020016000206000820151816000015560208201518160010155604082015181600201559050506040518060600160405280601f8152602001603e81526020016003815250600b6000601f81526020019081526020016000206000820151816000015560208201516001808301919091556040928301516002928301558251606080820185526020808352603e81840190815260048488018181526000848152600b80865296517fb10abab70a2ef2fa946b30d974e5e317186cbaf46f2adc6545c47b45e73e387b5592517fb10abab70a2ef2fa946b30d974e5e317186cbaf46f2adc6545c47b45e73e387c55517fb10abab70a2ef2fa946b30d974e5e317186cbaf46f2adc6545c47b45e73e387d55875180850189526021808252603f8286019081526003838c0181815292865288875292517f148eb1980f0c925cbdb1f166a4451931eb6990d492a56139b8c3c513bebe8b3e55517f148eb1980f0c925cbdb1f166a4451931eb6990d492a56139b8c3c513bebe8b3f55517f148eb1980f0c925cbdb1f166a4451931eb6990d492a56139b8c3c513bebe8b405588518086018a5260228082528186018b8152828c018a815291865288875291517fa45952ddd428c2ec604e2baffdc897459c2280ad06e7cafbaa8137d8f9da49155590517fa45952ddd428c2ec604e2baffdc897459c2280ad06e7cafbaa8137d8f9da491655517fa45952ddd428c2ec604e2baffdc897459c2280ad06e7cafbaa8137d8f9da49175588518086018a5260238082526042828701818152838d018b815292875289885292517f84e40d35deabe04e516508e669f7a4dd187cca694dc6f143d0066381de33cc625591517f84e40d35deabe04e516508e669f7a4dd187cca694dc6f143d0066381de33cc6355517f84e40d35deabe04e516508e669f7a4dd187cca694dc6f143d0066381de33cc645589518087018b5260248082528187019283526005828d0181815291875289885291517f34e77de051017b2fbd9747e1b885d7d15810441e1bee16d645955fac740286ed5591517f34e77de051017b2fbd9747e1b885d7d15810441e1bee16d645955fac740286ee5590517f34e77de051017b2fbd9747e1b885d7d15810441e1bee16d645955fac740286ef5589518087018b5260258082526044828801908152828d018c815291875289885291517fa540feb1f99e155d959f697c8082237828904205cfa551567081ce32e511a4435590517fa540feb1f99e155d959f697c8082237828904205cfa551567081ce32e511a44455517fa540feb1f99e155d959f697c8082237828904205cfa551567081ce32e511a4455589518087018b5260268082526045828801908152828d0184815291875289885291517ffe5e00d72c4d53724d91c01ff55c7ce9279b5015557c5169a4b97310595714775590517ffe5e00d72c4d53724d91c01ff55c7ce9279b5015557c5169a4b973105957147855517ffe5e00d72c4d53724d91c01ff55c7ce9279b5015557c5169a4b97310595714795589518087018b5260278082526046828801908152828d018c815291875289885291517f8c7b3adb441a049d9107122a72a5364a662a8a42e6a1edcace53608e144179955590517f8c7b3adb441a049d9107122a72a5364a662a8a42e6a1edcace53608e1441799655517f8c7b3adb441a049d9107122a72a5364a662a8a42e6a1edcace53608e144179975589518087018b5260288082526055828801908152828d0184815291875289885291517fb0c7037c2ad32479f0d99fc6573c97ffde4621dbcb10fa8ea5374655f003b0cf5590517fb0c7037c2ad32479f0d99fc6573c97ffde4621dbcb10fa8ea5374655f003b0d055517fb0c7037c2ad32479f0d99fc6573c97ffde4621dbcb10fa8ea5374655f003b0d15589518087018b5260298082526056828801908152828d018c815291875289885291517fcfee055bf31255d3d90995580c171b9d215b8787a68cdf41d88f000fb33e5fcf5590517fcfee055bf31255d3d90995580c171b9d215b8787a68cdf41d88f000fb33e5fd055517fcfee055bf31255d3d90995580c171b9d215b8787a68cdf41d88f000fb33e5fd15589518087018b52602a8082526057828801908152828d0193845290865288875290517fda204be036e53b730a88c834137c75955908459ff9d69b2812ea686472ffa19e55517fda204be036e53b730a88c834137c75955908459ff9d69b2812ea686472ffa19f55517fda204be036e53b730a88c834137c75955908459ff9d69b2812ea686472ffa1a05588518086018a52602b8082526059828701908152828c018a815291865288875291517f2ffca9521ce126c9798d5aa531b60a298c28bfde7df9e6b01700c8e757374c4f5590517f2ffca9521ce126c9798d5aa531b60a298c28bfde7df9e6b01700c8e757374c5055517f2ffca9521ce126c9798d5aa531b60a298c28bfde7df9e6b01700c8e757374c515588518086018a52602c808252605a828701908152828c0185815291865288875291517f6c7fe5e8c1ba6fed479f70b40cb0209bb3fef02f030d14c1b1d2f2faf0bf81955590517f6c7fe5e8c1ba6fed479f70b40cb0209bb3fef02f030d14c1b1d2f2faf0bf819655517f6c7fe5e8c1ba6fed479f70b40cb0209bb3fef02f030d14c1b1d2f2faf0bf81975588518086018a52602d808252605c828701908152828c01998a5290855287865290517f8c1229c40aae2c422254ea0b2ffab73ff2dce71bbe3de6101c7662c15be2d0f855517f8c1229c40aae2c422254ea0b2ffab73ff2dce71bbe3de6101c7662c15be2d0f95595517f8c1229c40aae2c422254ea0b2ffab73ff2dce71bbe3de6101c7662c15be2d0fa5587518085018952602e808252605d828601908152828b01998a5290845286855290517f3d1159b617185c8ac6bed09ee30db60e06f98bd61f32687ae067c92715b14d3c55517f3d1159b617185c8ac6bed09ee30db60e06f98bd61f32687ae067c92715b14d3d5595517f3d1159b617185c8ac6bed09ee30db60e06f98bd61f32687ae067c92715b14d3e5586518084018852602f808252605f828501908152828a0188815291845286855291517f651e072952c5bc16cd32d4c642fcdf7fabb94a7aba43fd0d9165e7c8e59aca8b5590517f651e072952c5bc16cd32d4c642fcdf7fabb94a7aba43fd0d9165e7c8e59aca8c55517f651e072952c5bc16cd32d4c642fcdf7fabb94a7aba43fd0d9165e7c8e59aca8d558651808401885260308082526061828501908152828a0198895290835285845290517f0a6ec730a9a845e79f351f3b7b834fb4263769c2e5ee75846c3ed9901d30b15255517f0a6ec730a9a845e79f351f3b7b834fb4263769c2e5ee75846c3ed9901d30b1535594517f0a6ec730a9a845e79f351f3b7b834fb4263769c2e5ee75846c3ed9901d30b154558551918201865260318083526064838301908152968301948552909452925290517f5d5819cac575aa0fbd669ec5fc12d83aee72c7c94f783a0fd314918c2f54174f5590517f5d5819cac575aa0fbd669ec5fc12d83aee72c7c94f783a0fd314918c2f54175055517f5d5819cac575aa0fbd669ec5fc12d83aee72c7c94f783a0fd314918c2f54175155565b6003546001600160a01b03163314620015895760405163118cdaa760e01b815233600482015260240162000096565b565b6000602082840312156200159e57600080fd5b81516001600160a01b0381168114620015b657600080fd5b9392505050565b634e487b7160e01b600052604160045260246000fd5b600181811c90821680620015e857607f821691505b6020821081036200160957634e487b7160e01b600052602260045260246000fd5b50919050565b601f8211156200165f576000816000526020600020601f850160051c810160208610156200163a5750805b601f850160051c820191505b818110156200165b5782815560010162001646565b5050505b505050565b81516001600160401b03811115620016805762001680620015bd565b6200169881620016918454620015d3565b846200160f565b602080601f831160018114620016d05760008415620016b75750858301515b600019600386901b1c1916600185901b1785556200165b565b600085815260208120601f198616915b828110156200170157888601518255948401946001909101908401620016e0565b5085821015620017205787850151600019600388901b60f8161c191681555b5050505050600190811b01905550565b61336d80620017406000396000f3fe6080604052600436106102ad5760003560e01c806366829b1611610175578063c4583240116100dc578063ecd0c0c311610095578063f473085d1161006f578063f473085d146108c9578063f5298aca146108e9578063fc0c546a14610909578063ffa1ad741461092757600080fd5b8063ecd0c0c314610869578063f242432a14610889578063f2fde38b146108a957600080fd5b8063c4583240146107b0578063ccb8c1e0146107dd578063cf83cd0a146107fd578063d6d902bb1461081d578063e8f7b7cd14610833578063e985e9c51461084957600080fd5b80638dc107681161012e5780638dc10768146106b3578063923c1a061461070a578063a1000d081461072a578063a22cb46514610740578063a3f4df7e14610760578063ac8c733d1461079b57600080fd5b806366829b16146105f95780636917371f146106195780636b20c4541461062c578063715018a61461064c578063731133e9146106615780638da5cb5b1461068157600080fd5b806330a034d611610219578063500ccabf116101d2578063500ccabf14610529578063530c9f2d1461055657806354fd4d501461055e5780635f049d5b1461058c57806363aedb38146105b95780636457e389146105d957600080fd5b806330a034d614610466578063340fc4c3146104865780633b584960146104a65780633bf3812b146104bc5780634d4224d8146104e95780634e1273f4146104fc57600080fd5b80631b84f1a81161026b5780631b84f1a8146103b85780631f7fdffa146103ce57806323ba231a146103ee5780632535e0dd146104045780632c3f9700146104245780632eb2c2d61461044657600080fd5b8062fdd58e146102b257806301ffc9a7146102e557806302fe53051461031557806306fdde03146103375780630e89341c146103785780631312b24e14610398575b600080fd5b3480156102be57600080fd5b506102d26102cd3660046126c3565b610958565b6040519081526020015b60405180910390f35b3480156102f157600080fd5b50610305610300366004612705565b610980565b60405190151581526020016102dc565b34801561032157600080fd5b506103356103303660046127c6565b6109d0565b005b34801561034357600080fd5b5060408051808201909152600f81526e53756d6d6f6e657273204172656e6160881b60208201525b6040516102dc9190612854565b34801561038457600080fd5b5061036b610393366004612867565b6109e4565b3480156103a457600080fd5b506102d26103b3366004612880565b610a78565b3480156103c457600080fd5b506102d260045481565b3480156103da57600080fd5b506103356103e936600461294f565b610ac4565b3480156103fa57600080fd5b506102d260065481565b34801561041057600080fd5b506102d261041f366004612880565b610ade565b34801561043057600080fd5b50610439610b04565b6040516102dc91906129e9565b34801561045257600080fd5b50610335610461366004612a36565b610b66565b34801561047257600080fd5b50610335610481366004612867565b610bd2565b34801561049257600080fd5b506103356104a1366004612867565b610d41565b3480156104b257600080fd5b506102d261384081565b3480156104c857600080fd5b506102d26104d7366004612880565b600e6020526000908152604090205481565b6103056104f7366004612b2e565b610d4e565b34801561050857600080fd5b5061051c610517366004612b99565b610d9a565b6040516102dc9190612c96565b34801561053557600080fd5b506102d2610544366004612880565b600d6020526000908152604090205481565b610335610e66565b34801561056a57600080fd5b50604080518082019091526005815264302e302e3160d81b602082015261036b565b34801561059857600080fd5b506105ac6105a7366004612880565b610f02565b6040516102dc9190612ca9565b3480156105c557600080fd5b506103056105d4366004612cda565b610f75565b3480156105e557600080fd5b506103356105f4366004612867565b610fd7565b34801561060557600080fd5b50610335610614366004612880565b6111fc565b610305610627366004612b2e565b611226565b34801561063857600080fd5b50610335610647366004612d5c565b6113b7565b34801561065857600080fd5b50610335611416565b34801561066d57600080fd5b5061033561067c366004612dd1565b611428565b34801561068d57600080fd5b506003546001600160a01b03165b6040516001600160a01b0390911681526020016102dc565b3480156106bf57600080fd5b506106ef6106ce366004612867565b600b6020526000908152604090208054600182015460029092015490919083565b604080519384526020840192909252908201526060016102dc565b34801561071657600080fd5b50610335610725366004612e27565b61143c565b34801561073657600080fd5b506102d260085481565b34801561074c57600080fd5b5061033561075b366004612e5d565b61178a565b34801561076c57600080fd5b5061036b6040518060400160405280600f81526020016e53756d6d6f6e657273204172656e6160881b81525081565b3480156107a757600080fd5b50610335611799565b3480156107bc57600080fd5b506102d26107cb366004612880565b600c6020526000908152604090205481565b3480156107e957600080fd5b506102d26107f8366004612e96565b61182f565b34801561080957600080fd5b50610335610818366004612867565b611870565b34801561082957600080fd5b506102d260055481565b34801561083f57600080fd5b506102d260075481565b34801561085557600080fd5b50610305610864366004612ed7565b61187d565b34801561087557600080fd5b50600a5461069b906001600160a01b031681565b34801561089557600080fd5b506103356108a4366004612f05565b6118ab565b3480156108b557600080fd5b506103356108c4366004612880565b61190a565b3480156108d557600080fd5b506102d26108e4366004612880565b611945565b3480156108f557600080fd5b50610335610904366004612f6d565b6119ae565b34801561091557600080fd5b50600a546001600160a01b031661069b565b34801561093357600080fd5b5061036b60405180604001604052806005815260200164302e302e3160d81b81525081565b6000818152602081815260408083206001600160a01b03861684529091529020545b92915050565b60006001600160e01b03198216636cdb3d1360e11b14806109b157506001600160e01b031982166303a24d0760e21b145b8061097a57506301ffc9a760e01b6001600160e01b031983161461097a565b6109d86119e4565b6109e181611a11565b50565b6060600280546109f390612fa2565b80601f0160208091040260200160405190810160405280929190818152602001828054610a1f90612fa2565b8015610a6c5780601f10610a4157610100808354040283529160200191610a6c565b820191906000526020600020905b815481529060010190602001808311610a4f57829003601f168201915b50505050509050919050565b6001600160a01b0381166000908152600d602052604081205481610a9f8262015180612fec565b9050804210610ab2575060009392505050565b610abc4282612fff565b949350505050565b610acc6119e4565b610ad884848484611a1d565b50505050565b6001600160a01b0381166000908152600e602052604081205481610a9f61384083612fec565b60606009805480602002602001604051908101604052809291908181526020018280548015610b5c57602002820191906000526020600020905b81546001600160a01b03168152600190910190602001808311610b3e575b5050505050905090565b336001600160a01b0386168114801590610b875750610b85868261187d565b155b15610bbd5760405163711bec9160e11b81526001600160a01b038083166004830152871660248201526044015b60405180910390fd5b610bca8686868686611a55565b505050505050565b600554811015610c1d5760405162461bcd60e51b8152602060048201526016602482015275125b9cdd59999a58da595b9d0814d55353481cd95b9d60521b6044820152606401610bb4565b600a546040516323b872dd60e01b8152336004820152306024820152604481018390526001600160a01b03909116906323b872dd906064016020604051808303816000875af1158015610c74573d6000803e3d6000fd5b505050506040513d601f19601f82011682018060405250810190610c989190613012565b50600554811115610d3857600a546005546001600160a01b039091169063a9059cbb903390610cc79085612fff565b6040516001600160e01b031960e085901b1681526001600160a01b03909216600483015260248201526044016020604051808303816000875af1158015610d12573d6000803e3d6000fd5b505050506040513d601f19601f82011682018060405250810190610d369190613012565b505b6109e133611abc565b610d496119e4565b600455565b6000610d586119e4565b42603c60085462093a80610d6c9190612fec565b610d769190612fff565b1115610d8157600080fd5b42600855610d9185858585611226565b95945050505050565b60608151835114610dcb5781518351604051635b05999160e01b815260048101929092526024820152604401610bb4565b600083516001600160401b03811115610de657610de6612729565b604051908082528060200260200182016040528015610e0f578160200160208202803683370190505b50905060005b8451811015610e5e57602080820286010151610e3990602080840287010151610958565b828281518110610e4b57610e4b61302f565b6020908102919091010152600101610e15565b509392505050565b600454341015610eb05760405162461bcd60e51b8152602060048201526015602482015274125b9cdd59999a58da595b9d08115512081cd95b9d605a1b6044820152606401610bb4565b600454341115610ef75760045433906108fc90610ecd9034612fff565b6040518115909202916000818181858888f19350505050158015610ef5573d6000803e3d6000fd5b505b610f0033611abc565b565b610f0a61261f565b6001600160a01b0382166000908152600c602090815260408083208151808301835281548152825160a08101938490529093919291840191600184019060059082845b815481526020019060010190808311610f4d5750505091909252505050602001519392505050565b6000610f7f6119e4565b42603c60075462093a80610f939190612fec565b610f9d9190612fff565b1115610fa857600080fd5b4260075560068054600090610fbc90613045565b90915550610fcd8686868686611cb3565b9695505050505050565b6000610fe33383610958565b116110305760405162461bcd60e51b815260206004820152601760248201527f596f7520646f206e6f74206f776e2074686973204e46540000000000000000006044820152606401610bb4565b336000908152600e6020526040902054429061104f9061384090612fec565b11156110a75760405162461bcd60e51b815260206004820152602160248201527f4578706c6f726174696f6e20636f6f6c646f776e206e6f74206f7665722079656044820152601d60fa1b6064820152608401610bb4565b336000908152600e60205260408120429055600a8210156110ca5750600a611101565b60148210156110db5750600f611101565b601e8210156110ec57506019611101565b60288210156110fd57506032611101565b5060635b60006064611110600143612fff565b60408051914060208301526bffffffffffffffffffffffff193360601b1690820152605481018590526074016040516020818303038152906040528051906020012060001c61115f9190613074565b9050818110156111b35761117233611abc565b604080518481526001602082015233917f881e6a2d6e6ccc01db8059143b38355253b44e9248b47164c5f720b0ccfbefa091015b60405180910390a2505050565b6111bf33846001611f2a565b604080518481526000602082015233917f881e6a2d6e6ccc01db8059143b38355253b44e9248b47164c5f720b0ccfbefa091016111a6565b505050565b6112046119e4565b600a80546001600160a01b0319166001600160a01b0392909216919091179055565b60008382146112475760405162461bcd60e51b8152600401610bb490613088565b6000611253848461182f565b905080341461129c5760405162461bcd60e51b81526020600482015260156024820152742a3930b739b332b91030b6b7bab73a1032b93937b960591b6044820152606401610bb4565b60005b858110156113aa578686828181106112b9576112b961302f565b90506020020160208101906112ce9190612880565b6001600160a01b03166108fc8686848181106112ec576112ec61302f565b905060200201359081150290604051600060405180830381858888f1935050505015801561131e573d6000803e3d6000fd5b507f87bc0fc6d8dc230a2e147ddc101c27a3dab51eb54eb8e75ee269883777ef17c68787838181106113525761135261302f565b90506020020160208101906113679190612880565b8686848181106113795761137961302f565b604080516001600160a01b0390951685526020918202939093013590840152500160405180910390a160010161129f565b5060019695505050505050565b6001600160a01b03831633148015906113d757506113d5833361187d565b155b1561140b57335b60405163711bec9160e11b81526001600160a01b0391821660048201529084166024820152604401610bb4565b6111f7838383611f92565b61141e6119e4565b610f006000611fd8565b6114306119e4565b610ad88484848461202a565b6000600a61144861263d565b60008060005b600581101561157057600087826005811061146b5761146b61302f565b60200201359050600061147e3383610958565b1115611567576000600b60008a856005811061149c5761149c61302f565b60200201358152602001908152602001600020604051806060016040529081600082015481526020016001820154815260200160028201548152505090508060200151886114ea9190612fec565b9750858160400151600681106115025761150261302f565b6020020180519061151282613045565b905250805160281180159061152957508051603110155b15611540578461153881613045565b955050611565565b601e8210158015611552575060278211155b15611565578361156181613045565b9450505b505b5060010161144e565b5060008060015b600581116115f557818682600681106115925761159261302f565b6020020151106115b6578581600681106115ae576115ae61302f565b602002015191505b60008682600681106115ca576115ca61302f565b602002015111156115e357826115df81613045565b9350505b806115ed81613045565b915050611577565b50806005036116075760199550611647565b806004036116185760149550611647565b8160050361162957600f9550611647565b8060030361163a57600d9550611647565b8060020361164757600c95505b6116528460056130d2565b61165c9087612fec565b95506116688387612fec565b9550600a61167687896130d2565b61168091906130e9565b336000908152600c6020526040812054919850036116db57600980546001810182556000919091527f6e1540171b6c0c960b71a7020d9f60077f6af931a8bbf590da0223dacf75c7af0180546001600160a01b031916331790555b604051806040016040528088815260200189600580602002604051908101604052809291908260056020028082843760009201829052509290935250338152600c602090815260409091208351815590830151909150611741906001830190600561265b565b50506040513391507f526177b3a45653ba9e9109c6159e36d32ef4916e007026750988e8cef5b9bd3690611778908a908c906130fd565b60405180910390a25050505050505050565b611795338383612087565b5050565b336000908152600d602052604090205462015180906117b89042612fff565b10156118125760405162461bcd60e51b815260206004820152602360248201527f4d757374207761697420312064617920746f206f70656e20612066726565207060448201526261636b60e81b6064820152608401610bb4565b61181b33611abc565b336000908152600d60205260409020429055565b6000805b828110156118695783838281811061184d5761184d61302f565b905060200201358261185f9190612fec565b9150600101611833565b5092915050565b6118786119e4565b600555565b6001600160a01b03918216600090815260016020908152604080832093909416825291909152205460ff1690565b336001600160a01b03861681148015906118cc57506118ca868261187d565b155b156118fd5760405163711bec9160e11b81526001600160a01b03808316600483015287166024820152604401610bb4565b610bca868686868661211d565b6119126119e4565b6001600160a01b03811661193c57604051631e4fbdf760e01b815260006004820152602401610bb4565b6109e181611fd8565b6001600160a01b0381166000908152600c602090815260408083208151808301835281548152825160a08101938490528594919391840191600184019060059082845b815481526020019060010190808311611988575050509190925250509051949350505050565b6001600160a01b03831633148015906119ce57506119cc833361187d565b155b156119d957336113de565b6111f7838383611f2a565b6003546001600160a01b03163314610f005760405163118cdaa760e01b8152336004820152602401610bb4565b6002611795828261315b565b6001600160a01b038416611a4757604051632bfa23e760e11b815260006004820152602401610bb4565b610ad86000858585856121ab565b6001600160a01b038416611a7f57604051632bfa23e760e11b815260006004820152602401610bb4565b6001600160a01b038516611aa857604051626a0d4560e21b815260006004820152602401610bb4565b611ab585858585856121ab565b5050505050565b60408051600580825260c082019092526000916020820160a080368337505060408051600580825260c0820190925292935060009291506020820160a08036833701905050905060005b6005811015611c5c576000611b1c600143612fff565b60408051914060208301526bffffffffffffffffffffffff19606088901b16908201526054810183905260740160408051601f19818403018152919052805160209091012090506000611b70606483613074565b90506000600a611b816064856130e9565b611b8b9190613074565b9050603c821015611bba5780868581518110611ba957611ba961302f565b602002602001018181525050611c32565b6054821015611be057611bce81600a612fec565b868581518110611ba957611ba961302f565b605e821015611bf457611bce816014612fec565b6063821015611c0857611bce81601e612fec565b611c13816028612fec565b868581518110611c2557611c2561302f565b6020026020010181815250505b6001858581518110611c4657611c4661302f565b6020908102919091010152505050600101611b06565b50611c7883838360405180602001604052806000815250611a1d565b826001600160a01b03167ff7abfe87506a99dfe239c7c8cdb614b8c0bd515135b3897f983d0dd4c657aeaf83836040516111a692919061321a565b6000838214611cd45760405162461bcd60e51b8152600401610bb490613088565b856000611ce1858561182f565b604051636eb1769f60e11b815233600482015230602482015290915081906001600160a01b0384169063dd62ed3e90604401602060405180830381865afa158015611d30573d6000803e3d6000fd5b505050506040513d601f19601f82011682018060405250810190611d54919061323f565b1015611da25760405162461bcd60e51b815260206004820152601860248201527f4e65656420417070726f766520455243323020746f6b656e00000000000000006044820152606401610bb4565b60005b60ff8116871115611f1b57826001600160a01b03166323b872dd338a8a8560ff16818110611dd557611dd561302f565b9050602002016020810190611dea9190612880565b89898660ff16818110611dff57611dff61302f565b6040516001600160e01b031960e088901b1681526001600160a01b039586166004820152949093166024850152506020909102013560448201526064016020604051808303816000875af1158015611e5b573d6000803e3d6000fd5b505050506040513d601f19601f82011682018060405250810190611e7f9190613012565b507f87bc0fc6d8dc230a2e147ddc101c27a3dab51eb54eb8e75ee269883777ef17c688888360ff16818110611eb657611eb661302f565b9050602002016020810190611ecb9190612880565b87878460ff16818110611ee057611ee061302f565b604080516001600160a01b0390951685526020918202939093013590840152500160405180910390a180611f1381613258565b915050611da5565b50600198975050505050505050565b6001600160a01b038316611f5357604051626a0d4560e21b815260006004820152602401610bb4565b604080516001808252602082018590528183019081526060820184905260a08201909252600060808201818152919291611ab5918791859085906121ab565b6001600160a01b038316611fbb57604051626a0d4560e21b815260006004820152602401610bb4565b6111f78360008484604051806020016040528060008152506121ab565b600380546001600160a01b038381166001600160a01b0319831681179093556040519116919082907f8be0079c531659141344cd1fd0a4f28419497f9722a3daafe3b4186f6b6457e090600090a35050565b6001600160a01b03841661205457604051632bfa23e760e11b815260006004820152602401610bb4565b60408051600180825260208201869052818301908152606082018590526080820190925290610bca6000878484876121ab565b6001600160a01b0382166120b05760405162ced3e160e81b815260006004820152602401610bb4565b6001600160a01b03838116600081815260016020908152604080832094871680845294825291829020805460ff191686151590811790915591519182527f17307eab39ab6107e8899845ad3d59bd9653f200f220920489ca2b5937696c31910160405180910390a3505050565b6001600160a01b03841661214757604051632bfa23e760e11b815260006004820152602401610bb4565b6001600160a01b03851661217057604051626a0d4560e21b815260006004820152602401610bb4565b604080516001808252602082018690528183019081526060820185905260808201909252906121a287878484876121ab565b50505050505050565b6121b7858585856121fe565b6001600160a01b03841615611ab557825133906001036121f057602084810151908401516121e9838989858589612412565b5050610bca565b610bca818787878787612536565b805182511461222d5781518151604051635b05999160e01b815260048101929092526024820152604401610bb4565b3360005b8351811015612333576020818102858101820151908501909101516001600160a01b038816156122e4576000828152602081815260408083206001600160a01b038c168452909152902054818110156122bd576040516303dee4c560e01b81526001600160a01b038a166004820152602481018290526044810183905260648101849052608401610bb4565b6000838152602081815260408083206001600160a01b038d16845290915290209082900390555b6001600160a01b03871615612329576000828152602081815260408083206001600160a01b038b16845290915281208054839290612323908490612fec565b90915550505b5050600101612231565b5082516001036123b45760208301516000906020840151909150856001600160a01b0316876001600160a01b0316846001600160a01b03167fc3d58168c5ae7397731d063d5bbf3d657854427343f4c083240f7aacaa2d0f6285856040516123a5929190918252602082015260400190565b60405180910390a45050611ab5565b836001600160a01b0316856001600160a01b0316826001600160a01b03167f4a39dc06d4c0dbc64b70af90fd698a233a518aa5d07e595d983b8c0526c8f7fb868660405161240392919061321a565b60405180910390a45050505050565b6001600160a01b0384163b15610bca5760405163f23a6e6160e01b81526001600160a01b0385169063f23a6e61906124569089908990889088908890600401613277565b6020604051808303816000875af1925050508015612491575060408051601f3d908101601f1916820190925261248e918101906132bc565b60015b6124fa573d8080156124bf576040519150601f19603f3d011682016040523d82523d6000602084013e6124c4565b606091505b5080516000036124f257604051632bfa23e760e11b81526001600160a01b0386166004820152602401610bb4565b805181602001fd5b6001600160e01b0319811663f23a6e6160e01b146121a257604051632bfa23e760e11b81526001600160a01b0386166004820152602401610bb4565b6001600160a01b0384163b15610bca5760405163bc197c8160e01b81526001600160a01b0385169063bc197c819061257a90899089908890889088906004016132d9565b6020604051808303816000875af19250505080156125b5575060408051601f3d908101601f191682019092526125b2918101906132bc565b60015b6125e3573d8080156124bf576040519150601f19603f3d011682016040523d82523d6000602084013e6124c4565b6001600160e01b0319811663bc197c8160e01b146121a257604051632bfa23e760e11b81526001600160a01b0386166004820152602401610bb4565b6040518060a001604052806005906020820280368337509192915050565b6040518060c001604052806006906020820280368337509192915050565b8260058101928215612689579160200282015b8281111561268957825182559160200191906001019061266e565b50612695929150612699565b5090565b5b80821115612695576000815560010161269a565b6001600160a01b03811681146109e157600080fd5b600080604083850312156126d657600080fd5b82356126e1816126ae565b946020939093013593505050565b6001600160e01b0319811681146109e157600080fd5b60006020828403121561271757600080fd5b8135612722816126ef565b9392505050565b634e487b7160e01b600052604160045260246000fd5b604051601f8201601f191681016001600160401b038111828210171561276757612767612729565b604052919050565b60006001600160401b0383111561278857612788612729565b61279b601f8401601f191660200161273f565b90508281528383830111156127af57600080fd5b828260208301376000602084830101529392505050565b6000602082840312156127d857600080fd5b81356001600160401b038111156127ee57600080fd5b8201601f810184136127ff57600080fd5b610abc8482356020840161276f565b6000815180845260005b8181101561283457602081850181015186830182015201612818565b506000602082860101526020601f19601f83011685010191505092915050565b602081526000612722602083018461280e565b60006020828403121561287957600080fd5b5035919050565b60006020828403121561289257600080fd5b8135612722816126ae565b60006001600160401b038211156128b6576128b6612729565b5060051b60200190565b600082601f8301126128d157600080fd5b813560206128e66128e18361289d565b61273f565b8083825260208201915060208460051b87010193508684111561290857600080fd5b602086015b84811015612924578035835291830191830161290d565b509695505050505050565b600082601f83011261294057600080fd5b6127228383356020850161276f565b6000806000806080858703121561296557600080fd5b8435612970816126ae565b935060208501356001600160401b038082111561298c57600080fd5b612998888389016128c0565b945060408701359150808211156129ae57600080fd5b6129ba888389016128c0565b935060608701359150808211156129d057600080fd5b506129dd8782880161292f565b91505092959194509250565b6020808252825182820181905260009190848201906040850190845b81811015612a2a5783516001600160a01b031683529284019291840191600101612a05565b50909695505050505050565b600080600080600060a08688031215612a4e57600080fd5b8535612a59816126ae565b94506020860135612a69816126ae565b935060408601356001600160401b0380821115612a8557600080fd5b612a9189838a016128c0565b94506060880135915080821115612aa757600080fd5b612ab389838a016128c0565b93506080880135915080821115612ac957600080fd5b50612ad68882890161292f565b9150509295509295909350565b60008083601f840112612af557600080fd5b5081356001600160401b03811115612b0c57600080fd5b6020830191508360208260051b8501011115612b2757600080fd5b9250929050565b60008060008060408587031215612b4457600080fd5b84356001600160401b0380821115612b5b57600080fd5b612b6788838901612ae3565b90965094506020870135915080821115612b8057600080fd5b50612b8d87828801612ae3565b95989497509550505050565b60008060408385031215612bac57600080fd5b82356001600160401b0380821115612bc357600080fd5b818501915085601f830112612bd757600080fd5b81356020612be76128e18361289d565b82815260059290921b84018101918181019089841115612c0657600080fd5b948201945b83861015612c2d578535612c1e816126ae565b82529482019490820190612c0b565b96505086013592505080821115612c4357600080fd5b50612c50858286016128c0565b9150509250929050565b60008151808452602080850194506020840160005b83811015612c8b57815187529582019590820190600101612c6f565b509495945050505050565b6020815260006127226020830184612c5a565b60a08101818360005b6005811015612cd1578151835260209283019290910190600101612cb2565b50505092915050565b600080600080600060608688031215612cf257600080fd5b8535612cfd816126ae565b945060208601356001600160401b0380821115612d1957600080fd5b612d2589838a01612ae3565b90965094506040880135915080821115612d3e57600080fd5b50612d4b88828901612ae3565b969995985093965092949392505050565b600080600060608486031215612d7157600080fd5b8335612d7c816126ae565b925060208401356001600160401b0380821115612d9857600080fd5b612da4878388016128c0565b93506040860135915080821115612dba57600080fd5b50612dc7868287016128c0565b9150509250925092565b60008060008060808587031215612de757600080fd5b8435612df2816126ae565b9350602085013592506040850135915060608501356001600160401b03811115612e1b57600080fd5b6129dd8782880161292f565b600060a08284031215612e3957600080fd5b8260a083011115612e4957600080fd5b50919050565b80151581146109e157600080fd5b60008060408385031215612e7057600080fd5b8235612e7b816126ae565b91506020830135612e8b81612e4f565b809150509250929050565b60008060208385031215612ea957600080fd5b82356001600160401b03811115612ebf57600080fd5b612ecb85828601612ae3565b90969095509350505050565b60008060408385031215612eea57600080fd5b8235612ef5816126ae565b91506020830135612e8b816126ae565b600080600080600060a08688031215612f1d57600080fd5b8535612f28816126ae565b94506020860135612f38816126ae565b9350604086013592506060860135915060808601356001600160401b03811115612f6157600080fd5b612ad68882890161292f565b600080600060608486031215612f8257600080fd5b8335612f8d816126ae565b95602085013595506040909401359392505050565b600181811c90821680612fb657607f821691505b602082108103612e4957634e487b7160e01b600052602260045260246000fd5b634e487b7160e01b600052601160045260246000fd5b8082018082111561097a5761097a612fd6565b8181038181111561097a5761097a612fd6565b60006020828403121561302457600080fd5b815161272281612e4f565b634e487b7160e01b600052603260045260246000fd5b60006001820161305757613057612fd6565b5060010190565b634e487b7160e01b600052601260045260246000fd5b6000826130835761308361305e565b500690565b6020808252602a908201527f4c656e67746873206f662041646472657373657320616e6420416d6f756e7473604082015269081393d508115455505360b21b606082015260800190565b808202811582820484141761097a5761097a612fd6565b6000826130f8576130f861305e565b500490565b82815260c0810160a08360208401379392505050565b601f8211156111f7576000816000526020600020601f850160051c8101602086101561313c5750805b601f850160051c820191505b81811015610bca57828155600101613148565b81516001600160401b0381111561317457613174612729565b613188816131828454612fa2565b84613113565b602080601f8311600181146131bd57600084156131a55750858301515b600019600386901b1c1916600185901b178555610bca565b600085815260208120601f198616915b828110156131ec578886015182559484019460019091019084016131cd565b508582101561320a5787850151600019600388901b60f8161c191681555b5050505050600190811b01905550565b60408152600061322d6040830185612c5a565b8281036020840152610d918185612c5a565b60006020828403121561325157600080fd5b5051919050565b600060ff821660ff810361326e5761326e612fd6565b60010192915050565b6001600160a01b03868116825285166020820152604081018490526060810183905260a0608082018190526000906132b19083018461280e565b979650505050505050565b6000602082840312156132ce57600080fd5b8151612722816126ef565b6001600160a01b0386811682528516602082015260a06040820181905260009061330590830186612c5a565b82810360608401526133178186612c5a565b9050828103608084015261332b818561280e565b9897505050505050505056fea2646970667358221220615230720cca6c3d57dc467dbddf9b649047a3ab9613ca5e3e34e851f430c38064736f6c63430008170033",
    "linkReferences": {}
  },
  "methodIdentifiers": {
    "NAME()": "a3f4df7e",
    "VERSION()": "ffa1ad74",
    "_airdropMATIC(address[],uint256[])": "6917371f",
    "_token()": "ecd0c0c3",
    "_weeks()": "23ba231a",
    "airdropMATIC(address[],uint256[])": "4d4224d8",
    "airdropToken(address,address[],uint256[])": "63aedb38",
    "balanceOf(address,uint256)": "00fdd58e",
    "balanceOfBatch(address[],uint256[])": "4e1273f4",
    "burn(address,uint256,uint256)": "f5298aca",
    "burnBatch(address,uint256[],uint256[])": "6b20c454",
    "cards(uint256)": "8dc10768",
    "changePackPriceMatic(uint256)": "340fc4c3",
    "changePackPriceToken(uint256)": "cf83cd0a",
    "changeToken(address)": "66829b16",
    "createTeam(uint256[5])": "923c1a06",
    "explorationCooldown()": "3b584960",
    "explore(uint256)": "6457e389",
    "getAllPlayerAddresses()": "2c3f9700",
    "getExplorationCooldown(address)": "2535e0dd",
    "getFreePackCooldown(address)": "1312b24e",
    "getSum(uint256[])": "ccb8c1e0",
    "getTeamCards(address)": "5f049d5b",
    "getTeamPower(address)": "f473085d",
    "isApprovedForAll(address,address)": "e985e9c5",
    "lastAirdropMatic()": "a1000d08",
    "lastAirdropToken()": "e8f7b7cd",
    "lastExplorationTime(address)": "3bf3812b",
    "lastOpenedFreePack(address)": "500ccabf",
    "mint(address,uint256,uint256,bytes)": "731133e9",
    "mintBatch(address,uint256[],uint256[],bytes)": "1f7fdffa",
    "name()": "06fdde03",
    "openBuyPackMatic()": "530c9f2d",
    "openBuyPackToken(uint256)": "30a034d6",
    "openFreePack()": "ac8c733d",
    "owner()": "8da5cb5b",
    "packPriceMatic()": "1b84f1a8",
    "packPriceToken()": "d6d902bb",
    "renounceOwnership()": "715018a6",
    "safeBatchTransferFrom(address,address,uint256[],uint256[],bytes)": "2eb2c2d6",
    "safeTransferFrom(address,address,uint256,uint256,bytes)": "f242432a",
    "setApprovalForAll(address,bool)": "a22cb465",
    "setURI(string)": "02fe5305",
    "supportsInterface(bytes4)": "01ffc9a7",
    "teams(address)": "c4583240",
    "token()": "fc0c546a",
    "transferOwnership(address)": "f2fde38b",
    "uri(uint256)": "0e89341c",
    "version()": "54fd4d50"
  },
  "id": 1
}