{
  "abi": [
    {
      "inputs": [
        {
          "internalType": "address",
          "name": "initialOwner",
          "type": "address"
        }
      ],
      "stateMutability": "nonpayable",
      "type": "constructor"
    },
    {
      "inputs": [
        {
          "internalType": "address",
          "name": "sender",
          "type": "address"
        },
        {
          "internalType": "uint256",
          "name": "balance",
          "type": "uint256"
        },
        {
          "internalType": "uint256",
          "name": "needed",
          "type": "uint256"
        },
        {
          "internalType": "uint256",
          "name": "tokenId",
          "type": "uint256"
        }
      ],
      "name": "ERC1155InsufficientBalance",
      "type": "error"
    },
    {
      "inputs": [
        {
          "internalType": "address",
          "name": "approver",
          "type": "address"
        }
      ],
      "name": "ERC1155InvalidApprover",
      "type": "error"
    },
    {
      "inputs": [
        {
          "internalType": "uint256",
          "name": "idsLength",
          "type": "uint256"
        },
        {
          "internalType": "uint256",
          "name": "valuesLength",
          "type": "uint256"
        }
      ],
      "name": "ERC1155InvalidArrayLength",
      "type": "error"
    },
    {
      "inputs": [
        {
          "internalType": "address",
          "name": "operator",
          "type": "address"
        }
      ],
      "name": "ERC1155InvalidOperator",
      "type": "error"
    },
    {
      "inputs": [
        {
          "internalType": "address",
          "name": "receiver",
          "type": "address"
        }
      ],
      "name": "ERC1155InvalidReceiver",
      "type": "error"
    },
    {
      "inputs": [
        {
          "internalType": "address",
          "name": "sender",
          "type": "address"
        }
      ],
      "name": "ERC1155InvalidSender",
      "type": "error"
    },
    {
      "inputs": [
        {
          "internalType": "address",
          "name": "operator",
          "type": "address"
        },
        {
          "internalType": "address",
          "name": "owner",
          "type": "address"
        }
      ],
      "name": "ERC1155MissingApprovalForAll",
      "type": "error"
    },
    {
      "inputs": [
        {
          "internalType": "address",
          "name": "owner",
          "type": "address"
        }
      ],
      "name": "OwnableInvalidOwner",
      "type": "error"
    },
    {
      "inputs": [
        {
          "internalType": "address",
          "name": "account",
          "type": "address"
        }
      ],
      "name": "OwnableUnauthorizedAccount",
      "type": "error"
    },
    {
      "anonymous": false,
      "inputs": [
        {
          "indexed": true,
          "internalType": "address",
          "name": "account",
          "type": "address"
        },
        {
          "indexed": true,
          "internalType": "address",
          "name": "operator",
          "type": "address"
        },
        {
          "indexed": false,
          "internalType": "bool",
          "name": "approved",
          "type": "bool"
        }
      ],
      "name": "ApprovalForAll",
      "type": "event"
    },
    {
      "anonymous": false,
      "inputs": [
        {
          "indexed": true,
          "internalType": "address",
          "name": "user",
          "type": "address"
        },
        {
          "indexed": false,
          "internalType": "uint256",
          "name": "tokenId",
          "type": "uint256"
        },
        {
          "indexed": false,
          "internalType": "bool",
          "name": "success",
          "type": "bool"
        }
      ],
      "name": "Exploration",
      "type": "event"
    },
    {
      "anonymous": false,
      "inputs": [
        {
          "indexed": true,
          "internalType": "address",
          "name": "previousOwner",
          "type": "address"
        },
        {
          "indexed": true,
          "internalType": "address",
          "name": "newOwner",
          "type": "address"
        }
      ],
      "name": "OwnershipTransferred",
      "type": "event"
    },
    {
      "anonymous": false,
      "inputs": [
        {
          "indexed": true,
          "internalType": "address",
          "name": "user",
          "type": "address"
        },
        {
          "indexed": false,
          "internalType": "uint256[]",
          "name": "cardIds",
          "type": "uint256[]"
        },
        {
          "indexed": false,
          "internalType": "uint256[]",
          "name": "amounts",
          "type": "uint256[]"
        }
      ],
      "name": "PackOpened",
      "type": "event"
    },
    {
      "anonymous": false,
      "inputs": [
        {
          "indexed": true,
          "internalType": "address",
          "name": "user",
          "type": "address"
        },
        {
          "indexed": false,
          "internalType": "uint256",
          "name": "totalPower",
          "type": "uint256"
        },
        {
          "indexed": false,
          "internalType": "uint256[5]",
          "name": "cardIds",
          "type": "uint256[5]"
        }
      ],
      "name": "TeamCreated",
      "type": "event"
    },
    {
      "anonymous": false,
      "inputs": [
        {
          "indexed": true,
          "internalType": "address",
          "name": "operator",
          "type": "address"
        },
        {
          "indexed": true,
          "internalType": "address",
          "name": "from",
          "type": "address"
        },
        {
          "indexed": true,
          "internalType": "address",
          "name": "to",
          "type": "address"
        },
        {
          "indexed": false,
          "internalType": "uint256[]",
          "name": "ids",
          "type": "uint256[]"
        },
        {
          "indexed": false,
          "internalType": "uint256[]",
          "name": "values",
          "type": "uint256[]"
        }
      ],
      "name": "TransferBatch",
      "type": "event"
    },
    {
      "anonymous": false,
      "inputs": [
        {
          "indexed": true,
          "internalType": "address",
          "name": "operator",
          "type": "address"
        },
        {
          "indexed": true,
          "internalType": "address",
          "name": "from",
          "type": "address"
        },
        {
          "indexed": true,
          "internalType": "address",
          "name": "to",
          "type": "address"
        },
        {
          "indexed": false,
          "internalType": "uint256",
          "name": "id",
          "type": "uint256"
        },
        {
          "indexed": false,
          "internalType": "uint256",
          "name": "value",
          "type": "uint256"
        }
      ],
      "name": "TransferSingle",
      "type": "event"
    },
    {
      "anonymous": false,
      "inputs": [
        {
          "indexed": false,
          "internalType": "string",
          "name": "value",
          "type": "string"
        },
        {
          "indexed": true,
          "internalType": "uint256",
          "name": "id",
          "type": "uint256"
        }
      ],
      "name": "URI",
      "type": "event"
    },
    {
      "inputs": [
        {
          "internalType": "address",
          "name": "account",
          "type": "address"
        },
        {
          "internalType": "uint256",
          "name": "id",
          "type": "uint256"
        }
      ],
      "name": "balanceOf",
      "outputs": [
        {
          "internalType": "uint256",
          "name": "",
          "type": "uint256"
        }
      ],
      "stateMutability": "view",
      "type": "function"
    },
    {
      "inputs": [
        {
          "internalType": "address[]",
          "name": "accounts",
          "type": "address[]"
        },
        {
          "internalType": "uint256[]",
          "name": "ids",
          "type": "uint256[]"
        }
      ],
      "name": "balanceOfBatch",
      "outputs": [
        {
          "internalType": "uint256[]",
          "name": "",
          "type": "uint256[]"
        }
      ],
      "stateMutability": "view",
      "type": "function"
    },
    {
      "inputs": [
        {
          "internalType": "address",
          "name": "account",
          "type": "address"
        },
        {
          "internalType": "uint256",
          "name": "id",
          "type": "uint256"
        },
        {
          "internalType": "uint256",
          "name": "value",
          "type": "uint256"
        }
      ],
      "name": "burn",
      "outputs": [],
      "stateMutability": "nonpayable",
      "type": "function"
    },
    {
      "inputs": [
        {
          "internalType": "address",
          "name": "account",
          "type": "address"
        },
        {
          "internalType": "uint256[]",
          "name": "ids",
          "type": "uint256[]"
        },
        {
          "internalType": "uint256[]",
          "name": "values",
          "type": "uint256[]"
        }
      ],
      "name": "burnBatch",
      "outputs": [],
      "stateMutability": "nonpayable",
      "type": "function"
    },
    {
      "inputs": [
        {
          "internalType": "uint256",
          "name": "",
          "type": "uint256"
        }
      ],
      "name": "cards",
      "outputs": [
        {
          "internalType": "uint256",
          "name": "id",
          "type": "uint256"
        },
        {
          "internalType": "uint256",
          "name": "power",
          "type": "uint256"
        }
      ],
      "stateMutability": "view",
      "type": "function"
    },
    {
      "inputs": [
        {
          "internalType": "uint256[5]",
          "name": "cardIds",
          "type": "uint256[5]"
        }
      ],
      "name": "createTeam",
      "outputs": [],
      "stateMutability": "nonpayable",
      "type": "function"
    },
    {
      "inputs": [],
      "name": "explorationCooldown",
      "outputs": [
        {
          "internalType": "uint256",
          "name": "",
          "type": "uint256"
        }
      ],
      "stateMutability": "view",
      "type": "function"
    },
    {
      "inputs": [
        {
          "internalType": "uint256",
          "name": "tokenId",
          "type": "uint256"
        }
      ],
      "name": "explore",
      "outputs": [],
      "stateMutability": "nonpayable",
      "type": "function"
    },
    {
      "inputs": [
        {
          "internalType": "address",
          "name": "user",
          "type": "address"
        }
      ],
      "name": "getExplorationCooldown",
      "outputs": [
        {
          "internalType": "uint256",
          "name": "",
          "type": "uint256"
        }
      ],
      "stateMutability": "view",
      "type": "function"
    },
    {
      "inputs": [
        {
          "internalType": "address",
          "name": "user",
          "type": "address"
        }
      ],
      "name": "getFreePackCooldown",
      "outputs": [
        {
          "internalType": "uint256",
          "name": "",
          "type": "uint256"
        }
      ],
      "stateMutability": "view",
      "type": "function"
    },
    {
      "inputs": [
        {
          "internalType": "address",
          "name": "account",
          "type": "address"
        },
        {
          "internalType": "address",
          "name": "operator",
          "type": "address"
        }
      ],
      "name": "isApprovedForAll",
      "outputs": [
        {
          "internalType": "bool",
          "name": "",
          "type": "bool"
        }
      ],
      "stateMutability": "view",
      "type": "function"
    },
    {
      "inputs": [
        {
          "internalType": "address",
          "name": "",
          "type": "address"
        }
      ],
      "name": "lastExplorationTime",
      "outputs": [
        {
          "internalType": "uint256",
          "name": "",
          "type": "uint256"
        }
      ],
      "stateMutability": "view",
      "type": "function"
    },
    {
      "inputs": [
        {
          "internalType": "address",
          "name": "",
          "type": "address"
        }
      ],
      "name": "lastOpenedFreePack",
      "outputs": [
        {
          "internalType": "uint256",
          "name": "",
          "type": "uint256"
        }
      ],
      "stateMutability": "view",
      "type": "function"
    },
    {
      "inputs": [
        {
          "internalType": "address",
          "name": "account",
          "type": "address"
        },
        {
          "internalType": "uint256",
          "name": "id",
          "type": "uint256"
        },
        {
          "internalType": "uint256",
          "name": "amount",
          "type": "uint256"
        },
        {
          "internalType": "bytes",
          "name": "data",
          "type": "bytes"
        }
      ],
      "name": "mint",
      "outputs": [],
      "stateMutability": "nonpayable",
      "type": "function"
    },
    {
      "inputs": [
        {
          "internalType": "address",
          "name": "to",
          "type": "address"
        },
        {
          "internalType": "uint256[]",
          "name": "ids",
          "type": "uint256[]"
        },
        {
          "internalType": "uint256[]",
          "name": "amounts",
          "type": "uint256[]"
        },
        {
          "internalType": "bytes",
          "name": "data",
          "type": "bytes"
        }
      ],
      "name": "mintBatch",
      "outputs": [],
      "stateMutability": "nonpayable",
      "type": "function"
    },
    {
      "inputs": [],
      "name": "openBuyPack",
      "outputs": [],
      "stateMutability": "payable",
      "type": "function"
    },
    {
      "inputs": [],
      "name": "openFreePack",
      "outputs": [],
      "stateMutability": "nonpayable",
      "type": "function"
    },
    {
      "inputs": [],
      "name": "owner",
      "outputs": [
        {
          "internalType": "address",
          "name": "",
          "type": "address"
        }
      ],
      "stateMutability": "view",
      "type": "function"
    },
    {
      "inputs": [],
      "name": "packPrice",
      "outputs": [
        {
          "internalType": "uint256",
          "name": "",
          "type": "uint256"
        }
      ],
      "stateMutability": "view",
      "type": "function"
    },
    {
      "inputs": [],
      "name": "renounceOwnership",
      "outputs": [],
      "stateMutability": "nonpayable",
      "type": "function"
    },
    {
      "inputs": [
        {
          "internalType": "address",
          "name": "from",
          "type": "address"
        },
        {
          "internalType": "address",
          "name": "to",
          "type": "address"
        },
        {
          "internalType": "uint256[]",
          "name": "ids",
          "type": "uint256[]"
        },
        {
          "internalType": "uint256[]",
          "name": "values",
          "type": "uint256[]"
        },
        {
          "internalType": "bytes",
          "name": "data",
          "type": "bytes"
        }
      ],
      "name": "safeBatchTransferFrom",
      "outputs": [],
      "stateMutability": "nonpayable",
      "type": "function"
    },
    {
      "inputs": [
        {
          "internalType": "address",
          "name": "from",
          "type": "address"
        },
        {
          "internalType": "address",
          "name": "to",
          "type": "address"
        },
        {
          "internalType": "uint256",
          "name": "id",
          "type": "uint256"
        },
        {
          "internalType": "uint256",
          "name": "value",
          "type": "uint256"
        },
        {
          "internalType": "bytes",
          "name": "data",
          "type": "bytes"
        }
      ],
      "name": "safeTransferFrom",
      "outputs": [],
      "stateMutability": "nonpayable",
      "type": "function"
    },
    {
      "inputs": [
        {
          "internalType": "address",
          "name": "operator",
          "type": "address"
        },
        {
          "internalType": "bool",
          "name": "approved",
          "type": "bool"
        }
      ],
      "name": "setApprovalForAll",
      "outputs": [],
      "stateMutability": "nonpayable",
      "type": "function"
    },
    {
      "inputs": [
        {
          "internalType": "string",
          "name": "newuri",
          "type": "string"
        }
      ],
      "name": "setURI",
      "outputs": [],
      "stateMutability": "nonpayable",
      "type": "function"
    },
    {
      "inputs": [
        {
          "internalType": "address",
          "name": "user",
          "type": "address"
        }
      ],
      "name": "showTeam",
      "outputs": [
        {
          "internalType": "uint256[5]",
          "name": "",
          "type": "uint256[5]"
        }
      ],
      "stateMutability": "view",
      "type": "function"
    },
    {
      "inputs": [
        {
          "internalType": "bytes4",
          "name": "interfaceId",
          "type": "bytes4"
        }
      ],
      "name": "supportsInterface",
      "outputs": [
        {
          "internalType": "bool",
          "name": "",
          "type": "bool"
        }
      ],
      "stateMutability": "view",
      "type": "function"
    },
    {
      "inputs": [
        {
          "internalType": "address",
          "name": "user",
          "type": "address"
        }
      ],
      "name": "teamPower",
      "outputs": [
        {
          "internalType": "uint256",
          "name": "",
          "type": "uint256"
        }
      ],
      "stateMutability": "view",
      "type": "function"
    },
    {
      "inputs": [
        {
          "internalType": "address",
          "name": "",
          "type": "address"
        }
      ],
      "name": "teams",
      "outputs": [
        {
          "internalType": "uint256",
          "name": "totalPower",
          "type": "uint256"
        }
      ],
      "stateMutability": "view",
      "type": "function"
    },
    {
      "inputs": [
        {
          "internalType": "address",
          "name": "newOwner",
          "type": "address"
        }
      ],
      "name": "transferOwnership",
      "outputs": [],
      "stateMutability": "nonpayable",
      "type": "function"
    },
    {
      "inputs": [
        {
          "internalType": "uint256",
          "name": "",
          "type": "uint256"
        }
      ],
      "name": "uri",
      "outputs": [
        {
          "internalType": "string",
          "name": "",
          "type": "string"
        }
      ],
      "stateMutability": "view",
      "type": "function"
    }
  ],
  "bytecode": {
    "object": "0x608060405266038d7ea4c680006004553480156200001c57600080fd5b5060405162003581380380620035818339810160408190526200003f9162000f6d565b60408051602081019091526000815281906200005b81620000a9565b506001600160a01b0381166200008c57604051631e4fbdf760e01b8152600060048201526024015b60405180910390fd5b6200009781620000bb565b50620000a26200010d565b5062001112565b6002620000b7828262001046565b5050565b600380546001600160a01b038381166001600160a01b0319831681179093556040519116919082907f8be0079c531659141344cd1fd0a4f28419497f9722a3daafe3b4186f6b6457e090600090a35050565b6200011762000f3c565b604051806040016040528060008152602001600a815250600560008081526020019081526020016000206000820151816000015560208201518160010155905050604051806040016040528060018152602001600c81525060056000600181526020019081526020016000206000820151816000015560208201518160010155905050604051806040016040528060028152602001600e81525060056000600281526020019081526020016000206000820151816000015560208201518160010155905050604051806040016040528060038152602001601081525060056000600381526020019081526020016000206000820151816000015560208201518160010155905050604051806040016040528060048152602001601281525060056000600481526020019081526020016000206000820151816000015560208201518160010155905050604051806040016040528060058152602001601481525060056000600581526020019081526020016000206000820151816000015560208201518160010155905050604051806040016040528060068152602001601381525060056000600681526020019081526020016000206000820151816000015560208201518160010155905050604051806040016040528060078152602001601181525060056000600781526020019081526020016000206000820151816000015560208201518160010155905050604051806040016040528060088152602001600f81525060056000600881526020019081526020016000206000820151816000015560208201518160010155905050604051806040016040528060098152602001600d815250600560006009815260200190815260200160002060008201518160000155602082015181600101559050506040518060400160405280600a8152602001601981525060056000600a815260200190815260200160002060008201518160000155602082015181600101559050506040518060400160405280600b8152602001601b81525060056000600b815260200190815260200160002060008201518160000155602082015181600101559050506040518060400160405280600c8152602001601e81525060056000600c815260200190815260200160002060008201518160000155602082015181600101559050506040518060400160405280600d8152602001602181525060056000600d815260200190815260200160002060008201518160000155602082015181600101559050506040518060400160405280600e8152602001602381525060056000600e815260200190815260200160002060008201518160000155602082015181600101559050506040518060400160405280600f8152602001602281525060056000600f81526020019081526020016000206000820151816000015560208201518160010155905050604051806040016040528060108152602001602081525060056000601081526020019081526020016000206000820151816000015560208201518160010155905050604051806040016040528060118152602001601e81525060056000601181526020019081526020016000206000820151816000015560208201518160010155905050604051806040016040528060128152602001601c81525060056000601281526020019081526020016000206000820151816000015560208201518160010155905050604051806040016040528060138152602001601a81525060056000601381526020019081526020016000206000820151816000015560208201518160010155905050604051806040016040528060148152602001602881525060056000601481526020019081526020016000206000820151816000015560208201518160010155905050604051806040016040528060158152602001602b81525060056000601581526020019081526020016000206000820151816000015560208201518160010155905050604051806040016040528060168152602001602e815250600560006016815260200190815260200160002060008201518160000155602082015181600101559050506040518060400160405280601781526020016031815250600560006017815260200190815260200160002060008201518160000155602082015181600101559050506040518060400160405280601881526020016032815250600560006018815260200190815260200160002060008201518160000155602082015181600101559050506040518060400160405280601981526020016030815250600560006019815260200190815260200160002060008201518160000155602082015181600101559050506040518060400160405280601a8152602001602e81525060056000601a815260200190815260200160002060008201518160000155602082015181600101559050506040518060400160405280601b8152602001602c81525060056000601b815260200190815260200160002060008201518160000155602082015181600101559050506040518060400160405280601c8152602001602a81525060056000601c815260200190815260200160002060008201518160000155602082015181600101559050506040518060400160405280601d8152602001602881525060056000601d815260200190815260200160002060008201518160000155602082015181600101559050506040518060400160405280601e8152602001603c81525060056000601e815260200190815260200160002060008201518160000155602082015181600101559050506040518060400160405280601f8152602001603f81525060056000601f81526020019081526020016000206000820151816000015560208201518160010155905050604051806040016040528060208152602001604281525060056000602081526020019081526020016000206000820151816000015560208201518160010155905050604051806040016040528060218152602001604581525060056000602181526020019081526020016000206000820151816000015560208201518160010155905050604051806040016040528060228152602001604681525060056000602281526020019081526020016000206000820151816000015560208201518160010155905050604051806040016040528060238152602001604481525060056000602381526020019081526020016000206000820151816000015560208201518160010155905050604051806040016040528060248152602001604281525060056000602481526020019081526020016000206000820151816000015560208201518160010155905050604051806040016040528060258152602001604081525060056000602581526020019081526020016000206000820151816000015560208201518160010155905050604051806040016040528060268152602001603e81525060056000602681526020019081526020016000206000820151816000015560208201518160010155905050604051806040016040528060278152602001603c815250600560006027815260200190815260200160002060008201518160000155602082015181600101559050506040805180820182526028808252605560208084019182526000928352600580825293517f68ec43d1fa25ecab18a22465ce1f8255926468a3d494eb646e020d9745efacba5590517f68ec43d1fa25ecab18a22465ce1f8255926468a3d494eb646e020d9745efacbb55835180850185526029808252605782840190815290845284835290517f3b07644517d2f667e1f84d4fb6c23df68138cb298509f38ac23f8d4d0fa756f455517f3b07644517d2f667e1f84d4fb6c23df68138cb298509f38ac23f8d4d0fa756f55583518085018552602a808252605a82840190815290845284835290517fd3e7a847b0e4be9f2ff1f88564b0a771bb9789c2c82f98679296a6042483791d55517fd3e7a847b0e4be9f2ff1f88564b0a771bb9789c2c82f98679296a6042483791e5583518085018552602b808252605d82840190815290845284835290517feba08e2c8348651115080ff16aec63b0e8f9b0c03ed2a6ca5b8b4f7e25945edf55517feba08e2c8348651115080ff16aec63b0e8f9b0c03ed2a6ca5b8b4f7e25945ee05583518085018552602c808252606482840190815290845284835290517ff741ec76f1fe7f69472258a1aadfdfa26e2ebd1eab0ccf01974a49e36fb53ba455517ff741ec76f1fe7f69472258a1aadfdfa26e2ebd1eab0ccf01974a49e36fb53ba55583518085018552602d808252606182840190815290845284835290517f2eb64dace9e373e1977085b49848a1e4396fe576dfe9452fe2fa0c3fe5f8fba055517f2eb64dace9e373e1977085b49848a1e4396fe576dfe9452fe2fa0c3fe5f8fba15583518085018552602e808252605f82840190815290845284835290517fae270e5247e83553a186c234978857f1a6553a1b52420196e84cc06e71c5126c55517fae270e5247e83553a186c234978857f1a6553a1b52420196e84cc06e71c5126d5583518085018552602f808252605c82840190815290845284835290517f37ddd4560c83ab741802f29a9f0f3a51fcf0dbfd15f8c9ef42cab43805af040f55517f37ddd4560c83ab741802f29a9f0f3a51fcf0dbfd15f8c9ef42cab43805af041055835180850185526030808252605982840190815290845284835290517ff98ab02c2564d0809bdc6b9948bf0bbe855fb6b57200cc712fdd9f8014978f0e55517ff98ab02c2564d0809bdc6b9948bf0bbe855fb6b57200cc712fdd9f8014978f0f5583518085019094526031808552605685830190815292529190915290517f8f74d209ba00c83aad077872353e1c6320e5f9eed7ba50170b85c5792a54dcad55517f8f74d209ba00c83aad077872353e1c6320e5f9eed7ba50170b85c5792a54dcae55565b6003546001600160a01b0316331462000f6b5760405163118cdaa760e01b815233600482015260240162000083565b565b60006020828403121562000f8057600080fd5b81516001600160a01b038116811462000f9857600080fd5b9392505050565b634e487b7160e01b600052604160045260246000fd5b600181811c9082168062000fca57607f821691505b60208210810362000feb57634e487b7160e01b600052602260045260246000fd5b50919050565b601f82111562001041576000816000526020600020601f850160051c810160208610156200101c5750805b601f850160051c820191505b818110156200103d5782815560010162001028565b5050505b505050565b81516001600160401b0381111562001062576200106262000f9f565b6200107a8162001073845462000fb5565b8462000ff1565b602080601f831160018114620010b25760008415620010995750858301515b600019600386901b1c1916600185901b1785556200103d565b600085815260208120601f198616915b82811015620010e357888601518255948401946001909101908401620010c2565b5085821015620011025787850151600019600388901b60f8161c191681555b5050505050600190811b01905550565b61245f80620011226000396000f3fe6080604052600436106101cc5760003560e01c8063715018a6116100f7578063ac8c733d11610095578063f242432a11610064578063f242432a14610566578063f2fde38b14610586578063f5298aca146105a6578063fcbffde0146105c657600080fd5b8063ac8c733d146104e4578063c4583240146104f9578063dcd1536714610526578063e985e9c51461054657600080fd5b80638dc10768116100d15780638dc10768146104535780638f04f1661461049c578063923c1a06146104a4578063a22cb465146104c457600080fd5b8063715018a6146103f6578063731133e91461040b5780638da5cb5b1461042b57600080fd5b80632eb2c2d61161016f5780634e1273f41161013e5780634e1273f41461035c578063500ccabf146103895780636457e389146103b65780636b20c454146103d657600080fd5b80632eb2c2d6146102e3578063335c8b63146103035780633b584960146103195780633bf3812b1461032f57600080fd5b80630e89341c116101ab5780630e89341c146102565780631312b24e146102835780631f7fdffa146102a35780632535e0dd146102c357600080fd5b8062fdd58e146101d157806301ffc9a71461020457806302fe530514610234575b600080fd5b3480156101dd57600080fd5b506101f16101ec366004611a52565b6105f3565b6040519081526020015b60405180910390f35b34801561021057600080fd5b5061022461021f366004611a92565b61061b565b60405190151581526020016101fb565b34801561024057600080fd5b5061025461024f366004611b55565b61066b565b005b34801561026257600080fd5b50610276610271366004611b9e565b61067f565b6040516101fb9190611bfd565b34801561028f57600080fd5b506101f161029e366004611c10565b610713565b3480156102af57600080fd5b506102546102be366004611cde565b61075f565b3480156102cf57600080fd5b506101f16102de366004611c10565b610779565b3480156102ef57600080fd5b506102546102fe366004611d77565b61079f565b34801561030f57600080fd5b506101f160045481565b34801561032557600080fd5b506101f161384081565b34801561033b57600080fd5b506101f161034a366004611c10565b60086020526000908152604090205481565b34801561036857600080fd5b5061037c610377366004611e21565b61080b565b6040516101fb9190611f1d565b34801561039557600080fd5b506101f16103a4366004611c10565b60076020526000908152604090205481565b3480156103c257600080fd5b506102546103d1366004611b9e565b6108d8565b3480156103e257600080fd5b506102546103f1366004611f30565b610afd565b34801561040257600080fd5b50610254610b5c565b34801561041757600080fd5b50610254610426366004611fa4565b610b70565b34801561043757600080fd5b506003546040516001600160a01b0390911681526020016101fb565b34801561045f57600080fd5b5061048761046e366004611b9e565b6005602052600090815260409020805460019091015482565b604080519283526020830191909152016101fb565b610254610b84565b3480156104b057600080fd5b506102546104bf366004611ff9565b610c1e565b3480156104d057600080fd5b506102546104df366004612021565b610d8c565b3480156104f057600080fd5b50610254610d9b565b34801561050557600080fd5b506101f1610514366004611c10565b60066020526000908152604090205481565b34801561053257600080fd5b506101f1610541366004611c10565b610e31565b34801561055257600080fd5b5061022461056136600461205d565b610eaa565b34801561057257600080fd5b50610254610581366004612090565b610ed8565b34801561059257600080fd5b506102546105a1366004611c10565b610f37565b3480156105b257600080fd5b506102546105c13660046120f5565b610f72565b3480156105d257600080fd5b506105e66105e1366004611c10565b610fa8565b6040516101fb9190612128565b6000818152602081815260408083206001600160a01b03861684529091529020545b92915050565b60006001600160e01b03198216636cdb3d1360e11b148061064c57506001600160e01b031982166303a24d0760e21b145b8061061557506301ffc9a760e01b6001600160e01b0319831614610615565b610673611001565b61067c8161102e565b50565b60606002805461068e90612159565b80601f01602080910402602001604051908101604052809291908181526020018280546106ba90612159565b80156107075780601f106106dc57610100808354040283529160200191610707565b820191906000526020600020905b8154815290600101906020018083116106ea57829003601f168201915b50505050509050919050565b6001600160a01b0381166000908152600760205260408120548161073a82620151806121a3565b905080421061074d575060009392505050565b61075742826121b6565b949350505050565b610767611001565b6107738484848461103a565b50505050565b6001600160a01b0381166000908152600860205260408120548161073a613840836121a3565b336001600160a01b03861681148015906107c057506107be8682610eaa565b155b156107f65760405163711bec9160e11b81526001600160a01b038083166004830152871660248201526044015b60405180910390fd5b6108038686868686611072565b505050505050565b6060815183511461083c5781518351604051635b05999160e01b8152600481019290925260248201526044016107ed565b6000835167ffffffffffffffff81111561085857610858611ab6565b604051908082528060200260200182016040528015610881578160200160208202803683370190505b50905060005b84518110156108d0576020808202860101516108ab906020808402870101516105f3565b8282815181106108bd576108bd6121c9565b6020908102919091010152600101610887565b509392505050565b60006108e433836105f3565b116109315760405162461bcd60e51b815260206004820152601760248201527f596f7520646f206e6f74206f776e2074686973204e465400000000000000000060448201526064016107ed565b33600090815260086020526040902054429061095090613840906121a3565b11156109a85760405162461bcd60e51b815260206004820152602160248201527f4578706c6f726174696f6e20636f6f6c646f776e206e6f74206f7665722079656044820152601d60fa1b60648201526084016107ed565b336000908152600860205260408120429055600a8210156109cb5750600a610a02565b60148210156109dc5750600f610a02565b601e8210156109ed57506019610a02565b60288210156109fe57506032610a02565b5060635b60006064610a116001436121b6565b60408051914060208301526bffffffffffffffffffffffff193360601b1690820152605481018590526074016040516020818303038152906040528051906020012060001c610a6091906121f5565b905081811015610ab457610a73336110d9565b604080518481526001602082015233917f881e6a2d6e6ccc01db8059143b38355253b44e9248b47164c5f720b0ccfbefa091015b60405180910390a2505050565b610ac0338460016112d0565b604080518481526000602082015233917f881e6a2d6e6ccc01db8059143b38355253b44e9248b47164c5f720b0ccfbefa09101610aa7565b505050565b6001600160a01b0383163314801590610b1d5750610b1b8333610eaa565b155b15610b5157335b60405163711bec9160e11b81526001600160a01b03918216600482015290841660248201526044016107ed565b610af8838383611338565b610b64611001565b610b6e600061137e565b565b610b78611001565b610773848484846113d0565b600454341015610bce5760405162461bcd60e51b8152602060048201526015602482015274125b9cdd59999a58da595b9d08115512081cd95b9d605a1b60448201526064016107ed565b600454341115610c155760045433906108fc90610beb90346121b6565b6040518115909202916000818181858888f19350505050158015610c13573d6000803e3d6000fd5b505b610b6e336110d9565b6000805b6005811015610ce2576000610c4d33858460058110610c4357610c436121c9565b60200201356105f3565b11610c9a5760405162461bcd60e51b815260206004820152601b60248201527f5573657220646f6573206e6f74206f776e20746869732063617264000000000060448201526064016107ed565b600060056000858460058110610cb257610cb26121c9565b602002013581526020019081526020016000209050806001015483610cd791906121a3565b925050600101610c22565b506040518060400160405280828152602001836005806020026040519081016040528092919082600560200280828437600092018290525092909352503381526006602090815260409091208351815590830151909150610d4990600183019060056119c5565b50506040513391507f526177b3a45653ba9e9109c6159e36d32ef4916e007026750988e8cef5b9bd3690610d809084908690612209565b60405180910390a25050565b610d9733838361142d565b5050565b336000908152600760205260409020546201518090610dba90426121b6565b1015610e145760405162461bcd60e51b815260206004820152602360248201527f4d757374207761697420312064617920746f206f70656e20612066726565207060448201526261636b60e81b60648201526084016107ed565b610e1d336110d9565b336000908152600760205260409020429055565b6001600160a01b038116600090815260066020526040812081805b60058110156108d0576000836001018260058110610e6c57610e6c6121c9565b015490506000610e7c87836105f3565b1115610ea157600081815260056020526040902060010154610e9e90846121a3565b92505b50600101610e4c565b6001600160a01b03918216600090815260016020908152604080832093909416825291909152205460ff1690565b336001600160a01b0386168114801590610ef95750610ef78682610eaa565b155b15610f2a5760405163711bec9160e11b81526001600160a01b038083166004830152871660248201526044016107ed565b61080386868686866114c3565b610f3f611001565b6001600160a01b038116610f6957604051631e4fbdf760e01b8152600060048201526024016107ed565b61067c8161137e565b6001600160a01b0383163314801590610f925750610f908333610eaa565b155b15610f9d5733610b24565b610af88383836112d0565b610fb0611a03565b6001600160a01b03821660009081526006602052604090819020815160a08101928390529091600183019060059082845b815481526020019060010190808311610fe1575050505050915050919050565b6003546001600160a01b03163314610b6e5760405163118cdaa760e01b81523360048201526024016107ed565b6002610d978282612267565b6001600160a01b03841661106457604051632bfa23e760e11b8152600060048201526024016107ed565b610773600085858585611551565b6001600160a01b03841661109c57604051632bfa23e760e11b8152600060048201526024016107ed565b6001600160a01b0385166110c557604051626a0d4560e21b8152600060048201526024016107ed565b6110d28585858585611551565b5050505050565b60408051600580825260c082019092526000916020820160a080368337505060408051600580825260c0820190925292935060009291506020820160a08036833701905050905060005b60058110156112795760006111396001436121b6565b60408051914060208301526bffffffffffffffffffffffff19606088901b16908201526054810183905260740160408051601f1981840301815291905280516020909101209050600061118d6064836121f5565b90506000600a61119e606485612327565b6111a891906121f5565b9050603c8210156111d757808685815181106111c6576111c66121c9565b60200260200101818152505061124f565b60548210156111fd576111eb81600a6121a3565b8685815181106111c6576111c66121c9565b605e821015611211576111eb8160146121a3565b6063821015611225576111eb81601e6121a3565b6112308160286121a3565b868581518110611242576112426121c9565b6020026020010181815250505b6001858581518110611263576112636121c9565b6020908102919091010152505050600101611123565b506112958383836040518060200160405280600081525061103a565b826001600160a01b03167ff7abfe87506a99dfe239c7c8cdb614b8c0bd515135b3897f983d0dd4c657aeaf8383604051610aa792919061233b565b6001600160a01b0383166112f957604051626a0d4560e21b8152600060048201526024016107ed565b604080516001808252602082018590528183019081526060820184905260a082019092526000608082018181529192916110d291879185908590611551565b6001600160a01b03831661136157604051626a0d4560e21b8152600060048201526024016107ed565b610af8836000848460405180602001604052806000815250611551565b600380546001600160a01b038381166001600160a01b0319831681179093556040519116919082907f8be0079c531659141344cd1fd0a4f28419497f9722a3daafe3b4186f6b6457e090600090a35050565b6001600160a01b0384166113fa57604051632bfa23e760e11b8152600060048201526024016107ed565b60408051600180825260208201869052818301908152606082018590526080820190925290610803600087848487611551565b6001600160a01b0382166114565760405162ced3e160e81b8152600060048201526024016107ed565b6001600160a01b03838116600081815260016020908152604080832094871680845294825291829020805460ff191686151590811790915591519182527f17307eab39ab6107e8899845ad3d59bd9653f200f220920489ca2b5937696c31910160405180910390a3505050565b6001600160a01b0384166114ed57604051632bfa23e760e11b8152600060048201526024016107ed565b6001600160a01b03851661151657604051626a0d4560e21b8152600060048201526024016107ed565b604080516001808252602082018690528183019081526060820185905260808201909252906115488787848487611551565b50505050505050565b61155d858585856115a4565b6001600160a01b038416156110d25782513390600103611596576020848101519084015161158f8389898585896117b8565b5050610803565b6108038187878787876118dc565b80518251146115d35781518151604051635b05999160e01b8152600481019290925260248201526044016107ed565b3360005b83518110156116d9576020818102858101820151908501909101516001600160a01b0388161561168a576000828152602081815260408083206001600160a01b038c16845290915290205481811015611663576040516303dee4c560e01b81526001600160a01b038a1660048201526024810182905260448101839052606481018490526084016107ed565b6000838152602081815260408083206001600160a01b038d16845290915290209082900390555b6001600160a01b038716156116cf576000828152602081815260408083206001600160a01b038b168452909152812080548392906116c99084906121a3565b90915550505b50506001016115d7565b50825160010361175a5760208301516000906020840151909150856001600160a01b0316876001600160a01b0316846001600160a01b03167fc3d58168c5ae7397731d063d5bbf3d657854427343f4c083240f7aacaa2d0f62858560405161174b929190918252602082015260400190565b60405180910390a450506110d2565b836001600160a01b0316856001600160a01b0316826001600160a01b03167f4a39dc06d4c0dbc64b70af90fd698a233a518aa5d07e595d983b8c0526c8f7fb86866040516117a992919061233b565b60405180910390a45050505050565b6001600160a01b0384163b156108035760405163f23a6e6160e01b81526001600160a01b0385169063f23a6e61906117fc9089908990889088908890600401612369565b6020604051808303816000875af1925050508015611837575060408051601f3d908101601f19168201909252611834918101906123ae565b60015b6118a0573d808015611865576040519150601f19603f3d011682016040523d82523d6000602084013e61186a565b606091505b50805160000361189857604051632bfa23e760e11b81526001600160a01b03861660048201526024016107ed565b805181602001fd5b6001600160e01b0319811663f23a6e6160e01b1461154857604051632bfa23e760e11b81526001600160a01b03861660048201526024016107ed565b6001600160a01b0384163b156108035760405163bc197c8160e01b81526001600160a01b0385169063bc197c819061192090899089908890889088906004016123cb565b6020604051808303816000875af192505050801561195b575060408051601f3d908101601f19168201909252611958918101906123ae565b60015b611989573d808015611865576040519150601f19603f3d011682016040523d82523d6000602084013e61186a565b6001600160e01b0319811663bc197c8160e01b1461154857604051632bfa23e760e11b81526001600160a01b03861660048201526024016107ed565b82600581019282156119f3579160200282015b828111156119f35782518255916020019190600101906119d8565b506119ff929150611a21565b5090565b6040518060a001604052806005906020820280368337509192915050565b5b808211156119ff5760008155600101611a22565b80356001600160a01b0381168114611a4d57600080fd5b919050565b60008060408385031215611a6557600080fd5b611a6e83611a36565b946020939093013593505050565b6001600160e01b03198116811461067c57600080fd5b600060208284031215611aa457600080fd5b8135611aaf81611a7c565b9392505050565b634e487b7160e01b600052604160045260246000fd5b604051601f8201601f1916810167ffffffffffffffff81118282101715611af557611af5611ab6565b604052919050565b600067ffffffffffffffff831115611b1757611b17611ab6565b611b2a601f8401601f1916602001611acc565b9050828152838383011115611b3e57600080fd5b828260208301376000602084830101529392505050565b600060208284031215611b6757600080fd5b813567ffffffffffffffff811115611b7e57600080fd5b8201601f81018413611b8f57600080fd5b61075784823560208401611afd565b600060208284031215611bb057600080fd5b5035919050565b6000815180845260005b81811015611bdd57602081850181015186830182015201611bc1565b506000602082860101526020601f19601f83011685010191505092915050565b602081526000611aaf6020830184611bb7565b600060208284031215611c2257600080fd5b611aaf82611a36565b600067ffffffffffffffff821115611c4557611c45611ab6565b5060051b60200190565b600082601f830112611c6057600080fd5b81356020611c75611c7083611c2b565b611acc565b8083825260208201915060208460051b870101935086841115611c9757600080fd5b602086015b84811015611cb35780358352918301918301611c9c565b509695505050505050565b600082601f830112611ccf57600080fd5b611aaf83833560208501611afd565b60008060008060808587031215611cf457600080fd5b611cfd85611a36565b9350602085013567ffffffffffffffff80821115611d1a57600080fd5b611d2688838901611c4f565b94506040870135915080821115611d3c57600080fd5b611d4888838901611c4f565b93506060870135915080821115611d5e57600080fd5b50611d6b87828801611cbe565b91505092959194509250565b600080600080600060a08688031215611d8f57600080fd5b611d9886611a36565b9450611da660208701611a36565b9350604086013567ffffffffffffffff80821115611dc357600080fd5b611dcf89838a01611c4f565b94506060880135915080821115611de557600080fd5b611df189838a01611c4f565b93506080880135915080821115611e0757600080fd5b50611e1488828901611cbe565b9150509295509295909350565b60008060408385031215611e3457600080fd5b823567ffffffffffffffff80821115611e4c57600080fd5b818501915085601f830112611e6057600080fd5b81356020611e70611c7083611c2b565b82815260059290921b84018101918181019089841115611e8f57600080fd5b948201945b83861015611eb457611ea586611a36565b82529482019490820190611e94565b96505086013592505080821115611eca57600080fd5b50611ed785828601611c4f565b9150509250929050565b60008151808452602080850194506020840160005b83811015611f1257815187529582019590820190600101611ef6565b509495945050505050565b602081526000611aaf6020830184611ee1565b600080600060608486031215611f4557600080fd5b611f4e84611a36565b9250602084013567ffffffffffffffff80821115611f6b57600080fd5b611f7787838801611c4f565b93506040860135915080821115611f8d57600080fd5b50611f9a86828701611c4f565b9150509250925092565b60008060008060808587031215611fba57600080fd5b611fc385611a36565b93506020850135925060408501359150606085013567ffffffffffffffff811115611fed57600080fd5b611d6b87828801611cbe565b600060a0828403121561200b57600080fd5b8260a08301111561201b57600080fd5b50919050565b6000806040838503121561203457600080fd5b61203d83611a36565b91506020830135801515811461205257600080fd5b809150509250929050565b6000806040838503121561207057600080fd5b61207983611a36565b915061208760208401611a36565b90509250929050565b600080600080600060a086880312156120a857600080fd5b6120b186611a36565b94506120bf60208701611a36565b93506040860135925060608601359150608086013567ffffffffffffffff8111156120e957600080fd5b611e1488828901611cbe565b60008060006060848603121561210a57600080fd5b61211384611a36565b95602085013595506040909401359392505050565b60a08101818360005b6005811015612150578151835260209283019290910190600101612131565b50505092915050565b600181811c9082168061216d57607f821691505b60208210810361201b57634e487b7160e01b600052602260045260246000fd5b634e487b7160e01b600052601160045260246000fd5b808201808211156106155761061561218d565b818103818111156106155761061561218d565b634e487b7160e01b600052603260045260246000fd5b634e487b7160e01b600052601260045260246000fd5b600082612204576122046121df565b500690565b82815260c0810160a08360208401379392505050565b601f821115610af8576000816000526020600020601f850160051c810160208610156122485750805b601f850160051c820191505b8181101561080357828155600101612254565b815167ffffffffffffffff81111561228157612281611ab6565b6122958161228f8454612159565b8461221f565b602080601f8311600181146122ca57600084156122b25750858301515b600019600386901b1c1916600185901b178555610803565b600085815260208120601f198616915b828110156122f9578886015182559484019460019091019084016122da565b50858210156123175787850151600019600388901b60f8161c191681555b5050505050600190811b01905550565b600082612336576123366121df565b500490565b60408152600061234e6040830185611ee1565b82810360208401526123608185611ee1565b95945050505050565b6001600160a01b03868116825285166020820152604081018490526060810183905260a0608082018190526000906123a390830184611bb7565b979650505050505050565b6000602082840312156123c057600080fd5b8151611aaf81611a7c565b6001600160a01b0386811682528516602082015260a0604082018190526000906123f790830186611ee1565b82810360608401526124098186611ee1565b9050828103608084015261241d8185611bb7565b9897505050505050505056fea2646970667358221220e8114d71a555f27270a66f778cd29179c9e335046c75312661a68c8661131c9364736f6c63430008170033",
    "linkReferences": {}
  },
  "methodIdentifiers": {
    "balanceOf(address,uint256)": "00fdd58e",
    "balanceOfBatch(address[],uint256[])": "4e1273f4",
    "burn(address,uint256,uint256)": "f5298aca",
    "burnBatch(address,uint256[],uint256[])": "6b20c454",
    "cards(uint256)": "8dc10768",
    "createTeam(uint256[5])": "923c1a06",
    "explorationCooldown()": "3b584960",
    "explore(uint256)": "6457e389",
    "getExplorationCooldown(address)": "2535e0dd",
    "getFreePackCooldown(address)": "1312b24e",
    "isApprovedForAll(address,address)": "e985e9c5",
    "lastExplorationTime(address)": "3bf3812b",
    "lastOpenedFreePack(address)": "500ccabf",
    "mint(address,uint256,uint256,bytes)": "731133e9",
    "mintBatch(address,uint256[],uint256[],bytes)": "1f7fdffa",
    "openBuyPack()": "8f04f166",
    "openFreePack()": "ac8c733d",
    "owner()": "8da5cb5b",
    "packPrice()": "335c8b63",
    "renounceOwnership()": "715018a6",
    "safeBatchTransferFrom(address,address,uint256[],uint256[],bytes)": "2eb2c2d6",
    "safeTransferFrom(address,address,uint256,uint256,bytes)": "f242432a",
    "setApprovalForAll(address,bool)": "a22cb465",
    "setURI(string)": "02fe5305",
    "showTeam(address)": "fcbffde0",
    "supportsInterface(bytes4)": "01ffc9a7",
    "teamPower(address)": "dcd15367",
    "teams(address)": "c4583240",
    "transferOwnership(address)": "f2fde38b",
    "uri(uint256)": "0e89341c"
  },
  "id": 0
}