{
  "abi": [
    {
      "anonymous": false,
      "inputs": [
        {
          "indexed": false,
          "internalType": "address",
          "name": "beneficiary",
          "type": "address"
        },
        {
          "indexed": false,
          "internalType": "uint256",
          "name": "amount",
          "type": "uint256"
        }
      ],
      "name": "TokenAirdrop",
      "type": "event"
    },
    {
      "inputs": [
        {
          "internalType": "address payable[]",
          "name": "_addresses",
          "type": "address[]"
        },
        {
          "internalType": "uint256[]",
          "name": "_amounts",
          "type": "uint256[]"
        }
      ],
      "name": "_airdropMATIC",
      "outputs": [
        {
          "internalType": "bool",
          "name": "",
          "type": "bool"
        }
      ],
      "stateMutability": "payable",
      "type": "function"
    },
    {
      "inputs": [
        {
          "internalType": "uint256[]",
          "name": "_arr",
          "type": "uint256[]"
        }
      ],
      "name": "getSum",
      "outputs": [
        {
          "internalType": "uint256",
          "name": "sum",
          "type": "uint256"
        }
      ],
      "stateMutability": "pure",
      "type": "function"
    }
  ],
  "bytecode": {
    "object": "0x608060405234801561001057600080fd5b5061043b806100206000396000f3fe6080604052600436106100295760003560e01c80636917371f1461002e578063ccb8c1e014610056575b600080fd5b61004161003c3660046102ea565b610084565b60405190151581526020015b60405180910390f35b34801561006257600080fd5b50610076610071366004610356565b61025d565b60405190815260200161004d565b60008382146100ed5760405162461bcd60e51b815260206004820152602a60248201527f4c656e67746873206f662041646472657373657320616e6420416d6f756e7473604482015269081393d508115455505360b21b60648201526084015b60405180910390fd5b60006100f9848461025d565b90508034146101425760405162461bcd60e51b81526020600482015260156024820152742a3930b739b332b91030b6b7bab73a1032b93937b960591b60448201526064016100e4565b60005b858110156102505786868281811061015f5761015f610398565b905060200201602081019061017491906103ae565b6001600160a01b03166108fc86868481811061019257610192610398565b905060200201359081150290604051600060405180830381858888f193505050501580156101c4573d6000803e3d6000fd5b507f87bc0fc6d8dc230a2e147ddc101c27a3dab51eb54eb8e75ee269883777ef17c68787838181106101f8576101f8610398565b905060200201602081019061020d91906103ae565b86868481811061021f5761021f610398565b604080516001600160a01b0390951685526020918202939093013590840152500160405180910390a1600101610145565b5060019695505050505050565b6000805b828110156102975783838281811061027b5761027b610398565b905060200201358261028d91906103de565b9150600101610261565b5092915050565b60008083601f8401126102b057600080fd5b50813567ffffffffffffffff8111156102c857600080fd5b6020830191508360208260051b85010111156102e357600080fd5b9250929050565b6000806000806040858703121561030057600080fd5b843567ffffffffffffffff8082111561031857600080fd5b6103248883890161029e565b9096509450602087013591508082111561033d57600080fd5b5061034a8782880161029e565b95989497509550505050565b6000806020838503121561036957600080fd5b823567ffffffffffffffff81111561038057600080fd5b61038c8582860161029e565b90969095509350505050565b634e487b7160e01b600052603260045260246000fd5b6000602082840312156103c057600080fd5b81356001600160a01b03811681146103d757600080fd5b9392505050565b808201808211156103ff57634e487b7160e01b600052601160045260246000fd5b9291505056fea2646970667358221220cd3f60a3222f01d41c47d50cf8be010f9661e9854d14b4daddbcae838a89cd8164736f6c63430008170033",
    "linkReferences": {}
  },
  "methodIdentifiers": {
    "_airdropMATIC(address[],uint256[])": "6917371f",
    "getSum(uint256[])": "ccb8c1e0"
  },
  "id": 0
}